{
	"basic-101/Function.sol": {
		"Function": {
			"abi": [
				{
					"inputs": [],
					"name": "assigned",
					"outputs": [
						{
							"internalType": "uint256",
							"name": "x",
							"type": "uint256"
						},
						{
							"internalType": "bool",
							"name": "b",
							"type": "bool"
						},
						{
							"internalType": "uint256",
							"name": "y",
							"type": "uint256"
						}
					],
					"stateMutability": "pure",
					"type": "function"
				},
				{
					"inputs": [],
					"name": "destructuring",
					"outputs": [
						{
							"internalType": "uint256",
							"name": "",
							"type": "uint256"
						},
						{
							"internalType": "bool",
							"name": "",
							"type": "bool"
						},
						{
							"internalType": "uint256",
							"name": "",
							"type": "uint256"
						},
						{
							"internalType": "uint256",
							"name": "",
							"type": "uint256"
						},
						{
							"internalType": "uint256",
							"name": "",
							"type": "uint256"
						}
					],
					"stateMutability": "pure",
					"type": "function"
				},
				{
					"inputs": [],
					"name": "named",
					"outputs": [
						{
							"internalType": "uint256",
							"name": "x",
							"type": "uint256"
						},
						{
							"internalType": "bool",
							"name": "b",
							"type": "bool"
						},
						{
							"internalType": "uint256",
							"name": "y",
							"type": "uint256"
						}
					],
					"stateMutability": "pure",
					"type": "function"
				},
				{
					"inputs": [],
					"name": "returnMany",
					"outputs": [
						{
							"internalType": "uint256",
							"name": "",
							"type": "uint256"
						},
						{
							"internalType": "bool",
							"name": "",
							"type": "bool"
						},
						{
							"internalType": "uint256",
							"name": "",
							"type": "uint256"
						}
					],
					"stateMutability": "pure",
					"type": "function"
				}
			],
			"devdoc": {
				"kind": "dev",
				"methods": {},
				"version": 1
			},
			"evm": {
				"assembly": "    /* \"basic-101/Function.sol\":58:886  contract Function {... */\n  mstore(0x40, 0x80)\n  callvalue\n  dup1\n  iszero\n  tag_1\n  jumpi\n  0x00\n  dup1\n  revert\ntag_1:\n  pop\n  dataSize(sub_0)\n  dup1\n  dataOffset(sub_0)\n  0x00\n  codecopy\n  0x00\n  return\nstop\n\nsub_0: assembly {\n        /* \"basic-101/Function.sol\":58:886  contract Function {... */\n      mstore(0x40, 0x80)\n      callvalue\n      dup1\n      iszero\n      tag_1\n      jumpi\n      0x00\n      dup1\n      revert\n    tag_1:\n      pop\n      jumpi(tag_2, lt(calldatasize, 0x04))\n      shr(0xe0, calldataload(0x00))\n      dup1\n      0x45f907a8\n      eq\n      tag_3\n      jumpi\n      dup1\n      0x7297237f\n      eq\n      tag_4\n      jumpi\n      dup1\n      0x86887544\n      eq\n      tag_5\n      jumpi\n      dup1\n      0xadb4d990\n      eq\n      tag_6\n      jumpi\n    tag_2:\n      0x00\n      dup1\n      revert\n        /* \"basic-101/Function.sol\":248:340  function named() public pure returns (uint x, bool b, uint y) {... */\n    tag_3:\n      tag_7\n      tag_8\n      jump\t// in\n    tag_7:\n      mload(0x40)\n      tag_9\n      swap4\n      swap3\n      swap2\n      swap1\n      tag_10\n      jump\t// in\n    tag_9:\n      mload(0x40)\n      dup1\n      swap2\n      sub\n      swap1\n      return\n        /* \"basic-101/Function.sol\":656:884  function destructuring() public pure returns (uint , bool , uint , uint, uint) {... */\n    tag_4:\n      tag_11\n      tag_12\n      jump\t// in\n    tag_11:\n      mload(0x40)\n      tag_13\n      swap6\n      swap5\n      swap4\n      swap3\n      swap2\n      swap1\n      tag_14\n      jump\t// in\n    tag_13:\n      mload(0x40)\n      dup1\n      swap2\n      sub\n      swap1\n      return\n        /* \"basic-101/Function.sol\":122:213  function returnMany() public pure returns (uint, bool, uint) {... */\n    tag_5:\n      tag_15\n      tag_16\n      jump\t// in\n    tag_15:\n      mload(0x40)\n      tag_17\n      swap4\n      swap3\n      swap2\n      swap1\n      tag_10\n      jump\t// in\n    tag_17:\n      mload(0x40)\n      dup1\n      swap2\n      sub\n      swap1\n      return\n        /* \"basic-101/Function.sol\":448:554  function assigned() public pure returns (uint x, bool b, uint y) {... */\n    tag_6:\n      tag_18\n      tag_19\n      jump\t// in\n    tag_18:\n      mload(0x40)\n      tag_20\n      swap4\n      swap3\n      swap2\n      swap1\n      tag_10\n      jump\t// in\n    tag_20:\n      mload(0x40)\n      dup1\n      swap2\n      sub\n      swap1\n      return\n        /* \"basic-101/Function.sol\":248:340  function named() public pure returns (uint x, bool b, uint y) {... */\n    tag_8:\n        /* \"basic-101/Function.sol\":286:292  uint x */\n      0x00\n        /* \"basic-101/Function.sol\":294:300  bool b */\n      dup1\n        /* \"basic-101/Function.sol\":302:308  uint y */\n      0x00\n        /* \"basic-101/Function.sol\":324:325  1 */\n      0x01\n        /* \"basic-101/Function.sol\":327:331  true */\n      dup1\n        /* \"basic-101/Function.sol\":333:334  2 */\n      0x02\n        /* \"basic-101/Function.sol\":316:335  return (1, true, 2) */\n      swap3\n      pop\n      swap3\n      pop\n      swap3\n      pop\n        /* \"basic-101/Function.sol\":248:340  function named() public pure returns (uint x, bool b, uint y) {... */\n      swap1\n      swap2\n      swap3\n      jump\t// out\n        /* \"basic-101/Function.sol\":656:884  function destructuring() public pure returns (uint , bool , uint , uint, uint) {... */\n    tag_12:\n        /* \"basic-101/Function.sol\":702:706  uint */\n      0x00\n        /* \"basic-101/Function.sol\":709:713  bool */\n      dup1\n        /* \"basic-101/Function.sol\":716:720  uint */\n      0x00\n        /* \"basic-101/Function.sol\":723:727  uint */\n      dup1\n        /* \"basic-101/Function.sol\":729:733  uint */\n      0x00\n        /* \"basic-101/Function.sol\":742:748  uint i */\n      dup1\n        /* \"basic-101/Function.sol\":750:756  bool b */\n      0x00\n        /* \"basic-101/Function.sol\":758:764  uint j */\n      dup1\n        /* \"basic-101/Function.sol\":768:780  returnMany() */\n      tag_23\n        /* \"basic-101/Function.sol\":768:778  returnMany */\n      tag_16\n        /* \"basic-101/Function.sol\":768:780  returnMany() */\n      jump\t// in\n    tag_23:\n        /* \"basic-101/Function.sol\":741:780  (uint i, bool b, uint j) = returnMany() */\n      swap3\n      pop\n      swap3\n      pop\n      swap3\n      pop\n        /* \"basic-101/Function.sol\":818:824  uint x */\n      0x00\n        /* \"basic-101/Function.sol\":827:833  uint y */\n      dup1\n        /* \"basic-101/Function.sol\":838:839  4 */\n      0x04\n        /* \"basic-101/Function.sol\":841:842  5 */\n      0x05\n        /* \"basic-101/Function.sol\":844:845  6 */\n      0x06\n        /* \"basic-101/Function.sol\":817:846  (uint x, ,uint y) = (4, 5, 6) */\n      swap3\n      pop\n      pop\n      swap2\n      pop\n        /* \"basic-101/Function.sol\":865:866  i */\n      dup5\n        /* \"basic-101/Function.sol\":868:869  b */\n      dup5\n        /* \"basic-101/Function.sol\":871:872  j */\n      dup5\n        /* \"basic-101/Function.sol\":874:875  x */\n      dup5\n        /* \"basic-101/Function.sol\":877:878  y */\n      dup5\n        /* \"basic-101/Function.sol\":857:879  return (i, b, j, x, y) */\n      swap10\n      pop\n      swap10\n      pop\n      swap10\n      pop\n      swap10\n      pop\n      swap10\n      pop\n      pop\n      pop\n      pop\n      pop\n      pop\n        /* \"basic-101/Function.sol\":656:884  function destructuring() public pure returns (uint , bool , uint , uint, uint) {... */\n      swap1\n      swap2\n      swap3\n      swap4\n      swap5\n      jump\t// out\n        /* \"basic-101/Function.sol\":122:213  function returnMany() public pure returns (uint, bool, uint) {... */\n    tag_16:\n        /* \"basic-101/Function.sol\":165:169  uint */\n      0x00\n        /* \"basic-101/Function.sol\":171:175  bool */\n      dup1\n        /* \"basic-101/Function.sol\":177:181  uint */\n      0x00\n        /* \"basic-101/Function.sol\":197:198  1 */\n      0x01\n        /* \"basic-101/Function.sol\":200:204  true */\n      dup1\n        /* \"basic-101/Function.sol\":206:207  2 */\n      0x02\n        /* \"basic-101/Function.sol\":189:208  return (1, true, 2) */\n      swap3\n      pop\n      swap3\n      pop\n      swap3\n      pop\n        /* \"basic-101/Function.sol\":122:213  function returnMany() public pure returns (uint, bool, uint) {... */\n      swap1\n      swap2\n      swap3\n      jump\t// out\n        /* \"basic-101/Function.sol\":448:554  function assigned() public pure returns (uint x, bool b, uint y) {... */\n    tag_19:\n        /* \"basic-101/Function.sol\":489:495  uint x */\n      0x00\n        /* \"basic-101/Function.sol\":497:503  bool b */\n      dup1\n        /* \"basic-101/Function.sol\":505:511  uint y */\n      0x00\n        /* \"basic-101/Function.sol\":523:524  1 */\n      0x01\n        /* \"basic-101/Function.sol\":519:524  x = 1 */\n      swap3\n      pop\n        /* \"basic-101/Function.sol\":534:538  true */\n      0x01\n        /* \"basic-101/Function.sol\":530:538  b = true */\n      swap2\n      pop\n        /* \"basic-101/Function.sol\":548:549  2 */\n      0x02\n        /* \"basic-101/Function.sol\":544:549  y = 2 */\n      swap1\n      pop\n        /* \"basic-101/Function.sol\":448:554  function assigned() public pure returns (uint x, bool b, uint y) {... */\n      swap1\n      swap2\n      swap3\n      jump\t// out\n        /* \"#utility.yul\":7:84   */\n    tag_26:\n        /* \"#utility.yul\":44:51   */\n      0x00\n        /* \"#utility.yul\":73:78   */\n      dup2\n        /* \"#utility.yul\":62:78   */\n      swap1\n      pop\n        /* \"#utility.yul\":7:84   */\n      swap2\n      swap1\n      pop\n      jump\t// out\n        /* \"#utility.yul\":90:208   */\n    tag_27:\n        /* \"#utility.yul\":177:201   */\n      tag_33\n        /* \"#utility.yul\":195:200   */\n      dup2\n        /* \"#utility.yul\":177:201   */\n      tag_26\n      jump\t// in\n    tag_33:\n        /* \"#utility.yul\":172:175   */\n      dup3\n        /* \"#utility.yul\":165:202   */\n      mstore\n        /* \"#utility.yul\":90:208   */\n      pop\n      pop\n      jump\t// out\n        /* \"#utility.yul\":214:304   */\n    tag_28:\n        /* \"#utility.yul\":248:255   */\n      0x00\n        /* \"#utility.yul\":291:296   */\n      dup2\n        /* \"#utility.yul\":284:297   */\n      iszero\n        /* \"#utility.yul\":277:298   */\n      iszero\n        /* \"#utility.yul\":266:298   */\n      swap1\n      pop\n        /* \"#utility.yul\":214:304   */\n      swap2\n      swap1\n      pop\n      jump\t// out\n        /* \"#utility.yul\":310:419   */\n    tag_29:\n        /* \"#utility.yul\":391:412   */\n      tag_36\n        /* \"#utility.yul\":406:411   */\n      dup2\n        /* \"#utility.yul\":391:412   */\n      tag_28\n      jump\t// in\n    tag_36:\n        /* \"#utility.yul\":386:389   */\n      dup3\n        /* \"#utility.yul\":379:413   */\n      mstore\n        /* \"#utility.yul\":310:419   */\n      pop\n      pop\n      jump\t// out\n        /* \"#utility.yul\":425:855   */\n    tag_10:\n        /* \"#utility.yul\":568:572   */\n      0x00\n        /* \"#utility.yul\":606:608   */\n      0x60\n        /* \"#utility.yul\":595:604   */\n      dup3\n        /* \"#utility.yul\":591:609   */\n      add\n        /* \"#utility.yul\":583:609   */\n      swap1\n      pop\n        /* \"#utility.yul\":619:690   */\n      tag_38\n        /* \"#utility.yul\":687:688   */\n      0x00\n        /* \"#utility.yul\":676:685   */\n      dup4\n        /* \"#utility.yul\":672:689   */\n      add\n        /* \"#utility.yul\":663:669   */\n      dup7\n        /* \"#utility.yul\":619:690   */\n      tag_27\n      jump\t// in\n    tag_38:\n        /* \"#utility.yul\":700:766   */\n      tag_39\n        /* \"#utility.yul\":762:764   */\n      0x20\n        /* \"#utility.yul\":751:760   */\n      dup4\n        /* \"#utility.yul\":747:765   */\n      add\n        /* \"#utility.yul\":738:744   */\n      dup6\n        /* \"#utility.yul\":700:766   */\n      tag_29\n      jump\t// in\n    tag_39:\n        /* \"#utility.yul\":776:848   */\n      tag_40\n        /* \"#utility.yul\":844:846   */\n      0x40\n        /* \"#utility.yul\":833:842   */\n      dup4\n        /* \"#utility.yul\":829:847   */\n      add\n        /* \"#utility.yul\":820:826   */\n      dup5\n        /* \"#utility.yul\":776:848   */\n      tag_27\n      jump\t// in\n    tag_40:\n        /* \"#utility.yul\":425:855   */\n      swap5\n      swap4\n      pop\n      pop\n      pop\n      pop\n      jump\t// out\n        /* \"#utility.yul\":861:1513   */\n    tag_14:\n        /* \"#utility.yul\":1060:1064   */\n      0x00\n        /* \"#utility.yul\":1098:1101   */\n      0xa0\n        /* \"#utility.yul\":1087:1096   */\n      dup3\n        /* \"#utility.yul\":1083:1102   */\n      add\n        /* \"#utility.yul\":1075:1102   */\n      swap1\n      pop\n        /* \"#utility.yul\":1112:1183   */\n      tag_42\n        /* \"#utility.yul\":1180:1181   */\n      0x00\n        /* \"#utility.yul\":1169:1178   */\n      dup4\n        /* \"#utility.yul\":1165:1182   */\n      add\n        /* \"#utility.yul\":1156:1162   */\n      dup9\n        /* \"#utility.yul\":1112:1183   */\n      tag_27\n      jump\t// in\n    tag_42:\n        /* \"#utility.yul\":1193:1259   */\n      tag_43\n        /* \"#utility.yul\":1255:1257   */\n      0x20\n        /* \"#utility.yul\":1244:1253   */\n      dup4\n        /* \"#utility.yul\":1240:1258   */\n      add\n        /* \"#utility.yul\":1231:1237   */\n      dup8\n        /* \"#utility.yul\":1193:1259   */\n      tag_29\n      jump\t// in\n    tag_43:\n        /* \"#utility.yul\":1269:1341   */\n      tag_44\n        /* \"#utility.yul\":1337:1339   */\n      0x40\n        /* \"#utility.yul\":1326:1335   */\n      dup4\n        /* \"#utility.yul\":1322:1340   */\n      add\n        /* \"#utility.yul\":1313:1319   */\n      dup7\n        /* \"#utility.yul\":1269:1341   */\n      tag_27\n      jump\t// in\n    tag_44:\n        /* \"#utility.yul\":1351:1423   */\n      tag_45\n        /* \"#utility.yul\":1419:1421   */\n      0x60\n        /* \"#utility.yul\":1408:1417   */\n      dup4\n        /* \"#utility.yul\":1404:1422   */\n      add\n        /* \"#utility.yul\":1395:1401   */\n      dup6\n        /* \"#utility.yul\":1351:1423   */\n      tag_27\n      jump\t// in\n    tag_45:\n        /* \"#utility.yul\":1433:1506   */\n      tag_46\n        /* \"#utility.yul\":1501:1504   */\n      0x80\n        /* \"#utility.yul\":1490:1499   */\n      dup4\n        /* \"#utility.yul\":1486:1505   */\n      add\n        /* \"#utility.yul\":1477:1483   */\n      dup5\n        /* \"#utility.yul\":1433:1506   */\n      tag_27\n      jump\t// in\n    tag_46:\n        /* \"#utility.yul\":861:1513   */\n      swap7\n      swap6\n      pop\n      pop\n      pop\n      pop\n      pop\n      pop\n      jump\t// out\n\n    auxdata: 0xa26469706673582212205d9930cb6f84b4b7b25ee2044c627f036142f5fa64a10a98a12be0e6ebf1e9e664736f6c634300080e0033\n}\n",
				"bytecode": {
					"linkReferences": {},
					"object": "608060405234801561001057600080fd5b5061024a806100206000396000f3fe608060405234801561001057600080fd5b506004361061004c5760003560e01c806345f907a8146100515780637297237f146100715780638688754414610093578063adb4d990146100b3575b600080fd5b6100596100d3565b6040516100689392919061018a565b60405180910390f35b6100796100e8565b60405161008a9594939291906101c1565b60405180910390f35b61009b61012b565b6040516100aa9392919061018a565b60405180910390f35b6100bb610140565b6040516100ca9392919061018a565b60405180910390f35b60008060006001806002925092509250909192565b6000806000806000806000806100fc61012b565b925092509250600080600460056006925050915084848484849950995099509950995050505050509091929394565b60008060006001806002925092509250909192565b6000806000600192506001915060029050909192565b6000819050919050565b61016981610156565b82525050565b60008115159050919050565b6101848161016f565b82525050565b600060608201905061019f6000830186610160565b6101ac602083018561017b565b6101b96040830184610160565b949350505050565b600060a0820190506101d66000830188610160565b6101e3602083018761017b565b6101f06040830186610160565b6101fd6060830185610160565b61020a6080830184610160565b969550505050505056fea26469706673582212205d9930cb6f84b4b7b25ee2044c627f036142f5fa64a10a98a12be0e6ebf1e9e664736f6c634300080e0033",
					"opcodes": "PUSH1 0x80 PUSH1 0x40 MSTORE CALLVALUE DUP1 ISZERO PUSH2 0x10 JUMPI PUSH1 0x0 DUP1 REVERT JUMPDEST POP PUSH2 0x24A DUP1 PUSH2 0x20 PUSH1 0x0 CODECOPY PUSH1 0x0 RETURN INVALID PUSH1 0x80 PUSH1 0x40 MSTORE CALLVALUE DUP1 ISZERO PUSH2 0x10 JUMPI PUSH1 0x0 DUP1 REVERT JUMPDEST POP PUSH1 0x4 CALLDATASIZE LT PUSH2 0x4C JUMPI PUSH1 0x0 CALLDATALOAD PUSH1 0xE0 SHR DUP1 PUSH4 0x45F907A8 EQ PUSH2 0x51 JUMPI DUP1 PUSH4 0x7297237F EQ PUSH2 0x71 JUMPI DUP1 PUSH4 0x86887544 EQ PUSH2 0x93 JUMPI DUP1 PUSH4 0xADB4D990 EQ PUSH2 0xB3 JUMPI JUMPDEST PUSH1 0x0 DUP1 REVERT JUMPDEST PUSH2 0x59 PUSH2 0xD3 JUMP JUMPDEST PUSH1 0x40 MLOAD PUSH2 0x68 SWAP4 SWAP3 SWAP2 SWAP1 PUSH2 0x18A JUMP JUMPDEST PUSH1 0x40 MLOAD DUP1 SWAP2 SUB SWAP1 RETURN JUMPDEST PUSH2 0x79 PUSH2 0xE8 JUMP JUMPDEST PUSH1 0x40 MLOAD PUSH2 0x8A SWAP6 SWAP5 SWAP4 SWAP3 SWAP2 SWAP1 PUSH2 0x1C1 JUMP JUMPDEST PUSH1 0x40 MLOAD DUP1 SWAP2 SUB SWAP1 RETURN JUMPDEST PUSH2 0x9B PUSH2 0x12B JUMP JUMPDEST PUSH1 0x40 MLOAD PUSH2 0xAA SWAP4 SWAP3 SWAP2 SWAP1 PUSH2 0x18A JUMP JUMPDEST PUSH1 0x40 MLOAD DUP1 SWAP2 SUB SWAP1 RETURN JUMPDEST PUSH2 0xBB PUSH2 0x140 JUMP JUMPDEST PUSH1 0x40 MLOAD PUSH2 0xCA SWAP4 SWAP3 SWAP2 SWAP1 PUSH2 0x18A JUMP JUMPDEST PUSH1 0x40 MLOAD DUP1 SWAP2 SUB SWAP1 RETURN JUMPDEST PUSH1 0x0 DUP1 PUSH1 0x0 PUSH1 0x1 DUP1 PUSH1 0x2 SWAP3 POP SWAP3 POP SWAP3 POP SWAP1 SWAP2 SWAP3 JUMP JUMPDEST PUSH1 0x0 DUP1 PUSH1 0x0 DUP1 PUSH1 0x0 DUP1 PUSH1 0x0 DUP1 PUSH2 0xFC PUSH2 0x12B JUMP JUMPDEST SWAP3 POP SWAP3 POP SWAP3 POP PUSH1 0x0 DUP1 PUSH1 0x4 PUSH1 0x5 PUSH1 0x6 SWAP3 POP POP SWAP2 POP DUP5 DUP5 DUP5 DUP5 DUP5 SWAP10 POP SWAP10 POP SWAP10 POP SWAP10 POP SWAP10 POP POP POP POP POP POP SWAP1 SWAP2 SWAP3 SWAP4 SWAP5 JUMP JUMPDEST PUSH1 0x0 DUP1 PUSH1 0x0 PUSH1 0x1 DUP1 PUSH1 0x2 SWAP3 POP SWAP3 POP SWAP3 POP SWAP1 SWAP2 SWAP3 JUMP JUMPDEST PUSH1 0x0 DUP1 PUSH1 0x0 PUSH1 0x1 SWAP3 POP PUSH1 0x1 SWAP2 POP PUSH1 0x2 SWAP1 POP SWAP1 SWAP2 SWAP3 JUMP JUMPDEST PUSH1 0x0 DUP2 SWAP1 POP SWAP2 SWAP1 POP JUMP JUMPDEST PUSH2 0x169 DUP2 PUSH2 0x156 JUMP JUMPDEST DUP3 MSTORE POP POP JUMP JUMPDEST PUSH1 0x0 DUP2 ISZERO ISZERO SWAP1 POP SWAP2 SWAP1 POP JUMP JUMPDEST PUSH2 0x184 DUP2 PUSH2 0x16F JUMP JUMPDEST DUP3 MSTORE POP POP JUMP JUMPDEST PUSH1 0x0 PUSH1 0x60 DUP3 ADD SWAP1 POP PUSH2 0x19F PUSH1 0x0 DUP4 ADD DUP7 PUSH2 0x160 JUMP JUMPDEST PUSH2 0x1AC PUSH1 0x20 DUP4 ADD DUP6 PUSH2 0x17B JUMP JUMPDEST PUSH2 0x1B9 PUSH1 0x40 DUP4 ADD DUP5 PUSH2 0x160 JUMP JUMPDEST SWAP5 SWAP4 POP POP POP POP JUMP JUMPDEST PUSH1 0x0 PUSH1 0xA0 DUP3 ADD SWAP1 POP PUSH2 0x1D6 PUSH1 0x0 DUP4 ADD DUP9 PUSH2 0x160 JUMP JUMPDEST PUSH2 0x1E3 PUSH1 0x20 DUP4 ADD DUP8 PUSH2 0x17B JUMP JUMPDEST PUSH2 0x1F0 PUSH1 0x40 DUP4 ADD DUP7 PUSH2 0x160 JUMP JUMPDEST PUSH2 0x1FD PUSH1 0x60 DUP4 ADD DUP6 PUSH2 0x160 JUMP JUMPDEST PUSH2 0x20A PUSH1 0x80 DUP4 ADD DUP5 PUSH2 0x160 JUMP JUMPDEST SWAP7 SWAP6 POP POP POP POP POP POP JUMP INVALID LOG2 PUSH5 0x6970667358 0x22 SLT KECCAK256 0x5D SWAP10 ADDRESS 0xCB PUSH16 0x84B4B7B25EE2044C627F036142F5FA64 LOG1 EXP SWAP9 LOG1 0x2B 0xE0 0xE6 0xEB CALL 0xE9 0xE6 PUSH5 0x736F6C6343 STOP ADDMOD 0xE STOP CALLER "
				},
				"gasEstimates": {
					"creation": {
						"codeDepositCost": "117200",
						"executionCost": "165",
						"totalCost": "117365"
					},
					"external": {
						"assigned()": "infinite",
						"destructuring()": "infinite",
						"named()": "infinite",
						"returnMany()": "infinite"
					}
				},
				"methodIdentifiers": {
					"assigned()": "adb4d990",
					"destructuring()": "7297237f",
					"named()": "45f907a8",
					"returnMany()": "86887544"
				}
			},
			"storageLayout": {
				"storage": [],
				"types": null
			},
			"userdoc": {
				"kind": "user",
				"methods": {},
				"version": 1
			}
		}
	}
}