{
	"storage-factory/ExtraStorage.sol": {
		"ExtraStorage": {
			"abi": [
				{
					"inputs": [
						{
							"internalType": "uint256",
							"name": "_favoriteNumber",
							"type": "uint256"
						},
						{
							"internalType": "string",
							"name": "_name",
							"type": "string"
						}
					],
					"name": "addPerson",
					"outputs": [],
					"stateMutability": "nonpayable",
					"type": "function"
				},
				{
					"inputs": [
						{
							"internalType": "string",
							"name": "",
							"type": "string"
						}
					],
					"name": "nameToFavoriteNumber",
					"outputs": [
						{
							"internalType": "uint256",
							"name": "",
							"type": "uint256"
						}
					],
					"stateMutability": "view",
					"type": "function"
				},
				{
					"inputs": [],
					"name": "retrieveFavoriteNumber",
					"outputs": [
						{
							"internalType": "uint256",
							"name": "",
							"type": "uint256"
						}
					],
					"stateMutability": "view",
					"type": "function"
				},
				{
					"inputs": [
						{
							"internalType": "uint256",
							"name": "_favoriteNumber",
							"type": "uint256"
						}
					],
					"name": "setFavoriteNumber",
					"outputs": [],
					"stateMutability": "nonpayable",
					"type": "function"
				},
				{
					"inputs": [
						{
							"internalType": "uint256",
							"name": "_number",
							"type": "uint256"
						}
					],
					"name": "store",
					"outputs": [],
					"stateMutability": "nonpayable",
					"type": "function"
				}
			],
			"devdoc": {
				"kind": "dev",
				"methods": {},
				"version": 1
			},
			"evm": {
				"assembly": "    /* \"storage-factory/ExtraStorage.sol\":87:213  contract ExtraStorage is SimpleStorage {... */\n  mstore(0x40, 0x80)\n  callvalue\n  dup1\n  iszero\n  tag_1\n  jumpi\n  0x00\n  dup1\n  revert\ntag_1:\n  pop\n  dataSize(sub_0)\n  dup1\n  dataOffset(sub_0)\n  0x00\n  codecopy\n  0x00\n  return\nstop\n\nsub_0: assembly {\n        /* \"storage-factory/ExtraStorage.sol\":87:213  contract ExtraStorage is SimpleStorage {... */\n      mstore(0x40, 0x80)\n      callvalue\n      dup1\n      iszero\n      tag_1\n      jumpi\n      0x00\n      dup1\n      revert\n    tag_1:\n      pop\n      jumpi(tag_2, lt(calldatasize, 0x04))\n      shr(0xe0, calldataload(0x00))\n      dup1\n      0x6057361d\n      eq\n      tag_3\n      jumpi\n      dup1\n      0x8bab8dd5\n      eq\n      tag_4\n      jumpi\n      dup1\n      0x8ec04232\n      eq\n      tag_5\n      jumpi\n      dup1\n      0xa4b4f67a\n      eq\n      tag_6\n      jumpi\n      dup1\n      0xbc832d4e\n      eq\n      tag_7\n      jumpi\n    tag_2:\n      0x00\n      dup1\n      revert\n        /* \"storage-factory/ExtraStorage.sol\":130:211  function store(uint256 _number) public {... */\n    tag_3:\n      tag_8\n      0x04\n      dup1\n      calldatasize\n      sub\n      dup2\n      add\n      swap1\n      tag_9\n      swap2\n      swap1\n      tag_10\n      jump\t// in\n    tag_9:\n      tag_11\n      jump\t// in\n    tag_8:\n      stop\n        /* \"storage-factory/SimpleStorage.sol\":198:252  mapping(string => uint256) public nameToFavoriteNumber */\n    tag_4:\n      tag_12\n      0x04\n      dup1\n      calldatasize\n      sub\n      dup2\n      add\n      swap1\n      tag_13\n      swap2\n      swap1\n      tag_14\n      jump\t// in\n    tag_13:\n      tag_15\n      jump\t// in\n    tag_12:\n      mload(0x40)\n      tag_16\n      swap2\n      swap1\n      tag_17\n      jump\t// in\n    tag_16:\n      mload(0x40)\n      dup1\n      swap2\n      sub\n      swap1\n      return\n        /* \"storage-factory/SimpleStorage.sol\":257:359  function setFavoriteNumber(uint256 _favoriteNumber) public {... */\n    tag_5:\n      tag_18\n      0x04\n      dup1\n      calldatasize\n      sub\n      dup2\n      add\n      swap1\n      tag_19\n      swap2\n      swap1\n      tag_10\n      jump\t// in\n    tag_19:\n      tag_20\n      jump\t// in\n    tag_18:\n      stop\n        /* \"storage-factory/SimpleStorage.sol\":363:459  function retrieveFavoriteNumber() public view returns (uint256) {... */\n    tag_6:\n      tag_21\n      tag_22\n      jump\t// in\n    tag_21:\n      mload(0x40)\n      tag_23\n      swap2\n      swap1\n      tag_17\n      jump\t// in\n    tag_23:\n      mload(0x40)\n      dup1\n      swap2\n      sub\n      swap1\n      return\n        /* \"storage-factory/SimpleStorage.sol\":463:692  function addPerson(uint256 _favoriteNumber, string memory _name) public {... */\n    tag_7:\n      tag_24\n      0x04\n      dup1\n      calldatasize\n      sub\n      dup2\n      add\n      swap1\n      tag_25\n      swap2\n      swap1\n      tag_26\n      jump\t// in\n    tag_25:\n      tag_27\n      jump\t// in\n    tag_24:\n      stop\n        /* \"storage-factory/ExtraStorage.sol\":130:211  function store(uint256 _number) public {... */\n    tag_11:\n        /* \"storage-factory/ExtraStorage.sol\":175:205  setFavoriteNumber(_number + 5) */\n      tag_29\n        /* \"storage-factory/ExtraStorage.sol\":203:204  5 */\n      0x05\n        /* \"storage-factory/ExtraStorage.sol\":193:200  _number */\n      dup3\n        /* \"storage-factory/ExtraStorage.sol\":193:204  _number + 5 */\n      tag_30\n      swap2\n      swap1\n      tag_31\n      jump\t// in\n    tag_30:\n        /* \"storage-factory/ExtraStorage.sol\":175:192  setFavoriteNumber */\n      tag_20\n        /* \"storage-factory/ExtraStorage.sol\":175:205  setFavoriteNumber(_number + 5) */\n      jump\t// in\n    tag_29:\n        /* \"storage-factory/ExtraStorage.sol\":130:211  function store(uint256 _number) public {... */\n      pop\n      jump\t// out\n        /* \"storage-factory/SimpleStorage.sol\":198:252  mapping(string => uint256) public nameToFavoriteNumber */\n    tag_15:\n      0x02\n      dup2\n      dup1\n      mload\n      0x20\n      dup2\n      add\n      dup3\n      add\n      dup1\n      mload\n      dup5\n      dup3\n      mstore\n      0x20\n      dup4\n      add\n      0x20\n      dup6\n      add\n      keccak256\n      dup2\n      dup4\n      mstore\n      dup1\n      swap6\n      pop\n      pop\n      pop\n      pop\n      pop\n      pop\n      0x00\n      swap2\n      pop\n      swap1\n      pop\n      sload\n      dup2\n      jump\t// out\n        /* \"storage-factory/SimpleStorage.sol\":257:359  function setFavoriteNumber(uint256 _favoriteNumber) public {... */\n    tag_20:\n        /* \"storage-factory/SimpleStorage.sol\":339:354  _favoriteNumber */\n      dup1\n        /* \"storage-factory/SimpleStorage.sol\":322:336  favoriteNumber */\n      0x00\n        /* \"storage-factory/SimpleStorage.sol\":322:354  favoriteNumber = _favoriteNumber */\n      dup2\n      swap1\n      sstore\n      pop\n        /* \"storage-factory/SimpleStorage.sol\":257:359  function setFavoriteNumber(uint256 _favoriteNumber) public {... */\n      pop\n      jump\t// out\n        /* \"storage-factory/SimpleStorage.sol\":363:459  function retrieveFavoriteNumber() public view returns (uint256) {... */\n    tag_22:\n        /* \"storage-factory/SimpleStorage.sol\":418:425  uint256 */\n      0x00\n        /* \"storage-factory/SimpleStorage.sol\":440:454  favoriteNumber */\n      dup1\n      sload\n        /* \"storage-factory/SimpleStorage.sol\":433:454  return favoriteNumber */\n      swap1\n      pop\n        /* \"storage-factory/SimpleStorage.sol\":363:459  function retrieveFavoriteNumber() public view returns (uint256) {... */\n      swap1\n      jump\t// out\n        /* \"storage-factory/SimpleStorage.sol\":463:692  function addPerson(uint256 _favoriteNumber, string memory _name) public {... */\n    tag_27:\n        /* \"storage-factory/SimpleStorage.sol\":543:549  people */\n      0x01\n        /* \"storage-factory/SimpleStorage.sol\":555:633  People({... */\n      mload(0x40)\n      dup1\n      0x40\n      add\n      0x40\n      mstore\n      dup1\n        /* \"storage-factory/SimpleStorage.sol\":588:603  _favoriteNumber */\n      dup5\n        /* \"storage-factory/SimpleStorage.sol\":555:633  People({... */\n      dup2\n      mstore\n      0x20\n      add\n        /* \"storage-factory/SimpleStorage.sol\":619:624  _name */\n      dup4\n        /* \"storage-factory/SimpleStorage.sol\":555:633  People({... */\n      dup2\n      mstore\n      pop\n        /* \"storage-factory/SimpleStorage.sol\":543:634  people.push(People({... */\n      swap1\n      dup1\n      0x01\n      dup2\n      sload\n      add\n      dup1\n      dup3\n      sstore\n      dup1\n      swap2\n      pop\n      pop\n      0x01\n      swap1\n      sub\n      swap1\n      0x00\n      mstore\n      keccak256(0x00, 0x20)\n      swap1\n      0x02\n      mul\n      add\n      0x00\n      swap1\n      swap2\n      swap1\n      swap2\n      swap1\n      swap2\n      pop\n      0x00\n      dup3\n      add\n      mload\n      dup2\n      0x00\n      add\n      sstore\n      0x20\n      dup3\n      add\n      mload\n      dup2\n      0x01\n      add\n      swap1\n      dup1\n      mload\n      swap1\n      0x20\n      add\n      swap1\n      tag_36\n      swap3\n      swap2\n      swap1\n      tag_37\n      jump\t// in\n    tag_36:\n      pop\n      pop\n      pop\n        /* \"storage-factory/SimpleStorage.sol\":672:687  _favoriteNumber */\n      dup2\n        /* \"storage-factory/SimpleStorage.sol\":642:662  nameToFavoriteNumber */\n      0x02\n        /* \"storage-factory/SimpleStorage.sol\":663:668  _name */\n      dup3\n        /* \"storage-factory/SimpleStorage.sol\":642:669  nameToFavoriteNumber[_name] */\n      mload(0x40)\n      tag_38\n      swap2\n      swap1\n      tag_39\n      jump\t// in\n    tag_38:\n      swap1\n      dup2\n      mstore\n      0x20\n      add\n      mload(0x40)\n      dup1\n      swap2\n      sub\n      swap1\n      keccak256\n        /* \"storage-factory/SimpleStorage.sol\":642:687  nameToFavoriteNumber[_name] = _favoriteNumber */\n      dup2\n      swap1\n      sstore\n      pop\n        /* \"storage-factory/SimpleStorage.sol\":463:692  function addPerson(uint256 _favoriteNumber, string memory _name) public {... */\n      pop\n      pop\n      jump\t// out\n    tag_37:\n      dup3\n      dup1\n      sload\n      tag_40\n      swap1\n      tag_41\n      jump\t// in\n    tag_40:\n      swap1\n      0x00\n      mstore\n      keccak256(0x00, 0x20)\n      swap1\n      0x1f\n      add\n      0x20\n      swap1\n      div\n      dup2\n      add\n      swap3\n      dup3\n      tag_43\n      jumpi\n      0x00\n      dup6\n      sstore\n      jump(tag_42)\n    tag_43:\n      dup3\n      0x1f\n      lt\n      tag_44\n      jumpi\n      dup1\n      mload\n      not(0xff)\n      and\n      dup4\n      dup1\n      add\n      or\n      dup6\n      sstore\n      jump(tag_42)\n    tag_44:\n      dup3\n      dup1\n      add\n      0x01\n      add\n      dup6\n      sstore\n      dup3\n      iszero\n      tag_42\n      jumpi\n      swap2\n      dup3\n      add\n    tag_45:\n      dup3\n      dup2\n      gt\n      iszero\n      tag_46\n      jumpi\n      dup3\n      mload\n      dup3\n      sstore\n      swap2\n      0x20\n      add\n      swap2\n      swap1\n      0x01\n      add\n      swap1\n      jump(tag_45)\n    tag_46:\n    tag_42:\n      pop\n      swap1\n      pop\n      tag_47\n      swap2\n      swap1\n      tag_48\n      jump\t// in\n    tag_47:\n      pop\n      swap1\n      jump\t// out\n    tag_48:\n    tag_49:\n      dup1\n      dup3\n      gt\n      iszero\n      tag_50\n      jumpi\n      0x00\n      dup2\n      0x00\n      swap1\n      sstore\n      pop\n      0x01\n      add\n      jump(tag_49)\n    tag_50:\n      pop\n      swap1\n      jump\t// out\n        /* \"#utility.yul\":7:419   */\n    tag_52:\n        /* \"#utility.yul\":85:90   */\n      0x00\n        /* \"#utility.yul\":110:176   */\n      tag_54\n        /* \"#utility.yul\":126:175   */\n      tag_55\n        /* \"#utility.yul\":168:174   */\n      dup5\n        /* \"#utility.yul\":126:175   */\n      tag_56\n      jump\t// in\n    tag_55:\n        /* \"#utility.yul\":110:176   */\n      tag_57\n      jump\t// in\n    tag_54:\n        /* \"#utility.yul\":101:176   */\n      swap1\n      pop\n        /* \"#utility.yul\":199:205   */\n      dup3\n        /* \"#utility.yul\":192:197   */\n      dup2\n        /* \"#utility.yul\":185:206   */\n      mstore\n        /* \"#utility.yul\":237:241   */\n      0x20\n        /* \"#utility.yul\":230:235   */\n      dup2\n        /* \"#utility.yul\":226:242   */\n      add\n        /* \"#utility.yul\":275:278   */\n      dup5\n        /* \"#utility.yul\":266:272   */\n      dup5\n        /* \"#utility.yul\":261:264   */\n      dup5\n        /* \"#utility.yul\":257:273   */\n      add\n        /* \"#utility.yul\":254:279   */\n      gt\n        /* \"#utility.yul\":251:363   */\n      iszero\n      tag_58\n      jumpi\n        /* \"#utility.yul\":282:361   */\n      tag_59\n      tag_60\n      jump\t// in\n    tag_59:\n        /* \"#utility.yul\":251:363   */\n    tag_58:\n        /* \"#utility.yul\":372:413   */\n      tag_61\n        /* \"#utility.yul\":406:412   */\n      dup5\n        /* \"#utility.yul\":401:404   */\n      dup3\n        /* \"#utility.yul\":396:399   */\n      dup6\n        /* \"#utility.yul\":372:413   */\n      tag_62\n      jump\t// in\n    tag_61:\n        /* \"#utility.yul\":91:419   */\n      pop\n        /* \"#utility.yul\":7:419   */\n      swap4\n      swap3\n      pop\n      pop\n      pop\n      jump\t// out\n        /* \"#utility.yul\":439:779   */\n    tag_63:\n        /* \"#utility.yul\":495:500   */\n      0x00\n        /* \"#utility.yul\":544:547   */\n      dup3\n        /* \"#utility.yul\":537:541   */\n      0x1f\n        /* \"#utility.yul\":529:535   */\n      dup4\n        /* \"#utility.yul\":525:542   */\n      add\n        /* \"#utility.yul\":521:548   */\n      slt\n        /* \"#utility.yul\":511:633   */\n      tag_65\n      jumpi\n        /* \"#utility.yul\":552:631   */\n      tag_66\n      tag_67\n      jump\t// in\n    tag_66:\n        /* \"#utility.yul\":511:633   */\n    tag_65:\n        /* \"#utility.yul\":669:675   */\n      dup2\n        /* \"#utility.yul\":656:676   */\n      calldataload\n        /* \"#utility.yul\":694:773   */\n      tag_68\n        /* \"#utility.yul\":769:772   */\n      dup5\n        /* \"#utility.yul\":761:767   */\n      dup3\n        /* \"#utility.yul\":754:758   */\n      0x20\n        /* \"#utility.yul\":746:752   */\n      dup7\n        /* \"#utility.yul\":742:759   */\n      add\n        /* \"#utility.yul\":694:773   */\n      tag_52\n      jump\t// in\n    tag_68:\n        /* \"#utility.yul\":685:773   */\n      swap2\n      pop\n        /* \"#utility.yul\":501:779   */\n      pop\n        /* \"#utility.yul\":439:779   */\n      swap3\n      swap2\n      pop\n      pop\n      jump\t// out\n        /* \"#utility.yul\":785:924   */\n    tag_69:\n        /* \"#utility.yul\":831:836   */\n      0x00\n        /* \"#utility.yul\":869:875   */\n      dup2\n        /* \"#utility.yul\":856:876   */\n      calldataload\n        /* \"#utility.yul\":847:876   */\n      swap1\n      pop\n        /* \"#utility.yul\":885:918   */\n      tag_71\n        /* \"#utility.yul\":912:917   */\n      dup2\n        /* \"#utility.yul\":885:918   */\n      tag_72\n      jump\t// in\n    tag_71:\n        /* \"#utility.yul\":785:924   */\n      swap3\n      swap2\n      pop\n      pop\n      jump\t// out\n        /* \"#utility.yul\":930:1439   */\n    tag_14:\n        /* \"#utility.yul\":999:1005   */\n      0x00\n        /* \"#utility.yul\":1048:1050   */\n      0x20\n        /* \"#utility.yul\":1036:1045   */\n      dup3\n        /* \"#utility.yul\":1027:1034   */\n      dup5\n        /* \"#utility.yul\":1023:1046   */\n      sub\n        /* \"#utility.yul\":1019:1051   */\n      slt\n        /* \"#utility.yul\":1016:1135   */\n      iszero\n      tag_74\n      jumpi\n        /* \"#utility.yul\":1054:1133   */\n      tag_75\n      tag_76\n      jump\t// in\n    tag_75:\n        /* \"#utility.yul\":1016:1135   */\n    tag_74:\n        /* \"#utility.yul\":1202:1203   */\n      0x00\n        /* \"#utility.yul\":1191:1200   */\n      dup3\n        /* \"#utility.yul\":1187:1204   */\n      add\n        /* \"#utility.yul\":1174:1205   */\n      calldataload\n        /* \"#utility.yul\":1232:1250   */\n      0xffffffffffffffff\n        /* \"#utility.yul\":1224:1230   */\n      dup2\n        /* \"#utility.yul\":1221:1251   */\n      gt\n        /* \"#utility.yul\":1218:1335   */\n      iszero\n      tag_77\n      jumpi\n        /* \"#utility.yul\":1254:1333   */\n      tag_78\n      tag_79\n      jump\t// in\n    tag_78:\n        /* \"#utility.yul\":1218:1335   */\n    tag_77:\n        /* \"#utility.yul\":1359:1422   */\n      tag_80\n        /* \"#utility.yul\":1414:1421   */\n      dup5\n        /* \"#utility.yul\":1405:1411   */\n      dup3\n        /* \"#utility.yul\":1394:1403   */\n      dup6\n        /* \"#utility.yul\":1390:1412   */\n      add\n        /* \"#utility.yul\":1359:1422   */\n      tag_63\n      jump\t// in\n    tag_80:\n        /* \"#utility.yul\":1349:1422   */\n      swap2\n      pop\n        /* \"#utility.yul\":1145:1432   */\n      pop\n        /* \"#utility.yul\":930:1439   */\n      swap3\n      swap2\n      pop\n      pop\n      jump\t// out\n        /* \"#utility.yul\":1445:1774   */\n    tag_10:\n        /* \"#utility.yul\":1504:1510   */\n      0x00\n        /* \"#utility.yul\":1553:1555   */\n      0x20\n        /* \"#utility.yul\":1541:1550   */\n      dup3\n        /* \"#utility.yul\":1532:1539   */\n      dup5\n        /* \"#utility.yul\":1528:1551   */\n      sub\n        /* \"#utility.yul\":1524:1556   */\n      slt\n        /* \"#utility.yul\":1521:1640   */\n      iszero\n      tag_82\n      jumpi\n        /* \"#utility.yul\":1559:1638   */\n      tag_83\n      tag_76\n      jump\t// in\n    tag_83:\n        /* \"#utility.yul\":1521:1640   */\n    tag_82:\n        /* \"#utility.yul\":1679:1680   */\n      0x00\n        /* \"#utility.yul\":1704:1757   */\n      tag_84\n        /* \"#utility.yul\":1749:1756   */\n      dup5\n        /* \"#utility.yul\":1740:1746   */\n      dup3\n        /* \"#utility.yul\":1729:1738   */\n      dup6\n        /* \"#utility.yul\":1725:1747   */\n      add\n        /* \"#utility.yul\":1704:1757   */\n      tag_69\n      jump\t// in\n    tag_84:\n        /* \"#utility.yul\":1694:1757   */\n      swap2\n      pop\n        /* \"#utility.yul\":1650:1767   */\n      pop\n        /* \"#utility.yul\":1445:1774   */\n      swap3\n      swap2\n      pop\n      pop\n      jump\t// out\n        /* \"#utility.yul\":1780:2434   */\n    tag_26:\n        /* \"#utility.yul\":1858:1864   */\n      0x00\n        /* \"#utility.yul\":1866:1872   */\n      dup1\n        /* \"#utility.yul\":1915:1917   */\n      0x40\n        /* \"#utility.yul\":1903:1912   */\n      dup4\n        /* \"#utility.yul\":1894:1901   */\n      dup6\n        /* \"#utility.yul\":1890:1913   */\n      sub\n        /* \"#utility.yul\":1886:1918   */\n      slt\n        /* \"#utility.yul\":1883:2002   */\n      iszero\n      tag_86\n      jumpi\n        /* \"#utility.yul\":1921:2000   */\n      tag_87\n      tag_76\n      jump\t// in\n    tag_87:\n        /* \"#utility.yul\":1883:2002   */\n    tag_86:\n        /* \"#utility.yul\":2041:2042   */\n      0x00\n        /* \"#utility.yul\":2066:2119   */\n      tag_88\n        /* \"#utility.yul\":2111:2118   */\n      dup6\n        /* \"#utility.yul\":2102:2108   */\n      dup3\n        /* \"#utility.yul\":2091:2100   */\n      dup7\n        /* \"#utility.yul\":2087:2109   */\n      add\n        /* \"#utility.yul\":2066:2119   */\n      tag_69\n      jump\t// in\n    tag_88:\n        /* \"#utility.yul\":2056:2119   */\n      swap3\n      pop\n        /* \"#utility.yul\":2012:2129   */\n      pop\n        /* \"#utility.yul\":2196:2198   */\n      0x20\n        /* \"#utility.yul\":2185:2194   */\n      dup4\n        /* \"#utility.yul\":2181:2199   */\n      add\n        /* \"#utility.yul\":2168:2200   */\n      calldataload\n        /* \"#utility.yul\":2227:2245   */\n      0xffffffffffffffff\n        /* \"#utility.yul\":2219:2225   */\n      dup2\n        /* \"#utility.yul\":2216:2246   */\n      gt\n        /* \"#utility.yul\":2213:2330   */\n      iszero\n      tag_89\n      jumpi\n        /* \"#utility.yul\":2249:2328   */\n      tag_90\n      tag_79\n      jump\t// in\n    tag_90:\n        /* \"#utility.yul\":2213:2330   */\n    tag_89:\n        /* \"#utility.yul\":2354:2417   */\n      tag_91\n        /* \"#utility.yul\":2409:2416   */\n      dup6\n        /* \"#utility.yul\":2400:2406   */\n      dup3\n        /* \"#utility.yul\":2389:2398   */\n      dup7\n        /* \"#utility.yul\":2385:2407   */\n      add\n        /* \"#utility.yul\":2354:2417   */\n      tag_63\n      jump\t// in\n    tag_91:\n        /* \"#utility.yul\":2344:2417   */\n      swap2\n      pop\n        /* \"#utility.yul\":2139:2427   */\n      pop\n        /* \"#utility.yul\":1780:2434   */\n      swap3\n      pop\n      swap3\n      swap1\n      pop\n      jump\t// out\n        /* \"#utility.yul\":2440:2817   */\n    tag_92:\n        /* \"#utility.yul\":2546:2549   */\n      0x00\n        /* \"#utility.yul\":2574:2613   */\n      tag_94\n        /* \"#utility.yul\":2607:2612   */\n      dup3\n        /* \"#utility.yul\":2574:2613   */\n      tag_95\n      jump\t// in\n    tag_94:\n        /* \"#utility.yul\":2629:2718   */\n      tag_96\n        /* \"#utility.yul\":2711:2717   */\n      dup2\n        /* \"#utility.yul\":2706:2709   */\n      dup6\n        /* \"#utility.yul\":2629:2718   */\n      tag_97\n      jump\t// in\n    tag_96:\n        /* \"#utility.yul\":2622:2718   */\n      swap4\n      pop\n        /* \"#utility.yul\":2727:2779   */\n      tag_98\n        /* \"#utility.yul\":2772:2778   */\n      dup2\n        /* \"#utility.yul\":2767:2770   */\n      dup6\n        /* \"#utility.yul\":2760:2764   */\n      0x20\n        /* \"#utility.yul\":2753:2758   */\n      dup7\n        /* \"#utility.yul\":2749:2765   */\n      add\n        /* \"#utility.yul\":2727:2779   */\n      tag_99\n      jump\t// in\n    tag_98:\n        /* \"#utility.yul\":2804:2810   */\n      dup1\n        /* \"#utility.yul\":2799:2802   */\n      dup5\n        /* \"#utility.yul\":2795:2811   */\n      add\n        /* \"#utility.yul\":2788:2811   */\n      swap2\n      pop\n        /* \"#utility.yul\":2550:2817   */\n      pop\n        /* \"#utility.yul\":2440:2817   */\n      swap3\n      swap2\n      pop\n      pop\n      jump\t// out\n        /* \"#utility.yul\":2823:2941   */\n    tag_100:\n        /* \"#utility.yul\":2910:2934   */\n      tag_102\n        /* \"#utility.yul\":2928:2933   */\n      dup2\n        /* \"#utility.yul\":2910:2934   */\n      tag_103\n      jump\t// in\n    tag_102:\n        /* \"#utility.yul\":2905:2908   */\n      dup3\n        /* \"#utility.yul\":2898:2935   */\n      mstore\n        /* \"#utility.yul\":2823:2941   */\n      pop\n      pop\n      jump\t// out\n        /* \"#utility.yul\":2947:3222   */\n    tag_39:\n        /* \"#utility.yul\":3079:3082   */\n      0x00\n        /* \"#utility.yul\":3101:3196   */\n      tag_105\n        /* \"#utility.yul\":3192:3195   */\n      dup3\n        /* \"#utility.yul\":3183:3189   */\n      dup5\n        /* \"#utility.yul\":3101:3196   */\n      tag_92\n      jump\t// in\n    tag_105:\n        /* \"#utility.yul\":3094:3196   */\n      swap2\n      pop\n        /* \"#utility.yul\":3213:3216   */\n      dup2\n        /* \"#utility.yul\":3206:3216   */\n      swap1\n      pop\n        /* \"#utility.yul\":2947:3222   */\n      swap3\n      swap2\n      pop\n      pop\n      jump\t// out\n        /* \"#utility.yul\":3228:3450   */\n    tag_17:\n        /* \"#utility.yul\":3321:3325   */\n      0x00\n        /* \"#utility.yul\":3359:3361   */\n      0x20\n        /* \"#utility.yul\":3348:3357   */\n      dup3\n        /* \"#utility.yul\":3344:3362   */\n      add\n        /* \"#utility.yul\":3336:3362   */\n      swap1\n      pop\n        /* \"#utility.yul\":3372:3443   */\n      tag_107\n        /* \"#utility.yul\":3440:3441   */\n      0x00\n        /* \"#utility.yul\":3429:3438   */\n      dup4\n        /* \"#utility.yul\":3425:3442   */\n      add\n        /* \"#utility.yul\":3416:3422   */\n      dup5\n        /* \"#utility.yul\":3372:3443   */\n      tag_100\n      jump\t// in\n    tag_107:\n        /* \"#utility.yul\":3228:3450   */\n      swap3\n      swap2\n      pop\n      pop\n      jump\t// out\n        /* \"#utility.yul\":3456:3585   */\n    tag_57:\n        /* \"#utility.yul\":3490:3496   */\n      0x00\n        /* \"#utility.yul\":3517:3537   */\n      tag_109\n      tag_110\n      jump\t// in\n    tag_109:\n        /* \"#utility.yul\":3507:3537   */\n      swap1\n      pop\n        /* \"#utility.yul\":3546:3579   */\n      tag_111\n        /* \"#utility.yul\":3574:3578   */\n      dup3\n        /* \"#utility.yul\":3566:3572   */\n      dup3\n        /* \"#utility.yul\":3546:3579   */\n      tag_112\n      jump\t// in\n    tag_111:\n        /* \"#utility.yul\":3456:3585   */\n      swap2\n      swap1\n      pop\n      jump\t// out\n        /* \"#utility.yul\":3591:3666   */\n    tag_110:\n        /* \"#utility.yul\":3624:3630   */\n      0x00\n        /* \"#utility.yul\":3657:3659   */\n      0x40\n        /* \"#utility.yul\":3651:3660   */\n      mload\n        /* \"#utility.yul\":3641:3660   */\n      swap1\n      pop\n        /* \"#utility.yul\":3591:3666   */\n      swap1\n      jump\t// out\n        /* \"#utility.yul\":3672:3980   */\n    tag_56:\n        /* \"#utility.yul\":3734:3738   */\n      0x00\n        /* \"#utility.yul\":3824:3842   */\n      0xffffffffffffffff\n        /* \"#utility.yul\":3816:3822   */\n      dup3\n        /* \"#utility.yul\":3813:3843   */\n      gt\n        /* \"#utility.yul\":3810:3866   */\n      iszero\n      tag_115\n      jumpi\n        /* \"#utility.yul\":3846:3864   */\n      tag_116\n      tag_117\n      jump\t// in\n    tag_116:\n        /* \"#utility.yul\":3810:3866   */\n    tag_115:\n        /* \"#utility.yul\":3884:3913   */\n      tag_118\n        /* \"#utility.yul\":3906:3912   */\n      dup3\n        /* \"#utility.yul\":3884:3913   */\n      tag_119\n      jump\t// in\n    tag_118:\n        /* \"#utility.yul\":3876:3913   */\n      swap1\n      pop\n        /* \"#utility.yul\":3968:3972   */\n      0x20\n        /* \"#utility.yul\":3962:3966   */\n      dup2\n        /* \"#utility.yul\":3958:3973   */\n      add\n        /* \"#utility.yul\":3950:3973   */\n      swap1\n      pop\n        /* \"#utility.yul\":3672:3980   */\n      swap2\n      swap1\n      pop\n      jump\t// out\n        /* \"#utility.yul\":3986:4085   */\n    tag_95:\n        /* \"#utility.yul\":4038:4044   */\n      0x00\n        /* \"#utility.yul\":4072:4077   */\n      dup2\n        /* \"#utility.yul\":4066:4078   */\n      mload\n        /* \"#utility.yul\":4056:4078   */\n      swap1\n      pop\n        /* \"#utility.yul\":3986:4085   */\n      swap2\n      swap1\n      pop\n      jump\t// out\n        /* \"#utility.yul\":4091:4239   */\n    tag_97:\n        /* \"#utility.yul\":4193:4204   */\n      0x00\n        /* \"#utility.yul\":4230:4233   */\n      dup2\n        /* \"#utility.yul\":4215:4233   */\n      swap1\n      pop\n        /* \"#utility.yul\":4091:4239   */\n      swap3\n      swap2\n      pop\n      pop\n      jump\t// out\n        /* \"#utility.yul\":4245:4550   */\n    tag_31:\n        /* \"#utility.yul\":4285:4288   */\n      0x00\n        /* \"#utility.yul\":4304:4324   */\n      tag_123\n        /* \"#utility.yul\":4322:4323   */\n      dup3\n        /* \"#utility.yul\":4304:4324   */\n      tag_103\n      jump\t// in\n    tag_123:\n        /* \"#utility.yul\":4299:4324   */\n      swap2\n      pop\n        /* \"#utility.yul\":4338:4358   */\n      tag_124\n        /* \"#utility.yul\":4356:4357   */\n      dup4\n        /* \"#utility.yul\":4338:4358   */\n      tag_103\n      jump\t// in\n    tag_124:\n        /* \"#utility.yul\":4333:4358   */\n      swap3\n      pop\n        /* \"#utility.yul\":4492:4493   */\n      dup3\n        /* \"#utility.yul\":4424:4490   */\n      0xffffffffffffffffffffffffffffffffffffffffffffffffffffffffffffffff\n        /* \"#utility.yul\":4420:4494   */\n      sub\n        /* \"#utility.yul\":4417:4418   */\n      dup3\n        /* \"#utility.yul\":4414:4495   */\n      gt\n        /* \"#utility.yul\":4411:4518   */\n      iszero\n      tag_125\n      jumpi\n        /* \"#utility.yul\":4498:4516   */\n      tag_126\n      tag_127\n      jump\t// in\n    tag_126:\n        /* \"#utility.yul\":4411:4518   */\n    tag_125:\n        /* \"#utility.yul\":4542:4543   */\n      dup3\n        /* \"#utility.yul\":4539:4540   */\n      dup3\n        /* \"#utility.yul\":4535:4544   */\n      add\n        /* \"#utility.yul\":4528:4544   */\n      swap1\n      pop\n        /* \"#utility.yul\":4245:4550   */\n      swap3\n      swap2\n      pop\n      pop\n      jump\t// out\n        /* \"#utility.yul\":4556:4633   */\n    tag_103:\n        /* \"#utility.yul\":4593:4600   */\n      0x00\n        /* \"#utility.yul\":4622:4627   */\n      dup2\n        /* \"#utility.yul\":4611:4627   */\n      swap1\n      pop\n        /* \"#utility.yul\":4556:4633   */\n      swap2\n      swap1\n      pop\n      jump\t// out\n        /* \"#utility.yul\":4639:4793   */\n    tag_62:\n        /* \"#utility.yul\":4723:4729   */\n      dup3\n        /* \"#utility.yul\":4718:4721   */\n      dup2\n        /* \"#utility.yul\":4713:4716   */\n      dup4\n        /* \"#utility.yul\":4700:4730   */\n      calldatacopy\n        /* \"#utility.yul\":4785:4786   */\n      0x00\n        /* \"#utility.yul\":4776:4782   */\n      dup4\n        /* \"#utility.yul\":4771:4774   */\n      dup4\n        /* \"#utility.yul\":4767:4783   */\n      add\n        /* \"#utility.yul\":4760:4787   */\n      mstore\n        /* \"#utility.yul\":4639:4793   */\n      pop\n      pop\n      pop\n      jump\t// out\n        /* \"#utility.yul\":4799:5106   */\n    tag_99:\n        /* \"#utility.yul\":4867:4868   */\n      0x00\n        /* \"#utility.yul\":4877:4990   */\n    tag_131:\n        /* \"#utility.yul\":4891:4897   */\n      dup4\n        /* \"#utility.yul\":4888:4889   */\n      dup2\n        /* \"#utility.yul\":4885:4898   */\n      lt\n        /* \"#utility.yul\":4877:4990   */\n      iszero\n      tag_133\n      jumpi\n        /* \"#utility.yul\":4976:4977   */\n      dup1\n        /* \"#utility.yul\":4971:4974   */\n      dup3\n        /* \"#utility.yul\":4967:4978   */\n      add\n        /* \"#utility.yul\":4961:4979   */\n      mload\n        /* \"#utility.yul\":4957:4958   */\n      dup2\n        /* \"#utility.yul\":4952:4955   */\n      dup5\n        /* \"#utility.yul\":4948:4959   */\n      add\n        /* \"#utility.yul\":4941:4980   */\n      mstore\n        /* \"#utility.yul\":4913:4915   */\n      0x20\n        /* \"#utility.yul\":4910:4911   */\n      dup2\n        /* \"#utility.yul\":4906:4916   */\n      add\n        /* \"#utility.yul\":4901:4916   */\n      swap1\n      pop\n        /* \"#utility.yul\":4877:4990   */\n      jump(tag_131)\n    tag_133:\n        /* \"#utility.yul\":5008:5014   */\n      dup4\n        /* \"#utility.yul\":5005:5006   */\n      dup2\n        /* \"#utility.yul\":5002:5015   */\n      gt\n        /* \"#utility.yul\":4999:5100   */\n      iszero\n      tag_134\n      jumpi\n        /* \"#utility.yul\":5088:5089   */\n      0x00\n        /* \"#utility.yul\":5079:5085   */\n      dup5\n        /* \"#utility.yul\":5074:5077   */\n      dup5\n        /* \"#utility.yul\":5070:5086   */\n      add\n        /* \"#utility.yul\":5063:5090   */\n      mstore\n        /* \"#utility.yul\":4999:5100   */\n    tag_134:\n        /* \"#utility.yul\":4848:5106   */\n      pop\n        /* \"#utility.yul\":4799:5106   */\n      pop\n      pop\n      pop\n      jump\t// out\n        /* \"#utility.yul\":5112:5432   */\n    tag_41:\n        /* \"#utility.yul\":5156:5162   */\n      0x00\n        /* \"#utility.yul\":5193:5194   */\n      0x02\n        /* \"#utility.yul\":5187:5191   */\n      dup3\n        /* \"#utility.yul\":5183:5195   */\n      div\n        /* \"#utility.yul\":5173:5195   */\n      swap1\n      pop\n        /* \"#utility.yul\":5240:5241   */\n      0x01\n        /* \"#utility.yul\":5234:5238   */\n      dup3\n        /* \"#utility.yul\":5230:5242   */\n      and\n        /* \"#utility.yul\":5261:5279   */\n      dup1\n        /* \"#utility.yul\":5251:5332   */\n      tag_136\n      jumpi\n        /* \"#utility.yul\":5317:5321   */\n      0x7f\n        /* \"#utility.yul\":5309:5315   */\n      dup3\n        /* \"#utility.yul\":5305:5322   */\n      and\n        /* \"#utility.yul\":5295:5322   */\n      swap2\n      pop\n        /* \"#utility.yul\":5251:5332   */\n    tag_136:\n        /* \"#utility.yul\":5379:5381   */\n      0x20\n        /* \"#utility.yul\":5371:5377   */\n      dup3\n        /* \"#utility.yul\":5368:5382   */\n      lt\n        /* \"#utility.yul\":5348:5366   */\n      dup2\n        /* \"#utility.yul\":5345:5383   */\n      eq\n        /* \"#utility.yul\":5342:5426   */\n      iszero\n      tag_137\n      jumpi\n        /* \"#utility.yul\":5398:5416   */\n      tag_138\n      tag_139\n      jump\t// in\n    tag_138:\n        /* \"#utility.yul\":5342:5426   */\n    tag_137:\n        /* \"#utility.yul\":5163:5432   */\n      pop\n        /* \"#utility.yul\":5112:5432   */\n      swap2\n      swap1\n      pop\n      jump\t// out\n        /* \"#utility.yul\":5438:5719   */\n    tag_112:\n        /* \"#utility.yul\":5521:5548   */\n      tag_141\n        /* \"#utility.yul\":5543:5547   */\n      dup3\n        /* \"#utility.yul\":5521:5548   */\n      tag_119\n      jump\t// in\n    tag_141:\n        /* \"#utility.yul\":5513:5519   */\n      dup2\n        /* \"#utility.yul\":5509:5549   */\n      add\n        /* \"#utility.yul\":5651:5657   */\n      dup2\n        /* \"#utility.yul\":5639:5649   */\n      dup2\n        /* \"#utility.yul\":5636:5658   */\n      lt\n        /* \"#utility.yul\":5615:5633   */\n      0xffffffffffffffff\n        /* \"#utility.yul\":5603:5613   */\n      dup3\n        /* \"#utility.yul\":5600:5634   */\n      gt\n        /* \"#utility.yul\":5597:5659   */\n      or\n        /* \"#utility.yul\":5594:5682   */\n      iszero\n      tag_142\n      jumpi\n        /* \"#utility.yul\":5662:5680   */\n      tag_143\n      tag_117\n      jump\t// in\n    tag_143:\n        /* \"#utility.yul\":5594:5682   */\n    tag_142:\n        /* \"#utility.yul\":5702:5712   */\n      dup1\n        /* \"#utility.yul\":5698:5700   */\n      0x40\n        /* \"#utility.yul\":5691:5713   */\n      mstore\n        /* \"#utility.yul\":5481:5719   */\n      pop\n        /* \"#utility.yul\":5438:5719   */\n      pop\n      pop\n      jump\t// out\n        /* \"#utility.yul\":5725:5905   */\n    tag_127:\n        /* \"#utility.yul\":5773:5850   */\n      0x4e487b7100000000000000000000000000000000000000000000000000000000\n        /* \"#utility.yul\":5770:5771   */\n      0x00\n        /* \"#utility.yul\":5763:5851   */\n      mstore\n        /* \"#utility.yul\":5870:5874   */\n      0x11\n        /* \"#utility.yul\":5867:5868   */\n      0x04\n        /* \"#utility.yul\":5860:5875   */\n      mstore\n        /* \"#utility.yul\":5894:5898   */\n      0x24\n        /* \"#utility.yul\":5891:5892   */\n      0x00\n        /* \"#utility.yul\":5884:5899   */\n      revert\n        /* \"#utility.yul\":5911:6091   */\n    tag_139:\n        /* \"#utility.yul\":5959:6036   */\n      0x4e487b7100000000000000000000000000000000000000000000000000000000\n        /* \"#utility.yul\":5956:5957   */\n      0x00\n        /* \"#utility.yul\":5949:6037   */\n      mstore\n        /* \"#utility.yul\":6056:6060   */\n      0x22\n        /* \"#utility.yul\":6053:6054   */\n      0x04\n        /* \"#utility.yul\":6046:6061   */\n      mstore\n        /* \"#utility.yul\":6080:6084   */\n      0x24\n        /* \"#utility.yul\":6077:6078   */\n      0x00\n        /* \"#utility.yul\":6070:6085   */\n      revert\n        /* \"#utility.yul\":6097:6277   */\n    tag_117:\n        /* \"#utility.yul\":6145:6222   */\n      0x4e487b7100000000000000000000000000000000000000000000000000000000\n        /* \"#utility.yul\":6142:6143   */\n      0x00\n        /* \"#utility.yul\":6135:6223   */\n      mstore\n        /* \"#utility.yul\":6242:6246   */\n      0x41\n        /* \"#utility.yul\":6239:6240   */\n      0x04\n        /* \"#utility.yul\":6232:6247   */\n      mstore\n        /* \"#utility.yul\":6266:6270   */\n      0x24\n        /* \"#utility.yul\":6263:6264   */\n      0x00\n        /* \"#utility.yul\":6256:6271   */\n      revert\n        /* \"#utility.yul\":6283:6400   */\n    tag_67:\n        /* \"#utility.yul\":6392:6393   */\n      0x00\n        /* \"#utility.yul\":6389:6390   */\n      dup1\n        /* \"#utility.yul\":6382:6394   */\n      revert\n        /* \"#utility.yul\":6406:6523   */\n    tag_60:\n        /* \"#utility.yul\":6515:6516   */\n      0x00\n        /* \"#utility.yul\":6512:6513   */\n      dup1\n        /* \"#utility.yul\":6505:6517   */\n      revert\n        /* \"#utility.yul\":6529:6646   */\n    tag_79:\n        /* \"#utility.yul\":6638:6639   */\n      0x00\n        /* \"#utility.yul\":6635:6636   */\n      dup1\n        /* \"#utility.yul\":6628:6640   */\n      revert\n        /* \"#utility.yul\":6652:6769   */\n    tag_76:\n        /* \"#utility.yul\":6761:6762   */\n      0x00\n        /* \"#utility.yul\":6758:6759   */\n      dup1\n        /* \"#utility.yul\":6751:6763   */\n      revert\n        /* \"#utility.yul\":6775:6877   */\n    tag_119:\n        /* \"#utility.yul\":6816:6822   */\n      0x00\n        /* \"#utility.yul\":6867:6869   */\n      0x1f\n        /* \"#utility.yul\":6863:6870   */\n      not\n        /* \"#utility.yul\":6858:6860   */\n      0x1f\n        /* \"#utility.yul\":6851:6856   */\n      dup4\n        /* \"#utility.yul\":6847:6861   */\n      add\n        /* \"#utility.yul\":6843:6871   */\n      and\n        /* \"#utility.yul\":6833:6871   */\n      swap1\n      pop\n        /* \"#utility.yul\":6775:6877   */\n      swap2\n      swap1\n      pop\n      jump\t// out\n        /* \"#utility.yul\":6883:7005   */\n    tag_72:\n        /* \"#utility.yul\":6956:6980   */\n      tag_153\n        /* \"#utility.yul\":6974:6979   */\n      dup2\n        /* \"#utility.yul\":6956:6980   */\n      tag_103\n      jump\t// in\n    tag_153:\n        /* \"#utility.yul\":6949:6954   */\n      dup2\n        /* \"#utility.yul\":6946:6981   */\n      eq\n        /* \"#utility.yul\":6936:6999   */\n      tag_154\n      jumpi\n        /* \"#utility.yul\":6995:6996   */\n      0x00\n        /* \"#utility.yul\":6992:6993   */\n      dup1\n        /* \"#utility.yul\":6985:6997   */\n      revert\n        /* \"#utility.yul\":6936:6999   */\n    tag_154:\n        /* \"#utility.yul\":6883:7005   */\n      pop\n      jump\t// out\n\n    auxdata: 0xa2646970667358221220123ed5f03816bc24a05d894c553c7b8ce5acc792294a8a836ca0b82d13aaedb264736f6c63430008070033\n}\n",
				"bytecode": {
					"linkReferences": {},
					"object": "608060405234801561001057600080fd5b506106c3806100206000396000f3fe608060405234801561001057600080fd5b50600436106100575760003560e01c80636057361d1461005c5780638bab8dd5146100785780638ec04232146100a8578063a4b4f67a146100c4578063bc832d4e146100e2575b600080fd5b61007660048036038101906100719190610358565b6100fe565b005b610092600480360381019061008d919061030f565b610116565b60405161009f9190610438565b60405180910390f35b6100c260048036038101906100bd9190610358565b610144565b005b6100cc61014e565b6040516100d99190610438565b60405180910390f35b6100fc60048036038101906100f79190610385565b610157565b005b61011360058261010e91906104bf565b610144565b50565b6002818051602081018201805184825260208301602085012081835280955050505050506000915090505481565b8060008190555050565b60008054905090565b600160405180604001604052808481526020018381525090806001815401808255809150506001900390600052602060002090600202016000909190919091506000820151816000015560208201518160010190805190602001906101bd9291906101e7565b505050816002826040516101d19190610421565b9081526020016040518091039020819055505050565b8280546101f390610561565b90600052602060002090601f016020900481019282610215576000855561025c565b82601f1061022e57805160ff191683800117855561025c565b8280016001018555821561025c579182015b8281111561025b578251825591602001919060010190610240565b5b509050610269919061026d565b5090565b5b8082111561028657600081600090555060010161026e565b5090565b600061029d61029884610478565b610453565b9050828152602081018484840111156102b9576102b8610656565b5b6102c484828561051f565b509392505050565b600082601f8301126102e1576102e0610651565b5b81356102f184826020860161028a565b91505092915050565b60008135905061030981610676565b92915050565b60006020828403121561032557610324610660565b5b600082013567ffffffffffffffff8111156103435761034261065b565b5b61034f848285016102cc565b91505092915050565b60006020828403121561036e5761036d610660565b5b600061037c848285016102fa565b91505092915050565b6000806040838503121561039c5761039b610660565b5b60006103aa858286016102fa565b925050602083013567ffffffffffffffff8111156103cb576103ca61065b565b5b6103d7858286016102cc565b9150509250929050565b60006103ec826104a9565b6103f681856104b4565b935061040681856020860161052e565b80840191505092915050565b61041b81610515565b82525050565b600061042d82846103e1565b915081905092915050565b600060208201905061044d6000830184610412565b92915050565b600061045d61046e565b90506104698282610593565b919050565b6000604051905090565b600067ffffffffffffffff82111561049357610492610622565b5b61049c82610665565b9050602081019050919050565b600081519050919050565b600081905092915050565b60006104ca82610515565b91506104d583610515565b9250827fffffffffffffffffffffffffffffffffffffffffffffffffffffffffffffffff0382111561050a576105096105c4565b5b828201905092915050565b6000819050919050565b82818337600083830152505050565b60005b8381101561054c578082015181840152602081019050610531565b8381111561055b576000848401525b50505050565b6000600282049050600182168061057957607f821691505b6020821081141561058d5761058c6105f3565b5b50919050565b61059c82610665565b810181811067ffffffffffffffff821117156105bb576105ba610622565b5b80604052505050565b7f4e487b7100000000000000000000000000000000000000000000000000000000600052601160045260246000fd5b7f4e487b7100000000000000000000000000000000000000000000000000000000600052602260045260246000fd5b7f4e487b7100000000000000000000000000000000000000000000000000000000600052604160045260246000fd5b600080fd5b600080fd5b600080fd5b600080fd5b6000601f19601f8301169050919050565b61067f81610515565b811461068a57600080fd5b5056fea2646970667358221220123ed5f03816bc24a05d894c553c7b8ce5acc792294a8a836ca0b82d13aaedb264736f6c63430008070033",
					"opcodes": "PUSH1 0x80 PUSH1 0x40 MSTORE CALLVALUE DUP1 ISZERO PUSH2 0x10 JUMPI PUSH1 0x0 DUP1 REVERT JUMPDEST POP PUSH2 0x6C3 DUP1 PUSH2 0x20 PUSH1 0x0 CODECOPY PUSH1 0x0 RETURN INVALID PUSH1 0x80 PUSH1 0x40 MSTORE CALLVALUE DUP1 ISZERO PUSH2 0x10 JUMPI PUSH1 0x0 DUP1 REVERT JUMPDEST POP PUSH1 0x4 CALLDATASIZE LT PUSH2 0x57 JUMPI PUSH1 0x0 CALLDATALOAD PUSH1 0xE0 SHR DUP1 PUSH4 0x6057361D EQ PUSH2 0x5C JUMPI DUP1 PUSH4 0x8BAB8DD5 EQ PUSH2 0x78 JUMPI DUP1 PUSH4 0x8EC04232 EQ PUSH2 0xA8 JUMPI DUP1 PUSH4 0xA4B4F67A EQ PUSH2 0xC4 JUMPI DUP1 PUSH4 0xBC832D4E EQ PUSH2 0xE2 JUMPI JUMPDEST PUSH1 0x0 DUP1 REVERT JUMPDEST PUSH2 0x76 PUSH1 0x4 DUP1 CALLDATASIZE SUB DUP2 ADD SWAP1 PUSH2 0x71 SWAP2 SWAP1 PUSH2 0x358 JUMP JUMPDEST PUSH2 0xFE JUMP JUMPDEST STOP JUMPDEST PUSH2 0x92 PUSH1 0x4 DUP1 CALLDATASIZE SUB DUP2 ADD SWAP1 PUSH2 0x8D SWAP2 SWAP1 PUSH2 0x30F JUMP JUMPDEST PUSH2 0x116 JUMP JUMPDEST PUSH1 0x40 MLOAD PUSH2 0x9F SWAP2 SWAP1 PUSH2 0x438 JUMP JUMPDEST PUSH1 0x40 MLOAD DUP1 SWAP2 SUB SWAP1 RETURN JUMPDEST PUSH2 0xC2 PUSH1 0x4 DUP1 CALLDATASIZE SUB DUP2 ADD SWAP1 PUSH2 0xBD SWAP2 SWAP1 PUSH2 0x358 JUMP JUMPDEST PUSH2 0x144 JUMP JUMPDEST STOP JUMPDEST PUSH2 0xCC PUSH2 0x14E JUMP JUMPDEST PUSH1 0x40 MLOAD PUSH2 0xD9 SWAP2 SWAP1 PUSH2 0x438 JUMP JUMPDEST PUSH1 0x40 MLOAD DUP1 SWAP2 SUB SWAP1 RETURN JUMPDEST PUSH2 0xFC PUSH1 0x4 DUP1 CALLDATASIZE SUB DUP2 ADD SWAP1 PUSH2 0xF7 SWAP2 SWAP1 PUSH2 0x385 JUMP JUMPDEST PUSH2 0x157 JUMP JUMPDEST STOP JUMPDEST PUSH2 0x113 PUSH1 0x5 DUP3 PUSH2 0x10E SWAP2 SWAP1 PUSH2 0x4BF JUMP JUMPDEST PUSH2 0x144 JUMP JUMPDEST POP JUMP JUMPDEST PUSH1 0x2 DUP2 DUP1 MLOAD PUSH1 0x20 DUP2 ADD DUP3 ADD DUP1 MLOAD DUP5 DUP3 MSTORE PUSH1 0x20 DUP4 ADD PUSH1 0x20 DUP6 ADD KECCAK256 DUP2 DUP4 MSTORE DUP1 SWAP6 POP POP POP POP POP POP PUSH1 0x0 SWAP2 POP SWAP1 POP SLOAD DUP2 JUMP JUMPDEST DUP1 PUSH1 0x0 DUP2 SWAP1 SSTORE POP POP JUMP JUMPDEST PUSH1 0x0 DUP1 SLOAD SWAP1 POP SWAP1 JUMP JUMPDEST PUSH1 0x1 PUSH1 0x40 MLOAD DUP1 PUSH1 0x40 ADD PUSH1 0x40 MSTORE DUP1 DUP5 DUP2 MSTORE PUSH1 0x20 ADD DUP4 DUP2 MSTORE POP SWAP1 DUP1 PUSH1 0x1 DUP2 SLOAD ADD DUP1 DUP3 SSTORE DUP1 SWAP2 POP POP PUSH1 0x1 SWAP1 SUB SWAP1 PUSH1 0x0 MSTORE PUSH1 0x20 PUSH1 0x0 KECCAK256 SWAP1 PUSH1 0x2 MUL ADD PUSH1 0x0 SWAP1 SWAP2 SWAP1 SWAP2 SWAP1 SWAP2 POP PUSH1 0x0 DUP3 ADD MLOAD DUP2 PUSH1 0x0 ADD SSTORE PUSH1 0x20 DUP3 ADD MLOAD DUP2 PUSH1 0x1 ADD SWAP1 DUP1 MLOAD SWAP1 PUSH1 0x20 ADD SWAP1 PUSH2 0x1BD SWAP3 SWAP2 SWAP1 PUSH2 0x1E7 JUMP JUMPDEST POP POP POP DUP2 PUSH1 0x2 DUP3 PUSH1 0x40 MLOAD PUSH2 0x1D1 SWAP2 SWAP1 PUSH2 0x421 JUMP JUMPDEST SWAP1 DUP2 MSTORE PUSH1 0x20 ADD PUSH1 0x40 MLOAD DUP1 SWAP2 SUB SWAP1 KECCAK256 DUP2 SWAP1 SSTORE POP POP POP JUMP JUMPDEST DUP3 DUP1 SLOAD PUSH2 0x1F3 SWAP1 PUSH2 0x561 JUMP JUMPDEST SWAP1 PUSH1 0x0 MSTORE PUSH1 0x20 PUSH1 0x0 KECCAK256 SWAP1 PUSH1 0x1F ADD PUSH1 0x20 SWAP1 DIV DUP2 ADD SWAP3 DUP3 PUSH2 0x215 JUMPI PUSH1 0x0 DUP6 SSTORE PUSH2 0x25C JUMP JUMPDEST DUP3 PUSH1 0x1F LT PUSH2 0x22E JUMPI DUP1 MLOAD PUSH1 0xFF NOT AND DUP4 DUP1 ADD OR DUP6 SSTORE PUSH2 0x25C JUMP JUMPDEST DUP3 DUP1 ADD PUSH1 0x1 ADD DUP6 SSTORE DUP3 ISZERO PUSH2 0x25C JUMPI SWAP2 DUP3 ADD JUMPDEST DUP3 DUP2 GT ISZERO PUSH2 0x25B JUMPI DUP3 MLOAD DUP3 SSTORE SWAP2 PUSH1 0x20 ADD SWAP2 SWAP1 PUSH1 0x1 ADD SWAP1 PUSH2 0x240 JUMP JUMPDEST JUMPDEST POP SWAP1 POP PUSH2 0x269 SWAP2 SWAP1 PUSH2 0x26D JUMP JUMPDEST POP SWAP1 JUMP JUMPDEST JUMPDEST DUP1 DUP3 GT ISZERO PUSH2 0x286 JUMPI PUSH1 0x0 DUP2 PUSH1 0x0 SWAP1 SSTORE POP PUSH1 0x1 ADD PUSH2 0x26E JUMP JUMPDEST POP SWAP1 JUMP JUMPDEST PUSH1 0x0 PUSH2 0x29D PUSH2 0x298 DUP5 PUSH2 0x478 JUMP JUMPDEST PUSH2 0x453 JUMP JUMPDEST SWAP1 POP DUP3 DUP2 MSTORE PUSH1 0x20 DUP2 ADD DUP5 DUP5 DUP5 ADD GT ISZERO PUSH2 0x2B9 JUMPI PUSH2 0x2B8 PUSH2 0x656 JUMP JUMPDEST JUMPDEST PUSH2 0x2C4 DUP5 DUP3 DUP6 PUSH2 0x51F JUMP JUMPDEST POP SWAP4 SWAP3 POP POP POP JUMP JUMPDEST PUSH1 0x0 DUP3 PUSH1 0x1F DUP4 ADD SLT PUSH2 0x2E1 JUMPI PUSH2 0x2E0 PUSH2 0x651 JUMP JUMPDEST JUMPDEST DUP2 CALLDATALOAD PUSH2 0x2F1 DUP5 DUP3 PUSH1 0x20 DUP7 ADD PUSH2 0x28A JUMP JUMPDEST SWAP2 POP POP SWAP3 SWAP2 POP POP JUMP JUMPDEST PUSH1 0x0 DUP2 CALLDATALOAD SWAP1 POP PUSH2 0x309 DUP2 PUSH2 0x676 JUMP JUMPDEST SWAP3 SWAP2 POP POP JUMP JUMPDEST PUSH1 0x0 PUSH1 0x20 DUP3 DUP5 SUB SLT ISZERO PUSH2 0x325 JUMPI PUSH2 0x324 PUSH2 0x660 JUMP JUMPDEST JUMPDEST PUSH1 0x0 DUP3 ADD CALLDATALOAD PUSH8 0xFFFFFFFFFFFFFFFF DUP2 GT ISZERO PUSH2 0x343 JUMPI PUSH2 0x342 PUSH2 0x65B JUMP JUMPDEST JUMPDEST PUSH2 0x34F DUP5 DUP3 DUP6 ADD PUSH2 0x2CC JUMP JUMPDEST SWAP2 POP POP SWAP3 SWAP2 POP POP JUMP JUMPDEST PUSH1 0x0 PUSH1 0x20 DUP3 DUP5 SUB SLT ISZERO PUSH2 0x36E JUMPI PUSH2 0x36D PUSH2 0x660 JUMP JUMPDEST JUMPDEST PUSH1 0x0 PUSH2 0x37C DUP5 DUP3 DUP6 ADD PUSH2 0x2FA JUMP JUMPDEST SWAP2 POP POP SWAP3 SWAP2 POP POP JUMP JUMPDEST PUSH1 0x0 DUP1 PUSH1 0x40 DUP4 DUP6 SUB SLT ISZERO PUSH2 0x39C JUMPI PUSH2 0x39B PUSH2 0x660 JUMP JUMPDEST JUMPDEST PUSH1 0x0 PUSH2 0x3AA DUP6 DUP3 DUP7 ADD PUSH2 0x2FA JUMP JUMPDEST SWAP3 POP POP PUSH1 0x20 DUP4 ADD CALLDATALOAD PUSH8 0xFFFFFFFFFFFFFFFF DUP2 GT ISZERO PUSH2 0x3CB JUMPI PUSH2 0x3CA PUSH2 0x65B JUMP JUMPDEST JUMPDEST PUSH2 0x3D7 DUP6 DUP3 DUP7 ADD PUSH2 0x2CC JUMP JUMPDEST SWAP2 POP POP SWAP3 POP SWAP3 SWAP1 POP JUMP JUMPDEST PUSH1 0x0 PUSH2 0x3EC DUP3 PUSH2 0x4A9 JUMP JUMPDEST PUSH2 0x3F6 DUP2 DUP6 PUSH2 0x4B4 JUMP JUMPDEST SWAP4 POP PUSH2 0x406 DUP2 DUP6 PUSH1 0x20 DUP7 ADD PUSH2 0x52E JUMP JUMPDEST DUP1 DUP5 ADD SWAP2 POP POP SWAP3 SWAP2 POP POP JUMP JUMPDEST PUSH2 0x41B DUP2 PUSH2 0x515 JUMP JUMPDEST DUP3 MSTORE POP POP JUMP JUMPDEST PUSH1 0x0 PUSH2 0x42D DUP3 DUP5 PUSH2 0x3E1 JUMP JUMPDEST SWAP2 POP DUP2 SWAP1 POP SWAP3 SWAP2 POP POP JUMP JUMPDEST PUSH1 0x0 PUSH1 0x20 DUP3 ADD SWAP1 POP PUSH2 0x44D PUSH1 0x0 DUP4 ADD DUP5 PUSH2 0x412 JUMP JUMPDEST SWAP3 SWAP2 POP POP JUMP JUMPDEST PUSH1 0x0 PUSH2 0x45D PUSH2 0x46E JUMP JUMPDEST SWAP1 POP PUSH2 0x469 DUP3 DUP3 PUSH2 0x593 JUMP JUMPDEST SWAP2 SWAP1 POP JUMP JUMPDEST PUSH1 0x0 PUSH1 0x40 MLOAD SWAP1 POP SWAP1 JUMP JUMPDEST PUSH1 0x0 PUSH8 0xFFFFFFFFFFFFFFFF DUP3 GT ISZERO PUSH2 0x493 JUMPI PUSH2 0x492 PUSH2 0x622 JUMP JUMPDEST JUMPDEST PUSH2 0x49C DUP3 PUSH2 0x665 JUMP JUMPDEST SWAP1 POP PUSH1 0x20 DUP2 ADD SWAP1 POP SWAP2 SWAP1 POP JUMP JUMPDEST PUSH1 0x0 DUP2 MLOAD SWAP1 POP SWAP2 SWAP1 POP JUMP JUMPDEST PUSH1 0x0 DUP2 SWAP1 POP SWAP3 SWAP2 POP POP JUMP JUMPDEST PUSH1 0x0 PUSH2 0x4CA DUP3 PUSH2 0x515 JUMP JUMPDEST SWAP2 POP PUSH2 0x4D5 DUP4 PUSH2 0x515 JUMP JUMPDEST SWAP3 POP DUP3 PUSH32 0xFFFFFFFFFFFFFFFFFFFFFFFFFFFFFFFFFFFFFFFFFFFFFFFFFFFFFFFFFFFFFFFF SUB DUP3 GT ISZERO PUSH2 0x50A JUMPI PUSH2 0x509 PUSH2 0x5C4 JUMP JUMPDEST JUMPDEST DUP3 DUP3 ADD SWAP1 POP SWAP3 SWAP2 POP POP JUMP JUMPDEST PUSH1 0x0 DUP2 SWAP1 POP SWAP2 SWAP1 POP JUMP JUMPDEST DUP3 DUP2 DUP4 CALLDATACOPY PUSH1 0x0 DUP4 DUP4 ADD MSTORE POP POP POP JUMP JUMPDEST PUSH1 0x0 JUMPDEST DUP4 DUP2 LT ISZERO PUSH2 0x54C JUMPI DUP1 DUP3 ADD MLOAD DUP2 DUP5 ADD MSTORE PUSH1 0x20 DUP2 ADD SWAP1 POP PUSH2 0x531 JUMP JUMPDEST DUP4 DUP2 GT ISZERO PUSH2 0x55B JUMPI PUSH1 0x0 DUP5 DUP5 ADD MSTORE JUMPDEST POP POP POP POP JUMP JUMPDEST PUSH1 0x0 PUSH1 0x2 DUP3 DIV SWAP1 POP PUSH1 0x1 DUP3 AND DUP1 PUSH2 0x579 JUMPI PUSH1 0x7F DUP3 AND SWAP2 POP JUMPDEST PUSH1 0x20 DUP3 LT DUP2 EQ ISZERO PUSH2 0x58D JUMPI PUSH2 0x58C PUSH2 0x5F3 JUMP JUMPDEST JUMPDEST POP SWAP2 SWAP1 POP JUMP JUMPDEST PUSH2 0x59C DUP3 PUSH2 0x665 JUMP JUMPDEST DUP2 ADD DUP2 DUP2 LT PUSH8 0xFFFFFFFFFFFFFFFF DUP3 GT OR ISZERO PUSH2 0x5BB JUMPI PUSH2 0x5BA PUSH2 0x622 JUMP JUMPDEST JUMPDEST DUP1 PUSH1 0x40 MSTORE POP POP POP JUMP JUMPDEST PUSH32 0x4E487B7100000000000000000000000000000000000000000000000000000000 PUSH1 0x0 MSTORE PUSH1 0x11 PUSH1 0x4 MSTORE PUSH1 0x24 PUSH1 0x0 REVERT JUMPDEST PUSH32 0x4E487B7100000000000000000000000000000000000000000000000000000000 PUSH1 0x0 MSTORE PUSH1 0x22 PUSH1 0x4 MSTORE PUSH1 0x24 PUSH1 0x0 REVERT JUMPDEST PUSH32 0x4E487B7100000000000000000000000000000000000000000000000000000000 PUSH1 0x0 MSTORE PUSH1 0x41 PUSH1 0x4 MSTORE PUSH1 0x24 PUSH1 0x0 REVERT JUMPDEST PUSH1 0x0 DUP1 REVERT JUMPDEST PUSH1 0x0 DUP1 REVERT JUMPDEST PUSH1 0x0 DUP1 REVERT JUMPDEST PUSH1 0x0 DUP1 REVERT JUMPDEST PUSH1 0x0 PUSH1 0x1F NOT PUSH1 0x1F DUP4 ADD AND SWAP1 POP SWAP2 SWAP1 POP JUMP JUMPDEST PUSH2 0x67F DUP2 PUSH2 0x515 JUMP JUMPDEST DUP2 EQ PUSH2 0x68A JUMPI PUSH1 0x0 DUP1 REVERT JUMPDEST POP JUMP INVALID LOG2 PUSH5 0x6970667358 0x22 SLT KECCAK256 SLT RETURNDATACOPY 0xD5 CREATE CODESIZE AND 0xBC 0x24 LOG0 0x5D DUP10 0x4C SSTORE EXTCODECOPY PUSH28 0x8CE5ACC792294A8A836CA0B82D13AAEDB264736F6C63430008070033 "
				},
				"gasEstimates": {
					"creation": {
						"codeDepositCost": "346200",
						"executionCost": "386",
						"totalCost": "346586"
					},
					"external": {
						"addPerson(uint256,string)": "infinite",
						"nameToFavoriteNumber(string)": "infinite",
						"retrieveFavoriteNumber()": "2481",
						"setFavoriteNumber(uint256)": "22542",
						"store(uint256)": "infinite"
					}
				},
				"methodIdentifiers": {
					"addPerson(uint256,string)": "bc832d4e",
					"nameToFavoriteNumber(string)": "8bab8dd5",
					"retrieveFavoriteNumber()": "a4b4f67a",
					"setFavoriteNumber(uint256)": "8ec04232",
					"store(uint256)": "6057361d"
				}
			},
			"storageLayout": {
				"storage": [
					{
						"astId": 21,
						"contract": "storage-factory/ExtraStorage.sol:ExtraStorage",
						"label": "favoriteNumber",
						"offset": 0,
						"slot": "0",
						"type": "t_uint256"
					},
					{
						"astId": 30,
						"contract": "storage-factory/ExtraStorage.sol:ExtraStorage",
						"label": "people",
						"offset": 0,
						"slot": "1",
						"type": "t_array(t_struct(People)26_storage)dyn_storage"
					},
					{
						"astId": 34,
						"contract": "storage-factory/ExtraStorage.sol:ExtraStorage",
						"label": "nameToFavoriteNumber",
						"offset": 0,
						"slot": "2",
						"type": "t_mapping(t_string_memory_ptr,t_uint256)"
					}
				],
				"types": {
					"t_array(t_struct(People)26_storage)dyn_storage": {
						"base": "t_struct(People)26_storage",
						"encoding": "dynamic_array",
						"label": "struct SimpleStorage.People[]",
						"numberOfBytes": "32"
					},
					"t_mapping(t_string_memory_ptr,t_uint256)": {
						"encoding": "mapping",
						"key": "t_string_memory_ptr",
						"label": "mapping(string => uint256)",
						"numberOfBytes": "32",
						"value": "t_uint256"
					},
					"t_string_memory_ptr": {
						"encoding": "bytes",
						"label": "string",
						"numberOfBytes": "32"
					},
					"t_string_storage": {
						"encoding": "bytes",
						"label": "string",
						"numberOfBytes": "32"
					},
					"t_struct(People)26_storage": {
						"encoding": "inplace",
						"label": "struct SimpleStorage.People",
						"members": [
							{
								"astId": 23,
								"contract": "storage-factory/ExtraStorage.sol:ExtraStorage",
								"label": "favoriteNumber",
								"offset": 0,
								"slot": "0",
								"type": "t_uint256"
							},
							{
								"astId": 25,
								"contract": "storage-factory/ExtraStorage.sol:ExtraStorage",
								"label": "name",
								"offset": 0,
								"slot": "1",
								"type": "t_string_storage"
							}
						],
						"numberOfBytes": "64"
					},
					"t_uint256": {
						"encoding": "inplace",
						"label": "uint256",
						"numberOfBytes": "32"
					}
				}
			},
			"userdoc": {
				"kind": "user",
				"methods": {},
				"version": 1
			}
		}
	}
}