{
	"storage-factory/StorageFactory.sol": {
		"StorageFactory": {
			"abi": [
				{
					"inputs": [],
					"name": "createSimpleStorage",
					"outputs": [],
					"stateMutability": "nonpayable",
					"type": "function"
				},
				{
					"inputs": [
						{
							"internalType": "uint256",
							"name": "_simpleStorageIndex",
							"type": "uint256"
						}
					],
					"name": "sfGet",
					"outputs": [
						{
							"internalType": "uint256",
							"name": "",
							"type": "uint256"
						}
					],
					"stateMutability": "view",
					"type": "function"
				},
				{
					"inputs": [
						{
							"internalType": "uint256",
							"name": "_simpleStorageIndex",
							"type": "uint256"
						},
						{
							"internalType": "uint256",
							"name": "_simpleStorageNumber",
							"type": "uint256"
						}
					],
					"name": "sfStore",
					"outputs": [],
					"stateMutability": "nonpayable",
					"type": "function"
				},
				{
					"inputs": [
						{
							"internalType": "uint256",
							"name": "",
							"type": "uint256"
						}
					],
					"name": "simpleStorageArray",
					"outputs": [
						{
							"internalType": "contract SimpleStorage",
							"name": "",
							"type": "address"
						}
					],
					"stateMutability": "view",
					"type": "function"
				}
			],
			"devdoc": {
				"kind": "dev",
				"methods": {},
				"version": 1
			},
			"evm": {
				"assembly": "    /* \"storage-factory/StorageFactory.sol\":88:651  contract StorageFactory {... */\n  mstore(0x40, 0x80)\n  callvalue\n  dup1\n  iszero\n  tag_1\n  jumpi\n  0x00\n  dup1\n  revert\ntag_1:\n  pop\n  dataSize(sub_0)\n  dup1\n  dataOffset(sub_0)\n  0x00\n  codecopy\n  0x00\n  return\nstop\n\nsub_0: assembly {\n        /* \"storage-factory/StorageFactory.sol\":88:651  contract StorageFactory {... */\n      mstore(0x40, 0x80)\n      callvalue\n      dup1\n      iszero\n      tag_1\n      jumpi\n      0x00\n      dup1\n      revert\n    tag_1:\n      pop\n      jumpi(tag_2, lt(calldatasize, 0x04))\n      shr(0xe0, calldataload(0x00))\n      dup1\n      0x1563700f\n      eq\n      tag_3\n      jumpi\n      dup1\n      0x40d66b3b\n      eq\n      tag_4\n      jumpi\n      dup1\n      0x64591bf1\n      eq\n      tag_5\n      jumpi\n      dup1\n      0xc5f19c20\n      eq\n      tag_6\n      jumpi\n    tag_2:\n      0x00\n      dup1\n      revert\n        /* \"storage-factory/StorageFactory.sol\":317:490  function sfStore(uint256 _simpleStorageIndex, uint256 _simpleStorageNumber) public {... */\n    tag_3:\n      tag_7\n      0x04\n      dup1\n      calldatasize\n      sub\n      dup2\n      add\n      swap1\n      tag_8\n      swap2\n      swap1\n      tag_9\n      jump\t// in\n    tag_8:\n      tag_10\n      jump\t// in\n    tag_7:\n      stop\n        /* \"storage-factory/StorageFactory.sol\":163:313  function createSimpleStorage() public virtual {... */\n    tag_4:\n      tag_11\n      tag_12\n      jump\t// in\n    tag_11:\n      stop\n        /* \"storage-factory/StorageFactory.sol\":117:158  SimpleStorage[] public simpleStorageArray */\n    tag_5:\n      tag_13\n      0x04\n      dup1\n      calldatasize\n      sub\n      dup2\n      add\n      swap1\n      tag_14\n      swap2\n      swap1\n      tag_15\n      jump\t// in\n    tag_14:\n      tag_16\n      jump\t// in\n    tag_13:\n      mload(0x40)\n      tag_17\n      swap2\n      swap1\n      tag_18\n      jump\t// in\n    tag_17:\n      mload(0x40)\n      dup1\n      swap2\n      sub\n      swap1\n      return\n        /* \"storage-factory/StorageFactory.sol\":494:649  function sfGet(uint256 _simpleStorageIndex) public view returns (uint256){... */\n    tag_6:\n      tag_19\n      0x04\n      dup1\n      calldatasize\n      sub\n      dup2\n      add\n      swap1\n      tag_20\n      swap2\n      swap1\n      tag_15\n      jump\t// in\n    tag_20:\n      tag_21\n      jump\t// in\n    tag_19:\n      mload(0x40)\n      tag_22\n      swap2\n      swap1\n      tag_23\n      jump\t// in\n    tag_22:\n      mload(0x40)\n      dup1\n      swap2\n      sub\n      swap1\n      return\n        /* \"storage-factory/StorageFactory.sol\":317:490  function sfStore(uint256 _simpleStorageIndex, uint256 _simpleStorageNumber) public {... */\n    tag_10:\n        /* \"storage-factory/StorageFactory.sol\":406:424  simpleStorageArray */\n      0x00\n        /* \"storage-factory/StorageFactory.sol\":425:444  _simpleStorageIndex */\n      dup3\n        /* \"storage-factory/StorageFactory.sol\":406:445  simpleStorageArray[_simpleStorageIndex] */\n      dup2\n      sload\n      dup2\n      lt\n      tag_25\n      jumpi\n      tag_26\n      tag_27\n      jump\t// in\n    tag_26:\n    tag_25:\n      swap1\n      0x00\n      mstore\n      keccak256(0x00, 0x20)\n      add\n      0x00\n      swap1\n      sload\n      swap1\n      0x0100\n      exp\n      swap1\n      div\n      0xffffffffffffffffffffffffffffffffffffffff\n      and\n        /* \"storage-factory/StorageFactory.sol\":406:463  simpleStorageArray[_simpleStorageIndex].setFavoriteNumber */\n      0xffffffffffffffffffffffffffffffffffffffff\n      and\n      0x8ec04232\n        /* \"storage-factory/StorageFactory.sol\":464:484  _simpleStorageNumber */\n      dup3\n        /* \"storage-factory/StorageFactory.sol\":406:485  simpleStorageArray[_simpleStorageIndex].setFavoriteNumber(_simpleStorageNumber) */\n      mload(0x40)\n      dup3\n      0xffffffff\n      and\n      0xe0\n      shl\n      dup2\n      mstore\n      0x04\n      add\n      tag_29\n      swap2\n      swap1\n      tag_23\n      jump\t// in\n    tag_29:\n      0x00\n      mload(0x40)\n      dup1\n      dup4\n      sub\n      dup2\n      0x00\n      dup8\n      dup1\n      extcodesize\n      iszero\n      dup1\n      iszero\n      tag_30\n      jumpi\n      0x00\n      dup1\n      revert\n    tag_30:\n      pop\n      gas\n      call\n      iszero\n      dup1\n      iszero\n      tag_32\n      jumpi\n      returndatasize\n      0x00\n      dup1\n      returndatacopy\n      revert(0x00, returndatasize)\n    tag_32:\n      pop\n      pop\n      pop\n      pop\n        /* \"storage-factory/StorageFactory.sol\":317:490  function sfStore(uint256 _simpleStorageIndex, uint256 _simpleStorageNumber) public {... */\n      pop\n      pop\n      jump\t// out\n        /* \"storage-factory/StorageFactory.sol\":163:313  function createSimpleStorage() public virtual {... */\n    tag_12:\n        /* \"storage-factory/StorageFactory.sol\":215:242  SimpleStorage simpleStorage */\n      0x00\n        /* \"storage-factory/StorageFactory.sol\":245:264  new SimpleStorage() */\n      mload(0x40)\n      tag_34\n      swap1\n      tag_35\n      jump\t// in\n    tag_34:\n      mload(0x40)\n      dup1\n      swap2\n      sub\n      swap1\n      0x00\n      create\n      dup1\n      iszero\n      dup1\n      iszero\n      tag_36\n      jumpi\n      returndatasize\n      0x00\n      dup1\n      returndatacopy\n      revert(0x00, returndatasize)\n    tag_36:\n      pop\n        /* \"storage-factory/StorageFactory.sol\":215:264  SimpleStorage simpleStorage = new SimpleStorage() */\n      swap1\n      pop\n        /* \"storage-factory/StorageFactory.sol\":270:288  simpleStorageArray */\n      0x00\n        /* \"storage-factory/StorageFactory.sol\":294:307  simpleStorage */\n      dup2\n        /* \"storage-factory/StorageFactory.sol\":270:308  simpleStorageArray.push(simpleStorage) */\n      swap1\n      dup1\n      0x01\n      dup2\n      sload\n      add\n      dup1\n      dup3\n      sstore\n      dup1\n      swap2\n      pop\n      pop\n      0x01\n      swap1\n      sub\n      swap1\n      0x00\n      mstore\n      keccak256(0x00, 0x20)\n      add\n      0x00\n      swap1\n      swap2\n      swap1\n      swap2\n      swap1\n      swap2\n      0x0100\n      exp\n      dup2\n      sload\n      dup2\n      0xffffffffffffffffffffffffffffffffffffffff\n      mul\n      not\n      and\n      swap1\n      dup4\n      0xffffffffffffffffffffffffffffffffffffffff\n      and\n      mul\n      or\n      swap1\n      sstore\n      pop\n        /* \"storage-factory/StorageFactory.sol\":209:313  {... */\n      pop\n        /* \"storage-factory/StorageFactory.sol\":163:313  function createSimpleStorage() public virtual {... */\n      jump\t// out\n        /* \"storage-factory/StorageFactory.sol\":117:158  SimpleStorage[] public simpleStorageArray */\n    tag_16:\n      0x00\n      dup2\n      dup2\n      sload\n      dup2\n      lt\n      tag_38\n      jumpi\n      0x00\n      dup1\n      revert\n    tag_38:\n      swap1\n      0x00\n      mstore\n      keccak256(0x00, 0x20)\n      add\n      0x00\n      swap2\n      pop\n      sload\n      swap1\n      0x0100\n      exp\n      swap1\n      div\n      0xffffffffffffffffffffffffffffffffffffffff\n      and\n      dup2\n      jump\t// out\n        /* \"storage-factory/StorageFactory.sol\":494:649  function sfGet(uint256 _simpleStorageIndex) public view returns (uint256){... */\n    tag_21:\n        /* \"storage-factory/StorageFactory.sol\":559:566  uint256 */\n      0x00\n        /* \"storage-factory/StorageFactory.sol\":580:598  simpleStorageArray */\n      dup1\n        /* \"storage-factory/StorageFactory.sol\":599:618  _simpleStorageIndex */\n      dup3\n        /* \"storage-factory/StorageFactory.sol\":580:619  simpleStorageArray[_simpleStorageIndex] */\n      dup2\n      sload\n      dup2\n      lt\n      tag_41\n      jumpi\n      tag_42\n      tag_27\n      jump\t// in\n    tag_42:\n    tag_41:\n      swap1\n      0x00\n      mstore\n      keccak256(0x00, 0x20)\n      add\n      0x00\n      swap1\n      sload\n      swap1\n      0x0100\n      exp\n      swap1\n      div\n      0xffffffffffffffffffffffffffffffffffffffff\n      and\n        /* \"storage-factory/StorageFactory.sol\":580:642  simpleStorageArray[_simpleStorageIndex].retrieveFavoriteNumber */\n      0xffffffffffffffffffffffffffffffffffffffff\n      and\n      0xa4b4f67a\n        /* \"storage-factory/StorageFactory.sol\":580:644  simpleStorageArray[_simpleStorageIndex].retrieveFavoriteNumber() */\n      mload(0x40)\n      dup2\n      0xffffffff\n      and\n      0xe0\n      shl\n      dup2\n      mstore\n      0x04\n      add\n      0x20\n      mload(0x40)\n      dup1\n      dup4\n      sub\n      dup2\n      dup7\n      dup1\n      extcodesize\n      iszero\n      dup1\n      iszero\n      tag_44\n      jumpi\n      0x00\n      dup1\n      revert\n    tag_44:\n      pop\n      gas\n      staticcall\n      iszero\n      dup1\n      iszero\n      tag_46\n      jumpi\n      returndatasize\n      0x00\n      dup1\n      returndatacopy\n      revert(0x00, returndatasize)\n    tag_46:\n      pop\n      pop\n      pop\n      pop\n      mload(0x40)\n      returndatasize\n      not(0x1f)\n      0x1f\n      dup3\n      add\n      and\n      dup3\n      add\n      dup1\n      0x40\n      mstore\n      pop\n      dup2\n      add\n      swap1\n      tag_47\n      swap2\n      swap1\n      tag_48\n      jump\t// in\n    tag_47:\n        /* \"storage-factory/StorageFactory.sol\":573:644  return simpleStorageArray[_simpleStorageIndex].retrieveFavoriteNumber() */\n      swap1\n      pop\n        /* \"storage-factory/StorageFactory.sol\":494:649  function sfGet(uint256 _simpleStorageIndex) public view returns (uint256){... */\n      swap2\n      swap1\n      pop\n      jump\t// out\n    tag_35:\n      dataSize(sub_0)\n      dup1\n      dataOffset(sub_0)\n      dup4\n      codecopy\n      add\n      swap1\n      jump\t// out\n        /* \"#utility.yul\":7:146   */\n    tag_50:\n        /* \"#utility.yul\":53:58   */\n      0x00\n        /* \"#utility.yul\":91:97   */\n      dup2\n        /* \"#utility.yul\":78:98   */\n      calldataload\n        /* \"#utility.yul\":69:98   */\n      swap1\n      pop\n        /* \"#utility.yul\":107:140   */\n      tag_52\n        /* \"#utility.yul\":134:139   */\n      dup2\n        /* \"#utility.yul\":107:140   */\n      tag_53\n      jump\t// in\n    tag_52:\n        /* \"#utility.yul\":7:146   */\n      swap3\n      swap2\n      pop\n      pop\n      jump\t// out\n        /* \"#utility.yul\":152:295   */\n    tag_54:\n        /* \"#utility.yul\":209:214   */\n      0x00\n        /* \"#utility.yul\":240:246   */\n      dup2\n        /* \"#utility.yul\":234:247   */\n      mload\n        /* \"#utility.yul\":225:247   */\n      swap1\n      pop\n        /* \"#utility.yul\":256:289   */\n      tag_56\n        /* \"#utility.yul\":283:288   */\n      dup2\n        /* \"#utility.yul\":256:289   */\n      tag_53\n      jump\t// in\n    tag_56:\n        /* \"#utility.yul\":152:295   */\n      swap3\n      swap2\n      pop\n      pop\n      jump\t// out\n        /* \"#utility.yul\":301:630   */\n    tag_15:\n        /* \"#utility.yul\":360:366   */\n      0x00\n        /* \"#utility.yul\":409:411   */\n      0x20\n        /* \"#utility.yul\":397:406   */\n      dup3\n        /* \"#utility.yul\":388:395   */\n      dup5\n        /* \"#utility.yul\":384:407   */\n      sub\n        /* \"#utility.yul\":380:412   */\n      slt\n        /* \"#utility.yul\":377:496   */\n      iszero\n      tag_58\n      jumpi\n        /* \"#utility.yul\":415:494   */\n      tag_59\n      tag_60\n      jump\t// in\n    tag_59:\n        /* \"#utility.yul\":377:496   */\n    tag_58:\n        /* \"#utility.yul\":535:536   */\n      0x00\n        /* \"#utility.yul\":560:613   */\n      tag_61\n        /* \"#utility.yul\":605:612   */\n      dup5\n        /* \"#utility.yul\":596:602   */\n      dup3\n        /* \"#utility.yul\":585:594   */\n      dup6\n        /* \"#utility.yul\":581:603   */\n      add\n        /* \"#utility.yul\":560:613   */\n      tag_50\n      jump\t// in\n    tag_61:\n        /* \"#utility.yul\":550:613   */\n      swap2\n      pop\n        /* \"#utility.yul\":506:623   */\n      pop\n        /* \"#utility.yul\":301:630   */\n      swap3\n      swap2\n      pop\n      pop\n      jump\t// out\n        /* \"#utility.yul\":636:987   */\n    tag_48:\n        /* \"#utility.yul\":706:712   */\n      0x00\n        /* \"#utility.yul\":755:757   */\n      0x20\n        /* \"#utility.yul\":743:752   */\n      dup3\n        /* \"#utility.yul\":734:741   */\n      dup5\n        /* \"#utility.yul\":730:753   */\n      sub\n        /* \"#utility.yul\":726:758   */\n      slt\n        /* \"#utility.yul\":723:842   */\n      iszero\n      tag_63\n      jumpi\n        /* \"#utility.yul\":761:840   */\n      tag_64\n      tag_60\n      jump\t// in\n    tag_64:\n        /* \"#utility.yul\":723:842   */\n    tag_63:\n        /* \"#utility.yul\":881:882   */\n      0x00\n        /* \"#utility.yul\":906:970   */\n      tag_65\n        /* \"#utility.yul\":962:969   */\n      dup5\n        /* \"#utility.yul\":953:959   */\n      dup3\n        /* \"#utility.yul\":942:951   */\n      dup6\n        /* \"#utility.yul\":938:960   */\n      add\n        /* \"#utility.yul\":906:970   */\n      tag_54\n      jump\t// in\n    tag_65:\n        /* \"#utility.yul\":896:970   */\n      swap2\n      pop\n        /* \"#utility.yul\":852:980   */\n      pop\n        /* \"#utility.yul\":636:987   */\n      swap3\n      swap2\n      pop\n      pop\n      jump\t// out\n        /* \"#utility.yul\":993:1467   */\n    tag_9:\n        /* \"#utility.yul\":1061:1067   */\n      0x00\n        /* \"#utility.yul\":1069:1075   */\n      dup1\n        /* \"#utility.yul\":1118:1120   */\n      0x40\n        /* \"#utility.yul\":1106:1115   */\n      dup4\n        /* \"#utility.yul\":1097:1104   */\n      dup6\n        /* \"#utility.yul\":1093:1116   */\n      sub\n        /* \"#utility.yul\":1089:1121   */\n      slt\n        /* \"#utility.yul\":1086:1205   */\n      iszero\n      tag_67\n      jumpi\n        /* \"#utility.yul\":1124:1203   */\n      tag_68\n      tag_60\n      jump\t// in\n    tag_68:\n        /* \"#utility.yul\":1086:1205   */\n    tag_67:\n        /* \"#utility.yul\":1244:1245   */\n      0x00\n        /* \"#utility.yul\":1269:1322   */\n      tag_69\n        /* \"#utility.yul\":1314:1321   */\n      dup6\n        /* \"#utility.yul\":1305:1311   */\n      dup3\n        /* \"#utility.yul\":1294:1303   */\n      dup7\n        /* \"#utility.yul\":1290:1312   */\n      add\n        /* \"#utility.yul\":1269:1322   */\n      tag_50\n      jump\t// in\n    tag_69:\n        /* \"#utility.yul\":1259:1322   */\n      swap3\n      pop\n        /* \"#utility.yul\":1215:1332   */\n      pop\n        /* \"#utility.yul\":1371:1373   */\n      0x20\n        /* \"#utility.yul\":1397:1450   */\n      tag_70\n        /* \"#utility.yul\":1442:1449   */\n      dup6\n        /* \"#utility.yul\":1433:1439   */\n      dup3\n        /* \"#utility.yul\":1422:1431   */\n      dup7\n        /* \"#utility.yul\":1418:1440   */\n      add\n        /* \"#utility.yul\":1397:1450   */\n      tag_50\n      jump\t// in\n    tag_70:\n        /* \"#utility.yul\":1387:1450   */\n      swap2\n      pop\n        /* \"#utility.yul\":1342:1460   */\n      pop\n        /* \"#utility.yul\":993:1467   */\n      swap3\n      pop\n      swap3\n      swap1\n      pop\n      jump\t// out\n        /* \"#utility.yul\":1473:1644   */\n    tag_71:\n        /* \"#utility.yul\":1580:1637   */\n      tag_73\n        /* \"#utility.yul\":1631:1636   */\n      dup2\n        /* \"#utility.yul\":1580:1637   */\n      tag_74\n      jump\t// in\n    tag_73:\n        /* \"#utility.yul\":1575:1578   */\n      dup3\n        /* \"#utility.yul\":1568:1638   */\n      mstore\n        /* \"#utility.yul\":1473:1644   */\n      pop\n      pop\n      jump\t// out\n        /* \"#utility.yul\":1650:1768   */\n    tag_75:\n        /* \"#utility.yul\":1737:1761   */\n      tag_77\n        /* \"#utility.yul\":1755:1760   */\n      dup2\n        /* \"#utility.yul\":1737:1761   */\n      tag_78\n      jump\t// in\n    tag_77:\n        /* \"#utility.yul\":1732:1735   */\n      dup3\n        /* \"#utility.yul\":1725:1762   */\n      mstore\n        /* \"#utility.yul\":1650:1768   */\n      pop\n      pop\n      jump\t// out\n        /* \"#utility.yul\":1774:2036   */\n    tag_18:\n        /* \"#utility.yul\":1887:1891   */\n      0x00\n        /* \"#utility.yul\":1925:1927   */\n      0x20\n        /* \"#utility.yul\":1914:1923   */\n      dup3\n        /* \"#utility.yul\":1910:1928   */\n      add\n        /* \"#utility.yul\":1902:1928   */\n      swap1\n      pop\n        /* \"#utility.yul\":1938:2029   */\n      tag_80\n        /* \"#utility.yul\":2026:2027   */\n      0x00\n        /* \"#utility.yul\":2015:2024   */\n      dup4\n        /* \"#utility.yul\":2011:2028   */\n      add\n        /* \"#utility.yul\":2002:2008   */\n      dup5\n        /* \"#utility.yul\":1938:2029   */\n      tag_71\n      jump\t// in\n    tag_80:\n        /* \"#utility.yul\":1774:2036   */\n      swap3\n      swap2\n      pop\n      pop\n      jump\t// out\n        /* \"#utility.yul\":2042:2264   */\n    tag_23:\n        /* \"#utility.yul\":2135:2139   */\n      0x00\n        /* \"#utility.yul\":2173:2175   */\n      0x20\n        /* \"#utility.yul\":2162:2171   */\n      dup3\n        /* \"#utility.yul\":2158:2176   */\n      add\n        /* \"#utility.yul\":2150:2176   */\n      swap1\n      pop\n        /* \"#utility.yul\":2186:2257   */\n      tag_82\n        /* \"#utility.yul\":2254:2255   */\n      0x00\n        /* \"#utility.yul\":2243:2252   */\n      dup4\n        /* \"#utility.yul\":2239:2256   */\n      add\n        /* \"#utility.yul\":2230:2236   */\n      dup5\n        /* \"#utility.yul\":2186:2257   */\n      tag_75\n      jump\t// in\n    tag_82:\n        /* \"#utility.yul\":2042:2264   */\n      swap3\n      swap2\n      pop\n      pop\n      jump\t// out\n        /* \"#utility.yul\":2351:2477   */\n    tag_85:\n        /* \"#utility.yul\":2388:2395   */\n      0x00\n        /* \"#utility.yul\":2428:2470   */\n      0xffffffffffffffffffffffffffffffffffffffff\n        /* \"#utility.yul\":2421:2426   */\n      dup3\n        /* \"#utility.yul\":2417:2471   */\n      and\n        /* \"#utility.yul\":2406:2471   */\n      swap1\n      pop\n        /* \"#utility.yul\":2351:2477   */\n      swap2\n      swap1\n      pop\n      jump\t// out\n        /* \"#utility.yul\":2483:2560   */\n    tag_78:\n        /* \"#utility.yul\":2520:2527   */\n      0x00\n        /* \"#utility.yul\":2549:2554   */\n      dup2\n        /* \"#utility.yul\":2538:2554   */\n      swap1\n      pop\n        /* \"#utility.yul\":2483:2560   */\n      swap2\n      swap1\n      pop\n      jump\t// out\n        /* \"#utility.yul\":2566:2712   */\n    tag_74:\n        /* \"#utility.yul\":2636:2645   */\n      0x00\n        /* \"#utility.yul\":2669:2706   */\n      tag_89\n        /* \"#utility.yul\":2700:2705   */\n      dup3\n        /* \"#utility.yul\":2669:2706   */\n      tag_90\n      jump\t// in\n    tag_89:\n        /* \"#utility.yul\":2656:2706   */\n      swap1\n      pop\n        /* \"#utility.yul\":2566:2712   */\n      swap2\n      swap1\n      pop\n      jump\t// out\n        /* \"#utility.yul\":2718:2844   */\n    tag_90:\n        /* \"#utility.yul\":2768:2777   */\n      0x00\n        /* \"#utility.yul\":2801:2838   */\n      tag_92\n        /* \"#utility.yul\":2832:2837   */\n      dup3\n        /* \"#utility.yul\":2801:2838   */\n      tag_93\n      jump\t// in\n    tag_92:\n        /* \"#utility.yul\":2788:2838   */\n      swap1\n      pop\n        /* \"#utility.yul\":2718:2844   */\n      swap2\n      swap1\n      pop\n      jump\t// out\n        /* \"#utility.yul\":2850:2963   */\n    tag_93:\n        /* \"#utility.yul\":2900:2909   */\n      0x00\n        /* \"#utility.yul\":2933:2957   */\n      tag_95\n        /* \"#utility.yul\":2951:2956   */\n      dup3\n        /* \"#utility.yul\":2933:2957   */\n      tag_85\n      jump\t// in\n    tag_95:\n        /* \"#utility.yul\":2920:2957   */\n      swap1\n      pop\n        /* \"#utility.yul\":2850:2963   */\n      swap2\n      swap1\n      pop\n      jump\t// out\n        /* \"#utility.yul\":2969:3149   */\n    tag_27:\n        /* \"#utility.yul\":3017:3094   */\n      0x4e487b7100000000000000000000000000000000000000000000000000000000\n        /* \"#utility.yul\":3014:3015   */\n      0x00\n        /* \"#utility.yul\":3007:3095   */\n      mstore\n        /* \"#utility.yul\":3114:3118   */\n      0x32\n        /* \"#utility.yul\":3111:3112   */\n      0x04\n        /* \"#utility.yul\":3104:3119   */\n      mstore\n        /* \"#utility.yul\":3138:3142   */\n      0x24\n        /* \"#utility.yul\":3135:3136   */\n      0x00\n        /* \"#utility.yul\":3128:3143   */\n      revert\n        /* \"#utility.yul\":3278:3395   */\n    tag_60:\n        /* \"#utility.yul\":3387:3388   */\n      0x00\n        /* \"#utility.yul\":3384:3385   */\n      dup1\n        /* \"#utility.yul\":3377:3389   */\n      revert\n        /* \"#utility.yul\":3401:3523   */\n    tag_53:\n        /* \"#utility.yul\":3474:3498   */\n      tag_101\n        /* \"#utility.yul\":3492:3497   */\n      dup2\n        /* \"#utility.yul\":3474:3498   */\n      tag_78\n      jump\t// in\n    tag_101:\n        /* \"#utility.yul\":3467:3472   */\n      dup2\n        /* \"#utility.yul\":3464:3499   */\n      eq\n        /* \"#utility.yul\":3454:3517   */\n      tag_102\n      jumpi\n        /* \"#utility.yul\":3513:3514   */\n      0x00\n        /* \"#utility.yul\":3510:3511   */\n      dup1\n        /* \"#utility.yul\":3503:3515   */\n      revert\n        /* \"#utility.yul\":3454:3517   */\n    tag_102:\n        /* \"#utility.yul\":3401:3523   */\n      pop\n      jump\t// out\n    stop\n\n    sub_0: assembly {\n            /* \"storage-factory/SimpleStorage.sol\":57:694  contract SimpleStorage {... */\n          mstore(0x40, 0x80)\n          callvalue\n          dup1\n          iszero\n          tag_1\n          jumpi\n          0x00\n          dup1\n          revert\n        tag_1:\n          pop\n          dataSize(sub_0)\n          dup1\n          dataOffset(sub_0)\n          0x00\n          codecopy\n          0x00\n          return\n        stop\n\n        sub_0: assembly {\n                /* \"storage-factory/SimpleStorage.sol\":57:694  contract SimpleStorage {... */\n              mstore(0x40, 0x80)\n              callvalue\n              dup1\n              iszero\n              tag_1\n              jumpi\n              0x00\n              dup1\n              revert\n            tag_1:\n              pop\n              jumpi(tag_2, lt(calldatasize, 0x04))\n              shr(0xe0, calldataload(0x00))\n              dup1\n              0x8bab8dd5\n              eq\n              tag_3\n              jumpi\n              dup1\n              0x8ec04232\n              eq\n              tag_4\n              jumpi\n              dup1\n              0xa4b4f67a\n              eq\n              tag_5\n              jumpi\n              dup1\n              0xbc832d4e\n              eq\n              tag_6\n              jumpi\n            tag_2:\n              0x00\n              dup1\n              revert\n                /* \"storage-factory/SimpleStorage.sol\":198:252  mapping(string => uint256) public nameToFavoriteNumber */\n            tag_3:\n              tag_7\n              0x04\n              dup1\n              calldatasize\n              sub\n              dup2\n              add\n              swap1\n              tag_8\n              swap2\n              swap1\n              tag_9\n              jump\t// in\n            tag_8:\n              tag_10\n              jump\t// in\n            tag_7:\n              mload(0x40)\n              tag_11\n              swap2\n              swap1\n              tag_12\n              jump\t// in\n            tag_11:\n              mload(0x40)\n              dup1\n              swap2\n              sub\n              swap1\n              return\n                /* \"storage-factory/SimpleStorage.sol\":257:359  function setFavoriteNumber(uint256 _favoriteNumber) public {... */\n            tag_4:\n              tag_13\n              0x04\n              dup1\n              calldatasize\n              sub\n              dup2\n              add\n              swap1\n              tag_14\n              swap2\n              swap1\n              tag_15\n              jump\t// in\n            tag_14:\n              tag_16\n              jump\t// in\n            tag_13:\n              stop\n                /* \"storage-factory/SimpleStorage.sol\":363:459  function retrieveFavoriteNumber() public view returns (uint256) {... */\n            tag_5:\n              tag_17\n              tag_18\n              jump\t// in\n            tag_17:\n              mload(0x40)\n              tag_19\n              swap2\n              swap1\n              tag_12\n              jump\t// in\n            tag_19:\n              mload(0x40)\n              dup1\n              swap2\n              sub\n              swap1\n              return\n                /* \"storage-factory/SimpleStorage.sol\":463:692  function addPerson(uint256 _favoriteNumber, string memory _name) public {... */\n            tag_6:\n              tag_20\n              0x04\n              dup1\n              calldatasize\n              sub\n              dup2\n              add\n              swap1\n              tag_21\n              swap2\n              swap1\n              tag_22\n              jump\t// in\n            tag_21:\n              tag_23\n              jump\t// in\n            tag_20:\n              stop\n                /* \"storage-factory/SimpleStorage.sol\":198:252  mapping(string => uint256) public nameToFavoriteNumber */\n            tag_10:\n              0x02\n              dup2\n              dup1\n              mload\n              0x20\n              dup2\n              add\n              dup3\n              add\n              dup1\n              mload\n              dup5\n              dup3\n              mstore\n              0x20\n              dup4\n              add\n              0x20\n              dup6\n              add\n              keccak256\n              dup2\n              dup4\n              mstore\n              dup1\n              swap6\n              pop\n              pop\n              pop\n              pop\n              pop\n              pop\n              0x00\n              swap2\n              pop\n              swap1\n              pop\n              sload\n              dup2\n              jump\t// out\n                /* \"storage-factory/SimpleStorage.sol\":257:359  function setFavoriteNumber(uint256 _favoriteNumber) public {... */\n            tag_16:\n                /* \"storage-factory/SimpleStorage.sol\":339:354  _favoriteNumber */\n              dup1\n                /* \"storage-factory/SimpleStorage.sol\":322:336  favoriteNumber */\n              0x00\n                /* \"storage-factory/SimpleStorage.sol\":322:354  favoriteNumber = _favoriteNumber */\n              dup2\n              swap1\n              sstore\n              pop\n                /* \"storage-factory/SimpleStorage.sol\":257:359  function setFavoriteNumber(uint256 _favoriteNumber) public {... */\n              pop\n              jump\t// out\n                /* \"storage-factory/SimpleStorage.sol\":363:459  function retrieveFavoriteNumber() public view returns (uint256) {... */\n            tag_18:\n                /* \"storage-factory/SimpleStorage.sol\":418:425  uint256 */\n              0x00\n                /* \"storage-factory/SimpleStorage.sol\":440:454  favoriteNumber */\n              dup1\n              sload\n                /* \"storage-factory/SimpleStorage.sol\":433:454  return favoriteNumber */\n              swap1\n              pop\n                /* \"storage-factory/SimpleStorage.sol\":363:459  function retrieveFavoriteNumber() public view returns (uint256) {... */\n              swap1\n              jump\t// out\n                /* \"storage-factory/SimpleStorage.sol\":463:692  function addPerson(uint256 _favoriteNumber, string memory _name) public {... */\n            tag_23:\n                /* \"storage-factory/SimpleStorage.sol\":543:549  people */\n              0x01\n                /* \"storage-factory/SimpleStorage.sol\":555:633  People({... */\n              mload(0x40)\n              dup1\n              0x40\n              add\n              0x40\n              mstore\n              dup1\n                /* \"storage-factory/SimpleStorage.sol\":588:603  _favoriteNumber */\n              dup5\n                /* \"storage-factory/SimpleStorage.sol\":555:633  People({... */\n              dup2\n              mstore\n              0x20\n              add\n                /* \"storage-factory/SimpleStorage.sol\":619:624  _name */\n              dup4\n                /* \"storage-factory/SimpleStorage.sol\":555:633  People({... */\n              dup2\n              mstore\n              pop\n                /* \"storage-factory/SimpleStorage.sol\":543:634  people.push(People({... */\n              swap1\n              dup1\n              0x01\n              dup2\n              sload\n              add\n              dup1\n              dup3\n              sstore\n              dup1\n              swap2\n              pop\n              pop\n              0x01\n              swap1\n              sub\n              swap1\n              0x00\n              mstore\n              keccak256(0x00, 0x20)\n              swap1\n              0x02\n              mul\n              add\n              0x00\n              swap1\n              swap2\n              swap1\n              swap2\n              swap1\n              swap2\n              pop\n              0x00\n              dup3\n              add\n              mload\n              dup2\n              0x00\n              add\n              sstore\n              0x20\n              dup3\n              add\n              mload\n              dup2\n              0x01\n              add\n              swap1\n              dup1\n              mload\n              swap1\n              0x20\n              add\n              swap1\n              tag_28\n              swap3\n              swap2\n              swap1\n              tag_29\n              jump\t// in\n            tag_28:\n              pop\n              pop\n              pop\n                /* \"storage-factory/SimpleStorage.sol\":672:687  _favoriteNumber */\n              dup2\n                /* \"storage-factory/SimpleStorage.sol\":642:662  nameToFavoriteNumber */\n              0x02\n                /* \"storage-factory/SimpleStorage.sol\":663:668  _name */\n              dup3\n                /* \"storage-factory/SimpleStorage.sol\":642:669  nameToFavoriteNumber[_name] */\n              mload(0x40)\n              tag_30\n              swap2\n              swap1\n              tag_31\n              jump\t// in\n            tag_30:\n              swap1\n              dup2\n              mstore\n              0x20\n              add\n              mload(0x40)\n              dup1\n              swap2\n              sub\n              swap1\n              keccak256\n                /* \"storage-factory/SimpleStorage.sol\":642:687  nameToFavoriteNumber[_name] = _favoriteNumber */\n              dup2\n              swap1\n              sstore\n              pop\n                /* \"storage-factory/SimpleStorage.sol\":463:692  function addPerson(uint256 _favoriteNumber, string memory _name) public {... */\n              pop\n              pop\n              jump\t// out\n            tag_29:\n              dup3\n              dup1\n              sload\n              tag_32\n              swap1\n              tag_33\n              jump\t// in\n            tag_32:\n              swap1\n              0x00\n              mstore\n              keccak256(0x00, 0x20)\n              swap1\n              0x1f\n              add\n              0x20\n              swap1\n              div\n              dup2\n              add\n              swap3\n              dup3\n              tag_35\n              jumpi\n              0x00\n              dup6\n              sstore\n              jump(tag_34)\n            tag_35:\n              dup3\n              0x1f\n              lt\n              tag_36\n              jumpi\n              dup1\n              mload\n              not(0xff)\n              and\n              dup4\n              dup1\n              add\n              or\n              dup6\n              sstore\n              jump(tag_34)\n            tag_36:\n              dup3\n              dup1\n              add\n              0x01\n              add\n              dup6\n              sstore\n              dup3\n              iszero\n              tag_34\n              jumpi\n              swap2\n              dup3\n              add\n            tag_37:\n              dup3\n              dup2\n              gt\n              iszero\n              tag_38\n              jumpi\n              dup3\n              mload\n              dup3\n              sstore\n              swap2\n              0x20\n              add\n              swap2\n              swap1\n              0x01\n              add\n              swap1\n              jump(tag_37)\n            tag_38:\n            tag_34:\n              pop\n              swap1\n              pop\n              tag_39\n              swap2\n              swap1\n              tag_40\n              jump\t// in\n            tag_39:\n              pop\n              swap1\n              jump\t// out\n            tag_40:\n            tag_41:\n              dup1\n              dup3\n              gt\n              iszero\n              tag_42\n              jumpi\n              0x00\n              dup2\n              0x00\n              swap1\n              sstore\n              pop\n              0x01\n              add\n              jump(tag_41)\n            tag_42:\n              pop\n              swap1\n              jump\t// out\n                /* \"#utility.yul\":7:419   */\n            tag_44:\n                /* \"#utility.yul\":85:90   */\n              0x00\n                /* \"#utility.yul\":110:176   */\n              tag_46\n                /* \"#utility.yul\":126:175   */\n              tag_47\n                /* \"#utility.yul\":168:174   */\n              dup5\n                /* \"#utility.yul\":126:175   */\n              tag_48\n              jump\t// in\n            tag_47:\n                /* \"#utility.yul\":110:176   */\n              tag_49\n              jump\t// in\n            tag_46:\n                /* \"#utility.yul\":101:176   */\n              swap1\n              pop\n                /* \"#utility.yul\":199:205   */\n              dup3\n                /* \"#utility.yul\":192:197   */\n              dup2\n                /* \"#utility.yul\":185:206   */\n              mstore\n                /* \"#utility.yul\":237:241   */\n              0x20\n                /* \"#utility.yul\":230:235   */\n              dup2\n                /* \"#utility.yul\":226:242   */\n              add\n                /* \"#utility.yul\":275:278   */\n              dup5\n                /* \"#utility.yul\":266:272   */\n              dup5\n                /* \"#utility.yul\":261:264   */\n              dup5\n                /* \"#utility.yul\":257:273   */\n              add\n                /* \"#utility.yul\":254:279   */\n              gt\n                /* \"#utility.yul\":251:363   */\n              iszero\n              tag_50\n              jumpi\n                /* \"#utility.yul\":282:361   */\n              tag_51\n              tag_52\n              jump\t// in\n            tag_51:\n                /* \"#utility.yul\":251:363   */\n            tag_50:\n                /* \"#utility.yul\":372:413   */\n              tag_53\n                /* \"#utility.yul\":406:412   */\n              dup5\n                /* \"#utility.yul\":401:404   */\n              dup3\n                /* \"#utility.yul\":396:399   */\n              dup6\n                /* \"#utility.yul\":372:413   */\n              tag_54\n              jump\t// in\n            tag_53:\n                /* \"#utility.yul\":91:419   */\n              pop\n                /* \"#utility.yul\":7:419   */\n              swap4\n              swap3\n              pop\n              pop\n              pop\n              jump\t// out\n                /* \"#utility.yul\":439:779   */\n            tag_55:\n                /* \"#utility.yul\":495:500   */\n              0x00\n                /* \"#utility.yul\":544:547   */\n              dup3\n                /* \"#utility.yul\":537:541   */\n              0x1f\n                /* \"#utility.yul\":529:535   */\n              dup4\n                /* \"#utility.yul\":525:542   */\n              add\n                /* \"#utility.yul\":521:548   */\n              slt\n                /* \"#utility.yul\":511:633   */\n              tag_57\n              jumpi\n                /* \"#utility.yul\":552:631   */\n              tag_58\n              tag_59\n              jump\t// in\n            tag_58:\n                /* \"#utility.yul\":511:633   */\n            tag_57:\n                /* \"#utility.yul\":669:675   */\n              dup2\n                /* \"#utility.yul\":656:676   */\n              calldataload\n                /* \"#utility.yul\":694:773   */\n              tag_60\n                /* \"#utility.yul\":769:772   */\n              dup5\n                /* \"#utility.yul\":761:767   */\n              dup3\n                /* \"#utility.yul\":754:758   */\n              0x20\n                /* \"#utility.yul\":746:752   */\n              dup7\n                /* \"#utility.yul\":742:759   */\n              add\n                /* \"#utility.yul\":694:773   */\n              tag_44\n              jump\t// in\n            tag_60:\n                /* \"#utility.yul\":685:773   */\n              swap2\n              pop\n                /* \"#utility.yul\":501:779   */\n              pop\n                /* \"#utility.yul\":439:779   */\n              swap3\n              swap2\n              pop\n              pop\n              jump\t// out\n                /* \"#utility.yul\":785:924   */\n            tag_61:\n                /* \"#utility.yul\":831:836   */\n              0x00\n                /* \"#utility.yul\":869:875   */\n              dup2\n                /* \"#utility.yul\":856:876   */\n              calldataload\n                /* \"#utility.yul\":847:876   */\n              swap1\n              pop\n                /* \"#utility.yul\":885:918   */\n              tag_63\n                /* \"#utility.yul\":912:917   */\n              dup2\n                /* \"#utility.yul\":885:918   */\n              tag_64\n              jump\t// in\n            tag_63:\n                /* \"#utility.yul\":785:924   */\n              swap3\n              swap2\n              pop\n              pop\n              jump\t// out\n                /* \"#utility.yul\":930:1439   */\n            tag_9:\n                /* \"#utility.yul\":999:1005   */\n              0x00\n                /* \"#utility.yul\":1048:1050   */\n              0x20\n                /* \"#utility.yul\":1036:1045   */\n              dup3\n                /* \"#utility.yul\":1027:1034   */\n              dup5\n                /* \"#utility.yul\":1023:1046   */\n              sub\n                /* \"#utility.yul\":1019:1051   */\n              slt\n                /* \"#utility.yul\":1016:1135   */\n              iszero\n              tag_66\n              jumpi\n                /* \"#utility.yul\":1054:1133   */\n              tag_67\n              tag_68\n              jump\t// in\n            tag_67:\n                /* \"#utility.yul\":1016:1135   */\n            tag_66:\n                /* \"#utility.yul\":1202:1203   */\n              0x00\n                /* \"#utility.yul\":1191:1200   */\n              dup3\n                /* \"#utility.yul\":1187:1204   */\n              add\n                /* \"#utility.yul\":1174:1205   */\n              calldataload\n                /* \"#utility.yul\":1232:1250   */\n              0xffffffffffffffff\n                /* \"#utility.yul\":1224:1230   */\n              dup2\n                /* \"#utility.yul\":1221:1251   */\n              gt\n                /* \"#utility.yul\":1218:1335   */\n              iszero\n              tag_69\n              jumpi\n                /* \"#utility.yul\":1254:1333   */\n              tag_70\n              tag_71\n              jump\t// in\n            tag_70:\n                /* \"#utility.yul\":1218:1335   */\n            tag_69:\n                /* \"#utility.yul\":1359:1422   */\n              tag_72\n                /* \"#utility.yul\":1414:1421   */\n              dup5\n                /* \"#utility.yul\":1405:1411   */\n              dup3\n                /* \"#utility.yul\":1394:1403   */\n              dup6\n                /* \"#utility.yul\":1390:1412   */\n              add\n                /* \"#utility.yul\":1359:1422   */\n              tag_55\n              jump\t// in\n            tag_72:\n                /* \"#utility.yul\":1349:1422   */\n              swap2\n              pop\n                /* \"#utility.yul\":1145:1432   */\n              pop\n                /* \"#utility.yul\":930:1439   */\n              swap3\n              swap2\n              pop\n              pop\n              jump\t// out\n                /* \"#utility.yul\":1445:1774   */\n            tag_15:\n                /* \"#utility.yul\":1504:1510   */\n              0x00\n                /* \"#utility.yul\":1553:1555   */\n              0x20\n                /* \"#utility.yul\":1541:1550   */\n              dup3\n                /* \"#utility.yul\":1532:1539   */\n              dup5\n                /* \"#utility.yul\":1528:1551   */\n              sub\n                /* \"#utility.yul\":1524:1556   */\n              slt\n                /* \"#utility.yul\":1521:1640   */\n              iszero\n              tag_74\n              jumpi\n                /* \"#utility.yul\":1559:1638   */\n              tag_75\n              tag_68\n              jump\t// in\n            tag_75:\n                /* \"#utility.yul\":1521:1640   */\n            tag_74:\n                /* \"#utility.yul\":1679:1680   */\n              0x00\n                /* \"#utility.yul\":1704:1757   */\n              tag_76\n                /* \"#utility.yul\":1749:1756   */\n              dup5\n                /* \"#utility.yul\":1740:1746   */\n              dup3\n                /* \"#utility.yul\":1729:1738   */\n              dup6\n                /* \"#utility.yul\":1725:1747   */\n              add\n                /* \"#utility.yul\":1704:1757   */\n              tag_61\n              jump\t// in\n            tag_76:\n                /* \"#utility.yul\":1694:1757   */\n              swap2\n              pop\n                /* \"#utility.yul\":1650:1767   */\n              pop\n                /* \"#utility.yul\":1445:1774   */\n              swap3\n              swap2\n              pop\n              pop\n              jump\t// out\n                /* \"#utility.yul\":1780:2434   */\n            tag_22:\n                /* \"#utility.yul\":1858:1864   */\n              0x00\n                /* \"#utility.yul\":1866:1872   */\n              dup1\n                /* \"#utility.yul\":1915:1917   */\n              0x40\n                /* \"#utility.yul\":1903:1912   */\n              dup4\n                /* \"#utility.yul\":1894:1901   */\n              dup6\n                /* \"#utility.yul\":1890:1913   */\n              sub\n                /* \"#utility.yul\":1886:1918   */\n              slt\n                /* \"#utility.yul\":1883:2002   */\n              iszero\n              tag_78\n              jumpi\n                /* \"#utility.yul\":1921:2000   */\n              tag_79\n              tag_68\n              jump\t// in\n            tag_79:\n                /* \"#utility.yul\":1883:2002   */\n            tag_78:\n                /* \"#utility.yul\":2041:2042   */\n              0x00\n                /* \"#utility.yul\":2066:2119   */\n              tag_80\n                /* \"#utility.yul\":2111:2118   */\n              dup6\n                /* \"#utility.yul\":2102:2108   */\n              dup3\n                /* \"#utility.yul\":2091:2100   */\n              dup7\n                /* \"#utility.yul\":2087:2109   */\n              add\n                /* \"#utility.yul\":2066:2119   */\n              tag_61\n              jump\t// in\n            tag_80:\n                /* \"#utility.yul\":2056:2119   */\n              swap3\n              pop\n                /* \"#utility.yul\":2012:2129   */\n              pop\n                /* \"#utility.yul\":2196:2198   */\n              0x20\n                /* \"#utility.yul\":2185:2194   */\n              dup4\n                /* \"#utility.yul\":2181:2199   */\n              add\n                /* \"#utility.yul\":2168:2200   */\n              calldataload\n                /* \"#utility.yul\":2227:2245   */\n              0xffffffffffffffff\n                /* \"#utility.yul\":2219:2225   */\n              dup2\n                /* \"#utility.yul\":2216:2246   */\n              gt\n                /* \"#utility.yul\":2213:2330   */\n              iszero\n              tag_81\n              jumpi\n                /* \"#utility.yul\":2249:2328   */\n              tag_82\n              tag_71\n              jump\t// in\n            tag_82:\n                /* \"#utility.yul\":2213:2330   */\n            tag_81:\n                /* \"#utility.yul\":2354:2417   */\n              tag_83\n                /* \"#utility.yul\":2409:2416   */\n              dup6\n                /* \"#utility.yul\":2400:2406   */\n              dup3\n                /* \"#utility.yul\":2389:2398   */\n              dup7\n                /* \"#utility.yul\":2385:2407   */\n              add\n                /* \"#utility.yul\":2354:2417   */\n              tag_55\n              jump\t// in\n            tag_83:\n                /* \"#utility.yul\":2344:2417   */\n              swap2\n              pop\n                /* \"#utility.yul\":2139:2427   */\n              pop\n                /* \"#utility.yul\":1780:2434   */\n              swap3\n              pop\n              swap3\n              swap1\n              pop\n              jump\t// out\n                /* \"#utility.yul\":2440:2817   */\n            tag_84:\n                /* \"#utility.yul\":2546:2549   */\n              0x00\n                /* \"#utility.yul\":2574:2613   */\n              tag_86\n                /* \"#utility.yul\":2607:2612   */\n              dup3\n                /* \"#utility.yul\":2574:2613   */\n              tag_87\n              jump\t// in\n            tag_86:\n                /* \"#utility.yul\":2629:2718   */\n              tag_88\n                /* \"#utility.yul\":2711:2717   */\n              dup2\n                /* \"#utility.yul\":2706:2709   */\n              dup6\n                /* \"#utility.yul\":2629:2718   */\n              tag_89\n              jump\t// in\n            tag_88:\n                /* \"#utility.yul\":2622:2718   */\n              swap4\n              pop\n                /* \"#utility.yul\":2727:2779   */\n              tag_90\n                /* \"#utility.yul\":2772:2778   */\n              dup2\n                /* \"#utility.yul\":2767:2770   */\n              dup6\n                /* \"#utility.yul\":2760:2764   */\n              0x20\n                /* \"#utility.yul\":2753:2758   */\n              dup7\n                /* \"#utility.yul\":2749:2765   */\n              add\n                /* \"#utility.yul\":2727:2779   */\n              tag_91\n              jump\t// in\n            tag_90:\n                /* \"#utility.yul\":2804:2810   */\n              dup1\n                /* \"#utility.yul\":2799:2802   */\n              dup5\n                /* \"#utility.yul\":2795:2811   */\n              add\n                /* \"#utility.yul\":2788:2811   */\n              swap2\n              pop\n                /* \"#utility.yul\":2550:2817   */\n              pop\n                /* \"#utility.yul\":2440:2817   */\n              swap3\n              swap2\n              pop\n              pop\n              jump\t// out\n                /* \"#utility.yul\":2823:2941   */\n            tag_92:\n                /* \"#utility.yul\":2910:2934   */\n              tag_94\n                /* \"#utility.yul\":2928:2933   */\n              dup2\n                /* \"#utility.yul\":2910:2934   */\n              tag_95\n              jump\t// in\n            tag_94:\n                /* \"#utility.yul\":2905:2908   */\n              dup3\n                /* \"#utility.yul\":2898:2935   */\n              mstore\n                /* \"#utility.yul\":2823:2941   */\n              pop\n              pop\n              jump\t// out\n                /* \"#utility.yul\":2947:3222   */\n            tag_31:\n                /* \"#utility.yul\":3079:3082   */\n              0x00\n                /* \"#utility.yul\":3101:3196   */\n              tag_97\n                /* \"#utility.yul\":3192:3195   */\n              dup3\n                /* \"#utility.yul\":3183:3189   */\n              dup5\n                /* \"#utility.yul\":3101:3196   */\n              tag_84\n              jump\t// in\n            tag_97:\n                /* \"#utility.yul\":3094:3196   */\n              swap2\n              pop\n                /* \"#utility.yul\":3213:3216   */\n              dup2\n                /* \"#utility.yul\":3206:3216   */\n              swap1\n              pop\n                /* \"#utility.yul\":2947:3222   */\n              swap3\n              swap2\n              pop\n              pop\n              jump\t// out\n                /* \"#utility.yul\":3228:3450   */\n            tag_12:\n                /* \"#utility.yul\":3321:3325   */\n              0x00\n                /* \"#utility.yul\":3359:3361   */\n              0x20\n                /* \"#utility.yul\":3348:3357   */\n              dup3\n                /* \"#utility.yul\":3344:3362   */\n              add\n                /* \"#utility.yul\":3336:3362   */\n              swap1\n              pop\n                /* \"#utility.yul\":3372:3443   */\n              tag_99\n                /* \"#utility.yul\":3440:3441   */\n              0x00\n                /* \"#utility.yul\":3429:3438   */\n              dup4\n                /* \"#utility.yul\":3425:3442   */\n              add\n                /* \"#utility.yul\":3416:3422   */\n              dup5\n                /* \"#utility.yul\":3372:3443   */\n              tag_92\n              jump\t// in\n            tag_99:\n                /* \"#utility.yul\":3228:3450   */\n              swap3\n              swap2\n              pop\n              pop\n              jump\t// out\n                /* \"#utility.yul\":3456:3585   */\n            tag_49:\n                /* \"#utility.yul\":3490:3496   */\n              0x00\n                /* \"#utility.yul\":3517:3537   */\n              tag_101\n              tag_102\n              jump\t// in\n            tag_101:\n                /* \"#utility.yul\":3507:3537   */\n              swap1\n              pop\n                /* \"#utility.yul\":3546:3579   */\n              tag_103\n                /* \"#utility.yul\":3574:3578   */\n              dup3\n                /* \"#utility.yul\":3566:3572   */\n              dup3\n                /* \"#utility.yul\":3546:3579   */\n              tag_104\n              jump\t// in\n            tag_103:\n                /* \"#utility.yul\":3456:3585   */\n              swap2\n              swap1\n              pop\n              jump\t// out\n                /* \"#utility.yul\":3591:3666   */\n            tag_102:\n                /* \"#utility.yul\":3624:3630   */\n              0x00\n                /* \"#utility.yul\":3657:3659   */\n              0x40\n                /* \"#utility.yul\":3651:3660   */\n              mload\n                /* \"#utility.yul\":3641:3660   */\n              swap1\n              pop\n                /* \"#utility.yul\":3591:3666   */\n              swap1\n              jump\t// out\n                /* \"#utility.yul\":3672:3980   */\n            tag_48:\n                /* \"#utility.yul\":3734:3738   */\n              0x00\n                /* \"#utility.yul\":3824:3842   */\n              0xffffffffffffffff\n                /* \"#utility.yul\":3816:3822   */\n              dup3\n                /* \"#utility.yul\":3813:3843   */\n              gt\n                /* \"#utility.yul\":3810:3866   */\n              iszero\n              tag_107\n              jumpi\n                /* \"#utility.yul\":3846:3864   */\n              tag_108\n              tag_109\n              jump\t// in\n            tag_108:\n                /* \"#utility.yul\":3810:3866   */\n            tag_107:\n                /* \"#utility.yul\":3884:3913   */\n              tag_110\n                /* \"#utility.yul\":3906:3912   */\n              dup3\n                /* \"#utility.yul\":3884:3913   */\n              tag_111\n              jump\t// in\n            tag_110:\n                /* \"#utility.yul\":3876:3913   */\n              swap1\n              pop\n                /* \"#utility.yul\":3968:3972   */\n              0x20\n                /* \"#utility.yul\":3962:3966   */\n              dup2\n                /* \"#utility.yul\":3958:3973   */\n              add\n                /* \"#utility.yul\":3950:3973   */\n              swap1\n              pop\n                /* \"#utility.yul\":3672:3980   */\n              swap2\n              swap1\n              pop\n              jump\t// out\n                /* \"#utility.yul\":3986:4085   */\n            tag_87:\n                /* \"#utility.yul\":4038:4044   */\n              0x00\n                /* \"#utility.yul\":4072:4077   */\n              dup2\n                /* \"#utility.yul\":4066:4078   */\n              mload\n                /* \"#utility.yul\":4056:4078   */\n              swap1\n              pop\n                /* \"#utility.yul\":3986:4085   */\n              swap2\n              swap1\n              pop\n              jump\t// out\n                /* \"#utility.yul\":4091:4239   */\n            tag_89:\n                /* \"#utility.yul\":4193:4204   */\n              0x00\n                /* \"#utility.yul\":4230:4233   */\n              dup2\n                /* \"#utility.yul\":4215:4233   */\n              swap1\n              pop\n                /* \"#utility.yul\":4091:4239   */\n              swap3\n              swap2\n              pop\n              pop\n              jump\t// out\n                /* \"#utility.yul\":4245:4322   */\n            tag_95:\n                /* \"#utility.yul\":4282:4289   */\n              0x00\n                /* \"#utility.yul\":4311:4316   */\n              dup2\n                /* \"#utility.yul\":4300:4316   */\n              swap1\n              pop\n                /* \"#utility.yul\":4245:4322   */\n              swap2\n              swap1\n              pop\n              jump\t// out\n                /* \"#utility.yul\":4328:4482   */\n            tag_54:\n                /* \"#utility.yul\":4412:4418   */\n              dup3\n                /* \"#utility.yul\":4407:4410   */\n              dup2\n                /* \"#utility.yul\":4402:4405   */\n              dup4\n                /* \"#utility.yul\":4389:4419   */\n              calldatacopy\n                /* \"#utility.yul\":4474:4475   */\n              0x00\n                /* \"#utility.yul\":4465:4471   */\n              dup4\n                /* \"#utility.yul\":4460:4463   */\n              dup4\n                /* \"#utility.yul\":4456:4472   */\n              add\n                /* \"#utility.yul\":4449:4476   */\n              mstore\n                /* \"#utility.yul\":4328:4482   */\n              pop\n              pop\n              pop\n              jump\t// out\n                /* \"#utility.yul\":4488:4795   */\n            tag_91:\n                /* \"#utility.yul\":4556:4557   */\n              0x00\n                /* \"#utility.yul\":4566:4679   */\n            tag_117:\n                /* \"#utility.yul\":4580:4586   */\n              dup4\n                /* \"#utility.yul\":4577:4578   */\n              dup2\n                /* \"#utility.yul\":4574:4587   */\n              lt\n                /* \"#utility.yul\":4566:4679   */\n              iszero\n              tag_119\n              jumpi\n                /* \"#utility.yul\":4665:4666   */\n              dup1\n                /* \"#utility.yul\":4660:4663   */\n              dup3\n                /* \"#utility.yul\":4656:4667   */\n              add\n                /* \"#utility.yul\":4650:4668   */\n              mload\n                /* \"#utility.yul\":4646:4647   */\n              dup2\n                /* \"#utility.yul\":4641:4644   */\n              dup5\n                /* \"#utility.yul\":4637:4648   */\n              add\n                /* \"#utility.yul\":4630:4669   */\n              mstore\n                /* \"#utility.yul\":4602:4604   */\n              0x20\n                /* \"#utility.yul\":4599:4600   */\n              dup2\n                /* \"#utility.yul\":4595:4605   */\n              add\n                /* \"#utility.yul\":4590:4605   */\n              swap1\n              pop\n                /* \"#utility.yul\":4566:4679   */\n              jump(tag_117)\n            tag_119:\n                /* \"#utility.yul\":4697:4703   */\n              dup4\n                /* \"#utility.yul\":4694:4695   */\n              dup2\n                /* \"#utility.yul\":4691:4704   */\n              gt\n                /* \"#utility.yul\":4688:4789   */\n              iszero\n              tag_120\n              jumpi\n                /* \"#utility.yul\":4777:4778   */\n              0x00\n                /* \"#utility.yul\":4768:4774   */\n              dup5\n                /* \"#utility.yul\":4763:4766   */\n              dup5\n                /* \"#utility.yul\":4759:4775   */\n              add\n                /* \"#utility.yul\":4752:4779   */\n              mstore\n                /* \"#utility.yul\":4688:4789   */\n            tag_120:\n                /* \"#utility.yul\":4537:4795   */\n              pop\n                /* \"#utility.yul\":4488:4795   */\n              pop\n              pop\n              pop\n              jump\t// out\n                /* \"#utility.yul\":4801:5121   */\n            tag_33:\n                /* \"#utility.yul\":4845:4851   */\n              0x00\n                /* \"#utility.yul\":4882:4883   */\n              0x02\n                /* \"#utility.yul\":4876:4880   */\n              dup3\n                /* \"#utility.yul\":4872:4884   */\n              div\n                /* \"#utility.yul\":4862:4884   */\n              swap1\n              pop\n                /* \"#utility.yul\":4929:4930   */\n              0x01\n                /* \"#utility.yul\":4923:4927   */\n              dup3\n                /* \"#utility.yul\":4919:4931   */\n              and\n                /* \"#utility.yul\":4950:4968   */\n              dup1\n                /* \"#utility.yul\":4940:5021   */\n              tag_122\n              jumpi\n                /* \"#utility.yul\":5006:5010   */\n              0x7f\n                /* \"#utility.yul\":4998:5004   */\n              dup3\n                /* \"#utility.yul\":4994:5011   */\n              and\n                /* \"#utility.yul\":4984:5011   */\n              swap2\n              pop\n                /* \"#utility.yul\":4940:5021   */\n            tag_122:\n                /* \"#utility.yul\":5068:5070   */\n              0x20\n                /* \"#utility.yul\":5060:5066   */\n              dup3\n                /* \"#utility.yul\":5057:5071   */\n              lt\n                /* \"#utility.yul\":5037:5055   */\n              dup2\n                /* \"#utility.yul\":5034:5072   */\n              eq\n                /* \"#utility.yul\":5031:5115   */\n              iszero\n              tag_123\n              jumpi\n                /* \"#utility.yul\":5087:5105   */\n              tag_124\n              tag_125\n              jump\t// in\n            tag_124:\n                /* \"#utility.yul\":5031:5115   */\n            tag_123:\n                /* \"#utility.yul\":4852:5121   */\n              pop\n                /* \"#utility.yul\":4801:5121   */\n              swap2\n              swap1\n              pop\n              jump\t// out\n                /* \"#utility.yul\":5127:5408   */\n            tag_104:\n                /* \"#utility.yul\":5210:5237   */\n              tag_127\n                /* \"#utility.yul\":5232:5236   */\n              dup3\n                /* \"#utility.yul\":5210:5237   */\n              tag_111\n              jump\t// in\n            tag_127:\n                /* \"#utility.yul\":5202:5208   */\n              dup2\n                /* \"#utility.yul\":5198:5238   */\n              add\n                /* \"#utility.yul\":5340:5346   */\n              dup2\n                /* \"#utility.yul\":5328:5338   */\n              dup2\n                /* \"#utility.yul\":5325:5347   */\n              lt\n                /* \"#utility.yul\":5304:5322   */\n              0xffffffffffffffff\n                /* \"#utility.yul\":5292:5302   */\n              dup3\n                /* \"#utility.yul\":5289:5323   */\n              gt\n                /* \"#utility.yul\":5286:5348   */\n              or\n                /* \"#utility.yul\":5283:5371   */\n              iszero\n              tag_128\n              jumpi\n                /* \"#utility.yul\":5351:5369   */\n              tag_129\n              tag_109\n              jump\t// in\n            tag_129:\n                /* \"#utility.yul\":5283:5371   */\n            tag_128:\n                /* \"#utility.yul\":5391:5401   */\n              dup1\n                /* \"#utility.yul\":5387:5389   */\n              0x40\n                /* \"#utility.yul\":5380:5402   */\n              mstore\n                /* \"#utility.yul\":5170:5408   */\n              pop\n                /* \"#utility.yul\":5127:5408   */\n              pop\n              pop\n              jump\t// out\n                /* \"#utility.yul\":5414:5594   */\n            tag_125:\n                /* \"#utility.yul\":5462:5539   */\n              0x4e487b7100000000000000000000000000000000000000000000000000000000\n                /* \"#utility.yul\":5459:5460   */\n              0x00\n                /* \"#utility.yul\":5452:5540   */\n              mstore\n                /* \"#utility.yul\":5559:5563   */\n              0x22\n                /* \"#utility.yul\":5556:5557   */\n              0x04\n                /* \"#utility.yul\":5549:5564   */\n              mstore\n                /* \"#utility.yul\":5583:5587   */\n              0x24\n                /* \"#utility.yul\":5580:5581   */\n              0x00\n                /* \"#utility.yul\":5573:5588   */\n              revert\n                /* \"#utility.yul\":5600:5780   */\n            tag_109:\n                /* \"#utility.yul\":5648:5725   */\n              0x4e487b7100000000000000000000000000000000000000000000000000000000\n                /* \"#utility.yul\":5645:5646   */\n              0x00\n                /* \"#utility.yul\":5638:5726   */\n              mstore\n                /* \"#utility.yul\":5745:5749   */\n              0x41\n                /* \"#utility.yul\":5742:5743   */\n              0x04\n                /* \"#utility.yul\":5735:5750   */\n              mstore\n                /* \"#utility.yul\":5769:5773   */\n              0x24\n                /* \"#utility.yul\":5766:5767   */\n              0x00\n                /* \"#utility.yul\":5759:5774   */\n              revert\n                /* \"#utility.yul\":5786:5903   */\n            tag_59:\n                /* \"#utility.yul\":5895:5896   */\n              0x00\n                /* \"#utility.yul\":5892:5893   */\n              dup1\n                /* \"#utility.yul\":5885:5897   */\n              revert\n                /* \"#utility.yul\":5909:6026   */\n            tag_52:\n                /* \"#utility.yul\":6018:6019   */\n              0x00\n                /* \"#utility.yul\":6015:6016   */\n              dup1\n                /* \"#utility.yul\":6008:6020   */\n              revert\n                /* \"#utility.yul\":6032:6149   */\n            tag_71:\n                /* \"#utility.yul\":6141:6142   */\n              0x00\n                /* \"#utility.yul\":6138:6139   */\n              dup1\n                /* \"#utility.yul\":6131:6143   */\n              revert\n                /* \"#utility.yul\":6155:6272   */\n            tag_68:\n                /* \"#utility.yul\":6264:6265   */\n              0x00\n                /* \"#utility.yul\":6261:6262   */\n              dup1\n                /* \"#utility.yul\":6254:6266   */\n              revert\n                /* \"#utility.yul\":6278:6380   */\n            tag_111:\n                /* \"#utility.yul\":6319:6325   */\n              0x00\n                /* \"#utility.yul\":6370:6372   */\n              0x1f\n                /* \"#utility.yul\":6366:6373   */\n              not\n                /* \"#utility.yul\":6361:6363   */\n              0x1f\n                /* \"#utility.yul\":6354:6359   */\n              dup4\n                /* \"#utility.yul\":6350:6364   */\n              add\n                /* \"#utility.yul\":6346:6374   */\n              and\n                /* \"#utility.yul\":6336:6374   */\n              swap1\n              pop\n                /* \"#utility.yul\":6278:6380   */\n              swap2\n              swap1\n              pop\n              jump\t// out\n                /* \"#utility.yul\":6386:6508   */\n            tag_64:\n                /* \"#utility.yul\":6459:6483   */\n              tag_138\n                /* \"#utility.yul\":6477:6482   */\n              dup2\n                /* \"#utility.yul\":6459:6483   */\n              tag_95\n              jump\t// in\n            tag_138:\n                /* \"#utility.yul\":6452:6457   */\n              dup2\n                /* \"#utility.yul\":6449:6484   */\n              eq\n                /* \"#utility.yul\":6439:6502   */\n              tag_139\n              jumpi\n                /* \"#utility.yul\":6498:6499   */\n              0x00\n                /* \"#utility.yul\":6495:6496   */\n              dup1\n                /* \"#utility.yul\":6488:6500   */\n              revert\n                /* \"#utility.yul\":6439:6502   */\n            tag_139:\n                /* \"#utility.yul\":6386:6508   */\n              pop\n              jump\t// out\n\n            auxdata: 0xa264697066735822122055915ddccb179922cc0733ae0ce670fe3ec04c3ac8328e8bfecfeb7311ec2b0564736f6c63430008070033\n        }\n    }\n\n    auxdata: 0xa26469706673582212206dfd1590603e9b538fe3cedf8f869fc7ecee4bbc7807da4b6a35dea9a38df50a64736f6c63430008070033\n}\n",
				"bytecode": {
					"linkReferences": {},
					"object": "608060405234801561001057600080fd5b50610b3f806100206000396000f3fe608060405234801561001057600080fd5b506004361061004c5760003560e01c80631563700f1461005157806340d66b3b1461006d57806364591bf114610077578063c5f19c20146100a7575b600080fd5b61006b600480360381019061006691906103ab565b6100d7565b005b610075610184565b005b610091600480360381019061008c9190610351565b610217565b60405161009e9190610409565b60405180910390f35b6100c160048036038101906100bc9190610351565b610256565b6040516100ce9190610424565b60405180910390f35b600082815481106100eb576100ea61049f565b5b9060005260206000200160009054906101000a900473ffffffffffffffffffffffffffffffffffffffff1673ffffffffffffffffffffffffffffffffffffffff16638ec04232826040518263ffffffff1660e01b815260040161014e9190610424565b600060405180830381600087803b15801561016857600080fd5b505af115801561017c573d6000803e3d6000fd5b505050505050565b60006040516101929061031a565b604051809103906000f0801580156101ae573d6000803e3d6000fd5b5090506000819080600181540180825580915050600190039060005260206000200160009091909190916101000a81548173ffffffffffffffffffffffffffffffffffffffff021916908373ffffffffffffffffffffffffffffffffffffffff16021790555050565b6000818154811061022757600080fd5b906000526020600020016000915054906101000a900473ffffffffffffffffffffffffffffffffffffffff1681565b600080828154811061026b5761026a61049f565b5b9060005260206000200160009054906101000a900473ffffffffffffffffffffffffffffffffffffffff1673ffffffffffffffffffffffffffffffffffffffff1663a4b4f67a6040518163ffffffff1660e01b815260040160206040518083038186803b1580156102db57600080fd5b505afa1580156102ef573d6000803e3d6000fd5b505050506040513d601f19601f82011682018060405250810190610313919061037e565b9050919050565b61061f806104eb83390190565b600081359050610336816104d3565b92915050565b60008151905061034b816104d3565b92915050565b600060208284031215610367576103666104ce565b5b600061037584828501610327565b91505092915050565b600060208284031215610394576103936104ce565b5b60006103a28482850161033c565b91505092915050565b600080604083850312156103c2576103c16104ce565b5b60006103d085828601610327565b92505060206103e185828601610327565b9150509250929050565b6103f481610469565b82525050565b6104038161045f565b82525050565b600060208201905061041e60008301846103eb565b92915050565b600060208201905061043960008301846103fa565b92915050565b600073ffffffffffffffffffffffffffffffffffffffff82169050919050565b6000819050919050565b60006104748261047b565b9050919050565b60006104868261048d565b9050919050565b60006104988261043f565b9050919050565b7f4e487b7100000000000000000000000000000000000000000000000000000000600052603260045260246000fd5b600080fd5b6104dc8161045f565b81146104e757600080fd5b5056fe608060405234801561001057600080fd5b506105ff806100206000396000f3fe608060405234801561001057600080fd5b506004361061004c5760003560e01c80638bab8dd5146100515780638ec0423214610081578063a4b4f67a1461009d578063bc832d4e146100bb575b600080fd5b61006b600480360381019061006691906102d0565b6100d7565b60405161007891906103f9565b60405180910390f35b61009b60048036038101906100969190610319565b610105565b005b6100a561010f565b6040516100b291906103f9565b60405180910390f35b6100d560048036038101906100d09190610346565b610118565b005b6002818051602081018201805184825260208301602085012081835280955050505050506000915090505481565b8060008190555050565b60008054905090565b6001604051806040016040528084815260200183815250908060018154018082558091505060019003906000526020600020906002020160009091909190915060008201518160000155602082015181600101908051906020019061017e9291906101a8565b5050508160028260405161019291906103e2565b9081526020016040518091039020819055505050565b8280546101b4906104cc565b90600052602060002090601f0160209004810192826101d6576000855561021d565b82601f106101ef57805160ff191683800117855561021d565b8280016001018555821561021d579182015b8281111561021c578251825591602001919060010190610201565b5b50905061022a919061022e565b5090565b5b8082111561024757600081600090555060010161022f565b5090565b600061025e61025984610439565b610414565b90508281526020810184848401111561027a57610279610592565b5b61028584828561048a565b509392505050565b600082601f8301126102a2576102a161058d565b5b81356102b284826020860161024b565b91505092915050565b6000813590506102ca816105b2565b92915050565b6000602082840312156102e6576102e561059c565b5b600082013567ffffffffffffffff81111561030457610303610597565b5b6103108482850161028d565b91505092915050565b60006020828403121561032f5761032e61059c565b5b600061033d848285016102bb565b91505092915050565b6000806040838503121561035d5761035c61059c565b5b600061036b858286016102bb565b925050602083013567ffffffffffffffff81111561038c5761038b610597565b5b6103988582860161028d565b9150509250929050565b60006103ad8261046a565b6103b78185610475565b93506103c7818560208601610499565b80840191505092915050565b6103dc81610480565b82525050565b60006103ee82846103a2565b915081905092915050565b600060208201905061040e60008301846103d3565b92915050565b600061041e61042f565b905061042a82826104fe565b919050565b6000604051905090565b600067ffffffffffffffff8211156104545761045361055e565b5b61045d826105a1565b9050602081019050919050565b600081519050919050565b600081905092915050565b6000819050919050565b82818337600083830152505050565b60005b838110156104b757808201518184015260208101905061049c565b838111156104c6576000848401525b50505050565b600060028204905060018216806104e457607f821691505b602082108114156104f8576104f761052f565b5b50919050565b610507826105a1565b810181811067ffffffffffffffff821117156105265761052561055e565b5b80604052505050565b7f4e487b7100000000000000000000000000000000000000000000000000000000600052602260045260246000fd5b7f4e487b7100000000000000000000000000000000000000000000000000000000600052604160045260246000fd5b600080fd5b600080fd5b600080fd5b600080fd5b6000601f19601f8301169050919050565b6105bb81610480565b81146105c657600080fd5b5056fea264697066735822122055915ddccb179922cc0733ae0ce670fe3ec04c3ac8328e8bfecfeb7311ec2b0564736f6c63430008070033a26469706673582212206dfd1590603e9b538fe3cedf8f869fc7ecee4bbc7807da4b6a35dea9a38df50a64736f6c63430008070033",
					"opcodes": "PUSH1 0x80 PUSH1 0x40 MSTORE CALLVALUE DUP1 ISZERO PUSH2 0x10 JUMPI PUSH1 0x0 DUP1 REVERT JUMPDEST POP PUSH2 0xB3F DUP1 PUSH2 0x20 PUSH1 0x0 CODECOPY PUSH1 0x0 RETURN INVALID PUSH1 0x80 PUSH1 0x40 MSTORE CALLVALUE DUP1 ISZERO PUSH2 0x10 JUMPI PUSH1 0x0 DUP1 REVERT JUMPDEST POP PUSH1 0x4 CALLDATASIZE LT PUSH2 0x4C JUMPI PUSH1 0x0 CALLDATALOAD PUSH1 0xE0 SHR DUP1 PUSH4 0x1563700F EQ PUSH2 0x51 JUMPI DUP1 PUSH4 0x40D66B3B EQ PUSH2 0x6D JUMPI DUP1 PUSH4 0x64591BF1 EQ PUSH2 0x77 JUMPI DUP1 PUSH4 0xC5F19C20 EQ PUSH2 0xA7 JUMPI JUMPDEST PUSH1 0x0 DUP1 REVERT JUMPDEST PUSH2 0x6B PUSH1 0x4 DUP1 CALLDATASIZE SUB DUP2 ADD SWAP1 PUSH2 0x66 SWAP2 SWAP1 PUSH2 0x3AB JUMP JUMPDEST PUSH2 0xD7 JUMP JUMPDEST STOP JUMPDEST PUSH2 0x75 PUSH2 0x184 JUMP JUMPDEST STOP JUMPDEST PUSH2 0x91 PUSH1 0x4 DUP1 CALLDATASIZE SUB DUP2 ADD SWAP1 PUSH2 0x8C SWAP2 SWAP1 PUSH2 0x351 JUMP JUMPDEST PUSH2 0x217 JUMP JUMPDEST PUSH1 0x40 MLOAD PUSH2 0x9E SWAP2 SWAP1 PUSH2 0x409 JUMP JUMPDEST PUSH1 0x40 MLOAD DUP1 SWAP2 SUB SWAP1 RETURN JUMPDEST PUSH2 0xC1 PUSH1 0x4 DUP1 CALLDATASIZE SUB DUP2 ADD SWAP1 PUSH2 0xBC SWAP2 SWAP1 PUSH2 0x351 JUMP JUMPDEST PUSH2 0x256 JUMP JUMPDEST PUSH1 0x40 MLOAD PUSH2 0xCE SWAP2 SWAP1 PUSH2 0x424 JUMP JUMPDEST PUSH1 0x40 MLOAD DUP1 SWAP2 SUB SWAP1 RETURN JUMPDEST PUSH1 0x0 DUP3 DUP2 SLOAD DUP2 LT PUSH2 0xEB JUMPI PUSH2 0xEA PUSH2 0x49F JUMP JUMPDEST JUMPDEST SWAP1 PUSH1 0x0 MSTORE PUSH1 0x20 PUSH1 0x0 KECCAK256 ADD PUSH1 0x0 SWAP1 SLOAD SWAP1 PUSH2 0x100 EXP SWAP1 DIV PUSH20 0xFFFFFFFFFFFFFFFFFFFFFFFFFFFFFFFFFFFFFFFF AND PUSH20 0xFFFFFFFFFFFFFFFFFFFFFFFFFFFFFFFFFFFFFFFF AND PUSH4 0x8EC04232 DUP3 PUSH1 0x40 MLOAD DUP3 PUSH4 0xFFFFFFFF AND PUSH1 0xE0 SHL DUP2 MSTORE PUSH1 0x4 ADD PUSH2 0x14E SWAP2 SWAP1 PUSH2 0x424 JUMP JUMPDEST PUSH1 0x0 PUSH1 0x40 MLOAD DUP1 DUP4 SUB DUP2 PUSH1 0x0 DUP8 DUP1 EXTCODESIZE ISZERO DUP1 ISZERO PUSH2 0x168 JUMPI PUSH1 0x0 DUP1 REVERT JUMPDEST POP GAS CALL ISZERO DUP1 ISZERO PUSH2 0x17C JUMPI RETURNDATASIZE PUSH1 0x0 DUP1 RETURNDATACOPY RETURNDATASIZE PUSH1 0x0 REVERT JUMPDEST POP POP POP POP POP POP JUMP JUMPDEST PUSH1 0x0 PUSH1 0x40 MLOAD PUSH2 0x192 SWAP1 PUSH2 0x31A JUMP JUMPDEST PUSH1 0x40 MLOAD DUP1 SWAP2 SUB SWAP1 PUSH1 0x0 CREATE DUP1 ISZERO DUP1 ISZERO PUSH2 0x1AE JUMPI RETURNDATASIZE PUSH1 0x0 DUP1 RETURNDATACOPY RETURNDATASIZE PUSH1 0x0 REVERT JUMPDEST POP SWAP1 POP PUSH1 0x0 DUP2 SWAP1 DUP1 PUSH1 0x1 DUP2 SLOAD ADD DUP1 DUP3 SSTORE DUP1 SWAP2 POP POP PUSH1 0x1 SWAP1 SUB SWAP1 PUSH1 0x0 MSTORE PUSH1 0x20 PUSH1 0x0 KECCAK256 ADD PUSH1 0x0 SWAP1 SWAP2 SWAP1 SWAP2 SWAP1 SWAP2 PUSH2 0x100 EXP DUP2 SLOAD DUP2 PUSH20 0xFFFFFFFFFFFFFFFFFFFFFFFFFFFFFFFFFFFFFFFF MUL NOT AND SWAP1 DUP4 PUSH20 0xFFFFFFFFFFFFFFFFFFFFFFFFFFFFFFFFFFFFFFFF AND MUL OR SWAP1 SSTORE POP POP JUMP JUMPDEST PUSH1 0x0 DUP2 DUP2 SLOAD DUP2 LT PUSH2 0x227 JUMPI PUSH1 0x0 DUP1 REVERT JUMPDEST SWAP1 PUSH1 0x0 MSTORE PUSH1 0x20 PUSH1 0x0 KECCAK256 ADD PUSH1 0x0 SWAP2 POP SLOAD SWAP1 PUSH2 0x100 EXP SWAP1 DIV PUSH20 0xFFFFFFFFFFFFFFFFFFFFFFFFFFFFFFFFFFFFFFFF AND DUP2 JUMP JUMPDEST PUSH1 0x0 DUP1 DUP3 DUP2 SLOAD DUP2 LT PUSH2 0x26B JUMPI PUSH2 0x26A PUSH2 0x49F JUMP JUMPDEST JUMPDEST SWAP1 PUSH1 0x0 MSTORE PUSH1 0x20 PUSH1 0x0 KECCAK256 ADD PUSH1 0x0 SWAP1 SLOAD SWAP1 PUSH2 0x100 EXP SWAP1 DIV PUSH20 0xFFFFFFFFFFFFFFFFFFFFFFFFFFFFFFFFFFFFFFFF AND PUSH20 0xFFFFFFFFFFFFFFFFFFFFFFFFFFFFFFFFFFFFFFFF AND PUSH4 0xA4B4F67A PUSH1 0x40 MLOAD DUP2 PUSH4 0xFFFFFFFF AND PUSH1 0xE0 SHL DUP2 MSTORE PUSH1 0x4 ADD PUSH1 0x20 PUSH1 0x40 MLOAD DUP1 DUP4 SUB DUP2 DUP7 DUP1 EXTCODESIZE ISZERO DUP1 ISZERO PUSH2 0x2DB JUMPI PUSH1 0x0 DUP1 REVERT JUMPDEST POP GAS STATICCALL ISZERO DUP1 ISZERO PUSH2 0x2EF JUMPI RETURNDATASIZE PUSH1 0x0 DUP1 RETURNDATACOPY RETURNDATASIZE PUSH1 0x0 REVERT JUMPDEST POP POP POP POP PUSH1 0x40 MLOAD RETURNDATASIZE PUSH1 0x1F NOT PUSH1 0x1F DUP3 ADD AND DUP3 ADD DUP1 PUSH1 0x40 MSTORE POP DUP2 ADD SWAP1 PUSH2 0x313 SWAP2 SWAP1 PUSH2 0x37E JUMP JUMPDEST SWAP1 POP SWAP2 SWAP1 POP JUMP JUMPDEST PUSH2 0x61F DUP1 PUSH2 0x4EB DUP4 CODECOPY ADD SWAP1 JUMP JUMPDEST PUSH1 0x0 DUP2 CALLDATALOAD SWAP1 POP PUSH2 0x336 DUP2 PUSH2 0x4D3 JUMP JUMPDEST SWAP3 SWAP2 POP POP JUMP JUMPDEST PUSH1 0x0 DUP2 MLOAD SWAP1 POP PUSH2 0x34B DUP2 PUSH2 0x4D3 JUMP JUMPDEST SWAP3 SWAP2 POP POP JUMP JUMPDEST PUSH1 0x0 PUSH1 0x20 DUP3 DUP5 SUB SLT ISZERO PUSH2 0x367 JUMPI PUSH2 0x366 PUSH2 0x4CE JUMP JUMPDEST JUMPDEST PUSH1 0x0 PUSH2 0x375 DUP5 DUP3 DUP6 ADD PUSH2 0x327 JUMP JUMPDEST SWAP2 POP POP SWAP3 SWAP2 POP POP JUMP JUMPDEST PUSH1 0x0 PUSH1 0x20 DUP3 DUP5 SUB SLT ISZERO PUSH2 0x394 JUMPI PUSH2 0x393 PUSH2 0x4CE JUMP JUMPDEST JUMPDEST PUSH1 0x0 PUSH2 0x3A2 DUP5 DUP3 DUP6 ADD PUSH2 0x33C JUMP JUMPDEST SWAP2 POP POP SWAP3 SWAP2 POP POP JUMP JUMPDEST PUSH1 0x0 DUP1 PUSH1 0x40 DUP4 DUP6 SUB SLT ISZERO PUSH2 0x3C2 JUMPI PUSH2 0x3C1 PUSH2 0x4CE JUMP JUMPDEST JUMPDEST PUSH1 0x0 PUSH2 0x3D0 DUP6 DUP3 DUP7 ADD PUSH2 0x327 JUMP JUMPDEST SWAP3 POP POP PUSH1 0x20 PUSH2 0x3E1 DUP6 DUP3 DUP7 ADD PUSH2 0x327 JUMP JUMPDEST SWAP2 POP POP SWAP3 POP SWAP3 SWAP1 POP JUMP JUMPDEST PUSH2 0x3F4 DUP2 PUSH2 0x469 JUMP JUMPDEST DUP3 MSTORE POP POP JUMP JUMPDEST PUSH2 0x403 DUP2 PUSH2 0x45F JUMP JUMPDEST DUP3 MSTORE POP POP JUMP JUMPDEST PUSH1 0x0 PUSH1 0x20 DUP3 ADD SWAP1 POP PUSH2 0x41E PUSH1 0x0 DUP4 ADD DUP5 PUSH2 0x3EB JUMP JUMPDEST SWAP3 SWAP2 POP POP JUMP JUMPDEST PUSH1 0x0 PUSH1 0x20 DUP3 ADD SWAP1 POP PUSH2 0x439 PUSH1 0x0 DUP4 ADD DUP5 PUSH2 0x3FA JUMP JUMPDEST SWAP3 SWAP2 POP POP JUMP JUMPDEST PUSH1 0x0 PUSH20 0xFFFFFFFFFFFFFFFFFFFFFFFFFFFFFFFFFFFFFFFF DUP3 AND SWAP1 POP SWAP2 SWAP1 POP JUMP JUMPDEST PUSH1 0x0 DUP2 SWAP1 POP SWAP2 SWAP1 POP JUMP JUMPDEST PUSH1 0x0 PUSH2 0x474 DUP3 PUSH2 0x47B JUMP JUMPDEST SWAP1 POP SWAP2 SWAP1 POP JUMP JUMPDEST PUSH1 0x0 PUSH2 0x486 DUP3 PUSH2 0x48D JUMP JUMPDEST SWAP1 POP SWAP2 SWAP1 POP JUMP JUMPDEST PUSH1 0x0 PUSH2 0x498 DUP3 PUSH2 0x43F JUMP JUMPDEST SWAP1 POP SWAP2 SWAP1 POP JUMP JUMPDEST PUSH32 0x4E487B7100000000000000000000000000000000000000000000000000000000 PUSH1 0x0 MSTORE PUSH1 0x32 PUSH1 0x4 MSTORE PUSH1 0x24 PUSH1 0x0 REVERT JUMPDEST PUSH1 0x0 DUP1 REVERT JUMPDEST PUSH2 0x4DC DUP2 PUSH2 0x45F JUMP JUMPDEST DUP2 EQ PUSH2 0x4E7 JUMPI PUSH1 0x0 DUP1 REVERT JUMPDEST POP JUMP INVALID PUSH1 0x80 PUSH1 0x40 MSTORE CALLVALUE DUP1 ISZERO PUSH2 0x10 JUMPI PUSH1 0x0 DUP1 REVERT JUMPDEST POP PUSH2 0x5FF DUP1 PUSH2 0x20 PUSH1 0x0 CODECOPY PUSH1 0x0 RETURN INVALID PUSH1 0x80 PUSH1 0x40 MSTORE CALLVALUE DUP1 ISZERO PUSH2 0x10 JUMPI PUSH1 0x0 DUP1 REVERT JUMPDEST POP PUSH1 0x4 CALLDATASIZE LT PUSH2 0x4C JUMPI PUSH1 0x0 CALLDATALOAD PUSH1 0xE0 SHR DUP1 PUSH4 0x8BAB8DD5 EQ PUSH2 0x51 JUMPI DUP1 PUSH4 0x8EC04232 EQ PUSH2 0x81 JUMPI DUP1 PUSH4 0xA4B4F67A EQ PUSH2 0x9D JUMPI DUP1 PUSH4 0xBC832D4E EQ PUSH2 0xBB JUMPI JUMPDEST PUSH1 0x0 DUP1 REVERT JUMPDEST PUSH2 0x6B PUSH1 0x4 DUP1 CALLDATASIZE SUB DUP2 ADD SWAP1 PUSH2 0x66 SWAP2 SWAP1 PUSH2 0x2D0 JUMP JUMPDEST PUSH2 0xD7 JUMP JUMPDEST PUSH1 0x40 MLOAD PUSH2 0x78 SWAP2 SWAP1 PUSH2 0x3F9 JUMP JUMPDEST PUSH1 0x40 MLOAD DUP1 SWAP2 SUB SWAP1 RETURN JUMPDEST PUSH2 0x9B PUSH1 0x4 DUP1 CALLDATASIZE SUB DUP2 ADD SWAP1 PUSH2 0x96 SWAP2 SWAP1 PUSH2 0x319 JUMP JUMPDEST PUSH2 0x105 JUMP JUMPDEST STOP JUMPDEST PUSH2 0xA5 PUSH2 0x10F JUMP JUMPDEST PUSH1 0x40 MLOAD PUSH2 0xB2 SWAP2 SWAP1 PUSH2 0x3F9 JUMP JUMPDEST PUSH1 0x40 MLOAD DUP1 SWAP2 SUB SWAP1 RETURN JUMPDEST PUSH2 0xD5 PUSH1 0x4 DUP1 CALLDATASIZE SUB DUP2 ADD SWAP1 PUSH2 0xD0 SWAP2 SWAP1 PUSH2 0x346 JUMP JUMPDEST PUSH2 0x118 JUMP JUMPDEST STOP JUMPDEST PUSH1 0x2 DUP2 DUP1 MLOAD PUSH1 0x20 DUP2 ADD DUP3 ADD DUP1 MLOAD DUP5 DUP3 MSTORE PUSH1 0x20 DUP4 ADD PUSH1 0x20 DUP6 ADD KECCAK256 DUP2 DUP4 MSTORE DUP1 SWAP6 POP POP POP POP POP POP PUSH1 0x0 SWAP2 POP SWAP1 POP SLOAD DUP2 JUMP JUMPDEST DUP1 PUSH1 0x0 DUP2 SWAP1 SSTORE POP POP JUMP JUMPDEST PUSH1 0x0 DUP1 SLOAD SWAP1 POP SWAP1 JUMP JUMPDEST PUSH1 0x1 PUSH1 0x40 MLOAD DUP1 PUSH1 0x40 ADD PUSH1 0x40 MSTORE DUP1 DUP5 DUP2 MSTORE PUSH1 0x20 ADD DUP4 DUP2 MSTORE POP SWAP1 DUP1 PUSH1 0x1 DUP2 SLOAD ADD DUP1 DUP3 SSTORE DUP1 SWAP2 POP POP PUSH1 0x1 SWAP1 SUB SWAP1 PUSH1 0x0 MSTORE PUSH1 0x20 PUSH1 0x0 KECCAK256 SWAP1 PUSH1 0x2 MUL ADD PUSH1 0x0 SWAP1 SWAP2 SWAP1 SWAP2 SWAP1 SWAP2 POP PUSH1 0x0 DUP3 ADD MLOAD DUP2 PUSH1 0x0 ADD SSTORE PUSH1 0x20 DUP3 ADD MLOAD DUP2 PUSH1 0x1 ADD SWAP1 DUP1 MLOAD SWAP1 PUSH1 0x20 ADD SWAP1 PUSH2 0x17E SWAP3 SWAP2 SWAP1 PUSH2 0x1A8 JUMP JUMPDEST POP POP POP DUP2 PUSH1 0x2 DUP3 PUSH1 0x40 MLOAD PUSH2 0x192 SWAP2 SWAP1 PUSH2 0x3E2 JUMP JUMPDEST SWAP1 DUP2 MSTORE PUSH1 0x20 ADD PUSH1 0x40 MLOAD DUP1 SWAP2 SUB SWAP1 KECCAK256 DUP2 SWAP1 SSTORE POP POP POP JUMP JUMPDEST DUP3 DUP1 SLOAD PUSH2 0x1B4 SWAP1 PUSH2 0x4CC JUMP JUMPDEST SWAP1 PUSH1 0x0 MSTORE PUSH1 0x20 PUSH1 0x0 KECCAK256 SWAP1 PUSH1 0x1F ADD PUSH1 0x20 SWAP1 DIV DUP2 ADD SWAP3 DUP3 PUSH2 0x1D6 JUMPI PUSH1 0x0 DUP6 SSTORE PUSH2 0x21D JUMP JUMPDEST DUP3 PUSH1 0x1F LT PUSH2 0x1EF JUMPI DUP1 MLOAD PUSH1 0xFF NOT AND DUP4 DUP1 ADD OR DUP6 SSTORE PUSH2 0x21D JUMP JUMPDEST DUP3 DUP1 ADD PUSH1 0x1 ADD DUP6 SSTORE DUP3 ISZERO PUSH2 0x21D JUMPI SWAP2 DUP3 ADD JUMPDEST DUP3 DUP2 GT ISZERO PUSH2 0x21C JUMPI DUP3 MLOAD DUP3 SSTORE SWAP2 PUSH1 0x20 ADD SWAP2 SWAP1 PUSH1 0x1 ADD SWAP1 PUSH2 0x201 JUMP JUMPDEST JUMPDEST POP SWAP1 POP PUSH2 0x22A SWAP2 SWAP1 PUSH2 0x22E JUMP JUMPDEST POP SWAP1 JUMP JUMPDEST JUMPDEST DUP1 DUP3 GT ISZERO PUSH2 0x247 JUMPI PUSH1 0x0 DUP2 PUSH1 0x0 SWAP1 SSTORE POP PUSH1 0x1 ADD PUSH2 0x22F JUMP JUMPDEST POP SWAP1 JUMP JUMPDEST PUSH1 0x0 PUSH2 0x25E PUSH2 0x259 DUP5 PUSH2 0x439 JUMP JUMPDEST PUSH2 0x414 JUMP JUMPDEST SWAP1 POP DUP3 DUP2 MSTORE PUSH1 0x20 DUP2 ADD DUP5 DUP5 DUP5 ADD GT ISZERO PUSH2 0x27A JUMPI PUSH2 0x279 PUSH2 0x592 JUMP JUMPDEST JUMPDEST PUSH2 0x285 DUP5 DUP3 DUP6 PUSH2 0x48A JUMP JUMPDEST POP SWAP4 SWAP3 POP POP POP JUMP JUMPDEST PUSH1 0x0 DUP3 PUSH1 0x1F DUP4 ADD SLT PUSH2 0x2A2 JUMPI PUSH2 0x2A1 PUSH2 0x58D JUMP JUMPDEST JUMPDEST DUP2 CALLDATALOAD PUSH2 0x2B2 DUP5 DUP3 PUSH1 0x20 DUP7 ADD PUSH2 0x24B JUMP JUMPDEST SWAP2 POP POP SWAP3 SWAP2 POP POP JUMP JUMPDEST PUSH1 0x0 DUP2 CALLDATALOAD SWAP1 POP PUSH2 0x2CA DUP2 PUSH2 0x5B2 JUMP JUMPDEST SWAP3 SWAP2 POP POP JUMP JUMPDEST PUSH1 0x0 PUSH1 0x20 DUP3 DUP5 SUB SLT ISZERO PUSH2 0x2E6 JUMPI PUSH2 0x2E5 PUSH2 0x59C JUMP JUMPDEST JUMPDEST PUSH1 0x0 DUP3 ADD CALLDATALOAD PUSH8 0xFFFFFFFFFFFFFFFF DUP2 GT ISZERO PUSH2 0x304 JUMPI PUSH2 0x303 PUSH2 0x597 JUMP JUMPDEST JUMPDEST PUSH2 0x310 DUP5 DUP3 DUP6 ADD PUSH2 0x28D JUMP JUMPDEST SWAP2 POP POP SWAP3 SWAP2 POP POP JUMP JUMPDEST PUSH1 0x0 PUSH1 0x20 DUP3 DUP5 SUB SLT ISZERO PUSH2 0x32F JUMPI PUSH2 0x32E PUSH2 0x59C JUMP JUMPDEST JUMPDEST PUSH1 0x0 PUSH2 0x33D DUP5 DUP3 DUP6 ADD PUSH2 0x2BB JUMP JUMPDEST SWAP2 POP POP SWAP3 SWAP2 POP POP JUMP JUMPDEST PUSH1 0x0 DUP1 PUSH1 0x40 DUP4 DUP6 SUB SLT ISZERO PUSH2 0x35D JUMPI PUSH2 0x35C PUSH2 0x59C JUMP JUMPDEST JUMPDEST PUSH1 0x0 PUSH2 0x36B DUP6 DUP3 DUP7 ADD PUSH2 0x2BB JUMP JUMPDEST SWAP3 POP POP PUSH1 0x20 DUP4 ADD CALLDATALOAD PUSH8 0xFFFFFFFFFFFFFFFF DUP2 GT ISZERO PUSH2 0x38C JUMPI PUSH2 0x38B PUSH2 0x597 JUMP JUMPDEST JUMPDEST PUSH2 0x398 DUP6 DUP3 DUP7 ADD PUSH2 0x28D JUMP JUMPDEST SWAP2 POP POP SWAP3 POP SWAP3 SWAP1 POP JUMP JUMPDEST PUSH1 0x0 PUSH2 0x3AD DUP3 PUSH2 0x46A JUMP JUMPDEST PUSH2 0x3B7 DUP2 DUP6 PUSH2 0x475 JUMP JUMPDEST SWAP4 POP PUSH2 0x3C7 DUP2 DUP6 PUSH1 0x20 DUP7 ADD PUSH2 0x499 JUMP JUMPDEST DUP1 DUP5 ADD SWAP2 POP POP SWAP3 SWAP2 POP POP JUMP JUMPDEST PUSH2 0x3DC DUP2 PUSH2 0x480 JUMP JUMPDEST DUP3 MSTORE POP POP JUMP JUMPDEST PUSH1 0x0 PUSH2 0x3EE DUP3 DUP5 PUSH2 0x3A2 JUMP JUMPDEST SWAP2 POP DUP2 SWAP1 POP SWAP3 SWAP2 POP POP JUMP JUMPDEST PUSH1 0x0 PUSH1 0x20 DUP3 ADD SWAP1 POP PUSH2 0x40E PUSH1 0x0 DUP4 ADD DUP5 PUSH2 0x3D3 JUMP JUMPDEST SWAP3 SWAP2 POP POP JUMP JUMPDEST PUSH1 0x0 PUSH2 0x41E PUSH2 0x42F JUMP JUMPDEST SWAP1 POP PUSH2 0x42A DUP3 DUP3 PUSH2 0x4FE JUMP JUMPDEST SWAP2 SWAP1 POP JUMP JUMPDEST PUSH1 0x0 PUSH1 0x40 MLOAD SWAP1 POP SWAP1 JUMP JUMPDEST PUSH1 0x0 PUSH8 0xFFFFFFFFFFFFFFFF DUP3 GT ISZERO PUSH2 0x454 JUMPI PUSH2 0x453 PUSH2 0x55E JUMP JUMPDEST JUMPDEST PUSH2 0x45D DUP3 PUSH2 0x5A1 JUMP JUMPDEST SWAP1 POP PUSH1 0x20 DUP2 ADD SWAP1 POP SWAP2 SWAP1 POP JUMP JUMPDEST PUSH1 0x0 DUP2 MLOAD SWAP1 POP SWAP2 SWAP1 POP JUMP JUMPDEST PUSH1 0x0 DUP2 SWAP1 POP SWAP3 SWAP2 POP POP JUMP JUMPDEST PUSH1 0x0 DUP2 SWAP1 POP SWAP2 SWAP1 POP JUMP JUMPDEST DUP3 DUP2 DUP4 CALLDATACOPY PUSH1 0x0 DUP4 DUP4 ADD MSTORE POP POP POP JUMP JUMPDEST PUSH1 0x0 JUMPDEST DUP4 DUP2 LT ISZERO PUSH2 0x4B7 JUMPI DUP1 DUP3 ADD MLOAD DUP2 DUP5 ADD MSTORE PUSH1 0x20 DUP2 ADD SWAP1 POP PUSH2 0x49C JUMP JUMPDEST DUP4 DUP2 GT ISZERO PUSH2 0x4C6 JUMPI PUSH1 0x0 DUP5 DUP5 ADD MSTORE JUMPDEST POP POP POP POP JUMP JUMPDEST PUSH1 0x0 PUSH1 0x2 DUP3 DIV SWAP1 POP PUSH1 0x1 DUP3 AND DUP1 PUSH2 0x4E4 JUMPI PUSH1 0x7F DUP3 AND SWAP2 POP JUMPDEST PUSH1 0x20 DUP3 LT DUP2 EQ ISZERO PUSH2 0x4F8 JUMPI PUSH2 0x4F7 PUSH2 0x52F JUMP JUMPDEST JUMPDEST POP SWAP2 SWAP1 POP JUMP JUMPDEST PUSH2 0x507 DUP3 PUSH2 0x5A1 JUMP JUMPDEST DUP2 ADD DUP2 DUP2 LT PUSH8 0xFFFFFFFFFFFFFFFF DUP3 GT OR ISZERO PUSH2 0x526 JUMPI PUSH2 0x525 PUSH2 0x55E JUMP JUMPDEST JUMPDEST DUP1 PUSH1 0x40 MSTORE POP POP POP JUMP JUMPDEST PUSH32 0x4E487B7100000000000000000000000000000000000000000000000000000000 PUSH1 0x0 MSTORE PUSH1 0x22 PUSH1 0x4 MSTORE PUSH1 0x24 PUSH1 0x0 REVERT JUMPDEST PUSH32 0x4E487B7100000000000000000000000000000000000000000000000000000000 PUSH1 0x0 MSTORE PUSH1 0x41 PUSH1 0x4 MSTORE PUSH1 0x24 PUSH1 0x0 REVERT JUMPDEST PUSH1 0x0 DUP1 REVERT JUMPDEST PUSH1 0x0 DUP1 REVERT JUMPDEST PUSH1 0x0 DUP1 REVERT JUMPDEST PUSH1 0x0 DUP1 REVERT JUMPDEST PUSH1 0x0 PUSH1 0x1F NOT PUSH1 0x1F DUP4 ADD AND SWAP1 POP SWAP2 SWAP1 POP JUMP JUMPDEST PUSH2 0x5BB DUP2 PUSH2 0x480 JUMP JUMPDEST DUP2 EQ PUSH2 0x5C6 JUMPI PUSH1 0x0 DUP1 REVERT JUMPDEST POP JUMP INVALID LOG2 PUSH5 0x6970667358 0x22 SLT KECCAK256 SSTORE SWAP2 0x5D 0xDC 0xCB OR SWAP10 0x22 0xCC SMOD CALLER 0xAE 0xC 0xE6 PUSH17 0xFE3EC04C3AC8328E8BFECFEB7311EC2B05 PUSH5 0x736F6C6343 STOP ADDMOD SMOD STOP CALLER LOG2 PUSH5 0x6970667358 0x22 SLT KECCAK256 PUSH14 0xFD1590603E9B538FE3CEDF8F869F 0xC7 0xEC 0xEE 0x4B 0xBC PUSH25 0x7DA4B6A35DEA9A38DF50A64736F6C63430008070033000000 "
				},
				"gasEstimates": {
					"creation": {
						"codeDepositCost": "575800",
						"executionCost": "606",
						"totalCost": "576406"
					},
					"external": {
						"createSimpleStorage()": "infinite",
						"sfGet(uint256)": "infinite",
						"sfStore(uint256,uint256)": "infinite",
						"simpleStorageArray(uint256)": "5064"
					}
				},
				"methodIdentifiers": {
					"createSimpleStorage()": "40d66b3b",
					"sfGet(uint256)": "c5f19c20",
					"sfStore(uint256,uint256)": "1563700f",
					"simpleStorageArray(uint256)": "64591bf1"
				}
			},
			"storageLayout": {
				"storage": [
					{
						"astId": 65,
						"contract": "storage-factory/StorageFactory.sol:StorageFactory",
						"label": "simpleStorageArray",
						"offset": 0,
						"slot": "0",
						"type": "t_array(t_contract(SimpleStorage)58)dyn_storage"
					}
				],
				"types": {
					"t_array(t_contract(SimpleStorage)58)dyn_storage": {
						"base": "t_contract(SimpleStorage)58",
						"encoding": "dynamic_array",
						"label": "contract SimpleStorage[]",
						"numberOfBytes": "32"
					},
					"t_contract(SimpleStorage)58": {
						"encoding": "inplace",
						"label": "contract SimpleStorage",
						"numberOfBytes": "20"
					}
				}
			},
			"userdoc": {
				"kind": "user",
				"methods": {},
				"version": 1
			}
		}
	}
}