{
	"data": {
		"bytecode": {
			"linkReferences": {},
			"object": "60806040526000805534801561001457600080fd5b506101a1806100246000396000f3fe608060405234801561001057600080fd5b50600436106100415760003560e01c80639ff9a60314610046578063bf13a85914610050578063e5aa3d581461006e575b600080fd5b61004e61008c565b005b6100586100b2565b60405161006591906100d9565b60405180910390f35b6100766100ba565b60405161008391906100d9565b60405180910390f35b5b6001156100b0576000808154809291906100a690610123565b919050555061008d565b565b60003a905090565b60005481565b6000819050919050565b6100d3816100c0565b82525050565b60006020820190506100ee60008301846100ca565b92915050565b7f4e487b7100000000000000000000000000000000000000000000000000000000600052601160045260246000fd5b600061012e826100c0565b91507fffffffffffffffffffffffffffffffffffffffffffffffffffffffffffffffff82036101605761015f6100f4565b5b60018201905091905056fea264697066735822122024affd475c48b3c96e2b82e938169f887c65d95264e247cb4e05d0753447bedc64736f6c634300080e0033",
			"opcodes": "PUSH1 0x80 PUSH1 0x40 MSTORE PUSH1 0x0 DUP1 SSTORE CALLVALUE DUP1 ISZERO PUSH2 0x14 JUMPI PUSH1 0x0 DUP1 REVERT JUMPDEST POP PUSH2 0x1A1 DUP1 PUSH2 0x24 PUSH1 0x0 CODECOPY PUSH1 0x0 RETURN INVALID PUSH1 0x80 PUSH1 0x40 MSTORE CALLVALUE DUP1 ISZERO PUSH2 0x10 JUMPI PUSH1 0x0 DUP1 REVERT JUMPDEST POP PUSH1 0x4 CALLDATASIZE LT PUSH2 0x41 JUMPI PUSH1 0x0 CALLDATALOAD PUSH1 0xE0 SHR DUP1 PUSH4 0x9FF9A603 EQ PUSH2 0x46 JUMPI DUP1 PUSH4 0xBF13A859 EQ PUSH2 0x50 JUMPI DUP1 PUSH4 0xE5AA3D58 EQ PUSH2 0x6E JUMPI JUMPDEST PUSH1 0x0 DUP1 REVERT JUMPDEST PUSH2 0x4E PUSH2 0x8C JUMP JUMPDEST STOP JUMPDEST PUSH2 0x58 PUSH2 0xB2 JUMP JUMPDEST PUSH1 0x40 MLOAD PUSH2 0x65 SWAP2 SWAP1 PUSH2 0xD9 JUMP JUMPDEST PUSH1 0x40 MLOAD DUP1 SWAP2 SUB SWAP1 RETURN JUMPDEST PUSH2 0x76 PUSH2 0xBA JUMP JUMPDEST PUSH1 0x40 MLOAD PUSH2 0x83 SWAP2 SWAP1 PUSH2 0xD9 JUMP JUMPDEST PUSH1 0x40 MLOAD DUP1 SWAP2 SUB SWAP1 RETURN JUMPDEST JUMPDEST PUSH1 0x1 ISZERO PUSH2 0xB0 JUMPI PUSH1 0x0 DUP1 DUP2 SLOAD DUP1 SWAP3 SWAP2 SWAP1 PUSH2 0xA6 SWAP1 PUSH2 0x123 JUMP JUMPDEST SWAP2 SWAP1 POP SSTORE POP PUSH2 0x8D JUMP JUMPDEST JUMP JUMPDEST PUSH1 0x0 GASPRICE SWAP1 POP SWAP1 JUMP JUMPDEST PUSH1 0x0 SLOAD DUP2 JUMP JUMPDEST PUSH1 0x0 DUP2 SWAP1 POP SWAP2 SWAP1 POP JUMP JUMPDEST PUSH2 0xD3 DUP2 PUSH2 0xC0 JUMP JUMPDEST DUP3 MSTORE POP POP JUMP JUMPDEST PUSH1 0x0 PUSH1 0x20 DUP3 ADD SWAP1 POP PUSH2 0xEE PUSH1 0x0 DUP4 ADD DUP5 PUSH2 0xCA JUMP JUMPDEST SWAP3 SWAP2 POP POP JUMP JUMPDEST PUSH32 0x4E487B7100000000000000000000000000000000000000000000000000000000 PUSH1 0x0 MSTORE PUSH1 0x11 PUSH1 0x4 MSTORE PUSH1 0x24 PUSH1 0x0 REVERT JUMPDEST PUSH1 0x0 PUSH2 0x12E DUP3 PUSH2 0xC0 JUMP JUMPDEST SWAP2 POP PUSH32 0xFFFFFFFFFFFFFFFFFFFFFFFFFFFFFFFFFFFFFFFFFFFFFFFFFFFFFFFFFFFFFFFF DUP3 SUB PUSH2 0x160 JUMPI PUSH2 0x15F PUSH2 0xF4 JUMP JUMPDEST JUMPDEST PUSH1 0x1 DUP3 ADD SWAP1 POP SWAP2 SWAP1 POP JUMP INVALID LOG2 PUSH5 0x6970667358 0x22 SLT KECCAK256 0x24 0xAF REVERT SELFBALANCE 0x5C BASEFEE 0xB3 0xC9 PUSH15 0x2B82E938169F887C65D95264E247CB 0x4E SDIV 0xD0 PUSH22 0x3447BEDC64736F6C634300080E003300000000000000 "
		},
		"gasEstimates": {
			"creation": {
				"codeDepositCost": "83400",
				"executionCost": "5141",
				"totalCost": "88541"
			},
			"external": {
				"forever()": "infinite",
				"i()": "2451",
				"testGasRefund()": "336"
			}
		},
		"methodIdentifiers": {
			"forever()": "9ff9a603",
			"i()": "e5aa3d58",
			"testGasRefund()": "bf13a859"
		}
	},
	"abi": [
		{
			"inputs": [],
			"name": "forever",
			"outputs": [],
			"stateMutability": "nonpayable",
			"type": "function"
		},
		{
			"inputs": [],
			"name": "i",
			"outputs": [
				{
					"internalType": "uint256",
					"name": "",
					"type": "uint256"
				}
			],
			"stateMutability": "view",
			"type": "function"
		},
		{
			"inputs": [],
			"name": "testGasRefund",
			"outputs": [
				{
					"internalType": "uint256",
					"name": "",
					"type": "uint256"
				}
			],
			"stateMutability": "view",
			"type": "function"
		}
	]
}