{
	"fund-me/FundMe.sol": {
		"FundMe": {
			"abi": [
				{
					"inputs": [],
					"stateMutability": "nonpayable",
					"type": "constructor"
				},
				{
					"inputs": [],
					"name": "MINIMUM_USD",
					"outputs": [
						{
							"internalType": "uint256",
							"name": "",
							"type": "uint256"
						}
					],
					"stateMutability": "view",
					"type": "function"
				},
				{
					"inputs": [
						{
							"internalType": "address",
							"name": "",
							"type": "address"
						}
					],
					"name": "addressesToAmounts",
					"outputs": [
						{
							"internalType": "uint256",
							"name": "",
							"type": "uint256"
						}
					],
					"stateMutability": "view",
					"type": "function"
				},
				{
					"inputs": [],
					"name": "fund",
					"outputs": [],
					"stateMutability": "payable",
					"type": "function"
				},
				{
					"inputs": [
						{
							"internalType": "uint256",
							"name": "",
							"type": "uint256"
						}
					],
					"name": "funders",
					"outputs": [
						{
							"internalType": "address",
							"name": "",
							"type": "address"
						}
					],
					"stateMutability": "view",
					"type": "function"
				},
				{
					"inputs": [],
					"name": "owner",
					"outputs": [
						{
							"internalType": "address",
							"name": "",
							"type": "address"
						}
					],
					"stateMutability": "view",
					"type": "function"
				}
			],
			"devdoc": {
				"kind": "dev",
				"methods": {},
				"version": 1
			},
			"evm": {
				"assembly": "    /* \"fund-me/FundMe.sol\":166:641  contract FundMe {... */\n  mstore(0x40, 0x80)\n    /* \"fund-me/FundMe.sol\":385:428  constructor() {... */\n  callvalue\n  dup1\n  iszero\n  tag_1\n  jumpi\n  0x00\n  dup1\n  revert\ntag_1:\n  pop\n    /* \"fund-me/FundMe.sol\":413:423  msg.sender */\n  caller\n    /* \"fund-me/FundMe.sol\":405:410  owner */\n  0x02\n  0x00\n    /* \"fund-me/FundMe.sol\":405:423  owner = msg.sender */\n  0x0100\n  exp\n  dup2\n  sload\n  dup2\n  0xffffffffffffffffffffffffffffffffffffffff\n  mul\n  not\n  and\n  swap1\n  dup4\n  0xffffffffffffffffffffffffffffffffffffffff\n  and\n  mul\n  or\n  swap1\n  sstore\n  pop\n    /* \"fund-me/FundMe.sol\":166:641  contract FundMe {... */\n  dataSize(sub_0)\n  dup1\n  dataOffset(sub_0)\n  0x00\n  codecopy\n  0x00\n  return\nstop\n\nsub_0: assembly {\n        /* \"fund-me/FundMe.sol\":166:641  contract FundMe {... */\n      mstore(0x40, 0x80)\n      jumpi(tag_1, lt(calldatasize, 0x04))\n      shr(0xe0, calldataload(0x00))\n      dup1\n      0x6b69a592\n      eq\n      tag_2\n      jumpi\n      dup1\n      0x8da5cb5b\n      eq\n      tag_3\n      jumpi\n      dup1\n      0x9eeb13df\n      eq\n      tag_4\n      jumpi\n      dup1\n      0xb60d4288\n      eq\n      tag_5\n      jumpi\n      dup1\n      0xdc0d3dff\n      eq\n      tag_6\n      jumpi\n    tag_1:\n      0x00\n      dup1\n      revert\n        /* \"fund-me/FundMe.sol\":333:380  uint256 public constant MINIMUM_USD = 50 * 1e18 */\n    tag_2:\n      callvalue\n      dup1\n      iszero\n      tag_7\n      jumpi\n      0x00\n      dup1\n      revert\n    tag_7:\n      pop\n      tag_8\n      tag_9\n      jump\t// in\n    tag_8:\n      mload(0x40)\n      tag_10\n      swap2\n      swap1\n      tag_11\n      jump\t// in\n    tag_10:\n      mload(0x40)\n      dup1\n      swap2\n      sub\n      swap1\n      return\n        /* \"fund-me/FundMe.sol\":309:329  address public owner */\n    tag_3:\n      callvalue\n      dup1\n      iszero\n      tag_12\n      jumpi\n      0x00\n      dup1\n      revert\n    tag_12:\n      pop\n      tag_13\n      tag_14\n      jump\t// in\n    tag_13:\n      mload(0x40)\n      tag_15\n      swap2\n      swap1\n      tag_16\n      jump\t// in\n    tag_15:\n      mload(0x40)\n      dup1\n      swap2\n      sub\n      swap1\n      return\n        /* \"fund-me/FundMe.sol\":251:304  mapping(address => uint256) public addressesToAmounts */\n    tag_4:\n      callvalue\n      dup1\n      iszero\n      tag_17\n      jumpi\n      0x00\n      dup1\n      revert\n    tag_17:\n      pop\n      tag_18\n      0x04\n      dup1\n      calldatasize\n      sub\n      dup2\n      add\n      swap1\n      tag_19\n      swap2\n      swap1\n      tag_20\n      jump\t// in\n    tag_19:\n      tag_21\n      jump\t// in\n    tag_18:\n      mload(0x40)\n      tag_22\n      swap2\n      swap1\n      tag_11\n      jump\t// in\n    tag_22:\n      mload(0x40)\n      dup1\n      swap2\n      sub\n      swap1\n      return\n        /* \"fund-me/FundMe.sol\":432:607  function fund() public payable {... */\n    tag_5:\n      tag_23\n      tag_24\n      jump\t// in\n    tag_23:\n      stop\n        /* \"fund-me/FundMe.sol\":223:247  address[] public funders */\n    tag_6:\n      callvalue\n      dup1\n      iszero\n      tag_25\n      jumpi\n      0x00\n      dup1\n      revert\n    tag_25:\n      pop\n      tag_26\n      0x04\n      dup1\n      calldatasize\n      sub\n      dup2\n      add\n      swap1\n      tag_27\n      swap2\n      swap1\n      tag_28\n      jump\t// in\n    tag_27:\n      tag_29\n      jump\t// in\n    tag_26:\n      mload(0x40)\n      tag_30\n      swap2\n      swap1\n      tag_16\n      jump\t// in\n    tag_30:\n      mload(0x40)\n      dup1\n      swap2\n      sub\n      swap1\n      return\n        /* \"fund-me/FundMe.sol\":333:380  uint256 public constant MINIMUM_USD = 50 * 1e18 */\n    tag_9:\n        /* \"fund-me/FundMe.sol\":371:380  50 * 1e18 */\n      0x02b5e3af16b1880000\n        /* \"fund-me/FundMe.sol\":333:380  uint256 public constant MINIMUM_USD = 50 * 1e18 */\n      dup2\n      jump\t// out\n        /* \"fund-me/FundMe.sol\":309:329  address public owner */\n    tag_14:\n      0x02\n      0x00\n      swap1\n      sload\n      swap1\n      0x0100\n      exp\n      swap1\n      div\n      0xffffffffffffffffffffffffffffffffffffffff\n      and\n      dup2\n      jump\t// out\n        /* \"fund-me/FundMe.sol\":251:304  mapping(address => uint256) public addressesToAmounts */\n    tag_21:\n      mstore(0x20, 0x01)\n      dup1\n      0x00\n      mstore\n      keccak256(0x00, 0x40)\n      0x00\n      swap2\n      pop\n      swap1\n      pop\n      sload\n      dup2\n      jump\t// out\n        /* \"fund-me/FundMe.sol\":432:607  function fund() public payable {... */\n    tag_24:\n        /* \"fund-me/FundMe.sol\":371:380  50 * 1e18 */\n      0x02b5e3af16b1880000\n        /* \"fund-me/FundMe.sol\":477:507  msg.value.getConvertionPrice() */\n      tag_32\n        /* \"fund-me/FundMe.sol\":477:486  msg.value */\n      callvalue\n        /* \"fund-me/FundMe.sol\":477:505  msg.value.getConvertionPrice */\n      tag_33\n        /* \"fund-me/FundMe.sol\":477:507  msg.value.getConvertionPrice() */\n      jump\t// in\n    tag_32:\n        /* \"fund-me/FundMe.sol\":477:522  msg.value.getConvertionPrice() >= MINIMUM_USD */\n      lt\n      iszero\n        /* \"fund-me/FundMe.sol\":469:523  require(msg.value.getConvertionPrice() >= MINIMUM_USD) */\n      tag_34\n      jumpi\n      0x00\n      dup1\n      revert\n    tag_34:\n        /* \"fund-me/FundMe.sol\":563:572  msg.value */\n      callvalue\n        /* \"fund-me/FundMe.sol\":529:547  addressesToAmounts */\n      0x01\n        /* \"fund-me/FundMe.sol\":529:559  addressesToAmounts[msg.sender] */\n      0x00\n        /* \"fund-me/FundMe.sol\":548:558  msg.sender */\n      caller\n        /* \"fund-me/FundMe.sol\":529:559  addressesToAmounts[msg.sender] */\n      0xffffffffffffffffffffffffffffffffffffffff\n      and\n      0xffffffffffffffffffffffffffffffffffffffff\n      and\n      dup2\n      mstore\n      0x20\n      add\n      swap1\n      dup2\n      mstore\n      0x20\n      add\n      0x00\n      keccak256\n      0x00\n        /* \"fund-me/FundMe.sol\":529:572  addressesToAmounts[msg.sender] += msg.value */\n      dup3\n      dup3\n      sload\n      tag_35\n      swap2\n      swap1\n      tag_36\n      jump\t// in\n    tag_35:\n      swap3\n      pop\n      pop\n      dup2\n      swap1\n      sstore\n      pop\n        /* \"fund-me/FundMe.sol\":578:585  funders */\n      0x00\n        /* \"fund-me/FundMe.sol\":591:601  msg.sender */\n      caller\n        /* \"fund-me/FundMe.sol\":578:602  funders.push(msg.sender) */\n      swap1\n      dup1\n      0x01\n      dup2\n      sload\n      add\n      dup1\n      dup3\n      sstore\n      dup1\n      swap2\n      pop\n      pop\n      0x01\n      swap1\n      sub\n      swap1\n      0x00\n      mstore\n      keccak256(0x00, 0x20)\n      add\n      0x00\n      swap1\n      swap2\n      swap1\n      swap2\n      swap1\n      swap2\n      0x0100\n      exp\n      dup2\n      sload\n      dup2\n      0xffffffffffffffffffffffffffffffffffffffff\n      mul\n      not\n      and\n      swap1\n      dup4\n      0xffffffffffffffffffffffffffffffffffffffff\n      and\n      mul\n      or\n      swap1\n      sstore\n      pop\n        /* \"fund-me/FundMe.sol\":432:607  function fund() public payable {... */\n      jump\t// out\n        /* \"fund-me/FundMe.sol\":223:247  address[] public funders */\n    tag_29:\n      0x00\n      dup2\n      dup2\n      sload\n      dup2\n      lt\n      tag_38\n      jumpi\n      0x00\n      dup1\n      revert\n    tag_38:\n      swap1\n      0x00\n      mstore\n      keccak256(0x00, 0x20)\n      add\n      0x00\n      swap2\n      pop\n      sload\n      swap1\n      0x0100\n      exp\n      swap1\n      div\n      0xffffffffffffffffffffffffffffffffffffffff\n      and\n      dup2\n      jump\t// out\n        /* \"fund-me/PriceConverter.sol\":555:761  function getConvertionPrice(uint256 ethAmount) internal view returns (uint256) {... */\n    tag_33:\n        /* \"fund-me/PriceConverter.sol\":625:632  uint256 */\n      0x00\n        /* \"fund-me/PriceConverter.sol\":640:656  uint256 ethPrice */\n      dup1\n        /* \"fund-me/PriceConverter.sol\":659:669  getPrice() */\n      tag_41\n        /* \"fund-me/PriceConverter.sol\":659:667  getPrice */\n      tag_42\n        /* \"fund-me/PriceConverter.sol\":659:669  getPrice() */\n      jump\t// in\n    tag_41:\n        /* \"fund-me/PriceConverter.sol\":640:669  uint256 ethPrice = getPrice() */\n      swap1\n      pop\n        /* \"fund-me/PriceConverter.sol\":675:697  uint256 ethAmountInUsd */\n      0x00\n        /* \"fund-me/PriceConverter.sol\":725:729  1e18 */\n      0x0de0b6b3a7640000\n        /* \"fund-me/PriceConverter.sol\":712:721  ethAmount */\n      dup5\n        /* \"fund-me/PriceConverter.sol\":701:709  ethPrice */\n      dup4\n        /* \"fund-me/PriceConverter.sol\":701:721  ethPrice * ethAmount */\n      tag_43\n      swap2\n      swap1\n      tag_44\n      jump\t// in\n    tag_43:\n        /* \"fund-me/PriceConverter.sol\":700:729  (ethPrice * ethAmount) / 1e18 */\n      tag_45\n      swap2\n      swap1\n      tag_46\n      jump\t// in\n    tag_45:\n        /* \"fund-me/PriceConverter.sol\":675:729  uint256 ethAmountInUsd = (ethPrice * ethAmount) / 1e18 */\n      swap1\n      pop\n        /* \"fund-me/PriceConverter.sol\":742:756  ethAmountInUsd */\n      dup1\n        /* \"fund-me/PriceConverter.sol\":735:756  return ethAmountInUsd */\n      swap3\n      pop\n      pop\n      pop\n        /* \"fund-me/PriceConverter.sol\":555:761  function getConvertionPrice(uint256 ethAmount) internal view returns (uint256) {... */\n      swap2\n      swap1\n      pop\n      jump\t// out\n        /* \"fund-me/PriceConverter.sol\":303:551  function getPrice() internal view returns(uint256){... */\n    tag_42:\n        /* \"fund-me/PriceConverter.sol\":345:352  uint256 */\n      0x00\n        /* \"fund-me/PriceConverter.sol\":359:390  AggregatorV3Interface priceFeed */\n      dup1\n        /* \"fund-me/PriceConverter.sol\":415:457  0x8A753747A1Fa494EC906cE90E9f37563A8AF630e */\n      0x8a753747a1fa494ec906ce90e9f37563a8af630e\n        /* \"fund-me/PriceConverter.sol\":359:458  AggregatorV3Interface priceFeed = AggregatorV3Interface(0x8A753747A1Fa494EC906cE90E9f37563A8AF630e) */\n      swap1\n      pop\n        /* \"fund-me/PriceConverter.sol\":467:476  int price */\n      0x00\n        /* \"fund-me/PriceConverter.sol\":485:494  priceFeed */\n      dup2\n        /* \"fund-me/PriceConverter.sol\":485:510  priceFeed.latestRoundData */\n      0xffffffffffffffffffffffffffffffffffffffff\n      and\n      0xfeaf968c\n        /* \"fund-me/PriceConverter.sol\":485:512  priceFeed.latestRoundData() */\n      mload(0x40)\n      dup2\n      0xffffffff\n      and\n      0xe0\n      shl\n      dup2\n      mstore\n      0x04\n      add\n      0xa0\n      mload(0x40)\n      dup1\n      dup4\n      sub\n      dup2\n      dup7\n      dup1\n      extcodesize\n      iszero\n      dup1\n      iszero\n      tag_48\n      jumpi\n      0x00\n      dup1\n      revert\n    tag_48:\n      pop\n      gas\n      staticcall\n      iszero\n      dup1\n      iszero\n      tag_50\n      jumpi\n      returndatasize\n      0x00\n      dup1\n      returndatacopy\n      revert(0x00, returndatasize)\n    tag_50:\n      pop\n      pop\n      pop\n      pop\n      mload(0x40)\n      returndatasize\n      not(0x1f)\n      0x1f\n      dup3\n      add\n      and\n      dup3\n      add\n      dup1\n      0x40\n      mstore\n      pop\n      dup2\n      add\n      swap1\n      tag_51\n      swap2\n      swap1\n      tag_52\n      jump\t// in\n    tag_51:\n        /* \"fund-me/PriceConverter.sol\":464:512  (, int price, , ,) = priceFeed.latestRoundData() */\n      pop\n      pop\n      pop\n      swap2\n      pop\n      pop\n        /* \"fund-me/PriceConverter.sol\":541:545  1e10 */\n      0x02540be400\n        /* \"fund-me/PriceConverter.sol\":533:538  price */\n      dup2\n        /* \"fund-me/PriceConverter.sol\":533:545  price * 1e10 */\n      tag_53\n      swap2\n      swap1\n      tag_54\n      jump\t// in\n    tag_53:\n        /* \"fund-me/PriceConverter.sol\":518:546  return uint256(price * 1e10) */\n      swap3\n      pop\n      pop\n      pop\n        /* \"fund-me/PriceConverter.sol\":303:551  function getPrice() internal view returns(uint256){... */\n      swap1\n      jump\t// out\n        /* \"#utility.yul\":7:146   */\n    tag_56:\n        /* \"#utility.yul\":53:58   */\n      0x00\n        /* \"#utility.yul\":91:97   */\n      dup2\n        /* \"#utility.yul\":78:98   */\n      calldataload\n        /* \"#utility.yul\":69:98   */\n      swap1\n      pop\n        /* \"#utility.yul\":107:140   */\n      tag_58\n        /* \"#utility.yul\":134:139   */\n      dup2\n        /* \"#utility.yul\":107:140   */\n      tag_59\n      jump\t// in\n    tag_58:\n        /* \"#utility.yul\":7:146   */\n      swap3\n      swap2\n      pop\n      pop\n      jump\t// out\n        /* \"#utility.yul\":152:293   */\n    tag_60:\n        /* \"#utility.yul\":208:213   */\n      0x00\n        /* \"#utility.yul\":239:245   */\n      dup2\n        /* \"#utility.yul\":233:246   */\n      mload\n        /* \"#utility.yul\":224:246   */\n      swap1\n      pop\n        /* \"#utility.yul\":255:287   */\n      tag_62\n        /* \"#utility.yul\":281:286   */\n      dup2\n        /* \"#utility.yul\":255:287   */\n      tag_63\n      jump\t// in\n    tag_62:\n        /* \"#utility.yul\":152:293   */\n      swap3\n      swap2\n      pop\n      pop\n      jump\t// out\n        /* \"#utility.yul\":299:438   */\n    tag_64:\n        /* \"#utility.yul\":345:350   */\n      0x00\n        /* \"#utility.yul\":383:389   */\n      dup2\n        /* \"#utility.yul\":370:390   */\n      calldataload\n        /* \"#utility.yul\":361:390   */\n      swap1\n      pop\n        /* \"#utility.yul\":399:432   */\n      tag_66\n        /* \"#utility.yul\":426:431   */\n      dup2\n        /* \"#utility.yul\":399:432   */\n      tag_67\n      jump\t// in\n    tag_66:\n        /* \"#utility.yul\":299:438   */\n      swap3\n      swap2\n      pop\n      pop\n      jump\t// out\n        /* \"#utility.yul\":444:587   */\n    tag_68:\n        /* \"#utility.yul\":501:506   */\n      0x00\n        /* \"#utility.yul\":532:538   */\n      dup2\n        /* \"#utility.yul\":526:539   */\n      mload\n        /* \"#utility.yul\":517:539   */\n      swap1\n      pop\n        /* \"#utility.yul\":548:581   */\n      tag_70\n        /* \"#utility.yul\":575:580   */\n      dup2\n        /* \"#utility.yul\":548:581   */\n      tag_67\n      jump\t// in\n    tag_70:\n        /* \"#utility.yul\":444:587   */\n      swap3\n      swap2\n      pop\n      pop\n      jump\t// out\n        /* \"#utility.yul\":593:734   */\n    tag_71:\n        /* \"#utility.yul\":649:654   */\n      0x00\n        /* \"#utility.yul\":680:686   */\n      dup2\n        /* \"#utility.yul\":674:687   */\n      mload\n        /* \"#utility.yul\":665:687   */\n      swap1\n      pop\n        /* \"#utility.yul\":696:728   */\n      tag_73\n        /* \"#utility.yul\":722:727   */\n      dup2\n        /* \"#utility.yul\":696:728   */\n      tag_74\n      jump\t// in\n    tag_73:\n        /* \"#utility.yul\":593:734   */\n      swap3\n      swap2\n      pop\n      pop\n      jump\t// out\n        /* \"#utility.yul\":740:1069   */\n    tag_20:\n        /* \"#utility.yul\":799:805   */\n      0x00\n        /* \"#utility.yul\":848:850   */\n      0x20\n        /* \"#utility.yul\":836:845   */\n      dup3\n        /* \"#utility.yul\":827:834   */\n      dup5\n        /* \"#utility.yul\":823:846   */\n      sub\n        /* \"#utility.yul\":819:851   */\n      slt\n        /* \"#utility.yul\":816:935   */\n      iszero\n      tag_76\n      jumpi\n        /* \"#utility.yul\":854:933   */\n      tag_77\n      tag_78\n      jump\t// in\n    tag_77:\n        /* \"#utility.yul\":816:935   */\n    tag_76:\n        /* \"#utility.yul\":974:975   */\n      0x00\n        /* \"#utility.yul\":999:1052   */\n      tag_79\n        /* \"#utility.yul\":1044:1051   */\n      dup5\n        /* \"#utility.yul\":1035:1041   */\n      dup3\n        /* \"#utility.yul\":1024:1033   */\n      dup6\n        /* \"#utility.yul\":1020:1042   */\n      add\n        /* \"#utility.yul\":999:1052   */\n      tag_56\n      jump\t// in\n    tag_79:\n        /* \"#utility.yul\":989:1052   */\n      swap2\n      pop\n        /* \"#utility.yul\":945:1062   */\n      pop\n        /* \"#utility.yul\":740:1069   */\n      swap3\n      swap2\n      pop\n      pop\n      jump\t// out\n        /* \"#utility.yul\":1075:1404   */\n    tag_28:\n        /* \"#utility.yul\":1134:1140   */\n      0x00\n        /* \"#utility.yul\":1183:1185   */\n      0x20\n        /* \"#utility.yul\":1171:1180   */\n      dup3\n        /* \"#utility.yul\":1162:1169   */\n      dup5\n        /* \"#utility.yul\":1158:1181   */\n      sub\n        /* \"#utility.yul\":1154:1186   */\n      slt\n        /* \"#utility.yul\":1151:1270   */\n      iszero\n      tag_81\n      jumpi\n        /* \"#utility.yul\":1189:1268   */\n      tag_82\n      tag_78\n      jump\t// in\n    tag_82:\n        /* \"#utility.yul\":1151:1270   */\n    tag_81:\n        /* \"#utility.yul\":1309:1310   */\n      0x00\n        /* \"#utility.yul\":1334:1387   */\n      tag_83\n        /* \"#utility.yul\":1379:1386   */\n      dup5\n        /* \"#utility.yul\":1370:1376   */\n      dup3\n        /* \"#utility.yul\":1359:1368   */\n      dup6\n        /* \"#utility.yul\":1355:1377   */\n      add\n        /* \"#utility.yul\":1334:1387   */\n      tag_64\n      jump\t// in\n    tag_83:\n        /* \"#utility.yul\":1324:1387   */\n      swap2\n      pop\n        /* \"#utility.yul\":1280:1397   */\n      pop\n        /* \"#utility.yul\":1075:1404   */\n      swap3\n      swap2\n      pop\n      pop\n      jump\t// out\n        /* \"#utility.yul\":1410:2381   */\n    tag_52:\n        /* \"#utility.yul\":1513:1519   */\n      0x00\n        /* \"#utility.yul\":1521:1527   */\n      dup1\n        /* \"#utility.yul\":1529:1535   */\n      0x00\n        /* \"#utility.yul\":1537:1543   */\n      dup1\n        /* \"#utility.yul\":1545:1551   */\n      0x00\n        /* \"#utility.yul\":1594:1597   */\n      0xa0\n        /* \"#utility.yul\":1582:1591   */\n      dup7\n        /* \"#utility.yul\":1573:1580   */\n      dup9\n        /* \"#utility.yul\":1569:1592   */\n      sub\n        /* \"#utility.yul\":1565:1598   */\n      slt\n        /* \"#utility.yul\":1562:1682   */\n      iszero\n      tag_85\n      jumpi\n        /* \"#utility.yul\":1601:1680   */\n      tag_86\n      tag_78\n      jump\t// in\n    tag_86:\n        /* \"#utility.yul\":1562:1682   */\n    tag_85:\n        /* \"#utility.yul\":1721:1722   */\n      0x00\n        /* \"#utility.yul\":1746:1809   */\n      tag_87\n        /* \"#utility.yul\":1801:1808   */\n      dup9\n        /* \"#utility.yul\":1792:1798   */\n      dup3\n        /* \"#utility.yul\":1781:1790   */\n      dup10\n        /* \"#utility.yul\":1777:1799   */\n      add\n        /* \"#utility.yul\":1746:1809   */\n      tag_71\n      jump\t// in\n    tag_87:\n        /* \"#utility.yul\":1736:1809   */\n      swap6\n      pop\n        /* \"#utility.yul\":1692:1819   */\n      pop\n        /* \"#utility.yul\":1858:1860   */\n      0x20\n        /* \"#utility.yul\":1884:1947   */\n      tag_88\n        /* \"#utility.yul\":1939:1946   */\n      dup9\n        /* \"#utility.yul\":1930:1936   */\n      dup3\n        /* \"#utility.yul\":1919:1928   */\n      dup10\n        /* \"#utility.yul\":1915:1937   */\n      add\n        /* \"#utility.yul\":1884:1947   */\n      tag_60\n      jump\t// in\n    tag_88:\n        /* \"#utility.yul\":1874:1947   */\n      swap5\n      pop\n        /* \"#utility.yul\":1829:1957   */\n      pop\n        /* \"#utility.yul\":1996:1998   */\n      0x40\n        /* \"#utility.yul\":2022:2086   */\n      tag_89\n        /* \"#utility.yul\":2078:2085   */\n      dup9\n        /* \"#utility.yul\":2069:2075   */\n      dup3\n        /* \"#utility.yul\":2058:2067   */\n      dup10\n        /* \"#utility.yul\":2054:2076   */\n      add\n        /* \"#utility.yul\":2022:2086   */\n      tag_68\n      jump\t// in\n    tag_89:\n        /* \"#utility.yul\":2012:2086   */\n      swap4\n      pop\n        /* \"#utility.yul\":1967:2096   */\n      pop\n        /* \"#utility.yul\":2135:2137   */\n      0x60\n        /* \"#utility.yul\":2161:2225   */\n      tag_90\n        /* \"#utility.yul\":2217:2224   */\n      dup9\n        /* \"#utility.yul\":2208:2214   */\n      dup3\n        /* \"#utility.yul\":2197:2206   */\n      dup10\n        /* \"#utility.yul\":2193:2215   */\n      add\n        /* \"#utility.yul\":2161:2225   */\n      tag_68\n      jump\t// in\n    tag_90:\n        /* \"#utility.yul\":2151:2225   */\n      swap3\n      pop\n        /* \"#utility.yul\":2106:2235   */\n      pop\n        /* \"#utility.yul\":2274:2277   */\n      0x80\n        /* \"#utility.yul\":2301:2364   */\n      tag_91\n        /* \"#utility.yul\":2356:2363   */\n      dup9\n        /* \"#utility.yul\":2347:2353   */\n      dup3\n        /* \"#utility.yul\":2336:2345   */\n      dup10\n        /* \"#utility.yul\":2332:2354   */\n      add\n        /* \"#utility.yul\":2301:2364   */\n      tag_71\n      jump\t// in\n    tag_91:\n        /* \"#utility.yul\":2291:2364   */\n      swap2\n      pop\n        /* \"#utility.yul\":2245:2374   */\n      pop\n        /* \"#utility.yul\":1410:2381   */\n      swap3\n      swap6\n      pop\n      swap3\n      swap6\n      swap1\n      swap4\n      pop\n      jump\t// out\n        /* \"#utility.yul\":2387:2505   */\n    tag_92:\n        /* \"#utility.yul\":2474:2498   */\n      tag_94\n        /* \"#utility.yul\":2492:2497   */\n      dup2\n        /* \"#utility.yul\":2474:2498   */\n      tag_95\n      jump\t// in\n    tag_94:\n        /* \"#utility.yul\":2469:2472   */\n      dup3\n        /* \"#utility.yul\":2462:2499   */\n      mstore\n        /* \"#utility.yul\":2387:2505   */\n      pop\n      pop\n      jump\t// out\n        /* \"#utility.yul\":2511:2629   */\n    tag_96:\n        /* \"#utility.yul\":2598:2622   */\n      tag_98\n        /* \"#utility.yul\":2616:2621   */\n      dup2\n        /* \"#utility.yul\":2598:2622   */\n      tag_99\n      jump\t// in\n    tag_98:\n        /* \"#utility.yul\":2593:2596   */\n      dup3\n        /* \"#utility.yul\":2586:2623   */\n      mstore\n        /* \"#utility.yul\":2511:2629   */\n      pop\n      pop\n      jump\t// out\n        /* \"#utility.yul\":2635:2857   */\n    tag_16:\n        /* \"#utility.yul\":2728:2732   */\n      0x00\n        /* \"#utility.yul\":2766:2768   */\n      0x20\n        /* \"#utility.yul\":2755:2764   */\n      dup3\n        /* \"#utility.yul\":2751:2769   */\n      add\n        /* \"#utility.yul\":2743:2769   */\n      swap1\n      pop\n        /* \"#utility.yul\":2779:2850   */\n      tag_101\n        /* \"#utility.yul\":2847:2848   */\n      0x00\n        /* \"#utility.yul\":2836:2845   */\n      dup4\n        /* \"#utility.yul\":2832:2849   */\n      add\n        /* \"#utility.yul\":2823:2829   */\n      dup5\n        /* \"#utility.yul\":2779:2850   */\n      tag_92\n      jump\t// in\n    tag_101:\n        /* \"#utility.yul\":2635:2857   */\n      swap3\n      swap2\n      pop\n      pop\n      jump\t// out\n        /* \"#utility.yul\":2863:3085   */\n    tag_11:\n        /* \"#utility.yul\":2956:2960   */\n      0x00\n        /* \"#utility.yul\":2994:2996   */\n      0x20\n        /* \"#utility.yul\":2983:2992   */\n      dup3\n        /* \"#utility.yul\":2979:2997   */\n      add\n        /* \"#utility.yul\":2971:2997   */\n      swap1\n      pop\n        /* \"#utility.yul\":3007:3078   */\n      tag_103\n        /* \"#utility.yul\":3075:3076   */\n      0x00\n        /* \"#utility.yul\":3064:3073   */\n      dup4\n        /* \"#utility.yul\":3060:3077   */\n      add\n        /* \"#utility.yul\":3051:3057   */\n      dup5\n        /* \"#utility.yul\":3007:3078   */\n      tag_96\n      jump\t// in\n    tag_103:\n        /* \"#utility.yul\":2863:3085   */\n      swap3\n      swap2\n      pop\n      pop\n      jump\t// out\n        /* \"#utility.yul\":3172:3477   */\n    tag_36:\n        /* \"#utility.yul\":3212:3215   */\n      0x00\n        /* \"#utility.yul\":3231:3251   */\n      tag_107\n        /* \"#utility.yul\":3249:3250   */\n      dup3\n        /* \"#utility.yul\":3231:3251   */\n      tag_99\n      jump\t// in\n    tag_107:\n        /* \"#utility.yul\":3226:3251   */\n      swap2\n      pop\n        /* \"#utility.yul\":3265:3285   */\n      tag_108\n        /* \"#utility.yul\":3283:3284   */\n      dup4\n        /* \"#utility.yul\":3265:3285   */\n      tag_99\n      jump\t// in\n    tag_108:\n        /* \"#utility.yul\":3260:3285   */\n      swap3\n      pop\n        /* \"#utility.yul\":3419:3420   */\n      dup3\n        /* \"#utility.yul\":3351:3417   */\n      0xffffffffffffffffffffffffffffffffffffffffffffffffffffffffffffffff\n        /* \"#utility.yul\":3347:3421   */\n      sub\n        /* \"#utility.yul\":3344:3345   */\n      dup3\n        /* \"#utility.yul\":3341:3422   */\n      gt\n        /* \"#utility.yul\":3338:3445   */\n      iszero\n      tag_109\n      jumpi\n        /* \"#utility.yul\":3425:3443   */\n      tag_110\n      tag_111\n      jump\t// in\n    tag_110:\n        /* \"#utility.yul\":3338:3445   */\n    tag_109:\n        /* \"#utility.yul\":3469:3470   */\n      dup3\n        /* \"#utility.yul\":3466:3467   */\n      dup3\n        /* \"#utility.yul\":3462:3471   */\n      add\n        /* \"#utility.yul\":3455:3471   */\n      swap1\n      pop\n        /* \"#utility.yul\":3172:3477   */\n      swap3\n      swap2\n      pop\n      pop\n      jump\t// out\n        /* \"#utility.yul\":3483:3668   */\n    tag_46:\n        /* \"#utility.yul\":3523:3524   */\n      0x00\n        /* \"#utility.yul\":3540:3560   */\n      tag_113\n        /* \"#utility.yul\":3558:3559   */\n      dup3\n        /* \"#utility.yul\":3540:3560   */\n      tag_99\n      jump\t// in\n    tag_113:\n        /* \"#utility.yul\":3535:3560   */\n      swap2\n      pop\n        /* \"#utility.yul\":3574:3594   */\n      tag_114\n        /* \"#utility.yul\":3592:3593   */\n      dup4\n        /* \"#utility.yul\":3574:3594   */\n      tag_99\n      jump\t// in\n    tag_114:\n        /* \"#utility.yul\":3569:3594   */\n      swap3\n      pop\n        /* \"#utility.yul\":3613:3614   */\n      dup3\n        /* \"#utility.yul\":3603:3638   */\n      tag_115\n      jumpi\n        /* \"#utility.yul\":3618:3636   */\n      tag_116\n      tag_117\n      jump\t// in\n    tag_116:\n        /* \"#utility.yul\":3603:3638   */\n    tag_115:\n        /* \"#utility.yul\":3660:3661   */\n      dup3\n        /* \"#utility.yul\":3657:3658   */\n      dup3\n        /* \"#utility.yul\":3653:3662   */\n      div\n        /* \"#utility.yul\":3648:3662   */\n      swap1\n      pop\n        /* \"#utility.yul\":3483:3668   */\n      swap3\n      swap2\n      pop\n      pop\n      jump\t// out\n        /* \"#utility.yul\":3674:4665   */\n    tag_54:\n        /* \"#utility.yul\":3713:3720   */\n      0x00\n        /* \"#utility.yul\":3736:3755   */\n      tag_119\n        /* \"#utility.yul\":3753:3754   */\n      dup3\n        /* \"#utility.yul\":3736:3755   */\n      tag_120\n      jump\t// in\n    tag_119:\n        /* \"#utility.yul\":3731:3755   */\n      swap2\n      pop\n        /* \"#utility.yul\":3769:3788   */\n      tag_121\n        /* \"#utility.yul\":3786:3787   */\n      dup4\n        /* \"#utility.yul\":3769:3788   */\n      tag_120\n      jump\t// in\n    tag_121:\n        /* \"#utility.yul\":3764:3788   */\n      swap3\n      pop\n        /* \"#utility.yul\":3970:3971   */\n      dup3\n        /* \"#utility.yul\":3902:3968   */\n      0x7fffffffffffffffffffffffffffffffffffffffffffffffffffffffffffffff\n        /* \"#utility.yul\":3898:3972   */\n      div\n        /* \"#utility.yul\":3895:3896   */\n      dup3\n        /* \"#utility.yul\":3892:3973   */\n      gt\n        /* \"#utility.yul\":3887:3888   */\n      0x00\n        /* \"#utility.yul\":3884:3885   */\n      dup5\n        /* \"#utility.yul\":3880:3889   */\n      sgt\n        /* \"#utility.yul\":3876:3877   */\n      0x00\n        /* \"#utility.yul\":3873:3874   */\n      dup5\n        /* \"#utility.yul\":3869:3878   */\n      sgt\n        /* \"#utility.yul\":3865:3890   */\n      and\n        /* \"#utility.yul\":3861:3974   */\n      and\n        /* \"#utility.yul\":3858:3997   */\n      iszero\n      tag_122\n      jumpi\n        /* \"#utility.yul\":3977:3995   */\n      tag_123\n      tag_111\n      jump\t// in\n    tag_123:\n        /* \"#utility.yul\":3858:3997   */\n    tag_122:\n        /* \"#utility.yul\":4181:4182   */\n      dup2\n        /* \"#utility.yul\":4113:4179   */\n      0x8000000000000000000000000000000000000000000000000000000000000000\n        /* \"#utility.yul\":4108:4183   */\n      sdiv\n        /* \"#utility.yul\":4105:4106   */\n      dup4\n        /* \"#utility.yul\":4101:4184   */\n      slt\n        /* \"#utility.yul\":4096:4097   */\n      0x00\n        /* \"#utility.yul\":4093:4094   */\n      dup5\n        /* \"#utility.yul\":4089:4098   */\n      slt\n        /* \"#utility.yul\":4085:4086   */\n      0x00\n        /* \"#utility.yul\":4082:4083   */\n      dup5\n        /* \"#utility.yul\":4078:4087   */\n      sgt\n        /* \"#utility.yul\":4074:4099   */\n      and\n        /* \"#utility.yul\":4070:4185   */\n      and\n        /* \"#utility.yul\":4067:4208   */\n      iszero\n      tag_124\n      jumpi\n        /* \"#utility.yul\":4188:4206   */\n      tag_125\n      tag_111\n      jump\t// in\n    tag_125:\n        /* \"#utility.yul\":4067:4208   */\n    tag_124:\n        /* \"#utility.yul\":4392:4393   */\n      dup3\n        /* \"#utility.yul\":4324:4390   */\n      0x8000000000000000000000000000000000000000000000000000000000000000\n        /* \"#utility.yul\":4319:4394   */\n      sdiv\n        /* \"#utility.yul\":4316:4317   */\n      dup3\n        /* \"#utility.yul\":4312:4395   */\n      slt\n        /* \"#utility.yul\":4307:4308   */\n      0x00\n        /* \"#utility.yul\":4304:4305   */\n      dup5\n        /* \"#utility.yul\":4300:4309   */\n      sgt\n        /* \"#utility.yul\":4296:4297   */\n      0x00\n        /* \"#utility.yul\":4293:4294   */\n      dup5\n        /* \"#utility.yul\":4289:4298   */\n      slt\n        /* \"#utility.yul\":4285:4310   */\n      and\n        /* \"#utility.yul\":4281:4396   */\n      and\n        /* \"#utility.yul\":4278:4419   */\n      iszero\n      tag_126\n      jumpi\n        /* \"#utility.yul\":4399:4417   */\n      tag_127\n      tag_111\n      jump\t// in\n    tag_127:\n        /* \"#utility.yul\":4278:4419   */\n    tag_126:\n        /* \"#utility.yul\":4602:4603   */\n      dup3\n        /* \"#utility.yul\":4534:4600   */\n      0x7fffffffffffffffffffffffffffffffffffffffffffffffffffffffffffffff\n        /* \"#utility.yul\":4529:4604   */\n      sdiv\n        /* \"#utility.yul\":4526:4527   */\n      dup3\n        /* \"#utility.yul\":4522:4605   */\n      slt\n        /* \"#utility.yul\":4517:4518   */\n      0x00\n        /* \"#utility.yul\":4514:4515   */\n      dup5\n        /* \"#utility.yul\":4510:4519   */\n      slt\n        /* \"#utility.yul\":4506:4507   */\n      0x00\n        /* \"#utility.yul\":4503:4504   */\n      dup5\n        /* \"#utility.yul\":4499:4508   */\n      slt\n        /* \"#utility.yul\":4495:4520   */\n      and\n        /* \"#utility.yul\":4491:4606   */\n      and\n        /* \"#utility.yul\":4488:4629   */\n      iszero\n      tag_128\n      jumpi\n        /* \"#utility.yul\":4609:4627   */\n      tag_129\n      tag_111\n      jump\t// in\n    tag_129:\n        /* \"#utility.yul\":4488:4629   */\n    tag_128:\n        /* \"#utility.yul\":4657:4658   */\n      dup3\n        /* \"#utility.yul\":4654:4655   */\n      dup3\n        /* \"#utility.yul\":4650:4659   */\n      mul\n        /* \"#utility.yul\":4639:4659   */\n      swap1\n      pop\n        /* \"#utility.yul\":3674:4665   */\n      swap3\n      swap2\n      pop\n      pop\n      jump\t// out\n        /* \"#utility.yul\":4671:5019   */\n    tag_44:\n        /* \"#utility.yul\":4711:4718   */\n      0x00\n        /* \"#utility.yul\":4734:4754   */\n      tag_131\n        /* \"#utility.yul\":4752:4753   */\n      dup3\n        /* \"#utility.yul\":4734:4754   */\n      tag_99\n      jump\t// in\n    tag_131:\n        /* \"#utility.yul\":4729:4754   */\n      swap2\n      pop\n        /* \"#utility.yul\":4768:4788   */\n      tag_132\n        /* \"#utility.yul\":4786:4787   */\n      dup4\n        /* \"#utility.yul\":4768:4788   */\n      tag_99\n      jump\t// in\n    tag_132:\n        /* \"#utility.yul\":4763:4788   */\n      swap3\n      pop\n        /* \"#utility.yul\":4956:4957   */\n      dup2\n        /* \"#utility.yul\":4888:4954   */\n      0xffffffffffffffffffffffffffffffffffffffffffffffffffffffffffffffff\n        /* \"#utility.yul\":4884:4958   */\n      div\n        /* \"#utility.yul\":4881:4882   */\n      dup4\n        /* \"#utility.yul\":4878:4959   */\n      gt\n        /* \"#utility.yul\":4873:4874   */\n      dup3\n        /* \"#utility.yul\":4866:4875   */\n      iszero\n        /* \"#utility.yul\":4859:4876   */\n      iszero\n        /* \"#utility.yul\":4855:4960   */\n      and\n        /* \"#utility.yul\":4852:4983   */\n      iszero\n      tag_133\n      jumpi\n        /* \"#utility.yul\":4963:4981   */\n      tag_134\n      tag_111\n      jump\t// in\n    tag_134:\n        /* \"#utility.yul\":4852:4983   */\n    tag_133:\n        /* \"#utility.yul\":5011:5012   */\n      dup3\n        /* \"#utility.yul\":5008:5009   */\n      dup3\n        /* \"#utility.yul\":5004:5013   */\n      mul\n        /* \"#utility.yul\":4993:5013   */\n      swap1\n      pop\n        /* \"#utility.yul\":4671:5019   */\n      swap3\n      swap2\n      pop\n      pop\n      jump\t// out\n        /* \"#utility.yul\":5025:5121   */\n    tag_95:\n        /* \"#utility.yul\":5062:5069   */\n      0x00\n        /* \"#utility.yul\":5091:5115   */\n      tag_136\n        /* \"#utility.yul\":5109:5114   */\n      dup3\n        /* \"#utility.yul\":5091:5115   */\n      tag_137\n      jump\t// in\n    tag_136:\n        /* \"#utility.yul\":5080:5115   */\n      swap1\n      pop\n        /* \"#utility.yul\":5025:5121   */\n      swap2\n      swap1\n      pop\n      jump\t// out\n        /* \"#utility.yul\":5127:5203   */\n    tag_120:\n        /* \"#utility.yul\":5163:5170   */\n      0x00\n        /* \"#utility.yul\":5192:5197   */\n      dup2\n        /* \"#utility.yul\":5181:5197   */\n      swap1\n      pop\n        /* \"#utility.yul\":5127:5203   */\n      swap2\n      swap1\n      pop\n      jump\t// out\n        /* \"#utility.yul\":5209:5335   */\n    tag_137:\n        /* \"#utility.yul\":5246:5253   */\n      0x00\n        /* \"#utility.yul\":5286:5328   */\n      0xffffffffffffffffffffffffffffffffffffffff\n        /* \"#utility.yul\":5279:5284   */\n      dup3\n        /* \"#utility.yul\":5275:5329   */\n      and\n        /* \"#utility.yul\":5264:5329   */\n      swap1\n      pop\n        /* \"#utility.yul\":5209:5335   */\n      swap2\n      swap1\n      pop\n      jump\t// out\n        /* \"#utility.yul\":5341:5418   */\n    tag_99:\n        /* \"#utility.yul\":5378:5385   */\n      0x00\n        /* \"#utility.yul\":5407:5412   */\n      dup2\n        /* \"#utility.yul\":5396:5412   */\n      swap1\n      pop\n        /* \"#utility.yul\":5341:5418   */\n      swap2\n      swap1\n      pop\n      jump\t// out\n        /* \"#utility.yul\":5424:5529   */\n    tag_141:\n        /* \"#utility.yul\":5460:5467   */\n      0x00\n        /* \"#utility.yul\":5500:5522   */\n      0xffffffffffffffffffff\n        /* \"#utility.yul\":5493:5498   */\n      dup3\n        /* \"#utility.yul\":5489:5523   */\n      and\n        /* \"#utility.yul\":5478:5523   */\n      swap1\n      pop\n        /* \"#utility.yul\":5424:5529   */\n      swap2\n      swap1\n      pop\n      jump\t// out\n        /* \"#utility.yul\":5535:5715   */\n    tag_111:\n        /* \"#utility.yul\":5583:5660   */\n      0x4e487b7100000000000000000000000000000000000000000000000000000000\n        /* \"#utility.yul\":5580:5581   */\n      0x00\n        /* \"#utility.yul\":5573:5661   */\n      mstore\n        /* \"#utility.yul\":5680:5684   */\n      0x11\n        /* \"#utility.yul\":5677:5678   */\n      0x04\n        /* \"#utility.yul\":5670:5685   */\n      mstore\n        /* \"#utility.yul\":5704:5708   */\n      0x24\n        /* \"#utility.yul\":5701:5702   */\n      0x00\n        /* \"#utility.yul\":5694:5709   */\n      revert\n        /* \"#utility.yul\":5721:5901   */\n    tag_117:\n        /* \"#utility.yul\":5769:5846   */\n      0x4e487b7100000000000000000000000000000000000000000000000000000000\n        /* \"#utility.yul\":5766:5767   */\n      0x00\n        /* \"#utility.yul\":5759:5847   */\n      mstore\n        /* \"#utility.yul\":5866:5870   */\n      0x12\n        /* \"#utility.yul\":5863:5864   */\n      0x04\n        /* \"#utility.yul\":5856:5871   */\n      mstore\n        /* \"#utility.yul\":5890:5894   */\n      0x24\n        /* \"#utility.yul\":5887:5888   */\n      0x00\n        /* \"#utility.yul\":5880:5895   */\n      revert\n        /* \"#utility.yul\":6030:6147   */\n    tag_78:\n        /* \"#utility.yul\":6139:6140   */\n      0x00\n        /* \"#utility.yul\":6136:6137   */\n      dup1\n        /* \"#utility.yul\":6129:6141   */\n      revert\n        /* \"#utility.yul\":6153:6275   */\n    tag_59:\n        /* \"#utility.yul\":6226:6250   */\n      tag_149\n        /* \"#utility.yul\":6244:6249   */\n      dup2\n        /* \"#utility.yul\":6226:6250   */\n      tag_95\n      jump\t// in\n    tag_149:\n        /* \"#utility.yul\":6219:6224   */\n      dup2\n        /* \"#utility.yul\":6216:6251   */\n      eq\n        /* \"#utility.yul\":6206:6269   */\n      tag_150\n      jumpi\n        /* \"#utility.yul\":6265:6266   */\n      0x00\n        /* \"#utility.yul\":6262:6263   */\n      dup1\n        /* \"#utility.yul\":6255:6267   */\n      revert\n        /* \"#utility.yul\":6206:6269   */\n    tag_150:\n        /* \"#utility.yul\":6153:6275   */\n      pop\n      jump\t// out\n        /* \"#utility.yul\":6281:6401   */\n    tag_63:\n        /* \"#utility.yul\":6353:6376   */\n      tag_152\n        /* \"#utility.yul\":6370:6375   */\n      dup2\n        /* \"#utility.yul\":6353:6376   */\n      tag_120\n      jump\t// in\n    tag_152:\n        /* \"#utility.yul\":6346:6351   */\n      dup2\n        /* \"#utility.yul\":6343:6377   */\n      eq\n        /* \"#utility.yul\":6333:6395   */\n      tag_153\n      jumpi\n        /* \"#utility.yul\":6391:6392   */\n      0x00\n        /* \"#utility.yul\":6388:6389   */\n      dup1\n        /* \"#utility.yul\":6381:6393   */\n      revert\n        /* \"#utility.yul\":6333:6395   */\n    tag_153:\n        /* \"#utility.yul\":6281:6401   */\n      pop\n      jump\t// out\n        /* \"#utility.yul\":6407:6529   */\n    tag_67:\n        /* \"#utility.yul\":6480:6504   */\n      tag_155\n        /* \"#utility.yul\":6498:6503   */\n      dup2\n        /* \"#utility.yul\":6480:6504   */\n      tag_99\n      jump\t// in\n    tag_155:\n        /* \"#utility.yul\":6473:6478   */\n      dup2\n        /* \"#utility.yul\":6470:6505   */\n      eq\n        /* \"#utility.yul\":6460:6523   */\n      tag_156\n      jumpi\n        /* \"#utility.yul\":6519:6520   */\n      0x00\n        /* \"#utility.yul\":6516:6517   */\n      dup1\n        /* \"#utility.yul\":6509:6521   */\n      revert\n        /* \"#utility.yul\":6460:6523   */\n    tag_156:\n        /* \"#utility.yul\":6407:6529   */\n      pop\n      jump\t// out\n        /* \"#utility.yul\":6535:6655   */\n    tag_74:\n        /* \"#utility.yul\":6607:6630   */\n      tag_158\n        /* \"#utility.yul\":6624:6629   */\n      dup2\n        /* \"#utility.yul\":6607:6630   */\n      tag_141\n      jump\t// in\n    tag_158:\n        /* \"#utility.yul\":6600:6605   */\n      dup2\n        /* \"#utility.yul\":6597:6631   */\n      eq\n        /* \"#utility.yul\":6587:6649   */\n      tag_159\n      jumpi\n        /* \"#utility.yul\":6645:6646   */\n      0x00\n        /* \"#utility.yul\":6642:6643   */\n      dup1\n        /* \"#utility.yul\":6635:6647   */\n      revert\n        /* \"#utility.yul\":6587:6649   */\n    tag_159:\n        /* \"#utility.yul\":6535:6655   */\n      pop\n      jump\t// out\n\n    auxdata: 0xa2646970667358221220bdf3bd35778e81e20480961841506727f46819c197e97ff816349b0f4b7503c164736f6c63430008070033\n}\n",
				"bytecode": {
					"linkReferences": {},
					"object": "608060405234801561001057600080fd5b5033600260006101000a81548173ffffffffffffffffffffffffffffffffffffffff021916908373ffffffffffffffffffffffffffffffffffffffff160217905550610859806100616000396000f3fe60806040526004361061004a5760003560e01c80636b69a5921461004f5780638da5cb5b1461007a5780639eeb13df146100a5578063b60d4288146100e2578063dc0d3dff146100ec575b600080fd5b34801561005b57600080fd5b50610064610129565b60405161007191906104f5565b60405180910390f35b34801561008657600080fd5b5061008f610136565b60405161009c91906104da565b60405180910390f35b3480156100b157600080fd5b506100cc60048036038101906100c791906103e7565b61015c565b6040516100d991906104f5565b60405180910390f35b6100ea610174565b005b3480156100f857600080fd5b50610113600480360381019061010e9190610414565b61024d565b60405161012091906104da565b60405180910390f35b6802b5e3af16b188000081565b600260009054906101000a900473ffffffffffffffffffffffffffffffffffffffff1681565b60016020528060005260406000206000915090505481565b6802b5e3af16b18800006101873461028c565b101561019257600080fd5b34600160003373ffffffffffffffffffffffffffffffffffffffff1673ffffffffffffffffffffffffffffffffffffffff16815260200190815260200160002060008282546101e19190610510565b925050819055506000339080600181540180825580915050600190039060005260206000200160009091909190916101000a81548173ffffffffffffffffffffffffffffffffffffffff021916908373ffffffffffffffffffffffffffffffffffffffff160217905550565b6000818154811061025d57600080fd5b906000526020600020016000915054906101000a900473ffffffffffffffffffffffffffffffffffffffff1681565b6000806102976102c6565b90506000670de0b6b3a764000084836102b091906106ae565b6102ba9190610566565b90508092505050919050565b600080738a753747a1fa494ec906ce90e9f37563a8af630e905060008173ffffffffffffffffffffffffffffffffffffffff1663feaf968c6040518163ffffffff1660e01b815260040160a06040518083038186803b15801561032857600080fd5b505afa15801561033c573d6000803e3d6000fd5b505050506040513d601f19601f820116820180604052508101906103609190610441565b5050509150506402540be400816103779190610597565b9250505090565b60008135905061038d816107c7565b92915050565b6000815190506103a2816107de565b92915050565b6000813590506103b7816107f5565b92915050565b6000815190506103cc816107f5565b92915050565b6000815190506103e18161080c565b92915050565b6000602082840312156103fd576103fc6107c2565b5b600061040b8482850161037e565b91505092915050565b60006020828403121561042a576104296107c2565b5b6000610438848285016103a8565b91505092915050565b600080600080600060a0868803121561045d5761045c6107c2565b5b600061046b888289016103d2565b955050602061047c88828901610393565b945050604061048d888289016103bd565b935050606061049e888289016103bd565b92505060806104af888289016103d2565b9150509295509295909350565b6104c581610708565b82525050565b6104d481610744565b82525050565b60006020820190506104ef60008301846104bc565b92915050565b600060208201905061050a60008301846104cb565b92915050565b600061051b82610744565b915061052683610744565b9250827fffffffffffffffffffffffffffffffffffffffffffffffffffffffffffffffff0382111561055b5761055a610764565b5b828201905092915050565b600061057182610744565b915061057c83610744565b92508261058c5761058b610793565b5b828204905092915050565b60006105a28261071a565b91506105ad8361071a565b9250827f7fffffffffffffffffffffffffffffffffffffffffffffffffffffffffffffff04821160008413600084131616156105ec576105eb610764565b5b817f8000000000000000000000000000000000000000000000000000000000000000058312600084126000841316161561062957610628610764565b5b827f8000000000000000000000000000000000000000000000000000000000000000058212600084136000841216161561066657610665610764565b5b827f7fffffffffffffffffffffffffffffffffffffffffffffffffffffffffffffff05821260008412600084121616156106a3576106a2610764565b5b828202905092915050565b60006106b982610744565b91506106c483610744565b9250817fffffffffffffffffffffffffffffffffffffffffffffffffffffffffffffffff04831182151516156106fd576106fc610764565b5b828202905092915050565b600061071382610724565b9050919050565b6000819050919050565b600073ffffffffffffffffffffffffffffffffffffffff82169050919050565b6000819050919050565b600069ffffffffffffffffffff82169050919050565b7f4e487b7100000000000000000000000000000000000000000000000000000000600052601160045260246000fd5b7f4e487b7100000000000000000000000000000000000000000000000000000000600052601260045260246000fd5b600080fd5b6107d081610708565b81146107db57600080fd5b50565b6107e78161071a565b81146107f257600080fd5b50565b6107fe81610744565b811461080957600080fd5b50565b6108158161074e565b811461082057600080fd5b5056fea2646970667358221220bdf3bd35778e81e20480961841506727f46819c197e97ff816349b0f4b7503c164736f6c63430008070033",
					"opcodes": "PUSH1 0x80 PUSH1 0x40 MSTORE CALLVALUE DUP1 ISZERO PUSH2 0x10 JUMPI PUSH1 0x0 DUP1 REVERT JUMPDEST POP CALLER PUSH1 0x2 PUSH1 0x0 PUSH2 0x100 EXP DUP2 SLOAD DUP2 PUSH20 0xFFFFFFFFFFFFFFFFFFFFFFFFFFFFFFFFFFFFFFFF MUL NOT AND SWAP1 DUP4 PUSH20 0xFFFFFFFFFFFFFFFFFFFFFFFFFFFFFFFFFFFFFFFF AND MUL OR SWAP1 SSTORE POP PUSH2 0x859 DUP1 PUSH2 0x61 PUSH1 0x0 CODECOPY PUSH1 0x0 RETURN INVALID PUSH1 0x80 PUSH1 0x40 MSTORE PUSH1 0x4 CALLDATASIZE LT PUSH2 0x4A JUMPI PUSH1 0x0 CALLDATALOAD PUSH1 0xE0 SHR DUP1 PUSH4 0x6B69A592 EQ PUSH2 0x4F JUMPI DUP1 PUSH4 0x8DA5CB5B EQ PUSH2 0x7A JUMPI DUP1 PUSH4 0x9EEB13DF EQ PUSH2 0xA5 JUMPI DUP1 PUSH4 0xB60D4288 EQ PUSH2 0xE2 JUMPI DUP1 PUSH4 0xDC0D3DFF EQ PUSH2 0xEC JUMPI JUMPDEST PUSH1 0x0 DUP1 REVERT JUMPDEST CALLVALUE DUP1 ISZERO PUSH2 0x5B JUMPI PUSH1 0x0 DUP1 REVERT JUMPDEST POP PUSH2 0x64 PUSH2 0x129 JUMP JUMPDEST PUSH1 0x40 MLOAD PUSH2 0x71 SWAP2 SWAP1 PUSH2 0x4F5 JUMP JUMPDEST PUSH1 0x40 MLOAD DUP1 SWAP2 SUB SWAP1 RETURN JUMPDEST CALLVALUE DUP1 ISZERO PUSH2 0x86 JUMPI PUSH1 0x0 DUP1 REVERT JUMPDEST POP PUSH2 0x8F PUSH2 0x136 JUMP JUMPDEST PUSH1 0x40 MLOAD PUSH2 0x9C SWAP2 SWAP1 PUSH2 0x4DA JUMP JUMPDEST PUSH1 0x40 MLOAD DUP1 SWAP2 SUB SWAP1 RETURN JUMPDEST CALLVALUE DUP1 ISZERO PUSH2 0xB1 JUMPI PUSH1 0x0 DUP1 REVERT JUMPDEST POP PUSH2 0xCC PUSH1 0x4 DUP1 CALLDATASIZE SUB DUP2 ADD SWAP1 PUSH2 0xC7 SWAP2 SWAP1 PUSH2 0x3E7 JUMP JUMPDEST PUSH2 0x15C JUMP JUMPDEST PUSH1 0x40 MLOAD PUSH2 0xD9 SWAP2 SWAP1 PUSH2 0x4F5 JUMP JUMPDEST PUSH1 0x40 MLOAD DUP1 SWAP2 SUB SWAP1 RETURN JUMPDEST PUSH2 0xEA PUSH2 0x174 JUMP JUMPDEST STOP JUMPDEST CALLVALUE DUP1 ISZERO PUSH2 0xF8 JUMPI PUSH1 0x0 DUP1 REVERT JUMPDEST POP PUSH2 0x113 PUSH1 0x4 DUP1 CALLDATASIZE SUB DUP2 ADD SWAP1 PUSH2 0x10E SWAP2 SWAP1 PUSH2 0x414 JUMP JUMPDEST PUSH2 0x24D JUMP JUMPDEST PUSH1 0x40 MLOAD PUSH2 0x120 SWAP2 SWAP1 PUSH2 0x4DA JUMP JUMPDEST PUSH1 0x40 MLOAD DUP1 SWAP2 SUB SWAP1 RETURN JUMPDEST PUSH9 0x2B5E3AF16B1880000 DUP2 JUMP JUMPDEST PUSH1 0x2 PUSH1 0x0 SWAP1 SLOAD SWAP1 PUSH2 0x100 EXP SWAP1 DIV PUSH20 0xFFFFFFFFFFFFFFFFFFFFFFFFFFFFFFFFFFFFFFFF AND DUP2 JUMP JUMPDEST PUSH1 0x1 PUSH1 0x20 MSTORE DUP1 PUSH1 0x0 MSTORE PUSH1 0x40 PUSH1 0x0 KECCAK256 PUSH1 0x0 SWAP2 POP SWAP1 POP SLOAD DUP2 JUMP JUMPDEST PUSH9 0x2B5E3AF16B1880000 PUSH2 0x187 CALLVALUE PUSH2 0x28C JUMP JUMPDEST LT ISZERO PUSH2 0x192 JUMPI PUSH1 0x0 DUP1 REVERT JUMPDEST CALLVALUE PUSH1 0x1 PUSH1 0x0 CALLER PUSH20 0xFFFFFFFFFFFFFFFFFFFFFFFFFFFFFFFFFFFFFFFF AND PUSH20 0xFFFFFFFFFFFFFFFFFFFFFFFFFFFFFFFFFFFFFFFF AND DUP2 MSTORE PUSH1 0x20 ADD SWAP1 DUP2 MSTORE PUSH1 0x20 ADD PUSH1 0x0 KECCAK256 PUSH1 0x0 DUP3 DUP3 SLOAD PUSH2 0x1E1 SWAP2 SWAP1 PUSH2 0x510 JUMP JUMPDEST SWAP3 POP POP DUP2 SWAP1 SSTORE POP PUSH1 0x0 CALLER SWAP1 DUP1 PUSH1 0x1 DUP2 SLOAD ADD DUP1 DUP3 SSTORE DUP1 SWAP2 POP POP PUSH1 0x1 SWAP1 SUB SWAP1 PUSH1 0x0 MSTORE PUSH1 0x20 PUSH1 0x0 KECCAK256 ADD PUSH1 0x0 SWAP1 SWAP2 SWAP1 SWAP2 SWAP1 SWAP2 PUSH2 0x100 EXP DUP2 SLOAD DUP2 PUSH20 0xFFFFFFFFFFFFFFFFFFFFFFFFFFFFFFFFFFFFFFFF MUL NOT AND SWAP1 DUP4 PUSH20 0xFFFFFFFFFFFFFFFFFFFFFFFFFFFFFFFFFFFFFFFF AND MUL OR SWAP1 SSTORE POP JUMP JUMPDEST PUSH1 0x0 DUP2 DUP2 SLOAD DUP2 LT PUSH2 0x25D JUMPI PUSH1 0x0 DUP1 REVERT JUMPDEST SWAP1 PUSH1 0x0 MSTORE PUSH1 0x20 PUSH1 0x0 KECCAK256 ADD PUSH1 0x0 SWAP2 POP SLOAD SWAP1 PUSH2 0x100 EXP SWAP1 DIV PUSH20 0xFFFFFFFFFFFFFFFFFFFFFFFFFFFFFFFFFFFFFFFF AND DUP2 JUMP JUMPDEST PUSH1 0x0 DUP1 PUSH2 0x297 PUSH2 0x2C6 JUMP JUMPDEST SWAP1 POP PUSH1 0x0 PUSH8 0xDE0B6B3A7640000 DUP5 DUP4 PUSH2 0x2B0 SWAP2 SWAP1 PUSH2 0x6AE JUMP JUMPDEST PUSH2 0x2BA SWAP2 SWAP1 PUSH2 0x566 JUMP JUMPDEST SWAP1 POP DUP1 SWAP3 POP POP POP SWAP2 SWAP1 POP JUMP JUMPDEST PUSH1 0x0 DUP1 PUSH20 0x8A753747A1FA494EC906CE90E9F37563A8AF630E SWAP1 POP PUSH1 0x0 DUP2 PUSH20 0xFFFFFFFFFFFFFFFFFFFFFFFFFFFFFFFFFFFFFFFF AND PUSH4 0xFEAF968C PUSH1 0x40 MLOAD DUP2 PUSH4 0xFFFFFFFF AND PUSH1 0xE0 SHL DUP2 MSTORE PUSH1 0x4 ADD PUSH1 0xA0 PUSH1 0x40 MLOAD DUP1 DUP4 SUB DUP2 DUP7 DUP1 EXTCODESIZE ISZERO DUP1 ISZERO PUSH2 0x328 JUMPI PUSH1 0x0 DUP1 REVERT JUMPDEST POP GAS STATICCALL ISZERO DUP1 ISZERO PUSH2 0x33C JUMPI RETURNDATASIZE PUSH1 0x0 DUP1 RETURNDATACOPY RETURNDATASIZE PUSH1 0x0 REVERT JUMPDEST POP POP POP POP PUSH1 0x40 MLOAD RETURNDATASIZE PUSH1 0x1F NOT PUSH1 0x1F DUP3 ADD AND DUP3 ADD DUP1 PUSH1 0x40 MSTORE POP DUP2 ADD SWAP1 PUSH2 0x360 SWAP2 SWAP1 PUSH2 0x441 JUMP JUMPDEST POP POP POP SWAP2 POP POP PUSH5 0x2540BE400 DUP2 PUSH2 0x377 SWAP2 SWAP1 PUSH2 0x597 JUMP JUMPDEST SWAP3 POP POP POP SWAP1 JUMP JUMPDEST PUSH1 0x0 DUP2 CALLDATALOAD SWAP1 POP PUSH2 0x38D DUP2 PUSH2 0x7C7 JUMP JUMPDEST SWAP3 SWAP2 POP POP JUMP JUMPDEST PUSH1 0x0 DUP2 MLOAD SWAP1 POP PUSH2 0x3A2 DUP2 PUSH2 0x7DE JUMP JUMPDEST SWAP3 SWAP2 POP POP JUMP JUMPDEST PUSH1 0x0 DUP2 CALLDATALOAD SWAP1 POP PUSH2 0x3B7 DUP2 PUSH2 0x7F5 JUMP JUMPDEST SWAP3 SWAP2 POP POP JUMP JUMPDEST PUSH1 0x0 DUP2 MLOAD SWAP1 POP PUSH2 0x3CC DUP2 PUSH2 0x7F5 JUMP JUMPDEST SWAP3 SWAP2 POP POP JUMP JUMPDEST PUSH1 0x0 DUP2 MLOAD SWAP1 POP PUSH2 0x3E1 DUP2 PUSH2 0x80C JUMP JUMPDEST SWAP3 SWAP2 POP POP JUMP JUMPDEST PUSH1 0x0 PUSH1 0x20 DUP3 DUP5 SUB SLT ISZERO PUSH2 0x3FD JUMPI PUSH2 0x3FC PUSH2 0x7C2 JUMP JUMPDEST JUMPDEST PUSH1 0x0 PUSH2 0x40B DUP5 DUP3 DUP6 ADD PUSH2 0x37E JUMP JUMPDEST SWAP2 POP POP SWAP3 SWAP2 POP POP JUMP JUMPDEST PUSH1 0x0 PUSH1 0x20 DUP3 DUP5 SUB SLT ISZERO PUSH2 0x42A JUMPI PUSH2 0x429 PUSH2 0x7C2 JUMP JUMPDEST JUMPDEST PUSH1 0x0 PUSH2 0x438 DUP5 DUP3 DUP6 ADD PUSH2 0x3A8 JUMP JUMPDEST SWAP2 POP POP SWAP3 SWAP2 POP POP JUMP JUMPDEST PUSH1 0x0 DUP1 PUSH1 0x0 DUP1 PUSH1 0x0 PUSH1 0xA0 DUP7 DUP9 SUB SLT ISZERO PUSH2 0x45D JUMPI PUSH2 0x45C PUSH2 0x7C2 JUMP JUMPDEST JUMPDEST PUSH1 0x0 PUSH2 0x46B DUP9 DUP3 DUP10 ADD PUSH2 0x3D2 JUMP JUMPDEST SWAP6 POP POP PUSH1 0x20 PUSH2 0x47C DUP9 DUP3 DUP10 ADD PUSH2 0x393 JUMP JUMPDEST SWAP5 POP POP PUSH1 0x40 PUSH2 0x48D DUP9 DUP3 DUP10 ADD PUSH2 0x3BD JUMP JUMPDEST SWAP4 POP POP PUSH1 0x60 PUSH2 0x49E DUP9 DUP3 DUP10 ADD PUSH2 0x3BD JUMP JUMPDEST SWAP3 POP POP PUSH1 0x80 PUSH2 0x4AF DUP9 DUP3 DUP10 ADD PUSH2 0x3D2 JUMP JUMPDEST SWAP2 POP POP SWAP3 SWAP6 POP SWAP3 SWAP6 SWAP1 SWAP4 POP JUMP JUMPDEST PUSH2 0x4C5 DUP2 PUSH2 0x708 JUMP JUMPDEST DUP3 MSTORE POP POP JUMP JUMPDEST PUSH2 0x4D4 DUP2 PUSH2 0x744 JUMP JUMPDEST DUP3 MSTORE POP POP JUMP JUMPDEST PUSH1 0x0 PUSH1 0x20 DUP3 ADD SWAP1 POP PUSH2 0x4EF PUSH1 0x0 DUP4 ADD DUP5 PUSH2 0x4BC JUMP JUMPDEST SWAP3 SWAP2 POP POP JUMP JUMPDEST PUSH1 0x0 PUSH1 0x20 DUP3 ADD SWAP1 POP PUSH2 0x50A PUSH1 0x0 DUP4 ADD DUP5 PUSH2 0x4CB JUMP JUMPDEST SWAP3 SWAP2 POP POP JUMP JUMPDEST PUSH1 0x0 PUSH2 0x51B DUP3 PUSH2 0x744 JUMP JUMPDEST SWAP2 POP PUSH2 0x526 DUP4 PUSH2 0x744 JUMP JUMPDEST SWAP3 POP DUP3 PUSH32 0xFFFFFFFFFFFFFFFFFFFFFFFFFFFFFFFFFFFFFFFFFFFFFFFFFFFFFFFFFFFFFFFF SUB DUP3 GT ISZERO PUSH2 0x55B JUMPI PUSH2 0x55A PUSH2 0x764 JUMP JUMPDEST JUMPDEST DUP3 DUP3 ADD SWAP1 POP SWAP3 SWAP2 POP POP JUMP JUMPDEST PUSH1 0x0 PUSH2 0x571 DUP3 PUSH2 0x744 JUMP JUMPDEST SWAP2 POP PUSH2 0x57C DUP4 PUSH2 0x744 JUMP JUMPDEST SWAP3 POP DUP3 PUSH2 0x58C JUMPI PUSH2 0x58B PUSH2 0x793 JUMP JUMPDEST JUMPDEST DUP3 DUP3 DIV SWAP1 POP SWAP3 SWAP2 POP POP JUMP JUMPDEST PUSH1 0x0 PUSH2 0x5A2 DUP3 PUSH2 0x71A JUMP JUMPDEST SWAP2 POP PUSH2 0x5AD DUP4 PUSH2 0x71A JUMP JUMPDEST SWAP3 POP DUP3 PUSH32 0x7FFFFFFFFFFFFFFFFFFFFFFFFFFFFFFFFFFFFFFFFFFFFFFFFFFFFFFFFFFFFFFF DIV DUP3 GT PUSH1 0x0 DUP5 SGT PUSH1 0x0 DUP5 SGT AND AND ISZERO PUSH2 0x5EC JUMPI PUSH2 0x5EB PUSH2 0x764 JUMP JUMPDEST JUMPDEST DUP2 PUSH32 0x8000000000000000000000000000000000000000000000000000000000000000 SDIV DUP4 SLT PUSH1 0x0 DUP5 SLT PUSH1 0x0 DUP5 SGT AND AND ISZERO PUSH2 0x629 JUMPI PUSH2 0x628 PUSH2 0x764 JUMP JUMPDEST JUMPDEST DUP3 PUSH32 0x8000000000000000000000000000000000000000000000000000000000000000 SDIV DUP3 SLT PUSH1 0x0 DUP5 SGT PUSH1 0x0 DUP5 SLT AND AND ISZERO PUSH2 0x666 JUMPI PUSH2 0x665 PUSH2 0x764 JUMP JUMPDEST JUMPDEST DUP3 PUSH32 0x7FFFFFFFFFFFFFFFFFFFFFFFFFFFFFFFFFFFFFFFFFFFFFFFFFFFFFFFFFFFFFFF SDIV DUP3 SLT PUSH1 0x0 DUP5 SLT PUSH1 0x0 DUP5 SLT AND AND ISZERO PUSH2 0x6A3 JUMPI PUSH2 0x6A2 PUSH2 0x764 JUMP JUMPDEST JUMPDEST DUP3 DUP3 MUL SWAP1 POP SWAP3 SWAP2 POP POP JUMP JUMPDEST PUSH1 0x0 PUSH2 0x6B9 DUP3 PUSH2 0x744 JUMP JUMPDEST SWAP2 POP PUSH2 0x6C4 DUP4 PUSH2 0x744 JUMP JUMPDEST SWAP3 POP DUP2 PUSH32 0xFFFFFFFFFFFFFFFFFFFFFFFFFFFFFFFFFFFFFFFFFFFFFFFFFFFFFFFFFFFFFFFF DIV DUP4 GT DUP3 ISZERO ISZERO AND ISZERO PUSH2 0x6FD JUMPI PUSH2 0x6FC PUSH2 0x764 JUMP JUMPDEST JUMPDEST DUP3 DUP3 MUL SWAP1 POP SWAP3 SWAP2 POP POP JUMP JUMPDEST PUSH1 0x0 PUSH2 0x713 DUP3 PUSH2 0x724 JUMP JUMPDEST SWAP1 POP SWAP2 SWAP1 POP JUMP JUMPDEST PUSH1 0x0 DUP2 SWAP1 POP SWAP2 SWAP1 POP JUMP JUMPDEST PUSH1 0x0 PUSH20 0xFFFFFFFFFFFFFFFFFFFFFFFFFFFFFFFFFFFFFFFF DUP3 AND SWAP1 POP SWAP2 SWAP1 POP JUMP JUMPDEST PUSH1 0x0 DUP2 SWAP1 POP SWAP2 SWAP1 POP JUMP JUMPDEST PUSH1 0x0 PUSH10 0xFFFFFFFFFFFFFFFFFFFF DUP3 AND SWAP1 POP SWAP2 SWAP1 POP JUMP JUMPDEST PUSH32 0x4E487B7100000000000000000000000000000000000000000000000000000000 PUSH1 0x0 MSTORE PUSH1 0x11 PUSH1 0x4 MSTORE PUSH1 0x24 PUSH1 0x0 REVERT JUMPDEST PUSH32 0x4E487B7100000000000000000000000000000000000000000000000000000000 PUSH1 0x0 MSTORE PUSH1 0x12 PUSH1 0x4 MSTORE PUSH1 0x24 PUSH1 0x0 REVERT JUMPDEST PUSH1 0x0 DUP1 REVERT JUMPDEST PUSH2 0x7D0 DUP2 PUSH2 0x708 JUMP JUMPDEST DUP2 EQ PUSH2 0x7DB JUMPI PUSH1 0x0 DUP1 REVERT JUMPDEST POP JUMP JUMPDEST PUSH2 0x7E7 DUP2 PUSH2 0x71A JUMP JUMPDEST DUP2 EQ PUSH2 0x7F2 JUMPI PUSH1 0x0 DUP1 REVERT JUMPDEST POP JUMP JUMPDEST PUSH2 0x7FE DUP2 PUSH2 0x744 JUMP JUMPDEST DUP2 EQ PUSH2 0x809 JUMPI PUSH1 0x0 DUP1 REVERT JUMPDEST POP JUMP JUMPDEST PUSH2 0x815 DUP2 PUSH2 0x74E JUMP JUMPDEST DUP2 EQ PUSH2 0x820 JUMPI PUSH1 0x0 DUP1 REVERT JUMPDEST POP JUMP INVALID LOG2 PUSH5 0x6970667358 0x22 SLT KECCAK256 0xBD RETURN 0xBD CALLDATALOAD PUSH24 0x8E81E20480961841506727F46819C197E97FF816349B0F4B PUSH22 0x3C164736F6C63430008070033000000000000000000 "
				},
				"gasEstimates": {
					"creation": {
						"codeDepositCost": "427400",
						"executionCost": "24727",
						"totalCost": "452127"
					},
					"external": {
						"MINIMUM_USD()": "307",
						"addressesToAmounts(address)": "2836",
						"fund()": "infinite",
						"funders(uint256)": "5022",
						"owner()": "2514"
					}
				},
				"methodIdentifiers": {
					"MINIMUM_USD()": "6b69a592",
					"addressesToAmounts(address)": "9eeb13df",
					"fund()": "b60d4288",
					"funders(uint256)": "dc0d3dff",
					"owner()": "8da5cb5b"
				}
			},
			"storageLayout": {
				"storage": [
					{
						"astId": 55,
						"contract": "fund-me/FundMe.sol:FundMe",
						"label": "funders",
						"offset": 0,
						"slot": "0",
						"type": "t_array(t_address)dyn_storage"
					},
					{
						"astId": 59,
						"contract": "fund-me/FundMe.sol:FundMe",
						"label": "addressesToAmounts",
						"offset": 0,
						"slot": "1",
						"type": "t_mapping(t_address,t_uint256)"
					},
					{
						"astId": 61,
						"contract": "fund-me/FundMe.sol:FundMe",
						"label": "owner",
						"offset": 0,
						"slot": "2",
						"type": "t_address"
					}
				],
				"types": {
					"t_address": {
						"encoding": "inplace",
						"label": "address",
						"numberOfBytes": "20"
					},
					"t_array(t_address)dyn_storage": {
						"base": "t_address",
						"encoding": "dynamic_array",
						"label": "address[]",
						"numberOfBytes": "32"
					},
					"t_mapping(t_address,t_uint256)": {
						"encoding": "mapping",
						"key": "t_address",
						"label": "mapping(address => uint256)",
						"numberOfBytes": "32",
						"value": "t_uint256"
					},
					"t_uint256": {
						"encoding": "inplace",
						"label": "uint256",
						"numberOfBytes": "32"
					}
				}
			},
			"userdoc": {
				"kind": "user",
				"methods": {},
				"version": 1
			}
		}
	}
}