{
	"fund-me/FundMe.sol": {
		"FundMe": {
			"abi": [
				{
					"inputs": [],
					"stateMutability": "nonpayable",
					"type": "constructor"
				},
				{
					"inputs": [],
					"name": "NotOwner",
					"type": "error"
				},
				{
					"inputs": [],
					"name": "MINIMUM_USD",
					"outputs": [
						{
							"internalType": "uint256",
							"name": "",
							"type": "uint256"
						}
					],
					"stateMutability": "view",
					"type": "function"
				},
				{
					"inputs": [
						{
							"internalType": "address",
							"name": "",
							"type": "address"
						}
					],
					"name": "addressToAmountFunded",
					"outputs": [
						{
							"internalType": "uint256",
							"name": "",
							"type": "uint256"
						}
					],
					"stateMutability": "view",
					"type": "function"
				},
				{
					"inputs": [],
					"name": "fund",
					"outputs": [],
					"stateMutability": "payable",
					"type": "function"
				},
				{
					"inputs": [
						{
							"internalType": "uint256",
							"name": "",
							"type": "uint256"
						}
					],
					"name": "funders",
					"outputs": [
						{
							"internalType": "address",
							"name": "",
							"type": "address"
						}
					],
					"stateMutability": "view",
					"type": "function"
				},
				{
					"inputs": [],
					"name": "owner",
					"outputs": [
						{
							"internalType": "address",
							"name": "",
							"type": "address"
						}
					],
					"stateMutability": "view",
					"type": "function"
				},
				{
					"inputs": [],
					"name": "widthdraw",
					"outputs": [],
					"stateMutability": "payable",
					"type": "function"
				}
			],
			"devdoc": {
				"kind": "dev",
				"methods": {},
				"version": 1
			},
			"evm": {
				"assembly": "    /* \"fund-me/FundMe.sol\":185:1109  contract FundMe {... */\n  mstore(0x40, 0x80)\n    /* \"fund-me/FundMe.sol\":407:450  constructor() {... */\n  callvalue\n  dup1\n  iszero\n  tag_1\n  jumpi\n  0x00\n  dup1\n  revert\ntag_1:\n  pop\n    /* \"fund-me/FundMe.sol\":435:445  msg.sender */\n  caller\n    /* \"fund-me/FundMe.sol\":427:432  owner */\n  0x02\n  0x00\n    /* \"fund-me/FundMe.sol\":427:445  owner = msg.sender */\n  0x0100\n  exp\n  dup2\n  sload\n  dup2\n  0xffffffffffffffffffffffffffffffffffffffff\n  mul\n  not\n  and\n  swap1\n  dup4\n  0xffffffffffffffffffffffffffffffffffffffff\n  and\n  mul\n  or\n  swap1\n  sstore\n  pop\n    /* \"fund-me/FundMe.sol\":185:1109  contract FundMe {... */\n  dataSize(sub_0)\n  dup1\n  dataOffset(sub_0)\n  0x00\n  codecopy\n  0x00\n  return\nstop\n\nsub_0: assembly {\n        /* \"fund-me/FundMe.sol\":185:1109  contract FundMe {... */\n      mstore(0x40, 0x80)\n      jumpi(tag_1, lt(calldatasize, 0x04))\n      shr(0xe0, calldataload(0x00))\n      dup1\n      0x3e47d6f3\n      eq\n      tag_2\n      jumpi\n      dup1\n      0x52b50a2a\n      eq\n      tag_3\n      jumpi\n      dup1\n      0x6b69a592\n      eq\n      tag_4\n      jumpi\n      dup1\n      0x8da5cb5b\n      eq\n      tag_5\n      jumpi\n      dup1\n      0xb60d4288\n      eq\n      tag_6\n      jumpi\n      dup1\n      0xdc0d3dff\n      eq\n      tag_7\n      jumpi\n    tag_1:\n      0x00\n      dup1\n      revert\n        /* \"fund-me/FundMe.sol\":270:326  mapping(address => uint256) public addressToAmountFunded */\n    tag_2:\n      callvalue\n      dup1\n      iszero\n      tag_8\n      jumpi\n      0x00\n      dup1\n      revert\n    tag_8:\n      pop\n      tag_9\n      0x04\n      dup1\n      calldatasize\n      sub\n      dup2\n      add\n      swap1\n      tag_10\n      swap2\n      swap1\n      tag_11\n      jump\t// in\n    tag_10:\n      tag_12\n      jump\t// in\n    tag_9:\n      mload(0x40)\n      tag_13\n      swap2\n      swap1\n      tag_14\n      jump\t// in\n    tag_13:\n      mload(0x40)\n      dup1\n      swap2\n      sub\n      swap1\n      return\n        /* \"fund-me/FundMe.sol\":721:1106  function widthdraw() public payable onlyOwner {... */\n    tag_3:\n      tag_15\n      tag_16\n      jump\t// in\n    tag_15:\n      stop\n        /* \"fund-me/FundMe.sol\":355:402  uint256 public constant MINIMUM_USD = 50 * 1e18 */\n    tag_4:\n      callvalue\n      dup1\n      iszero\n      tag_17\n      jumpi\n      0x00\n      dup1\n      revert\n    tag_17:\n      pop\n      tag_18\n      tag_19\n      jump\t// in\n    tag_18:\n      mload(0x40)\n      tag_20\n      swap2\n      swap1\n      tag_14\n      jump\t// in\n    tag_20:\n      mload(0x40)\n      dup1\n      swap2\n      sub\n      swap1\n      return\n        /* \"fund-me/FundMe.sol\":331:351  address public owner */\n    tag_5:\n      callvalue\n      dup1\n      iszero\n      tag_21\n      jumpi\n      0x00\n      dup1\n      revert\n    tag_21:\n      pop\n      tag_22\n      tag_23\n      jump\t// in\n    tag_22:\n      mload(0x40)\n      tag_24\n      swap2\n      swap1\n      tag_25\n      jump\t// in\n    tag_24:\n      mload(0x40)\n      dup1\n      swap2\n      sub\n      swap1\n      return\n        /* \"fund-me/FundMe.sol\":454:632  function fund() public payable {... */\n    tag_6:\n      tag_26\n      tag_27\n      jump\t// in\n    tag_26:\n      stop\n        /* \"fund-me/FundMe.sol\":242:266  address[] public funders */\n    tag_7:\n      callvalue\n      dup1\n      iszero\n      tag_28\n      jumpi\n      0x00\n      dup1\n      revert\n    tag_28:\n      pop\n      tag_29\n      0x04\n      dup1\n      calldatasize\n      sub\n      dup2\n      add\n      swap1\n      tag_30\n      swap2\n      swap1\n      tag_31\n      jump\t// in\n    tag_30:\n      tag_32\n      jump\t// in\n    tag_29:\n      mload(0x40)\n      tag_33\n      swap2\n      swap1\n      tag_25\n      jump\t// in\n    tag_33:\n      mload(0x40)\n      dup1\n      swap2\n      sub\n      swap1\n      return\n        /* \"fund-me/FundMe.sol\":270:326  mapping(address => uint256) public addressToAmountFunded */\n    tag_12:\n      mstore(0x20, 0x01)\n      dup1\n      0x00\n      mstore\n      keccak256(0x00, 0x40)\n      0x00\n      swap2\n      pop\n      swap1\n      pop\n      sload\n      dup2\n      jump\t// out\n        /* \"fund-me/FundMe.sol\":721:1106  function widthdraw() public payable onlyOwner {... */\n    tag_16:\n        /* \"fund-me/FundMe.sol\":681:686  owner */\n      0x02\n      0x00\n      swap1\n      sload\n      swap1\n      0x0100\n      exp\n      swap1\n      div\n      0xffffffffffffffffffffffffffffffffffffffff\n      and\n        /* \"fund-me/FundMe.sol\":667:686  msg.sender != owner */\n      0xffffffffffffffffffffffffffffffffffffffff\n      and\n        /* \"fund-me/FundMe.sol\":667:677  msg.sender */\n      caller\n        /* \"fund-me/FundMe.sol\":667:686  msg.sender != owner */\n      0xffffffffffffffffffffffffffffffffffffffff\n      and\n      eq\n        /* \"fund-me/FundMe.sol\":663:705  if (msg.sender != owner) revert NotOwner() */\n      tag_35\n      jumpi\n        /* \"fund-me/FundMe.sol\":695:705  NotOwner() */\n      mload(0x40)\n      0x30cd747100000000000000000000000000000000000000000000000000000000\n      dup2\n      mstore\n      0x04\n      add\n      mload(0x40)\n      dup1\n      swap2\n      sub\n      swap1\n      revert\n        /* \"fund-me/FundMe.sol\":663:705  if (msg.sender != owner) revert NotOwner() */\n    tag_35:\n        /* \"fund-me/FundMe.sol\":778:797  uint256 funderIndex */\n      0x00\n        /* \"fund-me/FundMe.sol\":773:941  for (uint256 funderIndex = 0; funderIndex < funders.length; funderIndex++) {... */\n    tag_37:\n        /* \"fund-me/FundMe.sol\":817:824  funders */\n      0x00\n        /* \"fund-me/FundMe.sol\":817:831  funders.length */\n      dup1\n      sload\n      swap1\n      pop\n        /* \"fund-me/FundMe.sol\":803:814  funderIndex */\n      dup2\n        /* \"fund-me/FundMe.sol\":803:831  funderIndex < funders.length */\n      lt\n        /* \"fund-me/FundMe.sol\":773:941  for (uint256 funderIndex = 0; funderIndex < funders.length; funderIndex++) {... */\n      iszero\n      tag_38\n      jumpi\n        /* \"fund-me/FundMe.sol\":856:870  address funder */\n      0x00\n        /* \"fund-me/FundMe.sol\":873:880  funders */\n      dup1\n        /* \"fund-me/FundMe.sol\":881:892  funderIndex */\n      dup3\n        /* \"fund-me/FundMe.sol\":873:893  funders[funderIndex] */\n      dup2\n      sload\n      dup2\n      lt\n      tag_40\n      jumpi\n      tag_41\n      tag_42\n      jump\t// in\n    tag_41:\n    tag_40:\n      swap1\n      0x00\n      mstore\n      keccak256(0x00, 0x20)\n      add\n      0x00\n      swap1\n      sload\n      swap1\n      0x0100\n      exp\n      swap1\n      div\n      0xffffffffffffffffffffffffffffffffffffffff\n      and\n        /* \"fund-me/FundMe.sol\":856:893  address funder = funders[funderIndex] */\n      swap1\n      pop\n        /* \"fund-me/FundMe.sol\":933:934  0 */\n      0x00\n        /* \"fund-me/FundMe.sol\":901:922  addressToAmountFunded */\n      0x01\n        /* \"fund-me/FundMe.sol\":901:930  addressToAmountFunded[funder] */\n      0x00\n        /* \"fund-me/FundMe.sol\":923:929  funder */\n      dup4\n        /* \"fund-me/FundMe.sol\":901:930  addressToAmountFunded[funder] */\n      0xffffffffffffffffffffffffffffffffffffffff\n      and\n      0xffffffffffffffffffffffffffffffffffffffff\n      and\n      dup2\n      mstore\n      0x20\n      add\n      swap1\n      dup2\n      mstore\n      0x20\n      add\n      0x00\n      keccak256\n        /* \"fund-me/FundMe.sol\":901:934  addressToAmountFunded[funder] = 0 */\n      dup2\n      swap1\n      sstore\n      pop\n        /* \"fund-me/FundMe.sol\":848:941  {... */\n      pop\n        /* \"fund-me/FundMe.sol\":833:846  funderIndex++ */\n      dup1\n      dup1\n      tag_44\n      swap1\n      tag_45\n      jump\t// in\n    tag_44:\n      swap2\n      pop\n      pop\n        /* \"fund-me/FundMe.sol\":773:941  for (uint256 funderIndex = 0; funderIndex < funders.length; funderIndex++) {... */\n      jump(tag_37)\n    tag_38:\n      pop\n        /* \"fund-me/FundMe.sol\":970:971  0 */\n      0x00\n        /* \"fund-me/FundMe.sol\":956:972  new address[](0) */\n      0xffffffffffffffff\n      dup2\n      gt\n      iszero\n      tag_46\n      jumpi\n      tag_47\n      tag_48\n      jump\t// in\n    tag_47:\n    tag_46:\n      mload(0x40)\n      swap1\n      dup1\n      dup3\n      mstore\n      dup1\n      0x20\n      mul\n      0x20\n      add\n      dup3\n      add\n      0x40\n      mstore\n      dup1\n      iszero\n      tag_49\n      jumpi\n      dup2\n      0x20\n      add\n      0x20\n      dup3\n      mul\n      dup1\n      calldatasize\n      dup4\n      calldatacopy\n      dup1\n      dup3\n      add\n      swap2\n      pop\n      pop\n      swap1\n      pop\n    tag_49:\n      pop\n        /* \"fund-me/FundMe.sol\":946:953  funders */\n      0x00\n        /* \"fund-me/FundMe.sol\":946:972  funders = new address[](0) */\n      swap1\n      dup1\n      mload\n      swap1\n      0x20\n      add\n      swap1\n      tag_50\n      swap3\n      swap2\n      swap1\n      tag_51\n      jump\t// in\n    tag_50:\n      pop\n        /* \"fund-me/FundMe.sol\":980:996  bool callSuccess */\n      0x00\n        /* \"fund-me/FundMe.sol\":1010:1020  msg.sender */\n      caller\n        /* \"fund-me/FundMe.sol\":1002:1026  payable(msg.sender).call */\n      0xffffffffffffffffffffffffffffffffffffffff\n      and\n        /* \"fund-me/FundMe.sol\":1034:1055  address(this).balance */\n      selfbalance\n        /* \"fund-me/FundMe.sol\":1002:1060  payable(msg.sender).call{value: address(this).balance}(\"\") */\n      mload(0x40)\n      tag_52\n      swap1\n      tag_53\n      jump\t// in\n    tag_52:\n      0x00\n      mload(0x40)\n      dup1\n      dup4\n      sub\n      dup2\n      dup6\n      dup8\n      gas\n      call\n      swap3\n      pop\n      pop\n      pop\n      returndatasize\n      dup1\n      0x00\n      dup2\n      eq\n      tag_56\n      jumpi\n      mload(0x40)\n      swap2\n      pop\n      and(add(returndatasize, 0x3f), not(0x1f))\n      dup3\n      add\n      0x40\n      mstore\n      returndatasize\n      dup3\n      mstore\n      returndatasize\n      0x00\n      0x20\n      dup5\n      add\n      returndatacopy\n      jump(tag_55)\n    tag_56:\n      0x60\n      swap2\n      pop\n    tag_55:\n      pop\n        /* \"fund-me/FundMe.sol\":979:1060  (bool callSuccess, ) = payable(msg.sender).call{value: address(this).balance}(\"\") */\n      pop\n      swap1\n      pop\n        /* \"fund-me/FundMe.sol\":1074:1085  callSuccess */\n      dup1\n        /* \"fund-me/FundMe.sol\":1066:1101  require(callSuccess, \"Call failed\") */\n      tag_57\n      jumpi\n      mload(0x40)\n      0x08c379a000000000000000000000000000000000000000000000000000000000\n      dup2\n      mstore\n      0x04\n      add\n      tag_58\n      swap1\n      tag_59\n      jump\t// in\n    tag_58:\n      mload(0x40)\n      dup1\n      swap2\n      sub\n      swap1\n      revert\n    tag_57:\n        /* \"fund-me/FundMe.sol\":767:1106  {... */\n      pop\n        /* \"fund-me/FundMe.sol\":721:1106  function widthdraw() public payable onlyOwner {... */\n      jump\t// out\n        /* \"fund-me/FundMe.sol\":355:402  uint256 public constant MINIMUM_USD = 50 * 1e18 */\n    tag_19:\n        /* \"fund-me/FundMe.sol\":393:402  50 * 1e18 */\n      0x02b5e3af16b1880000\n        /* \"fund-me/FundMe.sol\":355:402  uint256 public constant MINIMUM_USD = 50 * 1e18 */\n      dup2\n      jump\t// out\n        /* \"fund-me/FundMe.sol\":331:351  address public owner */\n    tag_23:\n      0x02\n      0x00\n      swap1\n      sload\n      swap1\n      0x0100\n      exp\n      swap1\n      div\n      0xffffffffffffffffffffffffffffffffffffffff\n      and\n      dup2\n      jump\t// out\n        /* \"fund-me/FundMe.sol\":454:632  function fund() public payable {... */\n    tag_27:\n        /* \"fund-me/FundMe.sol\":393:402  50 * 1e18 */\n      0x02b5e3af16b1880000\n        /* \"fund-me/FundMe.sol\":499:529  msg.value.getConvertionPrice() */\n      tag_61\n        /* \"fund-me/FundMe.sol\":499:508  msg.value */\n      callvalue\n        /* \"fund-me/FundMe.sol\":499:527  msg.value.getConvertionPrice */\n      tag_62\n        /* \"fund-me/FundMe.sol\":499:529  msg.value.getConvertionPrice() */\n      jump\t// in\n    tag_61:\n        /* \"fund-me/FundMe.sol\":499:544  msg.value.getConvertionPrice() >= MINIMUM_USD */\n      lt\n      iszero\n        /* \"fund-me/FundMe.sol\":491:545  require(msg.value.getConvertionPrice() >= MINIMUM_USD) */\n      tag_63\n      jumpi\n      0x00\n      dup1\n      revert\n    tag_63:\n        /* \"fund-me/FundMe.sol\":588:597  msg.value */\n      callvalue\n        /* \"fund-me/FundMe.sol\":551:572  addressToAmountFunded */\n      0x01\n        /* \"fund-me/FundMe.sol\":551:584  addressToAmountFunded[msg.sender] */\n      0x00\n        /* \"fund-me/FundMe.sol\":573:583  msg.sender */\n      caller\n        /* \"fund-me/FundMe.sol\":551:584  addressToAmountFunded[msg.sender] */\n      0xffffffffffffffffffffffffffffffffffffffff\n      and\n      0xffffffffffffffffffffffffffffffffffffffff\n      and\n      dup2\n      mstore\n      0x20\n      add\n      swap1\n      dup2\n      mstore\n      0x20\n      add\n      0x00\n      keccak256\n      0x00\n        /* \"fund-me/FundMe.sol\":551:597  addressToAmountFunded[msg.sender] += msg.value */\n      dup3\n      dup3\n      sload\n      tag_64\n      swap2\n      swap1\n      tag_65\n      jump\t// in\n    tag_64:\n      swap3\n      pop\n      pop\n      dup2\n      swap1\n      sstore\n      pop\n        /* \"fund-me/FundMe.sol\":603:610  funders */\n      0x00\n        /* \"fund-me/FundMe.sol\":616:626  msg.sender */\n      caller\n        /* \"fund-me/FundMe.sol\":603:627  funders.push(msg.sender) */\n      swap1\n      dup1\n      0x01\n      dup2\n      sload\n      add\n      dup1\n      dup3\n      sstore\n      dup1\n      swap2\n      pop\n      pop\n      0x01\n      swap1\n      sub\n      swap1\n      0x00\n      mstore\n      keccak256(0x00, 0x20)\n      add\n      0x00\n      swap1\n      swap2\n      swap1\n      swap2\n      swap1\n      swap2\n      0x0100\n      exp\n      dup2\n      sload\n      dup2\n      0xffffffffffffffffffffffffffffffffffffffff\n      mul\n      not\n      and\n      swap1\n      dup4\n      0xffffffffffffffffffffffffffffffffffffffff\n      and\n      mul\n      or\n      swap1\n      sstore\n      pop\n        /* \"fund-me/FundMe.sol\":454:632  function fund() public payable {... */\n      jump\t// out\n        /* \"fund-me/FundMe.sol\":242:266  address[] public funders */\n    tag_32:\n      0x00\n      dup2\n      dup2\n      sload\n      dup2\n      lt\n      tag_67\n      jumpi\n      0x00\n      dup1\n      revert\n    tag_67:\n      swap1\n      0x00\n      mstore\n      keccak256(0x00, 0x20)\n      add\n      0x00\n      swap2\n      pop\n      sload\n      swap1\n      0x0100\n      exp\n      swap1\n      div\n      0xffffffffffffffffffffffffffffffffffffffff\n      and\n      dup2\n      jump\t// out\n        /* \"fund-me/PriceConverter.sol\":555:761  function getConvertionPrice(uint256 ethAmount) internal view returns (uint256) {... */\n    tag_62:\n        /* \"fund-me/PriceConverter.sol\":625:632  uint256 */\n      0x00\n        /* \"fund-me/PriceConverter.sol\":640:656  uint256 ethPrice */\n      dup1\n        /* \"fund-me/PriceConverter.sol\":659:669  getPrice() */\n      tag_70\n        /* \"fund-me/PriceConverter.sol\":659:667  getPrice */\n      tag_71\n        /* \"fund-me/PriceConverter.sol\":659:669  getPrice() */\n      jump\t// in\n    tag_70:\n        /* \"fund-me/PriceConverter.sol\":640:669  uint256 ethPrice = getPrice() */\n      swap1\n      pop\n        /* \"fund-me/PriceConverter.sol\":675:697  uint256 ethAmountInUsd */\n      0x00\n        /* \"fund-me/PriceConverter.sol\":725:729  1e18 */\n      0x0de0b6b3a7640000\n        /* \"fund-me/PriceConverter.sol\":712:721  ethAmount */\n      dup5\n        /* \"fund-me/PriceConverter.sol\":701:709  ethPrice */\n      dup4\n        /* \"fund-me/PriceConverter.sol\":701:721  ethPrice * ethAmount */\n      tag_72\n      swap2\n      swap1\n      tag_73\n      jump\t// in\n    tag_72:\n        /* \"fund-me/PriceConverter.sol\":700:729  (ethPrice * ethAmount) / 1e18 */\n      tag_74\n      swap2\n      swap1\n      tag_75\n      jump\t// in\n    tag_74:\n        /* \"fund-me/PriceConverter.sol\":675:729  uint256 ethAmountInUsd = (ethPrice * ethAmount) / 1e18 */\n      swap1\n      pop\n        /* \"fund-me/PriceConverter.sol\":742:756  ethAmountInUsd */\n      dup1\n        /* \"fund-me/PriceConverter.sol\":735:756  return ethAmountInUsd */\n      swap3\n      pop\n      pop\n      pop\n        /* \"fund-me/PriceConverter.sol\":555:761  function getConvertionPrice(uint256 ethAmount) internal view returns (uint256) {... */\n      swap2\n      swap1\n      pop\n      jump\t// out\n        /* \"fund-me/PriceConverter.sol\":303:551  function getPrice() internal view returns(uint256){... */\n    tag_71:\n        /* \"fund-me/PriceConverter.sol\":345:352  uint256 */\n      0x00\n        /* \"fund-me/PriceConverter.sol\":359:390  AggregatorV3Interface priceFeed */\n      dup1\n        /* \"fund-me/PriceConverter.sol\":415:457  0x8A753747A1Fa494EC906cE90E9f37563A8AF630e */\n      0x8a753747a1fa494ec906ce90e9f37563a8af630e\n        /* \"fund-me/PriceConverter.sol\":359:458  AggregatorV3Interface priceFeed = AggregatorV3Interface(0x8A753747A1Fa494EC906cE90E9f37563A8AF630e) */\n      swap1\n      pop\n        /* \"fund-me/PriceConverter.sol\":467:476  int price */\n      0x00\n        /* \"fund-me/PriceConverter.sol\":485:494  priceFeed */\n      dup2\n        /* \"fund-me/PriceConverter.sol\":485:510  priceFeed.latestRoundData */\n      0xffffffffffffffffffffffffffffffffffffffff\n      and\n      0xfeaf968c\n        /* \"fund-me/PriceConverter.sol\":485:512  priceFeed.latestRoundData() */\n      mload(0x40)\n      dup2\n      0xffffffff\n      and\n      0xe0\n      shl\n      dup2\n      mstore\n      0x04\n      add\n      0xa0\n      mload(0x40)\n      dup1\n      dup4\n      sub\n      dup2\n      dup7\n      dup1\n      extcodesize\n      iszero\n      dup1\n      iszero\n      tag_77\n      jumpi\n      0x00\n      dup1\n      revert\n    tag_77:\n      pop\n      gas\n      staticcall\n      iszero\n      dup1\n      iszero\n      tag_79\n      jumpi\n      returndatasize\n      0x00\n      dup1\n      returndatacopy\n      revert(0x00, returndatasize)\n    tag_79:\n      pop\n      pop\n      pop\n      pop\n      mload(0x40)\n      returndatasize\n      not(0x1f)\n      0x1f\n      dup3\n      add\n      and\n      dup3\n      add\n      dup1\n      0x40\n      mstore\n      pop\n      dup2\n      add\n      swap1\n      tag_80\n      swap2\n      swap1\n      tag_81\n      jump\t// in\n    tag_80:\n        /* \"fund-me/PriceConverter.sol\":464:512  (, int price, , ,) = priceFeed.latestRoundData() */\n      pop\n      pop\n      pop\n      swap2\n      pop\n      pop\n        /* \"fund-me/PriceConverter.sol\":541:545  1e10 */\n      0x02540be400\n        /* \"fund-me/PriceConverter.sol\":533:538  price */\n      dup2\n        /* \"fund-me/PriceConverter.sol\":533:545  price * 1e10 */\n      tag_82\n      swap2\n      swap1\n      tag_83\n      jump\t// in\n    tag_82:\n        /* \"fund-me/PriceConverter.sol\":518:546  return uint256(price * 1e10) */\n      swap3\n      pop\n      pop\n      pop\n        /* \"fund-me/PriceConverter.sol\":303:551  function getPrice() internal view returns(uint256){... */\n      swap1\n      jump\t// out\n    tag_51:\n      dup3\n      dup1\n      sload\n      dup3\n      dup3\n      sstore\n      swap1\n      0x00\n      mstore\n      keccak256(0x00, 0x20)\n      swap1\n      dup2\n      add\n      swap3\n      dup3\n      iszero\n      tag_84\n      jumpi\n      swap2\n      0x20\n      mul\n      dup3\n      add\n    tag_85:\n      dup3\n      dup2\n      gt\n      iszero\n      tag_86\n      jumpi\n      dup3\n      mload\n      dup3\n      exp(0x0100, 0x00)\n      dup2\n      sload\n      dup2\n      0xffffffffffffffffffffffffffffffffffffffff\n      mul\n      not\n      and\n      swap1\n      dup4\n      0xffffffffffffffffffffffffffffffffffffffff\n      and\n      mul\n      or\n      swap1\n      sstore\n      pop\n      swap2\n      0x20\n      add\n      swap2\n      swap1\n      0x01\n      add\n      swap1\n      jump(tag_85)\n    tag_86:\n    tag_84:\n      pop\n      swap1\n      pop\n      tag_87\n      swap2\n      swap1\n      tag_88\n      jump\t// in\n    tag_87:\n      pop\n      swap1\n      jump\t// out\n    tag_88:\n    tag_89:\n      dup1\n      dup3\n      gt\n      iszero\n      tag_90\n      jumpi\n      0x00\n      dup2\n      0x00\n      swap1\n      sstore\n      pop\n      0x01\n      add\n      jump(tag_89)\n    tag_90:\n      pop\n      swap1\n      jump\t// out\n        /* \"#utility.yul\":7:146   */\n    tag_92:\n        /* \"#utility.yul\":53:58   */\n      0x00\n        /* \"#utility.yul\":91:97   */\n      dup2\n        /* \"#utility.yul\":78:98   */\n      calldataload\n        /* \"#utility.yul\":69:98   */\n      swap1\n      pop\n        /* \"#utility.yul\":107:140   */\n      tag_94\n        /* \"#utility.yul\":134:139   */\n      dup2\n        /* \"#utility.yul\":107:140   */\n      tag_95\n      jump\t// in\n    tag_94:\n        /* \"#utility.yul\":7:146   */\n      swap3\n      swap2\n      pop\n      pop\n      jump\t// out\n        /* \"#utility.yul\":152:293   */\n    tag_96:\n        /* \"#utility.yul\":208:213   */\n      0x00\n        /* \"#utility.yul\":239:245   */\n      dup2\n        /* \"#utility.yul\":233:246   */\n      mload\n        /* \"#utility.yul\":224:246   */\n      swap1\n      pop\n        /* \"#utility.yul\":255:287   */\n      tag_98\n        /* \"#utility.yul\":281:286   */\n      dup2\n        /* \"#utility.yul\":255:287   */\n      tag_99\n      jump\t// in\n    tag_98:\n        /* \"#utility.yul\":152:293   */\n      swap3\n      swap2\n      pop\n      pop\n      jump\t// out\n        /* \"#utility.yul\":299:438   */\n    tag_100:\n        /* \"#utility.yul\":345:350   */\n      0x00\n        /* \"#utility.yul\":383:389   */\n      dup2\n        /* \"#utility.yul\":370:390   */\n      calldataload\n        /* \"#utility.yul\":361:390   */\n      swap1\n      pop\n        /* \"#utility.yul\":399:432   */\n      tag_102\n        /* \"#utility.yul\":426:431   */\n      dup2\n        /* \"#utility.yul\":399:432   */\n      tag_103\n      jump\t// in\n    tag_102:\n        /* \"#utility.yul\":299:438   */\n      swap3\n      swap2\n      pop\n      pop\n      jump\t// out\n        /* \"#utility.yul\":444:587   */\n    tag_104:\n        /* \"#utility.yul\":501:506   */\n      0x00\n        /* \"#utility.yul\":532:538   */\n      dup2\n        /* \"#utility.yul\":526:539   */\n      mload\n        /* \"#utility.yul\":517:539   */\n      swap1\n      pop\n        /* \"#utility.yul\":548:581   */\n      tag_106\n        /* \"#utility.yul\":575:580   */\n      dup2\n        /* \"#utility.yul\":548:581   */\n      tag_103\n      jump\t// in\n    tag_106:\n        /* \"#utility.yul\":444:587   */\n      swap3\n      swap2\n      pop\n      pop\n      jump\t// out\n        /* \"#utility.yul\":593:734   */\n    tag_107:\n        /* \"#utility.yul\":649:654   */\n      0x00\n        /* \"#utility.yul\":680:686   */\n      dup2\n        /* \"#utility.yul\":674:687   */\n      mload\n        /* \"#utility.yul\":665:687   */\n      swap1\n      pop\n        /* \"#utility.yul\":696:728   */\n      tag_109\n        /* \"#utility.yul\":722:727   */\n      dup2\n        /* \"#utility.yul\":696:728   */\n      tag_110\n      jump\t// in\n    tag_109:\n        /* \"#utility.yul\":593:734   */\n      swap3\n      swap2\n      pop\n      pop\n      jump\t// out\n        /* \"#utility.yul\":740:1069   */\n    tag_11:\n        /* \"#utility.yul\":799:805   */\n      0x00\n        /* \"#utility.yul\":848:850   */\n      0x20\n        /* \"#utility.yul\":836:845   */\n      dup3\n        /* \"#utility.yul\":827:834   */\n      dup5\n        /* \"#utility.yul\":823:846   */\n      sub\n        /* \"#utility.yul\":819:851   */\n      slt\n        /* \"#utility.yul\":816:935   */\n      iszero\n      tag_112\n      jumpi\n        /* \"#utility.yul\":854:933   */\n      tag_113\n      tag_114\n      jump\t// in\n    tag_113:\n        /* \"#utility.yul\":816:935   */\n    tag_112:\n        /* \"#utility.yul\":974:975   */\n      0x00\n        /* \"#utility.yul\":999:1052   */\n      tag_115\n        /* \"#utility.yul\":1044:1051   */\n      dup5\n        /* \"#utility.yul\":1035:1041   */\n      dup3\n        /* \"#utility.yul\":1024:1033   */\n      dup6\n        /* \"#utility.yul\":1020:1042   */\n      add\n        /* \"#utility.yul\":999:1052   */\n      tag_92\n      jump\t// in\n    tag_115:\n        /* \"#utility.yul\":989:1052   */\n      swap2\n      pop\n        /* \"#utility.yul\":945:1062   */\n      pop\n        /* \"#utility.yul\":740:1069   */\n      swap3\n      swap2\n      pop\n      pop\n      jump\t// out\n        /* \"#utility.yul\":1075:1404   */\n    tag_31:\n        /* \"#utility.yul\":1134:1140   */\n      0x00\n        /* \"#utility.yul\":1183:1185   */\n      0x20\n        /* \"#utility.yul\":1171:1180   */\n      dup3\n        /* \"#utility.yul\":1162:1169   */\n      dup5\n        /* \"#utility.yul\":1158:1181   */\n      sub\n        /* \"#utility.yul\":1154:1186   */\n      slt\n        /* \"#utility.yul\":1151:1270   */\n      iszero\n      tag_117\n      jumpi\n        /* \"#utility.yul\":1189:1268   */\n      tag_118\n      tag_114\n      jump\t// in\n    tag_118:\n        /* \"#utility.yul\":1151:1270   */\n    tag_117:\n        /* \"#utility.yul\":1309:1310   */\n      0x00\n        /* \"#utility.yul\":1334:1387   */\n      tag_119\n        /* \"#utility.yul\":1379:1386   */\n      dup5\n        /* \"#utility.yul\":1370:1376   */\n      dup3\n        /* \"#utility.yul\":1359:1368   */\n      dup6\n        /* \"#utility.yul\":1355:1377   */\n      add\n        /* \"#utility.yul\":1334:1387   */\n      tag_100\n      jump\t// in\n    tag_119:\n        /* \"#utility.yul\":1324:1387   */\n      swap2\n      pop\n        /* \"#utility.yul\":1280:1397   */\n      pop\n        /* \"#utility.yul\":1075:1404   */\n      swap3\n      swap2\n      pop\n      pop\n      jump\t// out\n        /* \"#utility.yul\":1410:2381   */\n    tag_81:\n        /* \"#utility.yul\":1513:1519   */\n      0x00\n        /* \"#utility.yul\":1521:1527   */\n      dup1\n        /* \"#utility.yul\":1529:1535   */\n      0x00\n        /* \"#utility.yul\":1537:1543   */\n      dup1\n        /* \"#utility.yul\":1545:1551   */\n      0x00\n        /* \"#utility.yul\":1594:1597   */\n      0xa0\n        /* \"#utility.yul\":1582:1591   */\n      dup7\n        /* \"#utility.yul\":1573:1580   */\n      dup9\n        /* \"#utility.yul\":1569:1592   */\n      sub\n        /* \"#utility.yul\":1565:1598   */\n      slt\n        /* \"#utility.yul\":1562:1682   */\n      iszero\n      tag_121\n      jumpi\n        /* \"#utility.yul\":1601:1680   */\n      tag_122\n      tag_114\n      jump\t// in\n    tag_122:\n        /* \"#utility.yul\":1562:1682   */\n    tag_121:\n        /* \"#utility.yul\":1721:1722   */\n      0x00\n        /* \"#utility.yul\":1746:1809   */\n      tag_123\n        /* \"#utility.yul\":1801:1808   */\n      dup9\n        /* \"#utility.yul\":1792:1798   */\n      dup3\n        /* \"#utility.yul\":1781:1790   */\n      dup10\n        /* \"#utility.yul\":1777:1799   */\n      add\n        /* \"#utility.yul\":1746:1809   */\n      tag_107\n      jump\t// in\n    tag_123:\n        /* \"#utility.yul\":1736:1809   */\n      swap6\n      pop\n        /* \"#utility.yul\":1692:1819   */\n      pop\n        /* \"#utility.yul\":1858:1860   */\n      0x20\n        /* \"#utility.yul\":1884:1947   */\n      tag_124\n        /* \"#utility.yul\":1939:1946   */\n      dup9\n        /* \"#utility.yul\":1930:1936   */\n      dup3\n        /* \"#utility.yul\":1919:1928   */\n      dup10\n        /* \"#utility.yul\":1915:1937   */\n      add\n        /* \"#utility.yul\":1884:1947   */\n      tag_96\n      jump\t// in\n    tag_124:\n        /* \"#utility.yul\":1874:1947   */\n      swap5\n      pop\n        /* \"#utility.yul\":1829:1957   */\n      pop\n        /* \"#utility.yul\":1996:1998   */\n      0x40\n        /* \"#utility.yul\":2022:2086   */\n      tag_125\n        /* \"#utility.yul\":2078:2085   */\n      dup9\n        /* \"#utility.yul\":2069:2075   */\n      dup3\n        /* \"#utility.yul\":2058:2067   */\n      dup10\n        /* \"#utility.yul\":2054:2076   */\n      add\n        /* \"#utility.yul\":2022:2086   */\n      tag_104\n      jump\t// in\n    tag_125:\n        /* \"#utility.yul\":2012:2086   */\n      swap4\n      pop\n        /* \"#utility.yul\":1967:2096   */\n      pop\n        /* \"#utility.yul\":2135:2137   */\n      0x60\n        /* \"#utility.yul\":2161:2225   */\n      tag_126\n        /* \"#utility.yul\":2217:2224   */\n      dup9\n        /* \"#utility.yul\":2208:2214   */\n      dup3\n        /* \"#utility.yul\":2197:2206   */\n      dup10\n        /* \"#utility.yul\":2193:2215   */\n      add\n        /* \"#utility.yul\":2161:2225   */\n      tag_104\n      jump\t// in\n    tag_126:\n        /* \"#utility.yul\":2151:2225   */\n      swap3\n      pop\n        /* \"#utility.yul\":2106:2235   */\n      pop\n        /* \"#utility.yul\":2274:2277   */\n      0x80\n        /* \"#utility.yul\":2301:2364   */\n      tag_127\n        /* \"#utility.yul\":2356:2363   */\n      dup9\n        /* \"#utility.yul\":2347:2353   */\n      dup3\n        /* \"#utility.yul\":2336:2345   */\n      dup10\n        /* \"#utility.yul\":2332:2354   */\n      add\n        /* \"#utility.yul\":2301:2364   */\n      tag_107\n      jump\t// in\n    tag_127:\n        /* \"#utility.yul\":2291:2364   */\n      swap2\n      pop\n        /* \"#utility.yul\":2245:2374   */\n      pop\n        /* \"#utility.yul\":1410:2381   */\n      swap3\n      swap6\n      pop\n      swap3\n      swap6\n      swap1\n      swap4\n      pop\n      jump\t// out\n        /* \"#utility.yul\":2387:2505   */\n    tag_128:\n        /* \"#utility.yul\":2474:2498   */\n      tag_130\n        /* \"#utility.yul\":2492:2497   */\n      dup2\n        /* \"#utility.yul\":2474:2498   */\n      tag_131\n      jump\t// in\n    tag_130:\n        /* \"#utility.yul\":2469:2472   */\n      dup3\n        /* \"#utility.yul\":2462:2499   */\n      mstore\n        /* \"#utility.yul\":2387:2505   */\n      pop\n      pop\n      jump\t// out\n        /* \"#utility.yul\":2511:2877   */\n    tag_132:\n        /* \"#utility.yul\":2653:2656   */\n      0x00\n        /* \"#utility.yul\":2674:2741   */\n      tag_134\n        /* \"#utility.yul\":2738:2740   */\n      0x0b\n        /* \"#utility.yul\":2733:2736   */\n      dup4\n        /* \"#utility.yul\":2674:2741   */\n      tag_135\n      jump\t// in\n    tag_134:\n        /* \"#utility.yul\":2667:2741   */\n      swap2\n      pop\n        /* \"#utility.yul\":2750:2843   */\n      tag_136\n        /* \"#utility.yul\":2839:2842   */\n      dup3\n        /* \"#utility.yul\":2750:2843   */\n      tag_137\n      jump\t// in\n    tag_136:\n        /* \"#utility.yul\":2868:2870   */\n      0x20\n        /* \"#utility.yul\":2863:2866   */\n      dup3\n        /* \"#utility.yul\":2859:2871   */\n      add\n        /* \"#utility.yul\":2852:2871   */\n      swap1\n      pop\n        /* \"#utility.yul\":2511:2877   */\n      swap2\n      swap1\n      pop\n      jump\t// out\n        /* \"#utility.yul\":2883:3281   */\n    tag_138:\n        /* \"#utility.yul\":3042:3045   */\n      0x00\n        /* \"#utility.yul\":3063:3146   */\n      tag_140\n        /* \"#utility.yul\":3144:3145   */\n      0x00\n        /* \"#utility.yul\":3139:3142   */\n      dup4\n        /* \"#utility.yul\":3063:3146   */\n      tag_141\n      jump\t// in\n    tag_140:\n        /* \"#utility.yul\":3056:3146   */\n      swap2\n      pop\n        /* \"#utility.yul\":3155:3248   */\n      tag_142\n        /* \"#utility.yul\":3244:3247   */\n      dup3\n        /* \"#utility.yul\":3155:3248   */\n      tag_143\n      jump\t// in\n    tag_142:\n        /* \"#utility.yul\":3273:3274   */\n      0x00\n        /* \"#utility.yul\":3268:3271   */\n      dup3\n        /* \"#utility.yul\":3264:3275   */\n      add\n        /* \"#utility.yul\":3257:3275   */\n      swap1\n      pop\n        /* \"#utility.yul\":2883:3281   */\n      swap2\n      swap1\n      pop\n      jump\t// out\n        /* \"#utility.yul\":3287:3405   */\n    tag_144:\n        /* \"#utility.yul\":3374:3398   */\n      tag_146\n        /* \"#utility.yul\":3392:3397   */\n      dup2\n        /* \"#utility.yul\":3374:3398   */\n      tag_147\n      jump\t// in\n    tag_146:\n        /* \"#utility.yul\":3369:3372   */\n      dup3\n        /* \"#utility.yul\":3362:3399   */\n      mstore\n        /* \"#utility.yul\":3287:3405   */\n      pop\n      pop\n      jump\t// out\n        /* \"#utility.yul\":3411:3790   */\n    tag_53:\n        /* \"#utility.yul\":3595:3598   */\n      0x00\n        /* \"#utility.yul\":3617:3764   */\n      tag_149\n        /* \"#utility.yul\":3760:3763   */\n      dup3\n        /* \"#utility.yul\":3617:3764   */\n      tag_138\n      jump\t// in\n    tag_149:\n        /* \"#utility.yul\":3610:3764   */\n      swap2\n      pop\n        /* \"#utility.yul\":3781:3784   */\n      dup2\n        /* \"#utility.yul\":3774:3784   */\n      swap1\n      pop\n        /* \"#utility.yul\":3411:3790   */\n      swap2\n      swap1\n      pop\n      jump\t// out\n        /* \"#utility.yul\":3796:4018   */\n    tag_25:\n        /* \"#utility.yul\":3889:3893   */\n      0x00\n        /* \"#utility.yul\":3927:3929   */\n      0x20\n        /* \"#utility.yul\":3916:3925   */\n      dup3\n        /* \"#utility.yul\":3912:3930   */\n      add\n        /* \"#utility.yul\":3904:3930   */\n      swap1\n      pop\n        /* \"#utility.yul\":3940:4011   */\n      tag_151\n        /* \"#utility.yul\":4008:4009   */\n      0x00\n        /* \"#utility.yul\":3997:4006   */\n      dup4\n        /* \"#utility.yul\":3993:4010   */\n      add\n        /* \"#utility.yul\":3984:3990   */\n      dup5\n        /* \"#utility.yul\":3940:4011   */\n      tag_128\n      jump\t// in\n    tag_151:\n        /* \"#utility.yul\":3796:4018   */\n      swap3\n      swap2\n      pop\n      pop\n      jump\t// out\n        /* \"#utility.yul\":4024:4443   */\n    tag_59:\n        /* \"#utility.yul\":4190:4194   */\n      0x00\n        /* \"#utility.yul\":4228:4230   */\n      0x20\n        /* \"#utility.yul\":4217:4226   */\n      dup3\n        /* \"#utility.yul\":4213:4231   */\n      add\n        /* \"#utility.yul\":4205:4231   */\n      swap1\n      pop\n        /* \"#utility.yul\":4277:4286   */\n      dup2\n        /* \"#utility.yul\":4271:4275   */\n      dup2\n        /* \"#utility.yul\":4267:4287   */\n      sub\n        /* \"#utility.yul\":4263:4264   */\n      0x00\n        /* \"#utility.yul\":4252:4261   */\n      dup4\n        /* \"#utility.yul\":4248:4265   */\n      add\n        /* \"#utility.yul\":4241:4288   */\n      mstore\n        /* \"#utility.yul\":4305:4436   */\n      tag_153\n        /* \"#utility.yul\":4431:4435   */\n      dup2\n        /* \"#utility.yul\":4305:4436   */\n      tag_132\n      jump\t// in\n    tag_153:\n        /* \"#utility.yul\":4297:4436   */\n      swap1\n      pop\n        /* \"#utility.yul\":4024:4443   */\n      swap2\n      swap1\n      pop\n      jump\t// out\n        /* \"#utility.yul\":4449:4671   */\n    tag_14:\n        /* \"#utility.yul\":4542:4546   */\n      0x00\n        /* \"#utility.yul\":4580:4582   */\n      0x20\n        /* \"#utility.yul\":4569:4578   */\n      dup3\n        /* \"#utility.yul\":4565:4583   */\n      add\n        /* \"#utility.yul\":4557:4583   */\n      swap1\n      pop\n        /* \"#utility.yul\":4593:4664   */\n      tag_155\n        /* \"#utility.yul\":4661:4662   */\n      0x00\n        /* \"#utility.yul\":4650:4659   */\n      dup4\n        /* \"#utility.yul\":4646:4663   */\n      add\n        /* \"#utility.yul\":4637:4643   */\n      dup5\n        /* \"#utility.yul\":4593:4664   */\n      tag_144\n      jump\t// in\n    tag_155:\n        /* \"#utility.yul\":4449:4671   */\n      swap3\n      swap2\n      pop\n      pop\n      jump\t// out\n        /* \"#utility.yul\":4758:4905   */\n    tag_141:\n        /* \"#utility.yul\":4859:4870   */\n      0x00\n        /* \"#utility.yul\":4896:4899   */\n      dup2\n        /* \"#utility.yul\":4881:4899   */\n      swap1\n      pop\n        /* \"#utility.yul\":4758:4905   */\n      swap3\n      swap2\n      pop\n      pop\n      jump\t// out\n        /* \"#utility.yul\":4911:5080   */\n    tag_135:\n        /* \"#utility.yul\":4995:5006   */\n      0x00\n        /* \"#utility.yul\":5029:5035   */\n      dup3\n        /* \"#utility.yul\":5024:5027   */\n      dup3\n        /* \"#utility.yul\":5017:5036   */\n      mstore\n        /* \"#utility.yul\":5069:5073   */\n      0x20\n        /* \"#utility.yul\":5064:5067   */\n      dup3\n        /* \"#utility.yul\":5060:5074   */\n      add\n        /* \"#utility.yul\":5045:5074   */\n      swap1\n      pop\n        /* \"#utility.yul\":4911:5080   */\n      swap3\n      swap2\n      pop\n      pop\n      jump\t// out\n        /* \"#utility.yul\":5086:5391   */\n    tag_65:\n        /* \"#utility.yul\":5126:5129   */\n      0x00\n        /* \"#utility.yul\":5145:5165   */\n      tag_161\n        /* \"#utility.yul\":5163:5164   */\n      dup3\n        /* \"#utility.yul\":5145:5165   */\n      tag_147\n      jump\t// in\n    tag_161:\n        /* \"#utility.yul\":5140:5165   */\n      swap2\n      pop\n        /* \"#utility.yul\":5179:5199   */\n      tag_162\n        /* \"#utility.yul\":5197:5198   */\n      dup4\n        /* \"#utility.yul\":5179:5199   */\n      tag_147\n      jump\t// in\n    tag_162:\n        /* \"#utility.yul\":5174:5199   */\n      swap3\n      pop\n        /* \"#utility.yul\":5333:5334   */\n      dup3\n        /* \"#utility.yul\":5265:5331   */\n      0xffffffffffffffffffffffffffffffffffffffffffffffffffffffffffffffff\n        /* \"#utility.yul\":5261:5335   */\n      sub\n        /* \"#utility.yul\":5258:5259   */\n      dup3\n        /* \"#utility.yul\":5255:5336   */\n      gt\n        /* \"#utility.yul\":5252:5359   */\n      iszero\n      tag_163\n      jumpi\n        /* \"#utility.yul\":5339:5357   */\n      tag_164\n      tag_165\n      jump\t// in\n    tag_164:\n        /* \"#utility.yul\":5252:5359   */\n    tag_163:\n        /* \"#utility.yul\":5383:5384   */\n      dup3\n        /* \"#utility.yul\":5380:5381   */\n      dup3\n        /* \"#utility.yul\":5376:5385   */\n      add\n        /* \"#utility.yul\":5369:5385   */\n      swap1\n      pop\n        /* \"#utility.yul\":5086:5391   */\n      swap3\n      swap2\n      pop\n      pop\n      jump\t// out\n        /* \"#utility.yul\":5397:5582   */\n    tag_75:\n        /* \"#utility.yul\":5437:5438   */\n      0x00\n        /* \"#utility.yul\":5454:5474   */\n      tag_167\n        /* \"#utility.yul\":5472:5473   */\n      dup3\n        /* \"#utility.yul\":5454:5474   */\n      tag_147\n      jump\t// in\n    tag_167:\n        /* \"#utility.yul\":5449:5474   */\n      swap2\n      pop\n        /* \"#utility.yul\":5488:5508   */\n      tag_168\n        /* \"#utility.yul\":5506:5507   */\n      dup4\n        /* \"#utility.yul\":5488:5508   */\n      tag_147\n      jump\t// in\n    tag_168:\n        /* \"#utility.yul\":5483:5508   */\n      swap3\n      pop\n        /* \"#utility.yul\":5527:5528   */\n      dup3\n        /* \"#utility.yul\":5517:5552   */\n      tag_169\n      jumpi\n        /* \"#utility.yul\":5532:5550   */\n      tag_170\n      tag_171\n      jump\t// in\n    tag_170:\n        /* \"#utility.yul\":5517:5552   */\n    tag_169:\n        /* \"#utility.yul\":5574:5575   */\n      dup3\n        /* \"#utility.yul\":5571:5572   */\n      dup3\n        /* \"#utility.yul\":5567:5576   */\n      div\n        /* \"#utility.yul\":5562:5576   */\n      swap1\n      pop\n        /* \"#utility.yul\":5397:5582   */\n      swap3\n      swap2\n      pop\n      pop\n      jump\t// out\n        /* \"#utility.yul\":5588:6579   */\n    tag_83:\n        /* \"#utility.yul\":5627:5634   */\n      0x00\n        /* \"#utility.yul\":5650:5669   */\n      tag_173\n        /* \"#utility.yul\":5667:5668   */\n      dup3\n        /* \"#utility.yul\":5650:5669   */\n      tag_174\n      jump\t// in\n    tag_173:\n        /* \"#utility.yul\":5645:5669   */\n      swap2\n      pop\n        /* \"#utility.yul\":5683:5702   */\n      tag_175\n        /* \"#utility.yul\":5700:5701   */\n      dup4\n        /* \"#utility.yul\":5683:5702   */\n      tag_174\n      jump\t// in\n    tag_175:\n        /* \"#utility.yul\":5678:5702   */\n      swap3\n      pop\n        /* \"#utility.yul\":5884:5885   */\n      dup3\n        /* \"#utility.yul\":5816:5882   */\n      0x7fffffffffffffffffffffffffffffffffffffffffffffffffffffffffffffff\n        /* \"#utility.yul\":5812:5886   */\n      div\n        /* \"#utility.yul\":5809:5810   */\n      dup3\n        /* \"#utility.yul\":5806:5887   */\n      gt\n        /* \"#utility.yul\":5801:5802   */\n      0x00\n        /* \"#utility.yul\":5798:5799   */\n      dup5\n        /* \"#utility.yul\":5794:5803   */\n      sgt\n        /* \"#utility.yul\":5790:5791   */\n      0x00\n        /* \"#utility.yul\":5787:5788   */\n      dup5\n        /* \"#utility.yul\":5783:5792   */\n      sgt\n        /* \"#utility.yul\":5779:5804   */\n      and\n        /* \"#utility.yul\":5775:5888   */\n      and\n        /* \"#utility.yul\":5772:5911   */\n      iszero\n      tag_176\n      jumpi\n        /* \"#utility.yul\":5891:5909   */\n      tag_177\n      tag_165\n      jump\t// in\n    tag_177:\n        /* \"#utility.yul\":5772:5911   */\n    tag_176:\n        /* \"#utility.yul\":6095:6096   */\n      dup2\n        /* \"#utility.yul\":6027:6093   */\n      0x8000000000000000000000000000000000000000000000000000000000000000\n        /* \"#utility.yul\":6022:6097   */\n      sdiv\n        /* \"#utility.yul\":6019:6020   */\n      dup4\n        /* \"#utility.yul\":6015:6098   */\n      slt\n        /* \"#utility.yul\":6010:6011   */\n      0x00\n        /* \"#utility.yul\":6007:6008   */\n      dup5\n        /* \"#utility.yul\":6003:6012   */\n      slt\n        /* \"#utility.yul\":5999:6000   */\n      0x00\n        /* \"#utility.yul\":5996:5997   */\n      dup5\n        /* \"#utility.yul\":5992:6001   */\n      sgt\n        /* \"#utility.yul\":5988:6013   */\n      and\n        /* \"#utility.yul\":5984:6099   */\n      and\n        /* \"#utility.yul\":5981:6122   */\n      iszero\n      tag_178\n      jumpi\n        /* \"#utility.yul\":6102:6120   */\n      tag_179\n      tag_165\n      jump\t// in\n    tag_179:\n        /* \"#utility.yul\":5981:6122   */\n    tag_178:\n        /* \"#utility.yul\":6306:6307   */\n      dup3\n        /* \"#utility.yul\":6238:6304   */\n      0x8000000000000000000000000000000000000000000000000000000000000000\n        /* \"#utility.yul\":6233:6308   */\n      sdiv\n        /* \"#utility.yul\":6230:6231   */\n      dup3\n        /* \"#utility.yul\":6226:6309   */\n      slt\n        /* \"#utility.yul\":6221:6222   */\n      0x00\n        /* \"#utility.yul\":6218:6219   */\n      dup5\n        /* \"#utility.yul\":6214:6223   */\n      sgt\n        /* \"#utility.yul\":6210:6211   */\n      0x00\n        /* \"#utility.yul\":6207:6208   */\n      dup5\n        /* \"#utility.yul\":6203:6212   */\n      slt\n        /* \"#utility.yul\":6199:6224   */\n      and\n        /* \"#utility.yul\":6195:6310   */\n      and\n        /* \"#utility.yul\":6192:6333   */\n      iszero\n      tag_180\n      jumpi\n        /* \"#utility.yul\":6313:6331   */\n      tag_181\n      tag_165\n      jump\t// in\n    tag_181:\n        /* \"#utility.yul\":6192:6333   */\n    tag_180:\n        /* \"#utility.yul\":6516:6517   */\n      dup3\n        /* \"#utility.yul\":6448:6514   */\n      0x7fffffffffffffffffffffffffffffffffffffffffffffffffffffffffffffff\n        /* \"#utility.yul\":6443:6518   */\n      sdiv\n        /* \"#utility.yul\":6440:6441   */\n      dup3\n        /* \"#utility.yul\":6436:6519   */\n      slt\n        /* \"#utility.yul\":6431:6432   */\n      0x00\n        /* \"#utility.yul\":6428:6429   */\n      dup5\n        /* \"#utility.yul\":6424:6433   */\n      slt\n        /* \"#utility.yul\":6420:6421   */\n      0x00\n        /* \"#utility.yul\":6417:6418   */\n      dup5\n        /* \"#utility.yul\":6413:6422   */\n      slt\n        /* \"#utility.yul\":6409:6434   */\n      and\n        /* \"#utility.yul\":6405:6520   */\n      and\n        /* \"#utility.yul\":6402:6543   */\n      iszero\n      tag_182\n      jumpi\n        /* \"#utility.yul\":6523:6541   */\n      tag_183\n      tag_165\n      jump\t// in\n    tag_183:\n        /* \"#utility.yul\":6402:6543   */\n    tag_182:\n        /* \"#utility.yul\":6571:6572   */\n      dup3\n        /* \"#utility.yul\":6568:6569   */\n      dup3\n        /* \"#utility.yul\":6564:6573   */\n      mul\n        /* \"#utility.yul\":6553:6573   */\n      swap1\n      pop\n        /* \"#utility.yul\":5588:6579   */\n      swap3\n      swap2\n      pop\n      pop\n      jump\t// out\n        /* \"#utility.yul\":6585:6933   */\n    tag_73:\n        /* \"#utility.yul\":6625:6632   */\n      0x00\n        /* \"#utility.yul\":6648:6668   */\n      tag_185\n        /* \"#utility.yul\":6666:6667   */\n      dup3\n        /* \"#utility.yul\":6648:6668   */\n      tag_147\n      jump\t// in\n    tag_185:\n        /* \"#utility.yul\":6643:6668   */\n      swap2\n      pop\n        /* \"#utility.yul\":6682:6702   */\n      tag_186\n        /* \"#utility.yul\":6700:6701   */\n      dup4\n        /* \"#utility.yul\":6682:6702   */\n      tag_147\n      jump\t// in\n    tag_186:\n        /* \"#utility.yul\":6677:6702   */\n      swap3\n      pop\n        /* \"#utility.yul\":6870:6871   */\n      dup2\n        /* \"#utility.yul\":6802:6868   */\n      0xffffffffffffffffffffffffffffffffffffffffffffffffffffffffffffffff\n        /* \"#utility.yul\":6798:6872   */\n      div\n        /* \"#utility.yul\":6795:6796   */\n      dup4\n        /* \"#utility.yul\":6792:6873   */\n      gt\n        /* \"#utility.yul\":6787:6788   */\n      dup3\n        /* \"#utility.yul\":6780:6789   */\n      iszero\n        /* \"#utility.yul\":6773:6790   */\n      iszero\n        /* \"#utility.yul\":6769:6874   */\n      and\n        /* \"#utility.yul\":6766:6897   */\n      iszero\n      tag_187\n      jumpi\n        /* \"#utility.yul\":6877:6895   */\n      tag_188\n      tag_165\n      jump\t// in\n    tag_188:\n        /* \"#utility.yul\":6766:6897   */\n    tag_187:\n        /* \"#utility.yul\":6925:6926   */\n      dup3\n        /* \"#utility.yul\":6922:6923   */\n      dup3\n        /* \"#utility.yul\":6918:6927   */\n      mul\n        /* \"#utility.yul\":6907:6927   */\n      swap1\n      pop\n        /* \"#utility.yul\":6585:6933   */\n      swap3\n      swap2\n      pop\n      pop\n      jump\t// out\n        /* \"#utility.yul\":6939:7035   */\n    tag_131:\n        /* \"#utility.yul\":6976:6983   */\n      0x00\n        /* \"#utility.yul\":7005:7029   */\n      tag_190\n        /* \"#utility.yul\":7023:7028   */\n      dup3\n        /* \"#utility.yul\":7005:7029   */\n      tag_191\n      jump\t// in\n    tag_190:\n        /* \"#utility.yul\":6994:7029   */\n      swap1\n      pop\n        /* \"#utility.yul\":6939:7035   */\n      swap2\n      swap1\n      pop\n      jump\t// out\n        /* \"#utility.yul\":7041:7117   */\n    tag_174:\n        /* \"#utility.yul\":7077:7084   */\n      0x00\n        /* \"#utility.yul\":7106:7111   */\n      dup2\n        /* \"#utility.yul\":7095:7111   */\n      swap1\n      pop\n        /* \"#utility.yul\":7041:7117   */\n      swap2\n      swap1\n      pop\n      jump\t// out\n        /* \"#utility.yul\":7123:7249   */\n    tag_191:\n        /* \"#utility.yul\":7160:7167   */\n      0x00\n        /* \"#utility.yul\":7200:7242   */\n      0xffffffffffffffffffffffffffffffffffffffff\n        /* \"#utility.yul\":7193:7198   */\n      dup3\n        /* \"#utility.yul\":7189:7243   */\n      and\n        /* \"#utility.yul\":7178:7243   */\n      swap1\n      pop\n        /* \"#utility.yul\":7123:7249   */\n      swap2\n      swap1\n      pop\n      jump\t// out\n        /* \"#utility.yul\":7255:7332   */\n    tag_147:\n        /* \"#utility.yul\":7292:7299   */\n      0x00\n        /* \"#utility.yul\":7321:7326   */\n      dup2\n        /* \"#utility.yul\":7310:7326   */\n      swap1\n      pop\n        /* \"#utility.yul\":7255:7332   */\n      swap2\n      swap1\n      pop\n      jump\t// out\n        /* \"#utility.yul\":7338:7443   */\n    tag_195:\n        /* \"#utility.yul\":7374:7381   */\n      0x00\n        /* \"#utility.yul\":7414:7436   */\n      0xffffffffffffffffffff\n        /* \"#utility.yul\":7407:7412   */\n      dup3\n        /* \"#utility.yul\":7403:7437   */\n      and\n        /* \"#utility.yul\":7392:7437   */\n      swap1\n      pop\n        /* \"#utility.yul\":7338:7443   */\n      swap2\n      swap1\n      pop\n      jump\t// out\n        /* \"#utility.yul\":7449:7682   */\n    tag_45:\n        /* \"#utility.yul\":7488:7491   */\n      0x00\n        /* \"#utility.yul\":7511:7535   */\n      tag_198\n        /* \"#utility.yul\":7529:7534   */\n      dup3\n        /* \"#utility.yul\":7511:7535   */\n      tag_147\n      jump\t// in\n    tag_198:\n        /* \"#utility.yul\":7502:7535   */\n      swap2\n      pop\n        /* \"#utility.yul\":7557:7623   */\n      0xffffffffffffffffffffffffffffffffffffffffffffffffffffffffffffffff\n        /* \"#utility.yul\":7550:7555   */\n      dup3\n        /* \"#utility.yul\":7547:7624   */\n      eq\n        /* \"#utility.yul\":7544:7647   */\n      iszero\n      tag_199\n      jumpi\n        /* \"#utility.yul\":7627:7645   */\n      tag_200\n      tag_165\n      jump\t// in\n    tag_200:\n        /* \"#utility.yul\":7544:7647   */\n    tag_199:\n        /* \"#utility.yul\":7674:7675   */\n      0x01\n        /* \"#utility.yul\":7667:7672   */\n      dup3\n        /* \"#utility.yul\":7663:7676   */\n      add\n        /* \"#utility.yul\":7656:7676   */\n      swap1\n      pop\n        /* \"#utility.yul\":7449:7682   */\n      swap2\n      swap1\n      pop\n      jump\t// out\n        /* \"#utility.yul\":7688:7868   */\n    tag_165:\n        /* \"#utility.yul\":7736:7813   */\n      0x4e487b7100000000000000000000000000000000000000000000000000000000\n        /* \"#utility.yul\":7733:7734   */\n      0x00\n        /* \"#utility.yul\":7726:7814   */\n      mstore\n        /* \"#utility.yul\":7833:7837   */\n      0x11\n        /* \"#utility.yul\":7830:7831   */\n      0x04\n        /* \"#utility.yul\":7823:7838   */\n      mstore\n        /* \"#utility.yul\":7857:7861   */\n      0x24\n        /* \"#utility.yul\":7854:7855   */\n      0x00\n        /* \"#utility.yul\":7847:7862   */\n      revert\n        /* \"#utility.yul\":7874:8054   */\n    tag_171:\n        /* \"#utility.yul\":7922:7999   */\n      0x4e487b7100000000000000000000000000000000000000000000000000000000\n        /* \"#utility.yul\":7919:7920   */\n      0x00\n        /* \"#utility.yul\":7912:8000   */\n      mstore\n        /* \"#utility.yul\":8019:8023   */\n      0x12\n        /* \"#utility.yul\":8016:8017   */\n      0x04\n        /* \"#utility.yul\":8009:8024   */\n      mstore\n        /* \"#utility.yul\":8043:8047   */\n      0x24\n        /* \"#utility.yul\":8040:8041   */\n      0x00\n        /* \"#utility.yul\":8033:8048   */\n      revert\n        /* \"#utility.yul\":8060:8240   */\n    tag_42:\n        /* \"#utility.yul\":8108:8185   */\n      0x4e487b7100000000000000000000000000000000000000000000000000000000\n        /* \"#utility.yul\":8105:8106   */\n      0x00\n        /* \"#utility.yul\":8098:8186   */\n      mstore\n        /* \"#utility.yul\":8205:8209   */\n      0x32\n        /* \"#utility.yul\":8202:8203   */\n      0x04\n        /* \"#utility.yul\":8195:8210   */\n      mstore\n        /* \"#utility.yul\":8229:8233   */\n      0x24\n        /* \"#utility.yul\":8226:8227   */\n      0x00\n        /* \"#utility.yul\":8219:8234   */\n      revert\n        /* \"#utility.yul\":8246:8426   */\n    tag_48:\n        /* \"#utility.yul\":8294:8371   */\n      0x4e487b7100000000000000000000000000000000000000000000000000000000\n        /* \"#utility.yul\":8291:8292   */\n      0x00\n        /* \"#utility.yul\":8284:8372   */\n      mstore\n        /* \"#utility.yul\":8391:8395   */\n      0x41\n        /* \"#utility.yul\":8388:8389   */\n      0x04\n        /* \"#utility.yul\":8381:8396   */\n      mstore\n        /* \"#utility.yul\":8415:8419   */\n      0x24\n        /* \"#utility.yul\":8412:8413   */\n      0x00\n        /* \"#utility.yul\":8405:8420   */\n      revert\n        /* \"#utility.yul\":8555:8672   */\n    tag_114:\n        /* \"#utility.yul\":8664:8665   */\n      0x00\n        /* \"#utility.yul\":8661:8662   */\n      dup1\n        /* \"#utility.yul\":8654:8666   */\n      revert\n        /* \"#utility.yul\":8678:8839   */\n    tag_137:\n        /* \"#utility.yul\":8818:8831   */\n      0x43616c6c206661696c6564000000000000000000000000000000000000000000\n        /* \"#utility.yul\":8814:8815   */\n      0x00\n        /* \"#utility.yul\":8806:8812   */\n      dup3\n        /* \"#utility.yul\":8802:8816   */\n      add\n        /* \"#utility.yul\":8795:8832   */\n      mstore\n        /* \"#utility.yul\":8678:8839   */\n      pop\n      jump\t// out\n        /* \"#utility.yul\":8845:8959   */\n    tag_143:\n      pop\n      jump\t// out\n        /* \"#utility.yul\":8965:9087   */\n    tag_95:\n        /* \"#utility.yul\":9038:9062   */\n      tag_211\n        /* \"#utility.yul\":9056:9061   */\n      dup2\n        /* \"#utility.yul\":9038:9062   */\n      tag_131\n      jump\t// in\n    tag_211:\n        /* \"#utility.yul\":9031:9036   */\n      dup2\n        /* \"#utility.yul\":9028:9063   */\n      eq\n        /* \"#utility.yul\":9018:9081   */\n      tag_212\n      jumpi\n        /* \"#utility.yul\":9077:9078   */\n      0x00\n        /* \"#utility.yul\":9074:9075   */\n      dup1\n        /* \"#utility.yul\":9067:9079   */\n      revert\n        /* \"#utility.yul\":9018:9081   */\n    tag_212:\n        /* \"#utility.yul\":8965:9087   */\n      pop\n      jump\t// out\n        /* \"#utility.yul\":9093:9213   */\n    tag_99:\n        /* \"#utility.yul\":9165:9188   */\n      tag_214\n        /* \"#utility.yul\":9182:9187   */\n      dup2\n        /* \"#utility.yul\":9165:9188   */\n      tag_174\n      jump\t// in\n    tag_214:\n        /* \"#utility.yul\":9158:9163   */\n      dup2\n        /* \"#utility.yul\":9155:9189   */\n      eq\n        /* \"#utility.yul\":9145:9207   */\n      tag_215\n      jumpi\n        /* \"#utility.yul\":9203:9204   */\n      0x00\n        /* \"#utility.yul\":9200:9201   */\n      dup1\n        /* \"#utility.yul\":9193:9205   */\n      revert\n        /* \"#utility.yul\":9145:9207   */\n    tag_215:\n        /* \"#utility.yul\":9093:9213   */\n      pop\n      jump\t// out\n        /* \"#utility.yul\":9219:9341   */\n    tag_103:\n        /* \"#utility.yul\":9292:9316   */\n      tag_217\n        /* \"#utility.yul\":9310:9315   */\n      dup2\n        /* \"#utility.yul\":9292:9316   */\n      tag_147\n      jump\t// in\n    tag_217:\n        /* \"#utility.yul\":9285:9290   */\n      dup2\n        /* \"#utility.yul\":9282:9317   */\n      eq\n        /* \"#utility.yul\":9272:9335   */\n      tag_218\n      jumpi\n        /* \"#utility.yul\":9331:9332   */\n      0x00\n        /* \"#utility.yul\":9328:9329   */\n      dup1\n        /* \"#utility.yul\":9321:9333   */\n      revert\n        /* \"#utility.yul\":9272:9335   */\n    tag_218:\n        /* \"#utility.yul\":9219:9341   */\n      pop\n      jump\t// out\n        /* \"#utility.yul\":9347:9467   */\n    tag_110:\n        /* \"#utility.yul\":9419:9442   */\n      tag_220\n        /* \"#utility.yul\":9436:9441   */\n      dup2\n        /* \"#utility.yul\":9419:9442   */\n      tag_195\n      jump\t// in\n    tag_220:\n        /* \"#utility.yul\":9412:9417   */\n      dup2\n        /* \"#utility.yul\":9409:9443   */\n      eq\n        /* \"#utility.yul\":9399:9461   */\n      tag_221\n      jumpi\n        /* \"#utility.yul\":9457:9458   */\n      0x00\n        /* \"#utility.yul\":9454:9455   */\n      dup1\n        /* \"#utility.yul\":9447:9459   */\n      revert\n        /* \"#utility.yul\":9399:9461   */\n    tag_221:\n        /* \"#utility.yul\":9347:9467   */\n      pop\n      jump\t// out\n\n    auxdata: 0xa264697066735822122037ffcf22985a9dfa4e47d08b8b1476bb01dae5e99f186c1421edbd7456338a4764736f6c63430008070033\n}\n",
				"bytecode": {
					"linkReferences": {},
					"object": "608060405234801561001057600080fd5b5033600260006101000a81548173ffffffffffffffffffffffffffffffffffffffff021916908373ffffffffffffffffffffffffffffffffffffffff160217905550610cc1806100616000396000f3fe6080604052600436106100555760003560e01c80633e47d6f31461005a57806352b50a2a146100975780636b69a592146100a15780638da5cb5b146100cc578063b60d4288146100f7578063dc0d3dff14610101575b600080fd5b34801561006657600080fd5b50610081600480360381019061007c91906106e5565b61013e565b60405161008e919061086e565b60405180910390f35b61009f610156565b005b3480156100ad57600080fd5b506100b6610398565b6040516100c3919061086e565b60405180910390f35b3480156100d857600080fd5b506100e16103a5565b6040516100ee9190610833565b60405180910390f35b6100ff6103cb565b005b34801561010d57600080fd5b5061012860048036038101906101239190610712565b6104a4565b6040516101359190610833565b60405180910390f35b60016020528060005260406000206000915090505481565b600260009054906101000a900473ffffffffffffffffffffffffffffffffffffffff1673ffffffffffffffffffffffffffffffffffffffff163373ffffffffffffffffffffffffffffffffffffffff16146101dd576040517f30cd747100000000000000000000000000000000000000000000000000000000815260040160405180910390fd5b60005b60008054905081101561028857600080828154811061020257610201610ba0565b5b9060005260206000200160009054906101000a900473ffffffffffffffffffffffffffffffffffffffff1690506000600160008373ffffffffffffffffffffffffffffffffffffffff1673ffffffffffffffffffffffffffffffffffffffff1681526020019081526020016000208190555050808061028090610af9565b9150506101e0565b50600067ffffffffffffffff8111156102a4576102a3610bcf565b5b6040519080825280602002602001820160405280156102d25781602001602082028036833780820191505090505b50600090805190602001906102e89291906105d5565b5060003373ffffffffffffffffffffffffffffffffffffffff164760405161030f9061081e565b60006040518083038185875af1925050503d806000811461034c576040519150601f19603f3d011682016040523d82523d6000602084013e610351565b606091505b5050905080610395576040517f08c379a000000000000000000000000000000000000000000000000000000000815260040161038c9061084e565b60405180910390fd5b50565b6802b5e3af16b188000081565b600260009054906101000a900473ffffffffffffffffffffffffffffffffffffffff1681565b6802b5e3af16b18800006103de346104e3565b10156103e957600080fd5b34600160003373ffffffffffffffffffffffffffffffffffffffff1673ffffffffffffffffffffffffffffffffffffffff168152602001908152602001600020600082825461043891906108a5565b925050819055506000339080600181540180825580915050600190039060005260206000200160009091909190916101000a81548173ffffffffffffffffffffffffffffffffffffffff021916908373ffffffffffffffffffffffffffffffffffffffff160217905550565b600081815481106104b457600080fd5b906000526020600020016000915054906101000a900473ffffffffffffffffffffffffffffffffffffffff1681565b6000806104ee61051d565b90506000670de0b6b3a764000084836105079190610a43565b61051191906108fb565b90508092505050919050565b600080738a753747a1fa494ec906ce90e9f37563a8af630e905060008173ffffffffffffffffffffffffffffffffffffffff1663feaf968c6040518163ffffffff1660e01b815260040160a06040518083038186803b15801561057f57600080fd5b505afa158015610593573d6000803e3d6000fd5b505050506040513d601f19601f820116820180604052508101906105b7919061073f565b5050509150506402540be400816105ce919061092c565b9250505090565b82805482825590600052602060002090810192821561064e579160200282015b8281111561064d5782518260006101000a81548173ffffffffffffffffffffffffffffffffffffffff021916908373ffffffffffffffffffffffffffffffffffffffff160217905550916020019190600101906105f5565b5b50905061065b919061065f565b5090565b5b80821115610678576000816000905550600101610660565b5090565b60008135905061068b81610c2f565b92915050565b6000815190506106a081610c46565b92915050565b6000813590506106b581610c5d565b92915050565b6000815190506106ca81610c5d565b92915050565b6000815190506106df81610c74565b92915050565b6000602082840312156106fb576106fa610bfe565b5b60006107098482850161067c565b91505092915050565b60006020828403121561072857610727610bfe565b5b6000610736848285016106a6565b91505092915050565b600080600080600060a0868803121561075b5761075a610bfe565b5b6000610769888289016106d0565b955050602061077a88828901610691565b945050604061078b888289016106bb565b935050606061079c888289016106bb565b92505060806107ad888289016106d0565b9150509295509295909350565b6107c381610a9d565b82525050565b60006107d6600b83610894565b91506107e182610c03565b602082019050919050565b60006107f9600083610889565b915061080482610c2c565b600082019050919050565b61081881610ad9565b82525050565b6000610829826107ec565b9150819050919050565b600060208201905061084860008301846107ba565b92915050565b60006020820190508181036000830152610867816107c9565b9050919050565b6000602082019050610883600083018461080f565b92915050565b600081905092915050565b600082825260208201905092915050565b60006108b082610ad9565b91506108bb83610ad9565b9250827fffffffffffffffffffffffffffffffffffffffffffffffffffffffffffffffff038211156108f0576108ef610b42565b5b828201905092915050565b600061090682610ad9565b915061091183610ad9565b92508261092157610920610b71565b5b828204905092915050565b600061093782610aaf565b915061094283610aaf565b9250827f7fffffffffffffffffffffffffffffffffffffffffffffffffffffffffffffff048211600084136000841316161561098157610980610b42565b5b817f800000000000000000000000000000000000000000000000000000000000000005831260008412600084131616156109be576109bd610b42565b5b827f800000000000000000000000000000000000000000000000000000000000000005821260008413600084121616156109fb576109fa610b42565b5b827f7fffffffffffffffffffffffffffffffffffffffffffffffffffffffffffffff0582126000841260008412161615610a3857610a37610b42565b5b828202905092915050565b6000610a4e82610ad9565b9150610a5983610ad9565b9250817fffffffffffffffffffffffffffffffffffffffffffffffffffffffffffffffff0483118215151615610a9257610a91610b42565b5b828202905092915050565b6000610aa882610ab9565b9050919050565b6000819050919050565b600073ffffffffffffffffffffffffffffffffffffffff82169050919050565b6000819050919050565b600069ffffffffffffffffffff82169050919050565b6000610b0482610ad9565b91507fffffffffffffffffffffffffffffffffffffffffffffffffffffffffffffffff821415610b3757610b36610b42565b5b600182019050919050565b7f4e487b7100000000000000000000000000000000000000000000000000000000600052601160045260246000fd5b7f4e487b7100000000000000000000000000000000000000000000000000000000600052601260045260246000fd5b7f4e487b7100000000000000000000000000000000000000000000000000000000600052603260045260246000fd5b7f4e487b7100000000000000000000000000000000000000000000000000000000600052604160045260246000fd5b600080fd5b7f43616c6c206661696c6564000000000000000000000000000000000000000000600082015250565b50565b610c3881610a9d565b8114610c4357600080fd5b50565b610c4f81610aaf565b8114610c5a57600080fd5b50565b610c6681610ad9565b8114610c7157600080fd5b50565b610c7d81610ae3565b8114610c8857600080fd5b5056fea264697066735822122037ffcf22985a9dfa4e47d08b8b1476bb01dae5e99f186c1421edbd7456338a4764736f6c63430008070033",
					"opcodes": "PUSH1 0x80 PUSH1 0x40 MSTORE CALLVALUE DUP1 ISZERO PUSH2 0x10 JUMPI PUSH1 0x0 DUP1 REVERT JUMPDEST POP CALLER PUSH1 0x2 PUSH1 0x0 PUSH2 0x100 EXP DUP2 SLOAD DUP2 PUSH20 0xFFFFFFFFFFFFFFFFFFFFFFFFFFFFFFFFFFFFFFFF MUL NOT AND SWAP1 DUP4 PUSH20 0xFFFFFFFFFFFFFFFFFFFFFFFFFFFFFFFFFFFFFFFF AND MUL OR SWAP1 SSTORE POP PUSH2 0xCC1 DUP1 PUSH2 0x61 PUSH1 0x0 CODECOPY PUSH1 0x0 RETURN INVALID PUSH1 0x80 PUSH1 0x40 MSTORE PUSH1 0x4 CALLDATASIZE LT PUSH2 0x55 JUMPI PUSH1 0x0 CALLDATALOAD PUSH1 0xE0 SHR DUP1 PUSH4 0x3E47D6F3 EQ PUSH2 0x5A JUMPI DUP1 PUSH4 0x52B50A2A EQ PUSH2 0x97 JUMPI DUP1 PUSH4 0x6B69A592 EQ PUSH2 0xA1 JUMPI DUP1 PUSH4 0x8DA5CB5B EQ PUSH2 0xCC JUMPI DUP1 PUSH4 0xB60D4288 EQ PUSH2 0xF7 JUMPI DUP1 PUSH4 0xDC0D3DFF EQ PUSH2 0x101 JUMPI JUMPDEST PUSH1 0x0 DUP1 REVERT JUMPDEST CALLVALUE DUP1 ISZERO PUSH2 0x66 JUMPI PUSH1 0x0 DUP1 REVERT JUMPDEST POP PUSH2 0x81 PUSH1 0x4 DUP1 CALLDATASIZE SUB DUP2 ADD SWAP1 PUSH2 0x7C SWAP2 SWAP1 PUSH2 0x6E5 JUMP JUMPDEST PUSH2 0x13E JUMP JUMPDEST PUSH1 0x40 MLOAD PUSH2 0x8E SWAP2 SWAP1 PUSH2 0x86E JUMP JUMPDEST PUSH1 0x40 MLOAD DUP1 SWAP2 SUB SWAP1 RETURN JUMPDEST PUSH2 0x9F PUSH2 0x156 JUMP JUMPDEST STOP JUMPDEST CALLVALUE DUP1 ISZERO PUSH2 0xAD JUMPI PUSH1 0x0 DUP1 REVERT JUMPDEST POP PUSH2 0xB6 PUSH2 0x398 JUMP JUMPDEST PUSH1 0x40 MLOAD PUSH2 0xC3 SWAP2 SWAP1 PUSH2 0x86E JUMP JUMPDEST PUSH1 0x40 MLOAD DUP1 SWAP2 SUB SWAP1 RETURN JUMPDEST CALLVALUE DUP1 ISZERO PUSH2 0xD8 JUMPI PUSH1 0x0 DUP1 REVERT JUMPDEST POP PUSH2 0xE1 PUSH2 0x3A5 JUMP JUMPDEST PUSH1 0x40 MLOAD PUSH2 0xEE SWAP2 SWAP1 PUSH2 0x833 JUMP JUMPDEST PUSH1 0x40 MLOAD DUP1 SWAP2 SUB SWAP1 RETURN JUMPDEST PUSH2 0xFF PUSH2 0x3CB JUMP JUMPDEST STOP JUMPDEST CALLVALUE DUP1 ISZERO PUSH2 0x10D JUMPI PUSH1 0x0 DUP1 REVERT JUMPDEST POP PUSH2 0x128 PUSH1 0x4 DUP1 CALLDATASIZE SUB DUP2 ADD SWAP1 PUSH2 0x123 SWAP2 SWAP1 PUSH2 0x712 JUMP JUMPDEST PUSH2 0x4A4 JUMP JUMPDEST PUSH1 0x40 MLOAD PUSH2 0x135 SWAP2 SWAP1 PUSH2 0x833 JUMP JUMPDEST PUSH1 0x40 MLOAD DUP1 SWAP2 SUB SWAP1 RETURN JUMPDEST PUSH1 0x1 PUSH1 0x20 MSTORE DUP1 PUSH1 0x0 MSTORE PUSH1 0x40 PUSH1 0x0 KECCAK256 PUSH1 0x0 SWAP2 POP SWAP1 POP SLOAD DUP2 JUMP JUMPDEST PUSH1 0x2 PUSH1 0x0 SWAP1 SLOAD SWAP1 PUSH2 0x100 EXP SWAP1 DIV PUSH20 0xFFFFFFFFFFFFFFFFFFFFFFFFFFFFFFFFFFFFFFFF AND PUSH20 0xFFFFFFFFFFFFFFFFFFFFFFFFFFFFFFFFFFFFFFFF AND CALLER PUSH20 0xFFFFFFFFFFFFFFFFFFFFFFFFFFFFFFFFFFFFFFFF AND EQ PUSH2 0x1DD JUMPI PUSH1 0x40 MLOAD PUSH32 0x30CD747100000000000000000000000000000000000000000000000000000000 DUP2 MSTORE PUSH1 0x4 ADD PUSH1 0x40 MLOAD DUP1 SWAP2 SUB SWAP1 REVERT JUMPDEST PUSH1 0x0 JUMPDEST PUSH1 0x0 DUP1 SLOAD SWAP1 POP DUP2 LT ISZERO PUSH2 0x288 JUMPI PUSH1 0x0 DUP1 DUP3 DUP2 SLOAD DUP2 LT PUSH2 0x202 JUMPI PUSH2 0x201 PUSH2 0xBA0 JUMP JUMPDEST JUMPDEST SWAP1 PUSH1 0x0 MSTORE PUSH1 0x20 PUSH1 0x0 KECCAK256 ADD PUSH1 0x0 SWAP1 SLOAD SWAP1 PUSH2 0x100 EXP SWAP1 DIV PUSH20 0xFFFFFFFFFFFFFFFFFFFFFFFFFFFFFFFFFFFFFFFF AND SWAP1 POP PUSH1 0x0 PUSH1 0x1 PUSH1 0x0 DUP4 PUSH20 0xFFFFFFFFFFFFFFFFFFFFFFFFFFFFFFFFFFFFFFFF AND PUSH20 0xFFFFFFFFFFFFFFFFFFFFFFFFFFFFFFFFFFFFFFFF AND DUP2 MSTORE PUSH1 0x20 ADD SWAP1 DUP2 MSTORE PUSH1 0x20 ADD PUSH1 0x0 KECCAK256 DUP2 SWAP1 SSTORE POP POP DUP1 DUP1 PUSH2 0x280 SWAP1 PUSH2 0xAF9 JUMP JUMPDEST SWAP2 POP POP PUSH2 0x1E0 JUMP JUMPDEST POP PUSH1 0x0 PUSH8 0xFFFFFFFFFFFFFFFF DUP2 GT ISZERO PUSH2 0x2A4 JUMPI PUSH2 0x2A3 PUSH2 0xBCF JUMP JUMPDEST JUMPDEST PUSH1 0x40 MLOAD SWAP1 DUP1 DUP3 MSTORE DUP1 PUSH1 0x20 MUL PUSH1 0x20 ADD DUP3 ADD PUSH1 0x40 MSTORE DUP1 ISZERO PUSH2 0x2D2 JUMPI DUP2 PUSH1 0x20 ADD PUSH1 0x20 DUP3 MUL DUP1 CALLDATASIZE DUP4 CALLDATACOPY DUP1 DUP3 ADD SWAP2 POP POP SWAP1 POP JUMPDEST POP PUSH1 0x0 SWAP1 DUP1 MLOAD SWAP1 PUSH1 0x20 ADD SWAP1 PUSH2 0x2E8 SWAP3 SWAP2 SWAP1 PUSH2 0x5D5 JUMP JUMPDEST POP PUSH1 0x0 CALLER PUSH20 0xFFFFFFFFFFFFFFFFFFFFFFFFFFFFFFFFFFFFFFFF AND SELFBALANCE PUSH1 0x40 MLOAD PUSH2 0x30F SWAP1 PUSH2 0x81E JUMP JUMPDEST PUSH1 0x0 PUSH1 0x40 MLOAD DUP1 DUP4 SUB DUP2 DUP6 DUP8 GAS CALL SWAP3 POP POP POP RETURNDATASIZE DUP1 PUSH1 0x0 DUP2 EQ PUSH2 0x34C JUMPI PUSH1 0x40 MLOAD SWAP2 POP PUSH1 0x1F NOT PUSH1 0x3F RETURNDATASIZE ADD AND DUP3 ADD PUSH1 0x40 MSTORE RETURNDATASIZE DUP3 MSTORE RETURNDATASIZE PUSH1 0x0 PUSH1 0x20 DUP5 ADD RETURNDATACOPY PUSH2 0x351 JUMP JUMPDEST PUSH1 0x60 SWAP2 POP JUMPDEST POP POP SWAP1 POP DUP1 PUSH2 0x395 JUMPI PUSH1 0x40 MLOAD PUSH32 0x8C379A000000000000000000000000000000000000000000000000000000000 DUP2 MSTORE PUSH1 0x4 ADD PUSH2 0x38C SWAP1 PUSH2 0x84E JUMP JUMPDEST PUSH1 0x40 MLOAD DUP1 SWAP2 SUB SWAP1 REVERT JUMPDEST POP JUMP JUMPDEST PUSH9 0x2B5E3AF16B1880000 DUP2 JUMP JUMPDEST PUSH1 0x2 PUSH1 0x0 SWAP1 SLOAD SWAP1 PUSH2 0x100 EXP SWAP1 DIV PUSH20 0xFFFFFFFFFFFFFFFFFFFFFFFFFFFFFFFFFFFFFFFF AND DUP2 JUMP JUMPDEST PUSH9 0x2B5E3AF16B1880000 PUSH2 0x3DE CALLVALUE PUSH2 0x4E3 JUMP JUMPDEST LT ISZERO PUSH2 0x3E9 JUMPI PUSH1 0x0 DUP1 REVERT JUMPDEST CALLVALUE PUSH1 0x1 PUSH1 0x0 CALLER PUSH20 0xFFFFFFFFFFFFFFFFFFFFFFFFFFFFFFFFFFFFFFFF AND PUSH20 0xFFFFFFFFFFFFFFFFFFFFFFFFFFFFFFFFFFFFFFFF AND DUP2 MSTORE PUSH1 0x20 ADD SWAP1 DUP2 MSTORE PUSH1 0x20 ADD PUSH1 0x0 KECCAK256 PUSH1 0x0 DUP3 DUP3 SLOAD PUSH2 0x438 SWAP2 SWAP1 PUSH2 0x8A5 JUMP JUMPDEST SWAP3 POP POP DUP2 SWAP1 SSTORE POP PUSH1 0x0 CALLER SWAP1 DUP1 PUSH1 0x1 DUP2 SLOAD ADD DUP1 DUP3 SSTORE DUP1 SWAP2 POP POP PUSH1 0x1 SWAP1 SUB SWAP1 PUSH1 0x0 MSTORE PUSH1 0x20 PUSH1 0x0 KECCAK256 ADD PUSH1 0x0 SWAP1 SWAP2 SWAP1 SWAP2 SWAP1 SWAP2 PUSH2 0x100 EXP DUP2 SLOAD DUP2 PUSH20 0xFFFFFFFFFFFFFFFFFFFFFFFFFFFFFFFFFFFFFFFF MUL NOT AND SWAP1 DUP4 PUSH20 0xFFFFFFFFFFFFFFFFFFFFFFFFFFFFFFFFFFFFFFFF AND MUL OR SWAP1 SSTORE POP JUMP JUMPDEST PUSH1 0x0 DUP2 DUP2 SLOAD DUP2 LT PUSH2 0x4B4 JUMPI PUSH1 0x0 DUP1 REVERT JUMPDEST SWAP1 PUSH1 0x0 MSTORE PUSH1 0x20 PUSH1 0x0 KECCAK256 ADD PUSH1 0x0 SWAP2 POP SLOAD SWAP1 PUSH2 0x100 EXP SWAP1 DIV PUSH20 0xFFFFFFFFFFFFFFFFFFFFFFFFFFFFFFFFFFFFFFFF AND DUP2 JUMP JUMPDEST PUSH1 0x0 DUP1 PUSH2 0x4EE PUSH2 0x51D JUMP JUMPDEST SWAP1 POP PUSH1 0x0 PUSH8 0xDE0B6B3A7640000 DUP5 DUP4 PUSH2 0x507 SWAP2 SWAP1 PUSH2 0xA43 JUMP JUMPDEST PUSH2 0x511 SWAP2 SWAP1 PUSH2 0x8FB JUMP JUMPDEST SWAP1 POP DUP1 SWAP3 POP POP POP SWAP2 SWAP1 POP JUMP JUMPDEST PUSH1 0x0 DUP1 PUSH20 0x8A753747A1FA494EC906CE90E9F37563A8AF630E SWAP1 POP PUSH1 0x0 DUP2 PUSH20 0xFFFFFFFFFFFFFFFFFFFFFFFFFFFFFFFFFFFFFFFF AND PUSH4 0xFEAF968C PUSH1 0x40 MLOAD DUP2 PUSH4 0xFFFFFFFF AND PUSH1 0xE0 SHL DUP2 MSTORE PUSH1 0x4 ADD PUSH1 0xA0 PUSH1 0x40 MLOAD DUP1 DUP4 SUB DUP2 DUP7 DUP1 EXTCODESIZE ISZERO DUP1 ISZERO PUSH2 0x57F JUMPI PUSH1 0x0 DUP1 REVERT JUMPDEST POP GAS STATICCALL ISZERO DUP1 ISZERO PUSH2 0x593 JUMPI RETURNDATASIZE PUSH1 0x0 DUP1 RETURNDATACOPY RETURNDATASIZE PUSH1 0x0 REVERT JUMPDEST POP POP POP POP PUSH1 0x40 MLOAD RETURNDATASIZE PUSH1 0x1F NOT PUSH1 0x1F DUP3 ADD AND DUP3 ADD DUP1 PUSH1 0x40 MSTORE POP DUP2 ADD SWAP1 PUSH2 0x5B7 SWAP2 SWAP1 PUSH2 0x73F JUMP JUMPDEST POP POP POP SWAP2 POP POP PUSH5 0x2540BE400 DUP2 PUSH2 0x5CE SWAP2 SWAP1 PUSH2 0x92C JUMP JUMPDEST SWAP3 POP POP POP SWAP1 JUMP JUMPDEST DUP3 DUP1 SLOAD DUP3 DUP3 SSTORE SWAP1 PUSH1 0x0 MSTORE PUSH1 0x20 PUSH1 0x0 KECCAK256 SWAP1 DUP2 ADD SWAP3 DUP3 ISZERO PUSH2 0x64E JUMPI SWAP2 PUSH1 0x20 MUL DUP3 ADD JUMPDEST DUP3 DUP2 GT ISZERO PUSH2 0x64D JUMPI DUP3 MLOAD DUP3 PUSH1 0x0 PUSH2 0x100 EXP DUP2 SLOAD DUP2 PUSH20 0xFFFFFFFFFFFFFFFFFFFFFFFFFFFFFFFFFFFFFFFF MUL NOT AND SWAP1 DUP4 PUSH20 0xFFFFFFFFFFFFFFFFFFFFFFFFFFFFFFFFFFFFFFFF AND MUL OR SWAP1 SSTORE POP SWAP2 PUSH1 0x20 ADD SWAP2 SWAP1 PUSH1 0x1 ADD SWAP1 PUSH2 0x5F5 JUMP JUMPDEST JUMPDEST POP SWAP1 POP PUSH2 0x65B SWAP2 SWAP1 PUSH2 0x65F JUMP JUMPDEST POP SWAP1 JUMP JUMPDEST JUMPDEST DUP1 DUP3 GT ISZERO PUSH2 0x678 JUMPI PUSH1 0x0 DUP2 PUSH1 0x0 SWAP1 SSTORE POP PUSH1 0x1 ADD PUSH2 0x660 JUMP JUMPDEST POP SWAP1 JUMP JUMPDEST PUSH1 0x0 DUP2 CALLDATALOAD SWAP1 POP PUSH2 0x68B DUP2 PUSH2 0xC2F JUMP JUMPDEST SWAP3 SWAP2 POP POP JUMP JUMPDEST PUSH1 0x0 DUP2 MLOAD SWAP1 POP PUSH2 0x6A0 DUP2 PUSH2 0xC46 JUMP JUMPDEST SWAP3 SWAP2 POP POP JUMP JUMPDEST PUSH1 0x0 DUP2 CALLDATALOAD SWAP1 POP PUSH2 0x6B5 DUP2 PUSH2 0xC5D JUMP JUMPDEST SWAP3 SWAP2 POP POP JUMP JUMPDEST PUSH1 0x0 DUP2 MLOAD SWAP1 POP PUSH2 0x6CA DUP2 PUSH2 0xC5D JUMP JUMPDEST SWAP3 SWAP2 POP POP JUMP JUMPDEST PUSH1 0x0 DUP2 MLOAD SWAP1 POP PUSH2 0x6DF DUP2 PUSH2 0xC74 JUMP JUMPDEST SWAP3 SWAP2 POP POP JUMP JUMPDEST PUSH1 0x0 PUSH1 0x20 DUP3 DUP5 SUB SLT ISZERO PUSH2 0x6FB JUMPI PUSH2 0x6FA PUSH2 0xBFE JUMP JUMPDEST JUMPDEST PUSH1 0x0 PUSH2 0x709 DUP5 DUP3 DUP6 ADD PUSH2 0x67C JUMP JUMPDEST SWAP2 POP POP SWAP3 SWAP2 POP POP JUMP JUMPDEST PUSH1 0x0 PUSH1 0x20 DUP3 DUP5 SUB SLT ISZERO PUSH2 0x728 JUMPI PUSH2 0x727 PUSH2 0xBFE JUMP JUMPDEST JUMPDEST PUSH1 0x0 PUSH2 0x736 DUP5 DUP3 DUP6 ADD PUSH2 0x6A6 JUMP JUMPDEST SWAP2 POP POP SWAP3 SWAP2 POP POP JUMP JUMPDEST PUSH1 0x0 DUP1 PUSH1 0x0 DUP1 PUSH1 0x0 PUSH1 0xA0 DUP7 DUP9 SUB SLT ISZERO PUSH2 0x75B JUMPI PUSH2 0x75A PUSH2 0xBFE JUMP JUMPDEST JUMPDEST PUSH1 0x0 PUSH2 0x769 DUP9 DUP3 DUP10 ADD PUSH2 0x6D0 JUMP JUMPDEST SWAP6 POP POP PUSH1 0x20 PUSH2 0x77A DUP9 DUP3 DUP10 ADD PUSH2 0x691 JUMP JUMPDEST SWAP5 POP POP PUSH1 0x40 PUSH2 0x78B DUP9 DUP3 DUP10 ADD PUSH2 0x6BB JUMP JUMPDEST SWAP4 POP POP PUSH1 0x60 PUSH2 0x79C DUP9 DUP3 DUP10 ADD PUSH2 0x6BB JUMP JUMPDEST SWAP3 POP POP PUSH1 0x80 PUSH2 0x7AD DUP9 DUP3 DUP10 ADD PUSH2 0x6D0 JUMP JUMPDEST SWAP2 POP POP SWAP3 SWAP6 POP SWAP3 SWAP6 SWAP1 SWAP4 POP JUMP JUMPDEST PUSH2 0x7C3 DUP2 PUSH2 0xA9D JUMP JUMPDEST DUP3 MSTORE POP POP JUMP JUMPDEST PUSH1 0x0 PUSH2 0x7D6 PUSH1 0xB DUP4 PUSH2 0x894 JUMP JUMPDEST SWAP2 POP PUSH2 0x7E1 DUP3 PUSH2 0xC03 JUMP JUMPDEST PUSH1 0x20 DUP3 ADD SWAP1 POP SWAP2 SWAP1 POP JUMP JUMPDEST PUSH1 0x0 PUSH2 0x7F9 PUSH1 0x0 DUP4 PUSH2 0x889 JUMP JUMPDEST SWAP2 POP PUSH2 0x804 DUP3 PUSH2 0xC2C JUMP JUMPDEST PUSH1 0x0 DUP3 ADD SWAP1 POP SWAP2 SWAP1 POP JUMP JUMPDEST PUSH2 0x818 DUP2 PUSH2 0xAD9 JUMP JUMPDEST DUP3 MSTORE POP POP JUMP JUMPDEST PUSH1 0x0 PUSH2 0x829 DUP3 PUSH2 0x7EC JUMP JUMPDEST SWAP2 POP DUP2 SWAP1 POP SWAP2 SWAP1 POP JUMP JUMPDEST PUSH1 0x0 PUSH1 0x20 DUP3 ADD SWAP1 POP PUSH2 0x848 PUSH1 0x0 DUP4 ADD DUP5 PUSH2 0x7BA JUMP JUMPDEST SWAP3 SWAP2 POP POP JUMP JUMPDEST PUSH1 0x0 PUSH1 0x20 DUP3 ADD SWAP1 POP DUP2 DUP2 SUB PUSH1 0x0 DUP4 ADD MSTORE PUSH2 0x867 DUP2 PUSH2 0x7C9 JUMP JUMPDEST SWAP1 POP SWAP2 SWAP1 POP JUMP JUMPDEST PUSH1 0x0 PUSH1 0x20 DUP3 ADD SWAP1 POP PUSH2 0x883 PUSH1 0x0 DUP4 ADD DUP5 PUSH2 0x80F JUMP JUMPDEST SWAP3 SWAP2 POP POP JUMP JUMPDEST PUSH1 0x0 DUP2 SWAP1 POP SWAP3 SWAP2 POP POP JUMP JUMPDEST PUSH1 0x0 DUP3 DUP3 MSTORE PUSH1 0x20 DUP3 ADD SWAP1 POP SWAP3 SWAP2 POP POP JUMP JUMPDEST PUSH1 0x0 PUSH2 0x8B0 DUP3 PUSH2 0xAD9 JUMP JUMPDEST SWAP2 POP PUSH2 0x8BB DUP4 PUSH2 0xAD9 JUMP JUMPDEST SWAP3 POP DUP3 PUSH32 0xFFFFFFFFFFFFFFFFFFFFFFFFFFFFFFFFFFFFFFFFFFFFFFFFFFFFFFFFFFFFFFFF SUB DUP3 GT ISZERO PUSH2 0x8F0 JUMPI PUSH2 0x8EF PUSH2 0xB42 JUMP JUMPDEST JUMPDEST DUP3 DUP3 ADD SWAP1 POP SWAP3 SWAP2 POP POP JUMP JUMPDEST PUSH1 0x0 PUSH2 0x906 DUP3 PUSH2 0xAD9 JUMP JUMPDEST SWAP2 POP PUSH2 0x911 DUP4 PUSH2 0xAD9 JUMP JUMPDEST SWAP3 POP DUP3 PUSH2 0x921 JUMPI PUSH2 0x920 PUSH2 0xB71 JUMP JUMPDEST JUMPDEST DUP3 DUP3 DIV SWAP1 POP SWAP3 SWAP2 POP POP JUMP JUMPDEST PUSH1 0x0 PUSH2 0x937 DUP3 PUSH2 0xAAF JUMP JUMPDEST SWAP2 POP PUSH2 0x942 DUP4 PUSH2 0xAAF JUMP JUMPDEST SWAP3 POP DUP3 PUSH32 0x7FFFFFFFFFFFFFFFFFFFFFFFFFFFFFFFFFFFFFFFFFFFFFFFFFFFFFFFFFFFFFFF DIV DUP3 GT PUSH1 0x0 DUP5 SGT PUSH1 0x0 DUP5 SGT AND AND ISZERO PUSH2 0x981 JUMPI PUSH2 0x980 PUSH2 0xB42 JUMP JUMPDEST JUMPDEST DUP2 PUSH32 0x8000000000000000000000000000000000000000000000000000000000000000 SDIV DUP4 SLT PUSH1 0x0 DUP5 SLT PUSH1 0x0 DUP5 SGT AND AND ISZERO PUSH2 0x9BE JUMPI PUSH2 0x9BD PUSH2 0xB42 JUMP JUMPDEST JUMPDEST DUP3 PUSH32 0x8000000000000000000000000000000000000000000000000000000000000000 SDIV DUP3 SLT PUSH1 0x0 DUP5 SGT PUSH1 0x0 DUP5 SLT AND AND ISZERO PUSH2 0x9FB JUMPI PUSH2 0x9FA PUSH2 0xB42 JUMP JUMPDEST JUMPDEST DUP3 PUSH32 0x7FFFFFFFFFFFFFFFFFFFFFFFFFFFFFFFFFFFFFFFFFFFFFFFFFFFFFFFFFFFFFFF SDIV DUP3 SLT PUSH1 0x0 DUP5 SLT PUSH1 0x0 DUP5 SLT AND AND ISZERO PUSH2 0xA38 JUMPI PUSH2 0xA37 PUSH2 0xB42 JUMP JUMPDEST JUMPDEST DUP3 DUP3 MUL SWAP1 POP SWAP3 SWAP2 POP POP JUMP JUMPDEST PUSH1 0x0 PUSH2 0xA4E DUP3 PUSH2 0xAD9 JUMP JUMPDEST SWAP2 POP PUSH2 0xA59 DUP4 PUSH2 0xAD9 JUMP JUMPDEST SWAP3 POP DUP2 PUSH32 0xFFFFFFFFFFFFFFFFFFFFFFFFFFFFFFFFFFFFFFFFFFFFFFFFFFFFFFFFFFFFFFFF DIV DUP4 GT DUP3 ISZERO ISZERO AND ISZERO PUSH2 0xA92 JUMPI PUSH2 0xA91 PUSH2 0xB42 JUMP JUMPDEST JUMPDEST DUP3 DUP3 MUL SWAP1 POP SWAP3 SWAP2 POP POP JUMP JUMPDEST PUSH1 0x0 PUSH2 0xAA8 DUP3 PUSH2 0xAB9 JUMP JUMPDEST SWAP1 POP SWAP2 SWAP1 POP JUMP JUMPDEST PUSH1 0x0 DUP2 SWAP1 POP SWAP2 SWAP1 POP JUMP JUMPDEST PUSH1 0x0 PUSH20 0xFFFFFFFFFFFFFFFFFFFFFFFFFFFFFFFFFFFFFFFF DUP3 AND SWAP1 POP SWAP2 SWAP1 POP JUMP JUMPDEST PUSH1 0x0 DUP2 SWAP1 POP SWAP2 SWAP1 POP JUMP JUMPDEST PUSH1 0x0 PUSH10 0xFFFFFFFFFFFFFFFFFFFF DUP3 AND SWAP1 POP SWAP2 SWAP1 POP JUMP JUMPDEST PUSH1 0x0 PUSH2 0xB04 DUP3 PUSH2 0xAD9 JUMP JUMPDEST SWAP2 POP PUSH32 0xFFFFFFFFFFFFFFFFFFFFFFFFFFFFFFFFFFFFFFFFFFFFFFFFFFFFFFFFFFFFFFFF DUP3 EQ ISZERO PUSH2 0xB37 JUMPI PUSH2 0xB36 PUSH2 0xB42 JUMP JUMPDEST JUMPDEST PUSH1 0x1 DUP3 ADD SWAP1 POP SWAP2 SWAP1 POP JUMP JUMPDEST PUSH32 0x4E487B7100000000000000000000000000000000000000000000000000000000 PUSH1 0x0 MSTORE PUSH1 0x11 PUSH1 0x4 MSTORE PUSH1 0x24 PUSH1 0x0 REVERT JUMPDEST PUSH32 0x4E487B7100000000000000000000000000000000000000000000000000000000 PUSH1 0x0 MSTORE PUSH1 0x12 PUSH1 0x4 MSTORE PUSH1 0x24 PUSH1 0x0 REVERT JUMPDEST PUSH32 0x4E487B7100000000000000000000000000000000000000000000000000000000 PUSH1 0x0 MSTORE PUSH1 0x32 PUSH1 0x4 MSTORE PUSH1 0x24 PUSH1 0x0 REVERT JUMPDEST PUSH32 0x4E487B7100000000000000000000000000000000000000000000000000000000 PUSH1 0x0 MSTORE PUSH1 0x41 PUSH1 0x4 MSTORE PUSH1 0x24 PUSH1 0x0 REVERT JUMPDEST PUSH1 0x0 DUP1 REVERT JUMPDEST PUSH32 0x43616C6C206661696C6564000000000000000000000000000000000000000000 PUSH1 0x0 DUP3 ADD MSTORE POP JUMP JUMPDEST POP JUMP JUMPDEST PUSH2 0xC38 DUP2 PUSH2 0xA9D JUMP JUMPDEST DUP2 EQ PUSH2 0xC43 JUMPI PUSH1 0x0 DUP1 REVERT JUMPDEST POP JUMP JUMPDEST PUSH2 0xC4F DUP2 PUSH2 0xAAF JUMP JUMPDEST DUP2 EQ PUSH2 0xC5A JUMPI PUSH1 0x0 DUP1 REVERT JUMPDEST POP JUMP JUMPDEST PUSH2 0xC66 DUP2 PUSH2 0xAD9 JUMP JUMPDEST DUP2 EQ PUSH2 0xC71 JUMPI PUSH1 0x0 DUP1 REVERT JUMPDEST POP JUMP JUMPDEST PUSH2 0xC7D DUP2 PUSH2 0xAE3 JUMP JUMPDEST DUP2 EQ PUSH2 0xC88 JUMPI PUSH1 0x0 DUP1 REVERT JUMPDEST POP JUMP INVALID LOG2 PUSH5 0x6970667358 0x22 SLT KECCAK256 CALLDATACOPY SELFDESTRUCT 0xCF 0x22 SWAP9 GAS SWAP14 STATICCALL 0x4E SELFBALANCE 0xD0 DUP12 DUP12 EQ PUSH23 0xBB01DAE5E99F186C1421EDBD7456338A4764736F6C6343 STOP ADDMOD SMOD STOP CALLER "
				},
				"gasEstimates": {
					"creation": {
						"codeDepositCost": "653000",
						"executionCost": "24955",
						"totalCost": "677955"
					},
					"external": {
						"MINIMUM_USD()": "351",
						"addressToAmountFunded(address)": "2792",
						"fund()": "infinite",
						"funders(uint256)": "5044",
						"owner()": "2558",
						"widthdraw()": "infinite"
					}
				},
				"methodIdentifiers": {
					"MINIMUM_USD()": "6b69a592",
					"addressToAmountFunded(address)": "3e47d6f3",
					"fund()": "b60d4288",
					"funders(uint256)": "dc0d3dff",
					"owner()": "8da5cb5b",
					"widthdraw()": "52b50a2a"
				}
			},
			"storageLayout": {
				"storage": [
					{
						"astId": 57,
						"contract": "fund-me/FundMe.sol:FundMe",
						"label": "funders",
						"offset": 0,
						"slot": "0",
						"type": "t_array(t_address)dyn_storage"
					},
					{
						"astId": 61,
						"contract": "fund-me/FundMe.sol:FundMe",
						"label": "addressToAmountFunded",
						"offset": 0,
						"slot": "1",
						"type": "t_mapping(t_address,t_uint256)"
					},
					{
						"astId": 63,
						"contract": "fund-me/FundMe.sol:FundMe",
						"label": "owner",
						"offset": 0,
						"slot": "2",
						"type": "t_address"
					}
				],
				"types": {
					"t_address": {
						"encoding": "inplace",
						"label": "address",
						"numberOfBytes": "20"
					},
					"t_array(t_address)dyn_storage": {
						"base": "t_address",
						"encoding": "dynamic_array",
						"label": "address[]",
						"numberOfBytes": "32"
					},
					"t_mapping(t_address,t_uint256)": {
						"encoding": "mapping",
						"key": "t_address",
						"label": "mapping(address => uint256)",
						"numberOfBytes": "32",
						"value": "t_uint256"
					},
					"t_uint256": {
						"encoding": "inplace",
						"label": "uint256",
						"numberOfBytes": "32"
					}
				}
			},
			"userdoc": {
				"kind": "user",
				"methods": {},
				"version": 1
			}
		}
	}
}