{
	"fund-me/FundMe.sol": {
		"FundMe": {
			"abi": [
				{
					"inputs": [],
					"stateMutability": "nonpayable",
					"type": "constructor"
				},
				{
					"inputs": [],
					"name": "NotOwner",
					"type": "error"
				},
				{
					"inputs": [],
					"name": "MINIMUM_USD",
					"outputs": [
						{
							"internalType": "uint256",
							"name": "",
							"type": "uint256"
						}
					],
					"stateMutability": "view",
					"type": "function"
				},
				{
					"inputs": [
						{
							"internalType": "address",
							"name": "",
							"type": "address"
						}
					],
					"name": "addressToAmountFunded",
					"outputs": [
						{
							"internalType": "uint256",
							"name": "",
							"type": "uint256"
						}
					],
					"stateMutability": "view",
					"type": "function"
				},
				{
					"inputs": [],
					"name": "fund",
					"outputs": [],
					"stateMutability": "payable",
					"type": "function"
				},
				{
					"inputs": [
						{
							"internalType": "uint256",
							"name": "",
							"type": "uint256"
						}
					],
					"name": "funders",
					"outputs": [
						{
							"internalType": "address",
							"name": "",
							"type": "address"
						}
					],
					"stateMutability": "view",
					"type": "function"
				},
				{
					"inputs": [],
					"name": "getVersion",
					"outputs": [
						{
							"internalType": "uint256",
							"name": "",
							"type": "uint256"
						}
					],
					"stateMutability": "view",
					"type": "function"
				},
				{
					"inputs": [],
					"name": "owner",
					"outputs": [
						{
							"internalType": "address",
							"name": "",
							"type": "address"
						}
					],
					"stateMutability": "view",
					"type": "function"
				},
				{
					"inputs": [],
					"name": "widthdraw",
					"outputs": [],
					"stateMutability": "payable",
					"type": "function"
				}
			],
			"devdoc": {
				"kind": "dev",
				"methods": {},
				"version": 1
			},
			"evm": {
				"assembly": "    /* \"fund-me/FundMe.sol\":185:1310  contract FundMe {... */\n  mstore(0x40, 0x80)\n    /* \"fund-me/FundMe.sol\":407:450  constructor() {... */\n  callvalue\n  dup1\n  iszero\n  tag_1\n  jumpi\n  0x00\n  dup1\n  revert\ntag_1:\n  pop\n    /* \"fund-me/FundMe.sol\":435:445  msg.sender */\n  caller\n    /* \"fund-me/FundMe.sol\":427:432  owner */\n  0x02\n  0x00\n    /* \"fund-me/FundMe.sol\":427:445  owner = msg.sender */\n  0x0100\n  exp\n  dup2\n  sload\n  dup2\n  0xffffffffffffffffffffffffffffffffffffffff\n  mul\n  not\n  and\n  swap1\n  dup4\n  0xffffffffffffffffffffffffffffffffffffffff\n  and\n  mul\n  or\n  swap1\n  sstore\n  pop\n    /* \"fund-me/FundMe.sol\":185:1310  contract FundMe {... */\n  dataSize(sub_0)\n  dup1\n  dataOffset(sub_0)\n  0x00\n  codecopy\n  0x00\n  return\nstop\n\nsub_0: assembly {\n        /* \"fund-me/FundMe.sol\":185:1310  contract FundMe {... */\n      mstore(0x40, 0x80)\n      jumpi(tag_1, lt(calldatasize, 0x04))\n      shr(0xe0, calldataload(0x00))\n      dup1\n      0x6b69a592\n      gt\n      tag_9\n      jumpi\n      dup1\n      0x6b69a592\n      eq\n      tag_5\n      jumpi\n      dup1\n      0x8da5cb5b\n      eq\n      tag_6\n      jumpi\n      dup1\n      0xb60d4288\n      eq\n      tag_7\n      jumpi\n      dup1\n      0xdc0d3dff\n      eq\n      tag_8\n      jumpi\n      jump(tag_1)\n    tag_9:\n      dup1\n      0x0d8e6e2c\n      eq\n      tag_2\n      jumpi\n      dup1\n      0x3e47d6f3\n      eq\n      tag_3\n      jumpi\n      dup1\n      0x52b50a2a\n      eq\n      tag_4\n      jumpi\n    tag_1:\n      0x00\n      dup1\n      revert\n        /* \"fund-me/FundMe.sol\":636:833  function getVersion() public view returns (uint256){... */\n    tag_2:\n      callvalue\n      dup1\n      iszero\n      tag_10\n      jumpi\n      0x00\n      dup1\n      revert\n    tag_10:\n      pop\n      tag_11\n      tag_12\n      jump\t// in\n    tag_11:\n      mload(0x40)\n      tag_13\n      swap2\n      swap1\n      tag_14\n      jump\t// in\n    tag_13:\n      mload(0x40)\n      dup1\n      swap2\n      sub\n      swap1\n      return\n        /* \"fund-me/FundMe.sol\":270:326  mapping(address => uint256) public addressToAmountFunded */\n    tag_3:\n      callvalue\n      dup1\n      iszero\n      tag_15\n      jumpi\n      0x00\n      dup1\n      revert\n    tag_15:\n      pop\n      tag_16\n      0x04\n      dup1\n      calldatasize\n      sub\n      dup2\n      add\n      swap1\n      tag_17\n      swap2\n      swap1\n      tag_18\n      jump\t// in\n    tag_17:\n      tag_19\n      jump\t// in\n    tag_16:\n      mload(0x40)\n      tag_20\n      swap2\n      swap1\n      tag_14\n      jump\t// in\n    tag_20:\n      mload(0x40)\n      dup1\n      swap2\n      sub\n      swap1\n      return\n        /* \"fund-me/FundMe.sol\":922:1307  function widthdraw() payable onlyOwner public {... */\n    tag_4:\n      tag_21\n      tag_22\n      jump\t// in\n    tag_21:\n      stop\n        /* \"fund-me/FundMe.sol\":355:402  uint256 public constant MINIMUM_USD = 50 * 1e18 */\n    tag_5:\n      callvalue\n      dup1\n      iszero\n      tag_23\n      jumpi\n      0x00\n      dup1\n      revert\n    tag_23:\n      pop\n      tag_24\n      tag_25\n      jump\t// in\n    tag_24:\n      mload(0x40)\n      tag_26\n      swap2\n      swap1\n      tag_14\n      jump\t// in\n    tag_26:\n      mload(0x40)\n      dup1\n      swap2\n      sub\n      swap1\n      return\n        /* \"fund-me/FundMe.sol\":331:351  address public owner */\n    tag_6:\n      callvalue\n      dup1\n      iszero\n      tag_27\n      jumpi\n      0x00\n      dup1\n      revert\n    tag_27:\n      pop\n      tag_28\n      tag_29\n      jump\t// in\n    tag_28:\n      mload(0x40)\n      tag_30\n      swap2\n      swap1\n      tag_31\n      jump\t// in\n    tag_30:\n      mload(0x40)\n      dup1\n      swap2\n      sub\n      swap1\n      return\n        /* \"fund-me/FundMe.sol\":454:632  function fund() public payable {... */\n    tag_7:\n      tag_32\n      tag_33\n      jump\t// in\n    tag_32:\n      stop\n        /* \"fund-me/FundMe.sol\":242:266  address[] public funders */\n    tag_8:\n      callvalue\n      dup1\n      iszero\n      tag_34\n      jumpi\n      0x00\n      dup1\n      revert\n    tag_34:\n      pop\n      tag_35\n      0x04\n      dup1\n      calldatasize\n      sub\n      dup2\n      add\n      swap1\n      tag_36\n      swap2\n      swap1\n      tag_37\n      jump\t// in\n    tag_36:\n      tag_38\n      jump\t// in\n    tag_35:\n      mload(0x40)\n      tag_39\n      swap2\n      swap1\n      tag_31\n      jump\t// in\n    tag_39:\n      mload(0x40)\n      dup1\n      swap2\n      sub\n      swap1\n      return\n        /* \"fund-me/FundMe.sol\":636:833  function getVersion() public view returns (uint256){... */\n    tag_12:\n        /* \"fund-me/FundMe.sol\":679:686  uint256 */\n      0x00\n        /* \"fund-me/FundMe.sol\":695:726  AggregatorV3Interface priceFeed */\n      dup1\n        /* \"fund-me/FundMe.sol\":751:793  0x8A753747A1Fa494EC906cE90E9f37563A8AF630e */\n      0x8a753747a1fa494ec906ce90e9f37563a8af630e\n        /* \"fund-me/FundMe.sol\":695:794  AggregatorV3Interface priceFeed = AggregatorV3Interface(0x8A753747A1Fa494EC906cE90E9f37563A8AF630e) */\n      swap1\n      pop\n        /* \"fund-me/FundMe.sol\":809:818  priceFeed */\n      dup1\n        /* \"fund-me/FundMe.sol\":809:826  priceFeed.version */\n      0xffffffffffffffffffffffffffffffffffffffff\n      and\n      0x54fd4d50\n        /* \"fund-me/FundMe.sol\":809:828  priceFeed.version() */\n      mload(0x40)\n      dup2\n      0xffffffff\n      and\n      0xe0\n      shl\n      dup2\n      mstore\n      0x04\n      add\n      0x20\n      mload(0x40)\n      dup1\n      dup4\n      sub\n      dup2\n      dup7\n      dup1\n      extcodesize\n      iszero\n      dup1\n      iszero\n      tag_41\n      jumpi\n      0x00\n      dup1\n      revert\n    tag_41:\n      pop\n      gas\n      staticcall\n      iszero\n      dup1\n      iszero\n      tag_43\n      jumpi\n      returndatasize\n      0x00\n      dup1\n      returndatacopy\n      revert(0x00, returndatasize)\n    tag_43:\n      pop\n      pop\n      pop\n      pop\n      mload(0x40)\n      returndatasize\n      not(0x1f)\n      0x1f\n      dup3\n      add\n      and\n      dup3\n      add\n      dup1\n      0x40\n      mstore\n      pop\n      dup2\n      add\n      swap1\n      tag_44\n      swap2\n      swap1\n      tag_45\n      jump\t// in\n    tag_44:\n        /* \"fund-me/FundMe.sol\":802:828  return priceFeed.version() */\n      swap2\n      pop\n      pop\n        /* \"fund-me/FundMe.sol\":636:833  function getVersion() public view returns (uint256){... */\n      swap1\n      jump\t// out\n        /* \"fund-me/FundMe.sol\":270:326  mapping(address => uint256) public addressToAmountFunded */\n    tag_19:\n      mstore(0x20, 0x01)\n      dup1\n      0x00\n      mstore\n      keccak256(0x00, 0x40)\n      0x00\n      swap2\n      pop\n      swap1\n      pop\n      sload\n      dup2\n      jump\t// out\n        /* \"fund-me/FundMe.sol\":922:1307  function widthdraw() payable onlyOwner public {... */\n    tag_22:\n        /* \"fund-me/FundMe.sol\":882:887  owner */\n      0x02\n      0x00\n      swap1\n      sload\n      swap1\n      0x0100\n      exp\n      swap1\n      div\n      0xffffffffffffffffffffffffffffffffffffffff\n      and\n        /* \"fund-me/FundMe.sol\":868:887  msg.sender != owner */\n      0xffffffffffffffffffffffffffffffffffffffff\n      and\n        /* \"fund-me/FundMe.sol\":868:878  msg.sender */\n      caller\n        /* \"fund-me/FundMe.sol\":868:887  msg.sender != owner */\n      0xffffffffffffffffffffffffffffffffffffffff\n      and\n      eq\n        /* \"fund-me/FundMe.sol\":864:906  if (msg.sender != owner) revert NotOwner() */\n      tag_47\n      jumpi\n        /* \"fund-me/FundMe.sol\":896:906  NotOwner() */\n      mload(0x40)\n      0x30cd747100000000000000000000000000000000000000000000000000000000\n      dup2\n      mstore\n      0x04\n      add\n      mload(0x40)\n      dup1\n      swap2\n      sub\n      swap1\n      revert\n        /* \"fund-me/FundMe.sol\":864:906  if (msg.sender != owner) revert NotOwner() */\n    tag_47:\n        /* \"fund-me/FundMe.sol\":979:998  uint256 funderIndex */\n      0x00\n        /* \"fund-me/FundMe.sol\":974:1142  for (uint256 funderIndex = 0; funderIndex < funders.length; funderIndex++) {... */\n    tag_49:\n        /* \"fund-me/FundMe.sol\":1018:1025  funders */\n      0x00\n        /* \"fund-me/FundMe.sol\":1018:1032  funders.length */\n      dup1\n      sload\n      swap1\n      pop\n        /* \"fund-me/FundMe.sol\":1004:1015  funderIndex */\n      dup2\n        /* \"fund-me/FundMe.sol\":1004:1032  funderIndex < funders.length */\n      lt\n        /* \"fund-me/FundMe.sol\":974:1142  for (uint256 funderIndex = 0; funderIndex < funders.length; funderIndex++) {... */\n      iszero\n      tag_50\n      jumpi\n        /* \"fund-me/FundMe.sol\":1057:1071  address funder */\n      0x00\n        /* \"fund-me/FundMe.sol\":1074:1081  funders */\n      dup1\n        /* \"fund-me/FundMe.sol\":1082:1093  funderIndex */\n      dup3\n        /* \"fund-me/FundMe.sol\":1074:1094  funders[funderIndex] */\n      dup2\n      sload\n      dup2\n      lt\n      tag_52\n      jumpi\n      tag_53\n      tag_54\n      jump\t// in\n    tag_53:\n    tag_52:\n      swap1\n      0x00\n      mstore\n      keccak256(0x00, 0x20)\n      add\n      0x00\n      swap1\n      sload\n      swap1\n      0x0100\n      exp\n      swap1\n      div\n      0xffffffffffffffffffffffffffffffffffffffff\n      and\n        /* \"fund-me/FundMe.sol\":1057:1094  address funder = funders[funderIndex] */\n      swap1\n      pop\n        /* \"fund-me/FundMe.sol\":1134:1135  0 */\n      0x00\n        /* \"fund-me/FundMe.sol\":1102:1123  addressToAmountFunded */\n      0x01\n        /* \"fund-me/FundMe.sol\":1102:1131  addressToAmountFunded[funder] */\n      0x00\n        /* \"fund-me/FundMe.sol\":1124:1130  funder */\n      dup4\n        /* \"fund-me/FundMe.sol\":1102:1131  addressToAmountFunded[funder] */\n      0xffffffffffffffffffffffffffffffffffffffff\n      and\n      0xffffffffffffffffffffffffffffffffffffffff\n      and\n      dup2\n      mstore\n      0x20\n      add\n      swap1\n      dup2\n      mstore\n      0x20\n      add\n      0x00\n      keccak256\n        /* \"fund-me/FundMe.sol\":1102:1135  addressToAmountFunded[funder] = 0 */\n      dup2\n      swap1\n      sstore\n      pop\n        /* \"fund-me/FundMe.sol\":1049:1142  {... */\n      pop\n        /* \"fund-me/FundMe.sol\":1034:1047  funderIndex++ */\n      dup1\n      dup1\n      tag_56\n      swap1\n      tag_57\n      jump\t// in\n    tag_56:\n      swap2\n      pop\n      pop\n        /* \"fund-me/FundMe.sol\":974:1142  for (uint256 funderIndex = 0; funderIndex < funders.length; funderIndex++) {... */\n      jump(tag_49)\n    tag_50:\n      pop\n        /* \"fund-me/FundMe.sol\":1171:1172  0 */\n      0x00\n        /* \"fund-me/FundMe.sol\":1157:1173  new address[](0) */\n      0xffffffffffffffff\n      dup2\n      gt\n      iszero\n      tag_58\n      jumpi\n      tag_59\n      tag_60\n      jump\t// in\n    tag_59:\n    tag_58:\n      mload(0x40)\n      swap1\n      dup1\n      dup3\n      mstore\n      dup1\n      0x20\n      mul\n      0x20\n      add\n      dup3\n      add\n      0x40\n      mstore\n      dup1\n      iszero\n      tag_61\n      jumpi\n      dup2\n      0x20\n      add\n      0x20\n      dup3\n      mul\n      dup1\n      calldatasize\n      dup4\n      calldatacopy\n      dup1\n      dup3\n      add\n      swap2\n      pop\n      pop\n      swap1\n      pop\n    tag_61:\n      pop\n        /* \"fund-me/FundMe.sol\":1147:1154  funders */\n      0x00\n        /* \"fund-me/FundMe.sol\":1147:1173  funders = new address[](0) */\n      swap1\n      dup1\n      mload\n      swap1\n      0x20\n      add\n      swap1\n      tag_62\n      swap3\n      swap2\n      swap1\n      tag_63\n      jump\t// in\n    tag_62:\n      pop\n        /* \"fund-me/FundMe.sol\":1181:1197  bool callSuccess */\n      0x00\n        /* \"fund-me/FundMe.sol\":1211:1221  msg.sender */\n      caller\n        /* \"fund-me/FundMe.sol\":1203:1227  payable(msg.sender).call */\n      0xffffffffffffffffffffffffffffffffffffffff\n      and\n        /* \"fund-me/FundMe.sol\":1235:1256  address(this).balance */\n      selfbalance\n        /* \"fund-me/FundMe.sol\":1203:1261  payable(msg.sender).call{value: address(this).balance}(\"\") */\n      mload(0x40)\n      tag_64\n      swap1\n      tag_65\n      jump\t// in\n    tag_64:\n      0x00\n      mload(0x40)\n      dup1\n      dup4\n      sub\n      dup2\n      dup6\n      dup8\n      gas\n      call\n      swap3\n      pop\n      pop\n      pop\n      returndatasize\n      dup1\n      0x00\n      dup2\n      eq\n      tag_68\n      jumpi\n      mload(0x40)\n      swap2\n      pop\n      and(add(returndatasize, 0x3f), not(0x1f))\n      dup3\n      add\n      0x40\n      mstore\n      returndatasize\n      dup3\n      mstore\n      returndatasize\n      0x00\n      0x20\n      dup5\n      add\n      returndatacopy\n      jump(tag_67)\n    tag_68:\n      0x60\n      swap2\n      pop\n    tag_67:\n      pop\n        /* \"fund-me/FundMe.sol\":1180:1261  (bool callSuccess, ) = payable(msg.sender).call{value: address(this).balance}(\"\") */\n      pop\n      swap1\n      pop\n        /* \"fund-me/FundMe.sol\":1275:1286  callSuccess */\n      dup1\n        /* \"fund-me/FundMe.sol\":1267:1302  require(callSuccess, \"Call failed\") */\n      tag_69\n      jumpi\n      mload(0x40)\n      0x08c379a000000000000000000000000000000000000000000000000000000000\n      dup2\n      mstore\n      0x04\n      add\n      tag_70\n      swap1\n      tag_71\n      jump\t// in\n    tag_70:\n      mload(0x40)\n      dup1\n      swap2\n      sub\n      swap1\n      revert\n    tag_69:\n        /* \"fund-me/FundMe.sol\":968:1307  {... */\n      pop\n        /* \"fund-me/FundMe.sol\":922:1307  function widthdraw() payable onlyOwner public {... */\n      jump\t// out\n        /* \"fund-me/FundMe.sol\":355:402  uint256 public constant MINIMUM_USD = 50 * 1e18 */\n    tag_25:\n        /* \"fund-me/FundMe.sol\":393:402  50 * 1e18 */\n      0x02b5e3af16b1880000\n        /* \"fund-me/FundMe.sol\":355:402  uint256 public constant MINIMUM_USD = 50 * 1e18 */\n      dup2\n      jump\t// out\n        /* \"fund-me/FundMe.sol\":331:351  address public owner */\n    tag_29:\n      0x02\n      0x00\n      swap1\n      sload\n      swap1\n      0x0100\n      exp\n      swap1\n      div\n      0xffffffffffffffffffffffffffffffffffffffff\n      and\n      dup2\n      jump\t// out\n        /* \"fund-me/FundMe.sol\":454:632  function fund() public payable {... */\n    tag_33:\n        /* \"fund-me/FundMe.sol\":393:402  50 * 1e18 */\n      0x02b5e3af16b1880000\n        /* \"fund-me/FundMe.sol\":499:529  msg.value.getConvertionPrice() */\n      tag_73\n        /* \"fund-me/FundMe.sol\":499:508  msg.value */\n      callvalue\n        /* \"fund-me/FundMe.sol\":499:527  msg.value.getConvertionPrice */\n      tag_74\n        /* \"fund-me/FundMe.sol\":499:529  msg.value.getConvertionPrice() */\n      jump\t// in\n    tag_73:\n        /* \"fund-me/FundMe.sol\":499:544  msg.value.getConvertionPrice() >= MINIMUM_USD */\n      lt\n      iszero\n        /* \"fund-me/FundMe.sol\":491:545  require(msg.value.getConvertionPrice() >= MINIMUM_USD) */\n      tag_75\n      jumpi\n      0x00\n      dup1\n      revert\n    tag_75:\n        /* \"fund-me/FundMe.sol\":588:597  msg.value */\n      callvalue\n        /* \"fund-me/FundMe.sol\":551:572  addressToAmountFunded */\n      0x01\n        /* \"fund-me/FundMe.sol\":551:584  addressToAmountFunded[msg.sender] */\n      0x00\n        /* \"fund-me/FundMe.sol\":573:583  msg.sender */\n      caller\n        /* \"fund-me/FundMe.sol\":551:584  addressToAmountFunded[msg.sender] */\n      0xffffffffffffffffffffffffffffffffffffffff\n      and\n      0xffffffffffffffffffffffffffffffffffffffff\n      and\n      dup2\n      mstore\n      0x20\n      add\n      swap1\n      dup2\n      mstore\n      0x20\n      add\n      0x00\n      keccak256\n      0x00\n        /* \"fund-me/FundMe.sol\":551:597  addressToAmountFunded[msg.sender] += msg.value */\n      dup3\n      dup3\n      sload\n      tag_76\n      swap2\n      swap1\n      tag_77\n      jump\t// in\n    tag_76:\n      swap3\n      pop\n      pop\n      dup2\n      swap1\n      sstore\n      pop\n        /* \"fund-me/FundMe.sol\":603:610  funders */\n      0x00\n        /* \"fund-me/FundMe.sol\":616:626  msg.sender */\n      caller\n        /* \"fund-me/FundMe.sol\":603:627  funders.push(msg.sender) */\n      swap1\n      dup1\n      0x01\n      dup2\n      sload\n      add\n      dup1\n      dup3\n      sstore\n      dup1\n      swap2\n      pop\n      pop\n      0x01\n      swap1\n      sub\n      swap1\n      0x00\n      mstore\n      keccak256(0x00, 0x20)\n      add\n      0x00\n      swap1\n      swap2\n      swap1\n      swap2\n      swap1\n      swap2\n      0x0100\n      exp\n      dup2\n      sload\n      dup2\n      0xffffffffffffffffffffffffffffffffffffffff\n      mul\n      not\n      and\n      swap1\n      dup4\n      0xffffffffffffffffffffffffffffffffffffffff\n      and\n      mul\n      or\n      swap1\n      sstore\n      pop\n        /* \"fund-me/FundMe.sol\":454:632  function fund() public payable {... */\n      jump\t// out\n        /* \"fund-me/FundMe.sol\":242:266  address[] public funders */\n    tag_38:\n      0x00\n      dup2\n      dup2\n      sload\n      dup2\n      lt\n      tag_79\n      jumpi\n      0x00\n      dup1\n      revert\n    tag_79:\n      swap1\n      0x00\n      mstore\n      keccak256(0x00, 0x20)\n      add\n      0x00\n      swap2\n      pop\n      sload\n      swap1\n      0x0100\n      exp\n      swap1\n      div\n      0xffffffffffffffffffffffffffffffffffffffff\n      and\n      dup2\n      jump\t// out\n        /* \"fund-me/PriceConverter.sol\":555:761  function getConvertionPrice(uint256 ethAmount) internal view returns (uint256) {... */\n    tag_74:\n        /* \"fund-me/PriceConverter.sol\":625:632  uint256 */\n      0x00\n        /* \"fund-me/PriceConverter.sol\":640:656  uint256 ethPrice */\n      dup1\n        /* \"fund-me/PriceConverter.sol\":659:669  getPrice() */\n      tag_82\n        /* \"fund-me/PriceConverter.sol\":659:667  getPrice */\n      tag_83\n        /* \"fund-me/PriceConverter.sol\":659:669  getPrice() */\n      jump\t// in\n    tag_82:\n        /* \"fund-me/PriceConverter.sol\":640:669  uint256 ethPrice = getPrice() */\n      swap1\n      pop\n        /* \"fund-me/PriceConverter.sol\":675:697  uint256 ethAmountInUsd */\n      0x00\n        /* \"fund-me/PriceConverter.sol\":725:729  1e18 */\n      0x0de0b6b3a7640000\n        /* \"fund-me/PriceConverter.sol\":712:721  ethAmount */\n      dup5\n        /* \"fund-me/PriceConverter.sol\":701:709  ethPrice */\n      dup4\n        /* \"fund-me/PriceConverter.sol\":701:721  ethPrice * ethAmount */\n      tag_84\n      swap2\n      swap1\n      tag_85\n      jump\t// in\n    tag_84:\n        /* \"fund-me/PriceConverter.sol\":700:729  (ethPrice * ethAmount) / 1e18 */\n      tag_86\n      swap2\n      swap1\n      tag_87\n      jump\t// in\n    tag_86:\n        /* \"fund-me/PriceConverter.sol\":675:729  uint256 ethAmountInUsd = (ethPrice * ethAmount) / 1e18 */\n      swap1\n      pop\n        /* \"fund-me/PriceConverter.sol\":742:756  ethAmountInUsd */\n      dup1\n        /* \"fund-me/PriceConverter.sol\":735:756  return ethAmountInUsd */\n      swap3\n      pop\n      pop\n      pop\n        /* \"fund-me/PriceConverter.sol\":555:761  function getConvertionPrice(uint256 ethAmount) internal view returns (uint256) {... */\n      swap2\n      swap1\n      pop\n      jump\t// out\n        /* \"fund-me/PriceConverter.sol\":303:551  function getPrice() internal view returns(uint256){... */\n    tag_83:\n        /* \"fund-me/PriceConverter.sol\":345:352  uint256 */\n      0x00\n        /* \"fund-me/PriceConverter.sol\":359:390  AggregatorV3Interface priceFeed */\n      dup1\n        /* \"fund-me/PriceConverter.sol\":415:457  0x8A753747A1Fa494EC906cE90E9f37563A8AF630e */\n      0x8a753747a1fa494ec906ce90e9f37563a8af630e\n        /* \"fund-me/PriceConverter.sol\":359:458  AggregatorV3Interface priceFeed = AggregatorV3Interface(0x8A753747A1Fa494EC906cE90E9f37563A8AF630e) */\n      swap1\n      pop\n        /* \"fund-me/PriceConverter.sol\":467:476  int price */\n      0x00\n        /* \"fund-me/PriceConverter.sol\":485:494  priceFeed */\n      dup2\n        /* \"fund-me/PriceConverter.sol\":485:510  priceFeed.latestRoundData */\n      0xffffffffffffffffffffffffffffffffffffffff\n      and\n      0xfeaf968c\n        /* \"fund-me/PriceConverter.sol\":485:512  priceFeed.latestRoundData() */\n      mload(0x40)\n      dup2\n      0xffffffff\n      and\n      0xe0\n      shl\n      dup2\n      mstore\n      0x04\n      add\n      0xa0\n      mload(0x40)\n      dup1\n      dup4\n      sub\n      dup2\n      dup7\n      dup1\n      extcodesize\n      iszero\n      dup1\n      iszero\n      tag_89\n      jumpi\n      0x00\n      dup1\n      revert\n    tag_89:\n      pop\n      gas\n      staticcall\n      iszero\n      dup1\n      iszero\n      tag_91\n      jumpi\n      returndatasize\n      0x00\n      dup1\n      returndatacopy\n      revert(0x00, returndatasize)\n    tag_91:\n      pop\n      pop\n      pop\n      pop\n      mload(0x40)\n      returndatasize\n      not(0x1f)\n      0x1f\n      dup3\n      add\n      and\n      dup3\n      add\n      dup1\n      0x40\n      mstore\n      pop\n      dup2\n      add\n      swap1\n      tag_92\n      swap2\n      swap1\n      tag_93\n      jump\t// in\n    tag_92:\n        /* \"fund-me/PriceConverter.sol\":464:512  (, int price, , ,) = priceFeed.latestRoundData() */\n      pop\n      pop\n      pop\n      swap2\n      pop\n      pop\n        /* \"fund-me/PriceConverter.sol\":541:545  1e10 */\n      0x02540be400\n        /* \"fund-me/PriceConverter.sol\":533:538  price */\n      dup2\n        /* \"fund-me/PriceConverter.sol\":533:545  price * 1e10 */\n      tag_94\n      swap2\n      swap1\n      tag_95\n      jump\t// in\n    tag_94:\n        /* \"fund-me/PriceConverter.sol\":518:546  return uint256(price * 1e10) */\n      swap3\n      pop\n      pop\n      pop\n        /* \"fund-me/PriceConverter.sol\":303:551  function getPrice() internal view returns(uint256){... */\n      swap1\n      jump\t// out\n    tag_63:\n      dup3\n      dup1\n      sload\n      dup3\n      dup3\n      sstore\n      swap1\n      0x00\n      mstore\n      keccak256(0x00, 0x20)\n      swap1\n      dup2\n      add\n      swap3\n      dup3\n      iszero\n      tag_96\n      jumpi\n      swap2\n      0x20\n      mul\n      dup3\n      add\n    tag_97:\n      dup3\n      dup2\n      gt\n      iszero\n      tag_98\n      jumpi\n      dup3\n      mload\n      dup3\n      exp(0x0100, 0x00)\n      dup2\n      sload\n      dup2\n      0xffffffffffffffffffffffffffffffffffffffff\n      mul\n      not\n      and\n      swap1\n      dup4\n      0xffffffffffffffffffffffffffffffffffffffff\n      and\n      mul\n      or\n      swap1\n      sstore\n      pop\n      swap2\n      0x20\n      add\n      swap2\n      swap1\n      0x01\n      add\n      swap1\n      jump(tag_97)\n    tag_98:\n    tag_96:\n      pop\n      swap1\n      pop\n      tag_99\n      swap2\n      swap1\n      tag_100\n      jump\t// in\n    tag_99:\n      pop\n      swap1\n      jump\t// out\n    tag_100:\n    tag_101:\n      dup1\n      dup3\n      gt\n      iszero\n      tag_102\n      jumpi\n      0x00\n      dup2\n      0x00\n      swap1\n      sstore\n      pop\n      0x01\n      add\n      jump(tag_101)\n    tag_102:\n      pop\n      swap1\n      jump\t// out\n        /* \"#utility.yul\":7:146   */\n    tag_104:\n        /* \"#utility.yul\":53:58   */\n      0x00\n        /* \"#utility.yul\":91:97   */\n      dup2\n        /* \"#utility.yul\":78:98   */\n      calldataload\n        /* \"#utility.yul\":69:98   */\n      swap1\n      pop\n        /* \"#utility.yul\":107:140   */\n      tag_106\n        /* \"#utility.yul\":134:139   */\n      dup2\n        /* \"#utility.yul\":107:140   */\n      tag_107\n      jump\t// in\n    tag_106:\n        /* \"#utility.yul\":7:146   */\n      swap3\n      swap2\n      pop\n      pop\n      jump\t// out\n        /* \"#utility.yul\":152:293   */\n    tag_108:\n        /* \"#utility.yul\":208:213   */\n      0x00\n        /* \"#utility.yul\":239:245   */\n      dup2\n        /* \"#utility.yul\":233:246   */\n      mload\n        /* \"#utility.yul\":224:246   */\n      swap1\n      pop\n        /* \"#utility.yul\":255:287   */\n      tag_110\n        /* \"#utility.yul\":281:286   */\n      dup2\n        /* \"#utility.yul\":255:287   */\n      tag_111\n      jump\t// in\n    tag_110:\n        /* \"#utility.yul\":152:293   */\n      swap3\n      swap2\n      pop\n      pop\n      jump\t// out\n        /* \"#utility.yul\":299:438   */\n    tag_112:\n        /* \"#utility.yul\":345:350   */\n      0x00\n        /* \"#utility.yul\":383:389   */\n      dup2\n        /* \"#utility.yul\":370:390   */\n      calldataload\n        /* \"#utility.yul\":361:390   */\n      swap1\n      pop\n        /* \"#utility.yul\":399:432   */\n      tag_114\n        /* \"#utility.yul\":426:431   */\n      dup2\n        /* \"#utility.yul\":399:432   */\n      tag_115\n      jump\t// in\n    tag_114:\n        /* \"#utility.yul\":299:438   */\n      swap3\n      swap2\n      pop\n      pop\n      jump\t// out\n        /* \"#utility.yul\":444:587   */\n    tag_116:\n        /* \"#utility.yul\":501:506   */\n      0x00\n        /* \"#utility.yul\":532:538   */\n      dup2\n        /* \"#utility.yul\":526:539   */\n      mload\n        /* \"#utility.yul\":517:539   */\n      swap1\n      pop\n        /* \"#utility.yul\":548:581   */\n      tag_118\n        /* \"#utility.yul\":575:580   */\n      dup2\n        /* \"#utility.yul\":548:581   */\n      tag_115\n      jump\t// in\n    tag_118:\n        /* \"#utility.yul\":444:587   */\n      swap3\n      swap2\n      pop\n      pop\n      jump\t// out\n        /* \"#utility.yul\":593:734   */\n    tag_119:\n        /* \"#utility.yul\":649:654   */\n      0x00\n        /* \"#utility.yul\":680:686   */\n      dup2\n        /* \"#utility.yul\":674:687   */\n      mload\n        /* \"#utility.yul\":665:687   */\n      swap1\n      pop\n        /* \"#utility.yul\":696:728   */\n      tag_121\n        /* \"#utility.yul\":722:727   */\n      dup2\n        /* \"#utility.yul\":696:728   */\n      tag_122\n      jump\t// in\n    tag_121:\n        /* \"#utility.yul\":593:734   */\n      swap3\n      swap2\n      pop\n      pop\n      jump\t// out\n        /* \"#utility.yul\":740:1069   */\n    tag_18:\n        /* \"#utility.yul\":799:805   */\n      0x00\n        /* \"#utility.yul\":848:850   */\n      0x20\n        /* \"#utility.yul\":836:845   */\n      dup3\n        /* \"#utility.yul\":827:834   */\n      dup5\n        /* \"#utility.yul\":823:846   */\n      sub\n        /* \"#utility.yul\":819:851   */\n      slt\n        /* \"#utility.yul\":816:935   */\n      iszero\n      tag_124\n      jumpi\n        /* \"#utility.yul\":854:933   */\n      tag_125\n      tag_126\n      jump\t// in\n    tag_125:\n        /* \"#utility.yul\":816:935   */\n    tag_124:\n        /* \"#utility.yul\":974:975   */\n      0x00\n        /* \"#utility.yul\":999:1052   */\n      tag_127\n        /* \"#utility.yul\":1044:1051   */\n      dup5\n        /* \"#utility.yul\":1035:1041   */\n      dup3\n        /* \"#utility.yul\":1024:1033   */\n      dup6\n        /* \"#utility.yul\":1020:1042   */\n      add\n        /* \"#utility.yul\":999:1052   */\n      tag_104\n      jump\t// in\n    tag_127:\n        /* \"#utility.yul\":989:1052   */\n      swap2\n      pop\n        /* \"#utility.yul\":945:1062   */\n      pop\n        /* \"#utility.yul\":740:1069   */\n      swap3\n      swap2\n      pop\n      pop\n      jump\t// out\n        /* \"#utility.yul\":1075:1404   */\n    tag_37:\n        /* \"#utility.yul\":1134:1140   */\n      0x00\n        /* \"#utility.yul\":1183:1185   */\n      0x20\n        /* \"#utility.yul\":1171:1180   */\n      dup3\n        /* \"#utility.yul\":1162:1169   */\n      dup5\n        /* \"#utility.yul\":1158:1181   */\n      sub\n        /* \"#utility.yul\":1154:1186   */\n      slt\n        /* \"#utility.yul\":1151:1270   */\n      iszero\n      tag_129\n      jumpi\n        /* \"#utility.yul\":1189:1268   */\n      tag_130\n      tag_126\n      jump\t// in\n    tag_130:\n        /* \"#utility.yul\":1151:1270   */\n    tag_129:\n        /* \"#utility.yul\":1309:1310   */\n      0x00\n        /* \"#utility.yul\":1334:1387   */\n      tag_131\n        /* \"#utility.yul\":1379:1386   */\n      dup5\n        /* \"#utility.yul\":1370:1376   */\n      dup3\n        /* \"#utility.yul\":1359:1368   */\n      dup6\n        /* \"#utility.yul\":1355:1377   */\n      add\n        /* \"#utility.yul\":1334:1387   */\n      tag_112\n      jump\t// in\n    tag_131:\n        /* \"#utility.yul\":1324:1387   */\n      swap2\n      pop\n        /* \"#utility.yul\":1280:1397   */\n      pop\n        /* \"#utility.yul\":1075:1404   */\n      swap3\n      swap2\n      pop\n      pop\n      jump\t// out\n        /* \"#utility.yul\":1410:1761   */\n    tag_45:\n        /* \"#utility.yul\":1480:1486   */\n      0x00\n        /* \"#utility.yul\":1529:1531   */\n      0x20\n        /* \"#utility.yul\":1517:1526   */\n      dup3\n        /* \"#utility.yul\":1508:1515   */\n      dup5\n        /* \"#utility.yul\":1504:1527   */\n      sub\n        /* \"#utility.yul\":1500:1532   */\n      slt\n        /* \"#utility.yul\":1497:1616   */\n      iszero\n      tag_133\n      jumpi\n        /* \"#utility.yul\":1535:1614   */\n      tag_134\n      tag_126\n      jump\t// in\n    tag_134:\n        /* \"#utility.yul\":1497:1616   */\n    tag_133:\n        /* \"#utility.yul\":1655:1656   */\n      0x00\n        /* \"#utility.yul\":1680:1744   */\n      tag_135\n        /* \"#utility.yul\":1736:1743   */\n      dup5\n        /* \"#utility.yul\":1727:1733   */\n      dup3\n        /* \"#utility.yul\":1716:1725   */\n      dup6\n        /* \"#utility.yul\":1712:1734   */\n      add\n        /* \"#utility.yul\":1680:1744   */\n      tag_116\n      jump\t// in\n    tag_135:\n        /* \"#utility.yul\":1670:1744   */\n      swap2\n      pop\n        /* \"#utility.yul\":1626:1754   */\n      pop\n        /* \"#utility.yul\":1410:1761   */\n      swap3\n      swap2\n      pop\n      pop\n      jump\t// out\n        /* \"#utility.yul\":1767:2738   */\n    tag_93:\n        /* \"#utility.yul\":1870:1876   */\n      0x00\n        /* \"#utility.yul\":1878:1884   */\n      dup1\n        /* \"#utility.yul\":1886:1892   */\n      0x00\n        /* \"#utility.yul\":1894:1900   */\n      dup1\n        /* \"#utility.yul\":1902:1908   */\n      0x00\n        /* \"#utility.yul\":1951:1954   */\n      0xa0\n        /* \"#utility.yul\":1939:1948   */\n      dup7\n        /* \"#utility.yul\":1930:1937   */\n      dup9\n        /* \"#utility.yul\":1926:1949   */\n      sub\n        /* \"#utility.yul\":1922:1955   */\n      slt\n        /* \"#utility.yul\":1919:2039   */\n      iszero\n      tag_137\n      jumpi\n        /* \"#utility.yul\":1958:2037   */\n      tag_138\n      tag_126\n      jump\t// in\n    tag_138:\n        /* \"#utility.yul\":1919:2039   */\n    tag_137:\n        /* \"#utility.yul\":2078:2079   */\n      0x00\n        /* \"#utility.yul\":2103:2166   */\n      tag_139\n        /* \"#utility.yul\":2158:2165   */\n      dup9\n        /* \"#utility.yul\":2149:2155   */\n      dup3\n        /* \"#utility.yul\":2138:2147   */\n      dup10\n        /* \"#utility.yul\":2134:2156   */\n      add\n        /* \"#utility.yul\":2103:2166   */\n      tag_119\n      jump\t// in\n    tag_139:\n        /* \"#utility.yul\":2093:2166   */\n      swap6\n      pop\n        /* \"#utility.yul\":2049:2176   */\n      pop\n        /* \"#utility.yul\":2215:2217   */\n      0x20\n        /* \"#utility.yul\":2241:2304   */\n      tag_140\n        /* \"#utility.yul\":2296:2303   */\n      dup9\n        /* \"#utility.yul\":2287:2293   */\n      dup3\n        /* \"#utility.yul\":2276:2285   */\n      dup10\n        /* \"#utility.yul\":2272:2294   */\n      add\n        /* \"#utility.yul\":2241:2304   */\n      tag_108\n      jump\t// in\n    tag_140:\n        /* \"#utility.yul\":2231:2304   */\n      swap5\n      pop\n        /* \"#utility.yul\":2186:2314   */\n      pop\n        /* \"#utility.yul\":2353:2355   */\n      0x40\n        /* \"#utility.yul\":2379:2443   */\n      tag_141\n        /* \"#utility.yul\":2435:2442   */\n      dup9\n        /* \"#utility.yul\":2426:2432   */\n      dup3\n        /* \"#utility.yul\":2415:2424   */\n      dup10\n        /* \"#utility.yul\":2411:2433   */\n      add\n        /* \"#utility.yul\":2379:2443   */\n      tag_116\n      jump\t// in\n    tag_141:\n        /* \"#utility.yul\":2369:2443   */\n      swap4\n      pop\n        /* \"#utility.yul\":2324:2453   */\n      pop\n        /* \"#utility.yul\":2492:2494   */\n      0x60\n        /* \"#utility.yul\":2518:2582   */\n      tag_142\n        /* \"#utility.yul\":2574:2581   */\n      dup9\n        /* \"#utility.yul\":2565:2571   */\n      dup3\n        /* \"#utility.yul\":2554:2563   */\n      dup10\n        /* \"#utility.yul\":2550:2572   */\n      add\n        /* \"#utility.yul\":2518:2582   */\n      tag_116\n      jump\t// in\n    tag_142:\n        /* \"#utility.yul\":2508:2582   */\n      swap3\n      pop\n        /* \"#utility.yul\":2463:2592   */\n      pop\n        /* \"#utility.yul\":2631:2634   */\n      0x80\n        /* \"#utility.yul\":2658:2721   */\n      tag_143\n        /* \"#utility.yul\":2713:2720   */\n      dup9\n        /* \"#utility.yul\":2704:2710   */\n      dup3\n        /* \"#utility.yul\":2693:2702   */\n      dup10\n        /* \"#utility.yul\":2689:2711   */\n      add\n        /* \"#utility.yul\":2658:2721   */\n      tag_119\n      jump\t// in\n    tag_143:\n        /* \"#utility.yul\":2648:2721   */\n      swap2\n      pop\n        /* \"#utility.yul\":2602:2731   */\n      pop\n        /* \"#utility.yul\":1767:2738   */\n      swap3\n      swap6\n      pop\n      swap3\n      swap6\n      swap1\n      swap4\n      pop\n      jump\t// out\n        /* \"#utility.yul\":2744:2862   */\n    tag_144:\n        /* \"#utility.yul\":2831:2855   */\n      tag_146\n        /* \"#utility.yul\":2849:2854   */\n      dup2\n        /* \"#utility.yul\":2831:2855   */\n      tag_147\n      jump\t// in\n    tag_146:\n        /* \"#utility.yul\":2826:2829   */\n      dup3\n        /* \"#utility.yul\":2819:2856   */\n      mstore\n        /* \"#utility.yul\":2744:2862   */\n      pop\n      pop\n      jump\t// out\n        /* \"#utility.yul\":2868:3234   */\n    tag_148:\n        /* \"#utility.yul\":3010:3013   */\n      0x00\n        /* \"#utility.yul\":3031:3098   */\n      tag_150\n        /* \"#utility.yul\":3095:3097   */\n      0x0b\n        /* \"#utility.yul\":3090:3093   */\n      dup4\n        /* \"#utility.yul\":3031:3098   */\n      tag_151\n      jump\t// in\n    tag_150:\n        /* \"#utility.yul\":3024:3098   */\n      swap2\n      pop\n        /* \"#utility.yul\":3107:3200   */\n      tag_152\n        /* \"#utility.yul\":3196:3199   */\n      dup3\n        /* \"#utility.yul\":3107:3200   */\n      tag_153\n      jump\t// in\n    tag_152:\n        /* \"#utility.yul\":3225:3227   */\n      0x20\n        /* \"#utility.yul\":3220:3223   */\n      dup3\n        /* \"#utility.yul\":3216:3228   */\n      add\n        /* \"#utility.yul\":3209:3228   */\n      swap1\n      pop\n        /* \"#utility.yul\":2868:3234   */\n      swap2\n      swap1\n      pop\n      jump\t// out\n        /* \"#utility.yul\":3240:3638   */\n    tag_154:\n        /* \"#utility.yul\":3399:3402   */\n      0x00\n        /* \"#utility.yul\":3420:3503   */\n      tag_156\n        /* \"#utility.yul\":3501:3502   */\n      0x00\n        /* \"#utility.yul\":3496:3499   */\n      dup4\n        /* \"#utility.yul\":3420:3503   */\n      tag_157\n      jump\t// in\n    tag_156:\n        /* \"#utility.yul\":3413:3503   */\n      swap2\n      pop\n        /* \"#utility.yul\":3512:3605   */\n      tag_158\n        /* \"#utility.yul\":3601:3604   */\n      dup3\n        /* \"#utility.yul\":3512:3605   */\n      tag_159\n      jump\t// in\n    tag_158:\n        /* \"#utility.yul\":3630:3631   */\n      0x00\n        /* \"#utility.yul\":3625:3628   */\n      dup3\n        /* \"#utility.yul\":3621:3632   */\n      add\n        /* \"#utility.yul\":3614:3632   */\n      swap1\n      pop\n        /* \"#utility.yul\":3240:3638   */\n      swap2\n      swap1\n      pop\n      jump\t// out\n        /* \"#utility.yul\":3644:3762   */\n    tag_160:\n        /* \"#utility.yul\":3731:3755   */\n      tag_162\n        /* \"#utility.yul\":3749:3754   */\n      dup2\n        /* \"#utility.yul\":3731:3755   */\n      tag_163\n      jump\t// in\n    tag_162:\n        /* \"#utility.yul\":3726:3729   */\n      dup3\n        /* \"#utility.yul\":3719:3756   */\n      mstore\n        /* \"#utility.yul\":3644:3762   */\n      pop\n      pop\n      jump\t// out\n        /* \"#utility.yul\":3768:4147   */\n    tag_65:\n        /* \"#utility.yul\":3952:3955   */\n      0x00\n        /* \"#utility.yul\":3974:4121   */\n      tag_165\n        /* \"#utility.yul\":4117:4120   */\n      dup3\n        /* \"#utility.yul\":3974:4121   */\n      tag_154\n      jump\t// in\n    tag_165:\n        /* \"#utility.yul\":3967:4121   */\n      swap2\n      pop\n        /* \"#utility.yul\":4138:4141   */\n      dup2\n        /* \"#utility.yul\":4131:4141   */\n      swap1\n      pop\n        /* \"#utility.yul\":3768:4147   */\n      swap2\n      swap1\n      pop\n      jump\t// out\n        /* \"#utility.yul\":4153:4375   */\n    tag_31:\n        /* \"#utility.yul\":4246:4250   */\n      0x00\n        /* \"#utility.yul\":4284:4286   */\n      0x20\n        /* \"#utility.yul\":4273:4282   */\n      dup3\n        /* \"#utility.yul\":4269:4287   */\n      add\n        /* \"#utility.yul\":4261:4287   */\n      swap1\n      pop\n        /* \"#utility.yul\":4297:4368   */\n      tag_167\n        /* \"#utility.yul\":4365:4366   */\n      0x00\n        /* \"#utility.yul\":4354:4363   */\n      dup4\n        /* \"#utility.yul\":4350:4367   */\n      add\n        /* \"#utility.yul\":4341:4347   */\n      dup5\n        /* \"#utility.yul\":4297:4368   */\n      tag_144\n      jump\t// in\n    tag_167:\n        /* \"#utility.yul\":4153:4375   */\n      swap3\n      swap2\n      pop\n      pop\n      jump\t// out\n        /* \"#utility.yul\":4381:4800   */\n    tag_71:\n        /* \"#utility.yul\":4547:4551   */\n      0x00\n        /* \"#utility.yul\":4585:4587   */\n      0x20\n        /* \"#utility.yul\":4574:4583   */\n      dup3\n        /* \"#utility.yul\":4570:4588   */\n      add\n        /* \"#utility.yul\":4562:4588   */\n      swap1\n      pop\n        /* \"#utility.yul\":4634:4643   */\n      dup2\n        /* \"#utility.yul\":4628:4632   */\n      dup2\n        /* \"#utility.yul\":4624:4644   */\n      sub\n        /* \"#utility.yul\":4620:4621   */\n      0x00\n        /* \"#utility.yul\":4609:4618   */\n      dup4\n        /* \"#utility.yul\":4605:4622   */\n      add\n        /* \"#utility.yul\":4598:4645   */\n      mstore\n        /* \"#utility.yul\":4662:4793   */\n      tag_169\n        /* \"#utility.yul\":4788:4792   */\n      dup2\n        /* \"#utility.yul\":4662:4793   */\n      tag_148\n      jump\t// in\n    tag_169:\n        /* \"#utility.yul\":4654:4793   */\n      swap1\n      pop\n        /* \"#utility.yul\":4381:4800   */\n      swap2\n      swap1\n      pop\n      jump\t// out\n        /* \"#utility.yul\":4806:5028   */\n    tag_14:\n        /* \"#utility.yul\":4899:4903   */\n      0x00\n        /* \"#utility.yul\":4937:4939   */\n      0x20\n        /* \"#utility.yul\":4926:4935   */\n      dup3\n        /* \"#utility.yul\":4922:4940   */\n      add\n        /* \"#utility.yul\":4914:4940   */\n      swap1\n      pop\n        /* \"#utility.yul\":4950:5021   */\n      tag_171\n        /* \"#utility.yul\":5018:5019   */\n      0x00\n        /* \"#utility.yul\":5007:5016   */\n      dup4\n        /* \"#utility.yul\":5003:5020   */\n      add\n        /* \"#utility.yul\":4994:5000   */\n      dup5\n        /* \"#utility.yul\":4950:5021   */\n      tag_160\n      jump\t// in\n    tag_171:\n        /* \"#utility.yul\":4806:5028   */\n      swap3\n      swap2\n      pop\n      pop\n      jump\t// out\n        /* \"#utility.yul\":5115:5262   */\n    tag_157:\n        /* \"#utility.yul\":5216:5227   */\n      0x00\n        /* \"#utility.yul\":5253:5256   */\n      dup2\n        /* \"#utility.yul\":5238:5256   */\n      swap1\n      pop\n        /* \"#utility.yul\":5115:5262   */\n      swap3\n      swap2\n      pop\n      pop\n      jump\t// out\n        /* \"#utility.yul\":5268:5437   */\n    tag_151:\n        /* \"#utility.yul\":5352:5363   */\n      0x00\n        /* \"#utility.yul\":5386:5392   */\n      dup3\n        /* \"#utility.yul\":5381:5384   */\n      dup3\n        /* \"#utility.yul\":5374:5393   */\n      mstore\n        /* \"#utility.yul\":5426:5430   */\n      0x20\n        /* \"#utility.yul\":5421:5424   */\n      dup3\n        /* \"#utility.yul\":5417:5431   */\n      add\n        /* \"#utility.yul\":5402:5431   */\n      swap1\n      pop\n        /* \"#utility.yul\":5268:5437   */\n      swap3\n      swap2\n      pop\n      pop\n      jump\t// out\n        /* \"#utility.yul\":5443:5748   */\n    tag_77:\n        /* \"#utility.yul\":5483:5486   */\n      0x00\n        /* \"#utility.yul\":5502:5522   */\n      tag_177\n        /* \"#utility.yul\":5520:5521   */\n      dup3\n        /* \"#utility.yul\":5502:5522   */\n      tag_163\n      jump\t// in\n    tag_177:\n        /* \"#utility.yul\":5497:5522   */\n      swap2\n      pop\n        /* \"#utility.yul\":5536:5556   */\n      tag_178\n        /* \"#utility.yul\":5554:5555   */\n      dup4\n        /* \"#utility.yul\":5536:5556   */\n      tag_163\n      jump\t// in\n    tag_178:\n        /* \"#utility.yul\":5531:5556   */\n      swap3\n      pop\n        /* \"#utility.yul\":5690:5691   */\n      dup3\n        /* \"#utility.yul\":5622:5688   */\n      0xffffffffffffffffffffffffffffffffffffffffffffffffffffffffffffffff\n        /* \"#utility.yul\":5618:5692   */\n      sub\n        /* \"#utility.yul\":5615:5616   */\n      dup3\n        /* \"#utility.yul\":5612:5693   */\n      gt\n        /* \"#utility.yul\":5609:5716   */\n      iszero\n      tag_179\n      jumpi\n        /* \"#utility.yul\":5696:5714   */\n      tag_180\n      tag_181\n      jump\t// in\n    tag_180:\n        /* \"#utility.yul\":5609:5716   */\n    tag_179:\n        /* \"#utility.yul\":5740:5741   */\n      dup3\n        /* \"#utility.yul\":5737:5738   */\n      dup3\n        /* \"#utility.yul\":5733:5742   */\n      add\n        /* \"#utility.yul\":5726:5742   */\n      swap1\n      pop\n        /* \"#utility.yul\":5443:5748   */\n      swap3\n      swap2\n      pop\n      pop\n      jump\t// out\n        /* \"#utility.yul\":5754:5939   */\n    tag_87:\n        /* \"#utility.yul\":5794:5795   */\n      0x00\n        /* \"#utility.yul\":5811:5831   */\n      tag_183\n        /* \"#utility.yul\":5829:5830   */\n      dup3\n        /* \"#utility.yul\":5811:5831   */\n      tag_163\n      jump\t// in\n    tag_183:\n        /* \"#utility.yul\":5806:5831   */\n      swap2\n      pop\n        /* \"#utility.yul\":5845:5865   */\n      tag_184\n        /* \"#utility.yul\":5863:5864   */\n      dup4\n        /* \"#utility.yul\":5845:5865   */\n      tag_163\n      jump\t// in\n    tag_184:\n        /* \"#utility.yul\":5840:5865   */\n      swap3\n      pop\n        /* \"#utility.yul\":5884:5885   */\n      dup3\n        /* \"#utility.yul\":5874:5909   */\n      tag_185\n      jumpi\n        /* \"#utility.yul\":5889:5907   */\n      tag_186\n      tag_187\n      jump\t// in\n    tag_186:\n        /* \"#utility.yul\":5874:5909   */\n    tag_185:\n        /* \"#utility.yul\":5931:5932   */\n      dup3\n        /* \"#utility.yul\":5928:5929   */\n      dup3\n        /* \"#utility.yul\":5924:5933   */\n      div\n        /* \"#utility.yul\":5919:5933   */\n      swap1\n      pop\n        /* \"#utility.yul\":5754:5939   */\n      swap3\n      swap2\n      pop\n      pop\n      jump\t// out\n        /* \"#utility.yul\":5945:6936   */\n    tag_95:\n        /* \"#utility.yul\":5984:5991   */\n      0x00\n        /* \"#utility.yul\":6007:6026   */\n      tag_189\n        /* \"#utility.yul\":6024:6025   */\n      dup3\n        /* \"#utility.yul\":6007:6026   */\n      tag_190\n      jump\t// in\n    tag_189:\n        /* \"#utility.yul\":6002:6026   */\n      swap2\n      pop\n        /* \"#utility.yul\":6040:6059   */\n      tag_191\n        /* \"#utility.yul\":6057:6058   */\n      dup4\n        /* \"#utility.yul\":6040:6059   */\n      tag_190\n      jump\t// in\n    tag_191:\n        /* \"#utility.yul\":6035:6059   */\n      swap3\n      pop\n        /* \"#utility.yul\":6241:6242   */\n      dup3\n        /* \"#utility.yul\":6173:6239   */\n      0x7fffffffffffffffffffffffffffffffffffffffffffffffffffffffffffffff\n        /* \"#utility.yul\":6169:6243   */\n      div\n        /* \"#utility.yul\":6166:6167   */\n      dup3\n        /* \"#utility.yul\":6163:6244   */\n      gt\n        /* \"#utility.yul\":6158:6159   */\n      0x00\n        /* \"#utility.yul\":6155:6156   */\n      dup5\n        /* \"#utility.yul\":6151:6160   */\n      sgt\n        /* \"#utility.yul\":6147:6148   */\n      0x00\n        /* \"#utility.yul\":6144:6145   */\n      dup5\n        /* \"#utility.yul\":6140:6149   */\n      sgt\n        /* \"#utility.yul\":6136:6161   */\n      and\n        /* \"#utility.yul\":6132:6245   */\n      and\n        /* \"#utility.yul\":6129:6268   */\n      iszero\n      tag_192\n      jumpi\n        /* \"#utility.yul\":6248:6266   */\n      tag_193\n      tag_181\n      jump\t// in\n    tag_193:\n        /* \"#utility.yul\":6129:6268   */\n    tag_192:\n        /* \"#utility.yul\":6452:6453   */\n      dup2\n        /* \"#utility.yul\":6384:6450   */\n      0x8000000000000000000000000000000000000000000000000000000000000000\n        /* \"#utility.yul\":6379:6454   */\n      sdiv\n        /* \"#utility.yul\":6376:6377   */\n      dup4\n        /* \"#utility.yul\":6372:6455   */\n      slt\n        /* \"#utility.yul\":6367:6368   */\n      0x00\n        /* \"#utility.yul\":6364:6365   */\n      dup5\n        /* \"#utility.yul\":6360:6369   */\n      slt\n        /* \"#utility.yul\":6356:6357   */\n      0x00\n        /* \"#utility.yul\":6353:6354   */\n      dup5\n        /* \"#utility.yul\":6349:6358   */\n      sgt\n        /* \"#utility.yul\":6345:6370   */\n      and\n        /* \"#utility.yul\":6341:6456   */\n      and\n        /* \"#utility.yul\":6338:6479   */\n      iszero\n      tag_194\n      jumpi\n        /* \"#utility.yul\":6459:6477   */\n      tag_195\n      tag_181\n      jump\t// in\n    tag_195:\n        /* \"#utility.yul\":6338:6479   */\n    tag_194:\n        /* \"#utility.yul\":6663:6664   */\n      dup3\n        /* \"#utility.yul\":6595:6661   */\n      0x8000000000000000000000000000000000000000000000000000000000000000\n        /* \"#utility.yul\":6590:6665   */\n      sdiv\n        /* \"#utility.yul\":6587:6588   */\n      dup3\n        /* \"#utility.yul\":6583:6666   */\n      slt\n        /* \"#utility.yul\":6578:6579   */\n      0x00\n        /* \"#utility.yul\":6575:6576   */\n      dup5\n        /* \"#utility.yul\":6571:6580   */\n      sgt\n        /* \"#utility.yul\":6567:6568   */\n      0x00\n        /* \"#utility.yul\":6564:6565   */\n      dup5\n        /* \"#utility.yul\":6560:6569   */\n      slt\n        /* \"#utility.yul\":6556:6581   */\n      and\n        /* \"#utility.yul\":6552:6667   */\n      and\n        /* \"#utility.yul\":6549:6690   */\n      iszero\n      tag_196\n      jumpi\n        /* \"#utility.yul\":6670:6688   */\n      tag_197\n      tag_181\n      jump\t// in\n    tag_197:\n        /* \"#utility.yul\":6549:6690   */\n    tag_196:\n        /* \"#utility.yul\":6873:6874   */\n      dup3\n        /* \"#utility.yul\":6805:6871   */\n      0x7fffffffffffffffffffffffffffffffffffffffffffffffffffffffffffffff\n        /* \"#utility.yul\":6800:6875   */\n      sdiv\n        /* \"#utility.yul\":6797:6798   */\n      dup3\n        /* \"#utility.yul\":6793:6876   */\n      slt\n        /* \"#utility.yul\":6788:6789   */\n      0x00\n        /* \"#utility.yul\":6785:6786   */\n      dup5\n        /* \"#utility.yul\":6781:6790   */\n      slt\n        /* \"#utility.yul\":6777:6778   */\n      0x00\n        /* \"#utility.yul\":6774:6775   */\n      dup5\n        /* \"#utility.yul\":6770:6779   */\n      slt\n        /* \"#utility.yul\":6766:6791   */\n      and\n        /* \"#utility.yul\":6762:6877   */\n      and\n        /* \"#utility.yul\":6759:6900   */\n      iszero\n      tag_198\n      jumpi\n        /* \"#utility.yul\":6880:6898   */\n      tag_199\n      tag_181\n      jump\t// in\n    tag_199:\n        /* \"#utility.yul\":6759:6900   */\n    tag_198:\n        /* \"#utility.yul\":6928:6929   */\n      dup3\n        /* \"#utility.yul\":6925:6926   */\n      dup3\n        /* \"#utility.yul\":6921:6930   */\n      mul\n        /* \"#utility.yul\":6910:6930   */\n      swap1\n      pop\n        /* \"#utility.yul\":5945:6936   */\n      swap3\n      swap2\n      pop\n      pop\n      jump\t// out\n        /* \"#utility.yul\":6942:7290   */\n    tag_85:\n        /* \"#utility.yul\":6982:6989   */\n      0x00\n        /* \"#utility.yul\":7005:7025   */\n      tag_201\n        /* \"#utility.yul\":7023:7024   */\n      dup3\n        /* \"#utility.yul\":7005:7025   */\n      tag_163\n      jump\t// in\n    tag_201:\n        /* \"#utility.yul\":7000:7025   */\n      swap2\n      pop\n        /* \"#utility.yul\":7039:7059   */\n      tag_202\n        /* \"#utility.yul\":7057:7058   */\n      dup4\n        /* \"#utility.yul\":7039:7059   */\n      tag_163\n      jump\t// in\n    tag_202:\n        /* \"#utility.yul\":7034:7059   */\n      swap3\n      pop\n        /* \"#utility.yul\":7227:7228   */\n      dup2\n        /* \"#utility.yul\":7159:7225   */\n      0xffffffffffffffffffffffffffffffffffffffffffffffffffffffffffffffff\n        /* \"#utility.yul\":7155:7229   */\n      div\n        /* \"#utility.yul\":7152:7153   */\n      dup4\n        /* \"#utility.yul\":7149:7230   */\n      gt\n        /* \"#utility.yul\":7144:7145   */\n      dup3\n        /* \"#utility.yul\":7137:7146   */\n      iszero\n        /* \"#utility.yul\":7130:7147   */\n      iszero\n        /* \"#utility.yul\":7126:7231   */\n      and\n        /* \"#utility.yul\":7123:7254   */\n      iszero\n      tag_203\n      jumpi\n        /* \"#utility.yul\":7234:7252   */\n      tag_204\n      tag_181\n      jump\t// in\n    tag_204:\n        /* \"#utility.yul\":7123:7254   */\n    tag_203:\n        /* \"#utility.yul\":7282:7283   */\n      dup3\n        /* \"#utility.yul\":7279:7280   */\n      dup3\n        /* \"#utility.yul\":7275:7284   */\n      mul\n        /* \"#utility.yul\":7264:7284   */\n      swap1\n      pop\n        /* \"#utility.yul\":6942:7290   */\n      swap3\n      swap2\n      pop\n      pop\n      jump\t// out\n        /* \"#utility.yul\":7296:7392   */\n    tag_147:\n        /* \"#utility.yul\":7333:7340   */\n      0x00\n        /* \"#utility.yul\":7362:7386   */\n      tag_206\n        /* \"#utility.yul\":7380:7385   */\n      dup3\n        /* \"#utility.yul\":7362:7386   */\n      tag_207\n      jump\t// in\n    tag_206:\n        /* \"#utility.yul\":7351:7386   */\n      swap1\n      pop\n        /* \"#utility.yul\":7296:7392   */\n      swap2\n      swap1\n      pop\n      jump\t// out\n        /* \"#utility.yul\":7398:7474   */\n    tag_190:\n        /* \"#utility.yul\":7434:7441   */\n      0x00\n        /* \"#utility.yul\":7463:7468   */\n      dup2\n        /* \"#utility.yul\":7452:7468   */\n      swap1\n      pop\n        /* \"#utility.yul\":7398:7474   */\n      swap2\n      swap1\n      pop\n      jump\t// out\n        /* \"#utility.yul\":7480:7606   */\n    tag_207:\n        /* \"#utility.yul\":7517:7524   */\n      0x00\n        /* \"#utility.yul\":7557:7599   */\n      0xffffffffffffffffffffffffffffffffffffffff\n        /* \"#utility.yul\":7550:7555   */\n      dup3\n        /* \"#utility.yul\":7546:7600   */\n      and\n        /* \"#utility.yul\":7535:7600   */\n      swap1\n      pop\n        /* \"#utility.yul\":7480:7606   */\n      swap2\n      swap1\n      pop\n      jump\t// out\n        /* \"#utility.yul\":7612:7689   */\n    tag_163:\n        /* \"#utility.yul\":7649:7656   */\n      0x00\n        /* \"#utility.yul\":7678:7683   */\n      dup2\n        /* \"#utility.yul\":7667:7683   */\n      swap1\n      pop\n        /* \"#utility.yul\":7612:7689   */\n      swap2\n      swap1\n      pop\n      jump\t// out\n        /* \"#utility.yul\":7695:7800   */\n    tag_211:\n        /* \"#utility.yul\":7731:7738   */\n      0x00\n        /* \"#utility.yul\":7771:7793   */\n      0xffffffffffffffffffff\n        /* \"#utility.yul\":7764:7769   */\n      dup3\n        /* \"#utility.yul\":7760:7794   */\n      and\n        /* \"#utility.yul\":7749:7794   */\n      swap1\n      pop\n        /* \"#utility.yul\":7695:7800   */\n      swap2\n      swap1\n      pop\n      jump\t// out\n        /* \"#utility.yul\":7806:8039   */\n    tag_57:\n        /* \"#utility.yul\":7845:7848   */\n      0x00\n        /* \"#utility.yul\":7868:7892   */\n      tag_214\n        /* \"#utility.yul\":7886:7891   */\n      dup3\n        /* \"#utility.yul\":7868:7892   */\n      tag_163\n      jump\t// in\n    tag_214:\n        /* \"#utility.yul\":7859:7892   */\n      swap2\n      pop\n        /* \"#utility.yul\":7914:7980   */\n      0xffffffffffffffffffffffffffffffffffffffffffffffffffffffffffffffff\n        /* \"#utility.yul\":7907:7912   */\n      dup3\n        /* \"#utility.yul\":7904:7981   */\n      eq\n        /* \"#utility.yul\":7901:8004   */\n      iszero\n      tag_215\n      jumpi\n        /* \"#utility.yul\":7984:8002   */\n      tag_216\n      tag_181\n      jump\t// in\n    tag_216:\n        /* \"#utility.yul\":7901:8004   */\n    tag_215:\n        /* \"#utility.yul\":8031:8032   */\n      0x01\n        /* \"#utility.yul\":8024:8029   */\n      dup3\n        /* \"#utility.yul\":8020:8033   */\n      add\n        /* \"#utility.yul\":8013:8033   */\n      swap1\n      pop\n        /* \"#utility.yul\":7806:8039   */\n      swap2\n      swap1\n      pop\n      jump\t// out\n        /* \"#utility.yul\":8045:8225   */\n    tag_181:\n        /* \"#utility.yul\":8093:8170   */\n      0x4e487b7100000000000000000000000000000000000000000000000000000000\n        /* \"#utility.yul\":8090:8091   */\n      0x00\n        /* \"#utility.yul\":8083:8171   */\n      mstore\n        /* \"#utility.yul\":8190:8194   */\n      0x11\n        /* \"#utility.yul\":8187:8188   */\n      0x04\n        /* \"#utility.yul\":8180:8195   */\n      mstore\n        /* \"#utility.yul\":8214:8218   */\n      0x24\n        /* \"#utility.yul\":8211:8212   */\n      0x00\n        /* \"#utility.yul\":8204:8219   */\n      revert\n        /* \"#utility.yul\":8231:8411   */\n    tag_187:\n        /* \"#utility.yul\":8279:8356   */\n      0x4e487b7100000000000000000000000000000000000000000000000000000000\n        /* \"#utility.yul\":8276:8277   */\n      0x00\n        /* \"#utility.yul\":8269:8357   */\n      mstore\n        /* \"#utility.yul\":8376:8380   */\n      0x12\n        /* \"#utility.yul\":8373:8374   */\n      0x04\n        /* \"#utility.yul\":8366:8381   */\n      mstore\n        /* \"#utility.yul\":8400:8404   */\n      0x24\n        /* \"#utility.yul\":8397:8398   */\n      0x00\n        /* \"#utility.yul\":8390:8405   */\n      revert\n        /* \"#utility.yul\":8417:8597   */\n    tag_54:\n        /* \"#utility.yul\":8465:8542   */\n      0x4e487b7100000000000000000000000000000000000000000000000000000000\n        /* \"#utility.yul\":8462:8463   */\n      0x00\n        /* \"#utility.yul\":8455:8543   */\n      mstore\n        /* \"#utility.yul\":8562:8566   */\n      0x32\n        /* \"#utility.yul\":8559:8560   */\n      0x04\n        /* \"#utility.yul\":8552:8567   */\n      mstore\n        /* \"#utility.yul\":8586:8590   */\n      0x24\n        /* \"#utility.yul\":8583:8584   */\n      0x00\n        /* \"#utility.yul\":8576:8591   */\n      revert\n        /* \"#utility.yul\":8603:8783   */\n    tag_60:\n        /* \"#utility.yul\":8651:8728   */\n      0x4e487b7100000000000000000000000000000000000000000000000000000000\n        /* \"#utility.yul\":8648:8649   */\n      0x00\n        /* \"#utility.yul\":8641:8729   */\n      mstore\n        /* \"#utility.yul\":8748:8752   */\n      0x41\n        /* \"#utility.yul\":8745:8746   */\n      0x04\n        /* \"#utility.yul\":8738:8753   */\n      mstore\n        /* \"#utility.yul\":8772:8776   */\n      0x24\n        /* \"#utility.yul\":8769:8770   */\n      0x00\n        /* \"#utility.yul\":8762:8777   */\n      revert\n        /* \"#utility.yul\":8912:9029   */\n    tag_126:\n        /* \"#utility.yul\":9021:9022   */\n      0x00\n        /* \"#utility.yul\":9018:9019   */\n      dup1\n        /* \"#utility.yul\":9011:9023   */\n      revert\n        /* \"#utility.yul\":9035:9196   */\n    tag_153:\n        /* \"#utility.yul\":9175:9188   */\n      0x43616c6c206661696c6564000000000000000000000000000000000000000000\n        /* \"#utility.yul\":9171:9172   */\n      0x00\n        /* \"#utility.yul\":9163:9169   */\n      dup3\n        /* \"#utility.yul\":9159:9173   */\n      add\n        /* \"#utility.yul\":9152:9189   */\n      mstore\n        /* \"#utility.yul\":9035:9196   */\n      pop\n      jump\t// out\n        /* \"#utility.yul\":9202:9316   */\n    tag_159:\n      pop\n      jump\t// out\n        /* \"#utility.yul\":9322:9444   */\n    tag_107:\n        /* \"#utility.yul\":9395:9419   */\n      tag_227\n        /* \"#utility.yul\":9413:9418   */\n      dup2\n        /* \"#utility.yul\":9395:9419   */\n      tag_147\n      jump\t// in\n    tag_227:\n        /* \"#utility.yul\":9388:9393   */\n      dup2\n        /* \"#utility.yul\":9385:9420   */\n      eq\n        /* \"#utility.yul\":9375:9438   */\n      tag_228\n      jumpi\n        /* \"#utility.yul\":9434:9435   */\n      0x00\n        /* \"#utility.yul\":9431:9432   */\n      dup1\n        /* \"#utility.yul\":9424:9436   */\n      revert\n        /* \"#utility.yul\":9375:9438   */\n    tag_228:\n        /* \"#utility.yul\":9322:9444   */\n      pop\n      jump\t// out\n        /* \"#utility.yul\":9450:9570   */\n    tag_111:\n        /* \"#utility.yul\":9522:9545   */\n      tag_230\n        /* \"#utility.yul\":9539:9544   */\n      dup2\n        /* \"#utility.yul\":9522:9545   */\n      tag_190\n      jump\t// in\n    tag_230:\n        /* \"#utility.yul\":9515:9520   */\n      dup2\n        /* \"#utility.yul\":9512:9546   */\n      eq\n        /* \"#utility.yul\":9502:9564   */\n      tag_231\n      jumpi\n        /* \"#utility.yul\":9560:9561   */\n      0x00\n        /* \"#utility.yul\":9557:9558   */\n      dup1\n        /* \"#utility.yul\":9550:9562   */\n      revert\n        /* \"#utility.yul\":9502:9564   */\n    tag_231:\n        /* \"#utility.yul\":9450:9570   */\n      pop\n      jump\t// out\n        /* \"#utility.yul\":9576:9698   */\n    tag_115:\n        /* \"#utility.yul\":9649:9673   */\n      tag_233\n        /* \"#utility.yul\":9667:9672   */\n      dup2\n        /* \"#utility.yul\":9649:9673   */\n      tag_163\n      jump\t// in\n    tag_233:\n        /* \"#utility.yul\":9642:9647   */\n      dup2\n        /* \"#utility.yul\":9639:9674   */\n      eq\n        /* \"#utility.yul\":9629:9692   */\n      tag_234\n      jumpi\n        /* \"#utility.yul\":9688:9689   */\n      0x00\n        /* \"#utility.yul\":9685:9686   */\n      dup1\n        /* \"#utility.yul\":9678:9690   */\n      revert\n        /* \"#utility.yul\":9629:9692   */\n    tag_234:\n        /* \"#utility.yul\":9576:9698   */\n      pop\n      jump\t// out\n        /* \"#utility.yul\":9704:9824   */\n    tag_122:\n        /* \"#utility.yul\":9776:9799   */\n      tag_236\n        /* \"#utility.yul\":9793:9798   */\n      dup2\n        /* \"#utility.yul\":9776:9799   */\n      tag_211\n      jump\t// in\n    tag_236:\n        /* \"#utility.yul\":9769:9774   */\n      dup2\n        /* \"#utility.yul\":9766:9800   */\n      eq\n        /* \"#utility.yul\":9756:9818   */\n      tag_237\n      jumpi\n        /* \"#utility.yul\":9814:9815   */\n      0x00\n        /* \"#utility.yul\":9811:9812   */\n      dup1\n        /* \"#utility.yul\":9804:9816   */\n      revert\n        /* \"#utility.yul\":9756:9818   */\n    tag_237:\n        /* \"#utility.yul\":9704:9824   */\n      pop\n      jump\t// out\n\n    auxdata: 0xa2646970667358221220f59284daaad0e4cf6df10e7d1a0b5b5566fc5567f156bb242af825d1527e69f964736f6c63430008070033\n}\n",
				"bytecode": {
					"linkReferences": {},
					"object": "608060405234801561001057600080fd5b5033600260006101000a81548173ffffffffffffffffffffffffffffffffffffffff021916908373ffffffffffffffffffffffffffffffffffffffff160217905550610dd2806100616000396000f3fe6080604052600436106100705760003560e01c80636b69a5921161004e5780636b69a592146100e75780638da5cb5b14610112578063b60d42881461013d578063dc0d3dff1461014757610070565b80630d8e6e2c146100755780633e47d6f3146100a057806352b50a2a146100dd575b600080fd5b34801561008157600080fd5b5061008a610184565b604051610097919061097f565b60405180910390f35b3480156100ac57600080fd5b506100c760048036038101906100c291906107c9565b610222565b6040516100d4919061097f565b60405180910390f35b6100e561023a565b005b3480156100f357600080fd5b506100fc61047c565b604051610109919061097f565b60405180910390f35b34801561011e57600080fd5b50610127610489565b6040516101349190610944565b60405180910390f35b6101456104af565b005b34801561015357600080fd5b5061016e600480360381019061016991906107f6565b610588565b60405161017b9190610944565b60405180910390f35b600080738a753747a1fa494ec906ce90e9f37563a8af630e90508073ffffffffffffffffffffffffffffffffffffffff166354fd4d506040518163ffffffff1660e01b815260040160206040518083038186803b1580156101e457600080fd5b505afa1580156101f8573d6000803e3d6000fd5b505050506040513d601f19601f8201168201806040525081019061021c9190610823565b91505090565b60016020528060005260406000206000915090505481565b600260009054906101000a900473ffffffffffffffffffffffffffffffffffffffff1673ffffffffffffffffffffffffffffffffffffffff163373ffffffffffffffffffffffffffffffffffffffff16146102c1576040517f30cd747100000000000000000000000000000000000000000000000000000000815260040160405180910390fd5b60005b60008054905081101561036c5760008082815481106102e6576102e5610cb1565b5b9060005260206000200160009054906101000a900473ffffffffffffffffffffffffffffffffffffffff1690506000600160008373ffffffffffffffffffffffffffffffffffffffff1673ffffffffffffffffffffffffffffffffffffffff1681526020019081526020016000208190555050808061036490610c0a565b9150506102c4565b50600067ffffffffffffffff81111561038857610387610ce0565b5b6040519080825280602002602001820160405280156103b65781602001602082028036833780820191505090505b50600090805190602001906103cc9291906106b9565b5060003373ffffffffffffffffffffffffffffffffffffffff16476040516103f39061092f565b60006040518083038185875af1925050503d8060008114610430576040519150601f19603f3d011682016040523d82523d6000602084013e610435565b606091505b5050905080610479576040517f08c379a00000000000000000000000000000000000000000000000000000000081526004016104709061095f565b60405180910390fd5b50565b6802b5e3af16b188000081565b600260009054906101000a900473ffffffffffffffffffffffffffffffffffffffff1681565b6802b5e3af16b18800006104c2346105c7565b10156104cd57600080fd5b34600160003373ffffffffffffffffffffffffffffffffffffffff1673ffffffffffffffffffffffffffffffffffffffff168152602001908152602001600020600082825461051c91906109b6565b925050819055506000339080600181540180825580915050600190039060005260206000200160009091909190916101000a81548173ffffffffffffffffffffffffffffffffffffffff021916908373ffffffffffffffffffffffffffffffffffffffff160217905550565b6000818154811061059857600080fd5b906000526020600020016000915054906101000a900473ffffffffffffffffffffffffffffffffffffffff1681565b6000806105d2610601565b90506000670de0b6b3a764000084836105eb9190610b54565b6105f59190610a0c565b90508092505050919050565b600080738a753747a1fa494ec906ce90e9f37563a8af630e905060008173ffffffffffffffffffffffffffffffffffffffff1663feaf968c6040518163ffffffff1660e01b815260040160a06040518083038186803b15801561066357600080fd5b505afa158015610677573d6000803e3d6000fd5b505050506040513d601f19601f8201168201806040525081019061069b9190610850565b5050509150506402540be400816106b29190610a3d565b9250505090565b828054828255906000526020600020908101928215610732579160200282015b828111156107315782518260006101000a81548173ffffffffffffffffffffffffffffffffffffffff021916908373ffffffffffffffffffffffffffffffffffffffff160217905550916020019190600101906106d9565b5b50905061073f9190610743565b5090565b5b8082111561075c576000816000905550600101610744565b5090565b60008135905061076f81610d40565b92915050565b60008151905061078481610d57565b92915050565b60008135905061079981610d6e565b92915050565b6000815190506107ae81610d6e565b92915050565b6000815190506107c381610d85565b92915050565b6000602082840312156107df576107de610d0f565b5b60006107ed84828501610760565b91505092915050565b60006020828403121561080c5761080b610d0f565b5b600061081a8482850161078a565b91505092915050565b60006020828403121561083957610838610d0f565b5b60006108478482850161079f565b91505092915050565b600080600080600060a0868803121561086c5761086b610d0f565b5b600061087a888289016107b4565b955050602061088b88828901610775565b945050604061089c8882890161079f565b93505060606108ad8882890161079f565b92505060806108be888289016107b4565b9150509295509295909350565b6108d481610bae565b82525050565b60006108e7600b836109a5565b91506108f282610d14565b602082019050919050565b600061090a60008361099a565b915061091582610d3d565b600082019050919050565b61092981610bea565b82525050565b600061093a826108fd565b9150819050919050565b600060208201905061095960008301846108cb565b92915050565b60006020820190508181036000830152610978816108da565b9050919050565b60006020820190506109946000830184610920565b92915050565b600081905092915050565b600082825260208201905092915050565b60006109c182610bea565b91506109cc83610bea565b9250827fffffffffffffffffffffffffffffffffffffffffffffffffffffffffffffffff03821115610a0157610a00610c53565b5b828201905092915050565b6000610a1782610bea565b9150610a2283610bea565b925082610a3257610a31610c82565b5b828204905092915050565b6000610a4882610bc0565b9150610a5383610bc0565b9250827f7fffffffffffffffffffffffffffffffffffffffffffffffffffffffffffffff0482116000841360008413161615610a9257610a91610c53565b5b817f80000000000000000000000000000000000000000000000000000000000000000583126000841260008413161615610acf57610ace610c53565b5b827f80000000000000000000000000000000000000000000000000000000000000000582126000841360008412161615610b0c57610b0b610c53565b5b827f7fffffffffffffffffffffffffffffffffffffffffffffffffffffffffffffff0582126000841260008412161615610b4957610b48610c53565b5b828202905092915050565b6000610b5f82610bea565b9150610b6a83610bea565b9250817fffffffffffffffffffffffffffffffffffffffffffffffffffffffffffffffff0483118215151615610ba357610ba2610c53565b5b828202905092915050565b6000610bb982610bca565b9050919050565b6000819050919050565b600073ffffffffffffffffffffffffffffffffffffffff82169050919050565b6000819050919050565b600069ffffffffffffffffffff82169050919050565b6000610c1582610bea565b91507fffffffffffffffffffffffffffffffffffffffffffffffffffffffffffffffff821415610c4857610c47610c53565b5b600182019050919050565b7f4e487b7100000000000000000000000000000000000000000000000000000000600052601160045260246000fd5b7f4e487b7100000000000000000000000000000000000000000000000000000000600052601260045260246000fd5b7f4e487b7100000000000000000000000000000000000000000000000000000000600052603260045260246000fd5b7f4e487b7100000000000000000000000000000000000000000000000000000000600052604160045260246000fd5b600080fd5b7f43616c6c206661696c6564000000000000000000000000000000000000000000600082015250565b50565b610d4981610bae565b8114610d5457600080fd5b50565b610d6081610bc0565b8114610d6b57600080fd5b50565b610d7781610bea565b8114610d8257600080fd5b50565b610d8e81610bf4565b8114610d9957600080fd5b5056fea2646970667358221220f59284daaad0e4cf6df10e7d1a0b5b5566fc5567f156bb242af825d1527e69f964736f6c63430008070033",
					"opcodes": "PUSH1 0x80 PUSH1 0x40 MSTORE CALLVALUE DUP1 ISZERO PUSH2 0x10 JUMPI PUSH1 0x0 DUP1 REVERT JUMPDEST POP CALLER PUSH1 0x2 PUSH1 0x0 PUSH2 0x100 EXP DUP2 SLOAD DUP2 PUSH20 0xFFFFFFFFFFFFFFFFFFFFFFFFFFFFFFFFFFFFFFFF MUL NOT AND SWAP1 DUP4 PUSH20 0xFFFFFFFFFFFFFFFFFFFFFFFFFFFFFFFFFFFFFFFF AND MUL OR SWAP1 SSTORE POP PUSH2 0xDD2 DUP1 PUSH2 0x61 PUSH1 0x0 CODECOPY PUSH1 0x0 RETURN INVALID PUSH1 0x80 PUSH1 0x40 MSTORE PUSH1 0x4 CALLDATASIZE LT PUSH2 0x70 JUMPI PUSH1 0x0 CALLDATALOAD PUSH1 0xE0 SHR DUP1 PUSH4 0x6B69A592 GT PUSH2 0x4E JUMPI DUP1 PUSH4 0x6B69A592 EQ PUSH2 0xE7 JUMPI DUP1 PUSH4 0x8DA5CB5B EQ PUSH2 0x112 JUMPI DUP1 PUSH4 0xB60D4288 EQ PUSH2 0x13D JUMPI DUP1 PUSH4 0xDC0D3DFF EQ PUSH2 0x147 JUMPI PUSH2 0x70 JUMP JUMPDEST DUP1 PUSH4 0xD8E6E2C EQ PUSH2 0x75 JUMPI DUP1 PUSH4 0x3E47D6F3 EQ PUSH2 0xA0 JUMPI DUP1 PUSH4 0x52B50A2A EQ PUSH2 0xDD JUMPI JUMPDEST PUSH1 0x0 DUP1 REVERT JUMPDEST CALLVALUE DUP1 ISZERO PUSH2 0x81 JUMPI PUSH1 0x0 DUP1 REVERT JUMPDEST POP PUSH2 0x8A PUSH2 0x184 JUMP JUMPDEST PUSH1 0x40 MLOAD PUSH2 0x97 SWAP2 SWAP1 PUSH2 0x97F JUMP JUMPDEST PUSH1 0x40 MLOAD DUP1 SWAP2 SUB SWAP1 RETURN JUMPDEST CALLVALUE DUP1 ISZERO PUSH2 0xAC JUMPI PUSH1 0x0 DUP1 REVERT JUMPDEST POP PUSH2 0xC7 PUSH1 0x4 DUP1 CALLDATASIZE SUB DUP2 ADD SWAP1 PUSH2 0xC2 SWAP2 SWAP1 PUSH2 0x7C9 JUMP JUMPDEST PUSH2 0x222 JUMP JUMPDEST PUSH1 0x40 MLOAD PUSH2 0xD4 SWAP2 SWAP1 PUSH2 0x97F JUMP JUMPDEST PUSH1 0x40 MLOAD DUP1 SWAP2 SUB SWAP1 RETURN JUMPDEST PUSH2 0xE5 PUSH2 0x23A JUMP JUMPDEST STOP JUMPDEST CALLVALUE DUP1 ISZERO PUSH2 0xF3 JUMPI PUSH1 0x0 DUP1 REVERT JUMPDEST POP PUSH2 0xFC PUSH2 0x47C JUMP JUMPDEST PUSH1 0x40 MLOAD PUSH2 0x109 SWAP2 SWAP1 PUSH2 0x97F JUMP JUMPDEST PUSH1 0x40 MLOAD DUP1 SWAP2 SUB SWAP1 RETURN JUMPDEST CALLVALUE DUP1 ISZERO PUSH2 0x11E JUMPI PUSH1 0x0 DUP1 REVERT JUMPDEST POP PUSH2 0x127 PUSH2 0x489 JUMP JUMPDEST PUSH1 0x40 MLOAD PUSH2 0x134 SWAP2 SWAP1 PUSH2 0x944 JUMP JUMPDEST PUSH1 0x40 MLOAD DUP1 SWAP2 SUB SWAP1 RETURN JUMPDEST PUSH2 0x145 PUSH2 0x4AF JUMP JUMPDEST STOP JUMPDEST CALLVALUE DUP1 ISZERO PUSH2 0x153 JUMPI PUSH1 0x0 DUP1 REVERT JUMPDEST POP PUSH2 0x16E PUSH1 0x4 DUP1 CALLDATASIZE SUB DUP2 ADD SWAP1 PUSH2 0x169 SWAP2 SWAP1 PUSH2 0x7F6 JUMP JUMPDEST PUSH2 0x588 JUMP JUMPDEST PUSH1 0x40 MLOAD PUSH2 0x17B SWAP2 SWAP1 PUSH2 0x944 JUMP JUMPDEST PUSH1 0x40 MLOAD DUP1 SWAP2 SUB SWAP1 RETURN JUMPDEST PUSH1 0x0 DUP1 PUSH20 0x8A753747A1FA494EC906CE90E9F37563A8AF630E SWAP1 POP DUP1 PUSH20 0xFFFFFFFFFFFFFFFFFFFFFFFFFFFFFFFFFFFFFFFF AND PUSH4 0x54FD4D50 PUSH1 0x40 MLOAD DUP2 PUSH4 0xFFFFFFFF AND PUSH1 0xE0 SHL DUP2 MSTORE PUSH1 0x4 ADD PUSH1 0x20 PUSH1 0x40 MLOAD DUP1 DUP4 SUB DUP2 DUP7 DUP1 EXTCODESIZE ISZERO DUP1 ISZERO PUSH2 0x1E4 JUMPI PUSH1 0x0 DUP1 REVERT JUMPDEST POP GAS STATICCALL ISZERO DUP1 ISZERO PUSH2 0x1F8 JUMPI RETURNDATASIZE PUSH1 0x0 DUP1 RETURNDATACOPY RETURNDATASIZE PUSH1 0x0 REVERT JUMPDEST POP POP POP POP PUSH1 0x40 MLOAD RETURNDATASIZE PUSH1 0x1F NOT PUSH1 0x1F DUP3 ADD AND DUP3 ADD DUP1 PUSH1 0x40 MSTORE POP DUP2 ADD SWAP1 PUSH2 0x21C SWAP2 SWAP1 PUSH2 0x823 JUMP JUMPDEST SWAP2 POP POP SWAP1 JUMP JUMPDEST PUSH1 0x1 PUSH1 0x20 MSTORE DUP1 PUSH1 0x0 MSTORE PUSH1 0x40 PUSH1 0x0 KECCAK256 PUSH1 0x0 SWAP2 POP SWAP1 POP SLOAD DUP2 JUMP JUMPDEST PUSH1 0x2 PUSH1 0x0 SWAP1 SLOAD SWAP1 PUSH2 0x100 EXP SWAP1 DIV PUSH20 0xFFFFFFFFFFFFFFFFFFFFFFFFFFFFFFFFFFFFFFFF AND PUSH20 0xFFFFFFFFFFFFFFFFFFFFFFFFFFFFFFFFFFFFFFFF AND CALLER PUSH20 0xFFFFFFFFFFFFFFFFFFFFFFFFFFFFFFFFFFFFFFFF AND EQ PUSH2 0x2C1 JUMPI PUSH1 0x40 MLOAD PUSH32 0x30CD747100000000000000000000000000000000000000000000000000000000 DUP2 MSTORE PUSH1 0x4 ADD PUSH1 0x40 MLOAD DUP1 SWAP2 SUB SWAP1 REVERT JUMPDEST PUSH1 0x0 JUMPDEST PUSH1 0x0 DUP1 SLOAD SWAP1 POP DUP2 LT ISZERO PUSH2 0x36C JUMPI PUSH1 0x0 DUP1 DUP3 DUP2 SLOAD DUP2 LT PUSH2 0x2E6 JUMPI PUSH2 0x2E5 PUSH2 0xCB1 JUMP JUMPDEST JUMPDEST SWAP1 PUSH1 0x0 MSTORE PUSH1 0x20 PUSH1 0x0 KECCAK256 ADD PUSH1 0x0 SWAP1 SLOAD SWAP1 PUSH2 0x100 EXP SWAP1 DIV PUSH20 0xFFFFFFFFFFFFFFFFFFFFFFFFFFFFFFFFFFFFFFFF AND SWAP1 POP PUSH1 0x0 PUSH1 0x1 PUSH1 0x0 DUP4 PUSH20 0xFFFFFFFFFFFFFFFFFFFFFFFFFFFFFFFFFFFFFFFF AND PUSH20 0xFFFFFFFFFFFFFFFFFFFFFFFFFFFFFFFFFFFFFFFF AND DUP2 MSTORE PUSH1 0x20 ADD SWAP1 DUP2 MSTORE PUSH1 0x20 ADD PUSH1 0x0 KECCAK256 DUP2 SWAP1 SSTORE POP POP DUP1 DUP1 PUSH2 0x364 SWAP1 PUSH2 0xC0A JUMP JUMPDEST SWAP2 POP POP PUSH2 0x2C4 JUMP JUMPDEST POP PUSH1 0x0 PUSH8 0xFFFFFFFFFFFFFFFF DUP2 GT ISZERO PUSH2 0x388 JUMPI PUSH2 0x387 PUSH2 0xCE0 JUMP JUMPDEST JUMPDEST PUSH1 0x40 MLOAD SWAP1 DUP1 DUP3 MSTORE DUP1 PUSH1 0x20 MUL PUSH1 0x20 ADD DUP3 ADD PUSH1 0x40 MSTORE DUP1 ISZERO PUSH2 0x3B6 JUMPI DUP2 PUSH1 0x20 ADD PUSH1 0x20 DUP3 MUL DUP1 CALLDATASIZE DUP4 CALLDATACOPY DUP1 DUP3 ADD SWAP2 POP POP SWAP1 POP JUMPDEST POP PUSH1 0x0 SWAP1 DUP1 MLOAD SWAP1 PUSH1 0x20 ADD SWAP1 PUSH2 0x3CC SWAP3 SWAP2 SWAP1 PUSH2 0x6B9 JUMP JUMPDEST POP PUSH1 0x0 CALLER PUSH20 0xFFFFFFFFFFFFFFFFFFFFFFFFFFFFFFFFFFFFFFFF AND SELFBALANCE PUSH1 0x40 MLOAD PUSH2 0x3F3 SWAP1 PUSH2 0x92F JUMP JUMPDEST PUSH1 0x0 PUSH1 0x40 MLOAD DUP1 DUP4 SUB DUP2 DUP6 DUP8 GAS CALL SWAP3 POP POP POP RETURNDATASIZE DUP1 PUSH1 0x0 DUP2 EQ PUSH2 0x430 JUMPI PUSH1 0x40 MLOAD SWAP2 POP PUSH1 0x1F NOT PUSH1 0x3F RETURNDATASIZE ADD AND DUP3 ADD PUSH1 0x40 MSTORE RETURNDATASIZE DUP3 MSTORE RETURNDATASIZE PUSH1 0x0 PUSH1 0x20 DUP5 ADD RETURNDATACOPY PUSH2 0x435 JUMP JUMPDEST PUSH1 0x60 SWAP2 POP JUMPDEST POP POP SWAP1 POP DUP1 PUSH2 0x479 JUMPI PUSH1 0x40 MLOAD PUSH32 0x8C379A000000000000000000000000000000000000000000000000000000000 DUP2 MSTORE PUSH1 0x4 ADD PUSH2 0x470 SWAP1 PUSH2 0x95F JUMP JUMPDEST PUSH1 0x40 MLOAD DUP1 SWAP2 SUB SWAP1 REVERT JUMPDEST POP JUMP JUMPDEST PUSH9 0x2B5E3AF16B1880000 DUP2 JUMP JUMPDEST PUSH1 0x2 PUSH1 0x0 SWAP1 SLOAD SWAP1 PUSH2 0x100 EXP SWAP1 DIV PUSH20 0xFFFFFFFFFFFFFFFFFFFFFFFFFFFFFFFFFFFFFFFF AND DUP2 JUMP JUMPDEST PUSH9 0x2B5E3AF16B1880000 PUSH2 0x4C2 CALLVALUE PUSH2 0x5C7 JUMP JUMPDEST LT ISZERO PUSH2 0x4CD JUMPI PUSH1 0x0 DUP1 REVERT JUMPDEST CALLVALUE PUSH1 0x1 PUSH1 0x0 CALLER PUSH20 0xFFFFFFFFFFFFFFFFFFFFFFFFFFFFFFFFFFFFFFFF AND PUSH20 0xFFFFFFFFFFFFFFFFFFFFFFFFFFFFFFFFFFFFFFFF AND DUP2 MSTORE PUSH1 0x20 ADD SWAP1 DUP2 MSTORE PUSH1 0x20 ADD PUSH1 0x0 KECCAK256 PUSH1 0x0 DUP3 DUP3 SLOAD PUSH2 0x51C SWAP2 SWAP1 PUSH2 0x9B6 JUMP JUMPDEST SWAP3 POP POP DUP2 SWAP1 SSTORE POP PUSH1 0x0 CALLER SWAP1 DUP1 PUSH1 0x1 DUP2 SLOAD ADD DUP1 DUP3 SSTORE DUP1 SWAP2 POP POP PUSH1 0x1 SWAP1 SUB SWAP1 PUSH1 0x0 MSTORE PUSH1 0x20 PUSH1 0x0 KECCAK256 ADD PUSH1 0x0 SWAP1 SWAP2 SWAP1 SWAP2 SWAP1 SWAP2 PUSH2 0x100 EXP DUP2 SLOAD DUP2 PUSH20 0xFFFFFFFFFFFFFFFFFFFFFFFFFFFFFFFFFFFFFFFF MUL NOT AND SWAP1 DUP4 PUSH20 0xFFFFFFFFFFFFFFFFFFFFFFFFFFFFFFFFFFFFFFFF AND MUL OR SWAP1 SSTORE POP JUMP JUMPDEST PUSH1 0x0 DUP2 DUP2 SLOAD DUP2 LT PUSH2 0x598 JUMPI PUSH1 0x0 DUP1 REVERT JUMPDEST SWAP1 PUSH1 0x0 MSTORE PUSH1 0x20 PUSH1 0x0 KECCAK256 ADD PUSH1 0x0 SWAP2 POP SLOAD SWAP1 PUSH2 0x100 EXP SWAP1 DIV PUSH20 0xFFFFFFFFFFFFFFFFFFFFFFFFFFFFFFFFFFFFFFFF AND DUP2 JUMP JUMPDEST PUSH1 0x0 DUP1 PUSH2 0x5D2 PUSH2 0x601 JUMP JUMPDEST SWAP1 POP PUSH1 0x0 PUSH8 0xDE0B6B3A7640000 DUP5 DUP4 PUSH2 0x5EB SWAP2 SWAP1 PUSH2 0xB54 JUMP JUMPDEST PUSH2 0x5F5 SWAP2 SWAP1 PUSH2 0xA0C JUMP JUMPDEST SWAP1 POP DUP1 SWAP3 POP POP POP SWAP2 SWAP1 POP JUMP JUMPDEST PUSH1 0x0 DUP1 PUSH20 0x8A753747A1FA494EC906CE90E9F37563A8AF630E SWAP1 POP PUSH1 0x0 DUP2 PUSH20 0xFFFFFFFFFFFFFFFFFFFFFFFFFFFFFFFFFFFFFFFF AND PUSH4 0xFEAF968C PUSH1 0x40 MLOAD DUP2 PUSH4 0xFFFFFFFF AND PUSH1 0xE0 SHL DUP2 MSTORE PUSH1 0x4 ADD PUSH1 0xA0 PUSH1 0x40 MLOAD DUP1 DUP4 SUB DUP2 DUP7 DUP1 EXTCODESIZE ISZERO DUP1 ISZERO PUSH2 0x663 JUMPI PUSH1 0x0 DUP1 REVERT JUMPDEST POP GAS STATICCALL ISZERO DUP1 ISZERO PUSH2 0x677 JUMPI RETURNDATASIZE PUSH1 0x0 DUP1 RETURNDATACOPY RETURNDATASIZE PUSH1 0x0 REVERT JUMPDEST POP POP POP POP PUSH1 0x40 MLOAD RETURNDATASIZE PUSH1 0x1F NOT PUSH1 0x1F DUP3 ADD AND DUP3 ADD DUP1 PUSH1 0x40 MSTORE POP DUP2 ADD SWAP1 PUSH2 0x69B SWAP2 SWAP1 PUSH2 0x850 JUMP JUMPDEST POP POP POP SWAP2 POP POP PUSH5 0x2540BE400 DUP2 PUSH2 0x6B2 SWAP2 SWAP1 PUSH2 0xA3D JUMP JUMPDEST SWAP3 POP POP POP SWAP1 JUMP JUMPDEST DUP3 DUP1 SLOAD DUP3 DUP3 SSTORE SWAP1 PUSH1 0x0 MSTORE PUSH1 0x20 PUSH1 0x0 KECCAK256 SWAP1 DUP2 ADD SWAP3 DUP3 ISZERO PUSH2 0x732 JUMPI SWAP2 PUSH1 0x20 MUL DUP3 ADD JUMPDEST DUP3 DUP2 GT ISZERO PUSH2 0x731 JUMPI DUP3 MLOAD DUP3 PUSH1 0x0 PUSH2 0x100 EXP DUP2 SLOAD DUP2 PUSH20 0xFFFFFFFFFFFFFFFFFFFFFFFFFFFFFFFFFFFFFFFF MUL NOT AND SWAP1 DUP4 PUSH20 0xFFFFFFFFFFFFFFFFFFFFFFFFFFFFFFFFFFFFFFFF AND MUL OR SWAP1 SSTORE POP SWAP2 PUSH1 0x20 ADD SWAP2 SWAP1 PUSH1 0x1 ADD SWAP1 PUSH2 0x6D9 JUMP JUMPDEST JUMPDEST POP SWAP1 POP PUSH2 0x73F SWAP2 SWAP1 PUSH2 0x743 JUMP JUMPDEST POP SWAP1 JUMP JUMPDEST JUMPDEST DUP1 DUP3 GT ISZERO PUSH2 0x75C JUMPI PUSH1 0x0 DUP2 PUSH1 0x0 SWAP1 SSTORE POP PUSH1 0x1 ADD PUSH2 0x744 JUMP JUMPDEST POP SWAP1 JUMP JUMPDEST PUSH1 0x0 DUP2 CALLDATALOAD SWAP1 POP PUSH2 0x76F DUP2 PUSH2 0xD40 JUMP JUMPDEST SWAP3 SWAP2 POP POP JUMP JUMPDEST PUSH1 0x0 DUP2 MLOAD SWAP1 POP PUSH2 0x784 DUP2 PUSH2 0xD57 JUMP JUMPDEST SWAP3 SWAP2 POP POP JUMP JUMPDEST PUSH1 0x0 DUP2 CALLDATALOAD SWAP1 POP PUSH2 0x799 DUP2 PUSH2 0xD6E JUMP JUMPDEST SWAP3 SWAP2 POP POP JUMP JUMPDEST PUSH1 0x0 DUP2 MLOAD SWAP1 POP PUSH2 0x7AE DUP2 PUSH2 0xD6E JUMP JUMPDEST SWAP3 SWAP2 POP POP JUMP JUMPDEST PUSH1 0x0 DUP2 MLOAD SWAP1 POP PUSH2 0x7C3 DUP2 PUSH2 0xD85 JUMP JUMPDEST SWAP3 SWAP2 POP POP JUMP JUMPDEST PUSH1 0x0 PUSH1 0x20 DUP3 DUP5 SUB SLT ISZERO PUSH2 0x7DF JUMPI PUSH2 0x7DE PUSH2 0xD0F JUMP JUMPDEST JUMPDEST PUSH1 0x0 PUSH2 0x7ED DUP5 DUP3 DUP6 ADD PUSH2 0x760 JUMP JUMPDEST SWAP2 POP POP SWAP3 SWAP2 POP POP JUMP JUMPDEST PUSH1 0x0 PUSH1 0x20 DUP3 DUP5 SUB SLT ISZERO PUSH2 0x80C JUMPI PUSH2 0x80B PUSH2 0xD0F JUMP JUMPDEST JUMPDEST PUSH1 0x0 PUSH2 0x81A DUP5 DUP3 DUP6 ADD PUSH2 0x78A JUMP JUMPDEST SWAP2 POP POP SWAP3 SWAP2 POP POP JUMP JUMPDEST PUSH1 0x0 PUSH1 0x20 DUP3 DUP5 SUB SLT ISZERO PUSH2 0x839 JUMPI PUSH2 0x838 PUSH2 0xD0F JUMP JUMPDEST JUMPDEST PUSH1 0x0 PUSH2 0x847 DUP5 DUP3 DUP6 ADD PUSH2 0x79F JUMP JUMPDEST SWAP2 POP POP SWAP3 SWAP2 POP POP JUMP JUMPDEST PUSH1 0x0 DUP1 PUSH1 0x0 DUP1 PUSH1 0x0 PUSH1 0xA0 DUP7 DUP9 SUB SLT ISZERO PUSH2 0x86C JUMPI PUSH2 0x86B PUSH2 0xD0F JUMP JUMPDEST JUMPDEST PUSH1 0x0 PUSH2 0x87A DUP9 DUP3 DUP10 ADD PUSH2 0x7B4 JUMP JUMPDEST SWAP6 POP POP PUSH1 0x20 PUSH2 0x88B DUP9 DUP3 DUP10 ADD PUSH2 0x775 JUMP JUMPDEST SWAP5 POP POP PUSH1 0x40 PUSH2 0x89C DUP9 DUP3 DUP10 ADD PUSH2 0x79F JUMP JUMPDEST SWAP4 POP POP PUSH1 0x60 PUSH2 0x8AD DUP9 DUP3 DUP10 ADD PUSH2 0x79F JUMP JUMPDEST SWAP3 POP POP PUSH1 0x80 PUSH2 0x8BE DUP9 DUP3 DUP10 ADD PUSH2 0x7B4 JUMP JUMPDEST SWAP2 POP POP SWAP3 SWAP6 POP SWAP3 SWAP6 SWAP1 SWAP4 POP JUMP JUMPDEST PUSH2 0x8D4 DUP2 PUSH2 0xBAE JUMP JUMPDEST DUP3 MSTORE POP POP JUMP JUMPDEST PUSH1 0x0 PUSH2 0x8E7 PUSH1 0xB DUP4 PUSH2 0x9A5 JUMP JUMPDEST SWAP2 POP PUSH2 0x8F2 DUP3 PUSH2 0xD14 JUMP JUMPDEST PUSH1 0x20 DUP3 ADD SWAP1 POP SWAP2 SWAP1 POP JUMP JUMPDEST PUSH1 0x0 PUSH2 0x90A PUSH1 0x0 DUP4 PUSH2 0x99A JUMP JUMPDEST SWAP2 POP PUSH2 0x915 DUP3 PUSH2 0xD3D JUMP JUMPDEST PUSH1 0x0 DUP3 ADD SWAP1 POP SWAP2 SWAP1 POP JUMP JUMPDEST PUSH2 0x929 DUP2 PUSH2 0xBEA JUMP JUMPDEST DUP3 MSTORE POP POP JUMP JUMPDEST PUSH1 0x0 PUSH2 0x93A DUP3 PUSH2 0x8FD JUMP JUMPDEST SWAP2 POP DUP2 SWAP1 POP SWAP2 SWAP1 POP JUMP JUMPDEST PUSH1 0x0 PUSH1 0x20 DUP3 ADD SWAP1 POP PUSH2 0x959 PUSH1 0x0 DUP4 ADD DUP5 PUSH2 0x8CB JUMP JUMPDEST SWAP3 SWAP2 POP POP JUMP JUMPDEST PUSH1 0x0 PUSH1 0x20 DUP3 ADD SWAP1 POP DUP2 DUP2 SUB PUSH1 0x0 DUP4 ADD MSTORE PUSH2 0x978 DUP2 PUSH2 0x8DA JUMP JUMPDEST SWAP1 POP SWAP2 SWAP1 POP JUMP JUMPDEST PUSH1 0x0 PUSH1 0x20 DUP3 ADD SWAP1 POP PUSH2 0x994 PUSH1 0x0 DUP4 ADD DUP5 PUSH2 0x920 JUMP JUMPDEST SWAP3 SWAP2 POP POP JUMP JUMPDEST PUSH1 0x0 DUP2 SWAP1 POP SWAP3 SWAP2 POP POP JUMP JUMPDEST PUSH1 0x0 DUP3 DUP3 MSTORE PUSH1 0x20 DUP3 ADD SWAP1 POP SWAP3 SWAP2 POP POP JUMP JUMPDEST PUSH1 0x0 PUSH2 0x9C1 DUP3 PUSH2 0xBEA JUMP JUMPDEST SWAP2 POP PUSH2 0x9CC DUP4 PUSH2 0xBEA JUMP JUMPDEST SWAP3 POP DUP3 PUSH32 0xFFFFFFFFFFFFFFFFFFFFFFFFFFFFFFFFFFFFFFFFFFFFFFFFFFFFFFFFFFFFFFFF SUB DUP3 GT ISZERO PUSH2 0xA01 JUMPI PUSH2 0xA00 PUSH2 0xC53 JUMP JUMPDEST JUMPDEST DUP3 DUP3 ADD SWAP1 POP SWAP3 SWAP2 POP POP JUMP JUMPDEST PUSH1 0x0 PUSH2 0xA17 DUP3 PUSH2 0xBEA JUMP JUMPDEST SWAP2 POP PUSH2 0xA22 DUP4 PUSH2 0xBEA JUMP JUMPDEST SWAP3 POP DUP3 PUSH2 0xA32 JUMPI PUSH2 0xA31 PUSH2 0xC82 JUMP JUMPDEST JUMPDEST DUP3 DUP3 DIV SWAP1 POP SWAP3 SWAP2 POP POP JUMP JUMPDEST PUSH1 0x0 PUSH2 0xA48 DUP3 PUSH2 0xBC0 JUMP JUMPDEST SWAP2 POP PUSH2 0xA53 DUP4 PUSH2 0xBC0 JUMP JUMPDEST SWAP3 POP DUP3 PUSH32 0x7FFFFFFFFFFFFFFFFFFFFFFFFFFFFFFFFFFFFFFFFFFFFFFFFFFFFFFFFFFFFFFF DIV DUP3 GT PUSH1 0x0 DUP5 SGT PUSH1 0x0 DUP5 SGT AND AND ISZERO PUSH2 0xA92 JUMPI PUSH2 0xA91 PUSH2 0xC53 JUMP JUMPDEST JUMPDEST DUP2 PUSH32 0x8000000000000000000000000000000000000000000000000000000000000000 SDIV DUP4 SLT PUSH1 0x0 DUP5 SLT PUSH1 0x0 DUP5 SGT AND AND ISZERO PUSH2 0xACF JUMPI PUSH2 0xACE PUSH2 0xC53 JUMP JUMPDEST JUMPDEST DUP3 PUSH32 0x8000000000000000000000000000000000000000000000000000000000000000 SDIV DUP3 SLT PUSH1 0x0 DUP5 SGT PUSH1 0x0 DUP5 SLT AND AND ISZERO PUSH2 0xB0C JUMPI PUSH2 0xB0B PUSH2 0xC53 JUMP JUMPDEST JUMPDEST DUP3 PUSH32 0x7FFFFFFFFFFFFFFFFFFFFFFFFFFFFFFFFFFFFFFFFFFFFFFFFFFFFFFFFFFFFFFF SDIV DUP3 SLT PUSH1 0x0 DUP5 SLT PUSH1 0x0 DUP5 SLT AND AND ISZERO PUSH2 0xB49 JUMPI PUSH2 0xB48 PUSH2 0xC53 JUMP JUMPDEST JUMPDEST DUP3 DUP3 MUL SWAP1 POP SWAP3 SWAP2 POP POP JUMP JUMPDEST PUSH1 0x0 PUSH2 0xB5F DUP3 PUSH2 0xBEA JUMP JUMPDEST SWAP2 POP PUSH2 0xB6A DUP4 PUSH2 0xBEA JUMP JUMPDEST SWAP3 POP DUP2 PUSH32 0xFFFFFFFFFFFFFFFFFFFFFFFFFFFFFFFFFFFFFFFFFFFFFFFFFFFFFFFFFFFFFFFF DIV DUP4 GT DUP3 ISZERO ISZERO AND ISZERO PUSH2 0xBA3 JUMPI PUSH2 0xBA2 PUSH2 0xC53 JUMP JUMPDEST JUMPDEST DUP3 DUP3 MUL SWAP1 POP SWAP3 SWAP2 POP POP JUMP JUMPDEST PUSH1 0x0 PUSH2 0xBB9 DUP3 PUSH2 0xBCA JUMP JUMPDEST SWAP1 POP SWAP2 SWAP1 POP JUMP JUMPDEST PUSH1 0x0 DUP2 SWAP1 POP SWAP2 SWAP1 POP JUMP JUMPDEST PUSH1 0x0 PUSH20 0xFFFFFFFFFFFFFFFFFFFFFFFFFFFFFFFFFFFFFFFF DUP3 AND SWAP1 POP SWAP2 SWAP1 POP JUMP JUMPDEST PUSH1 0x0 DUP2 SWAP1 POP SWAP2 SWAP1 POP JUMP JUMPDEST PUSH1 0x0 PUSH10 0xFFFFFFFFFFFFFFFFFFFF DUP3 AND SWAP1 POP SWAP2 SWAP1 POP JUMP JUMPDEST PUSH1 0x0 PUSH2 0xC15 DUP3 PUSH2 0xBEA JUMP JUMPDEST SWAP2 POP PUSH32 0xFFFFFFFFFFFFFFFFFFFFFFFFFFFFFFFFFFFFFFFFFFFFFFFFFFFFFFFFFFFFFFFF DUP3 EQ ISZERO PUSH2 0xC48 JUMPI PUSH2 0xC47 PUSH2 0xC53 JUMP JUMPDEST JUMPDEST PUSH1 0x1 DUP3 ADD SWAP1 POP SWAP2 SWAP1 POP JUMP JUMPDEST PUSH32 0x4E487B7100000000000000000000000000000000000000000000000000000000 PUSH1 0x0 MSTORE PUSH1 0x11 PUSH1 0x4 MSTORE PUSH1 0x24 PUSH1 0x0 REVERT JUMPDEST PUSH32 0x4E487B7100000000000000000000000000000000000000000000000000000000 PUSH1 0x0 MSTORE PUSH1 0x12 PUSH1 0x4 MSTORE PUSH1 0x24 PUSH1 0x0 REVERT JUMPDEST PUSH32 0x4E487B7100000000000000000000000000000000000000000000000000000000 PUSH1 0x0 MSTORE PUSH1 0x32 PUSH1 0x4 MSTORE PUSH1 0x24 PUSH1 0x0 REVERT JUMPDEST PUSH32 0x4E487B7100000000000000000000000000000000000000000000000000000000 PUSH1 0x0 MSTORE PUSH1 0x41 PUSH1 0x4 MSTORE PUSH1 0x24 PUSH1 0x0 REVERT JUMPDEST PUSH1 0x0 DUP1 REVERT JUMPDEST PUSH32 0x43616C6C206661696C6564000000000000000000000000000000000000000000 PUSH1 0x0 DUP3 ADD MSTORE POP JUMP JUMPDEST POP JUMP JUMPDEST PUSH2 0xD49 DUP2 PUSH2 0xBAE JUMP JUMPDEST DUP2 EQ PUSH2 0xD54 JUMPI PUSH1 0x0 DUP1 REVERT JUMPDEST POP JUMP JUMPDEST PUSH2 0xD60 DUP2 PUSH2 0xBC0 JUMP JUMPDEST DUP2 EQ PUSH2 0xD6B JUMPI PUSH1 0x0 DUP1 REVERT JUMPDEST POP JUMP JUMPDEST PUSH2 0xD77 DUP2 PUSH2 0xBEA JUMP JUMPDEST DUP2 EQ PUSH2 0xD82 JUMPI PUSH1 0x0 DUP1 REVERT JUMPDEST POP JUMP JUMPDEST PUSH2 0xD8E DUP2 PUSH2 0xBF4 JUMP JUMPDEST DUP2 EQ PUSH2 0xD99 JUMPI PUSH1 0x0 DUP1 REVERT JUMPDEST POP JUMP INVALID LOG2 PUSH5 0x6970667358 0x22 SLT KECCAK256 CREATE2 SWAP3 DUP5 0xDA 0xAA 0xD0 0xE4 0xCF PUSH14 0xF10E7D1A0B5B5566FC5567F156BB 0x24 0x2A 0xF8 0x25 0xD1 MSTORE PUSH31 0x69F964736F6C63430008070033000000000000000000000000000000000000 "
				},
				"gasEstimates": {
					"creation": {
						"codeDepositCost": "707600",
						"executionCost": "25007",
						"totalCost": "732607"
					},
					"external": {
						"MINIMUM_USD()": "329",
						"addressToAmountFunded(address)": "2837",
						"fund()": "infinite",
						"funders(uint256)": "5022",
						"getVersion()": "infinite",
						"owner()": "2536",
						"widthdraw()": "infinite"
					}
				},
				"methodIdentifiers": {
					"MINIMUM_USD()": "6b69a592",
					"addressToAmountFunded(address)": "3e47d6f3",
					"fund()": "b60d4288",
					"funders(uint256)": "dc0d3dff",
					"getVersion()": "0d8e6e2c",
					"owner()": "8da5cb5b",
					"widthdraw()": "52b50a2a"
				}
			},
			"storageLayout": {
				"storage": [
					{
						"astId": 57,
						"contract": "fund-me/FundMe.sol:FundMe",
						"label": "funders",
						"offset": 0,
						"slot": "0",
						"type": "t_array(t_address)dyn_storage"
					},
					{
						"astId": 61,
						"contract": "fund-me/FundMe.sol:FundMe",
						"label": "addressToAmountFunded",
						"offset": 0,
						"slot": "1",
						"type": "t_mapping(t_address,t_uint256)"
					},
					{
						"astId": 63,
						"contract": "fund-me/FundMe.sol:FundMe",
						"label": "owner",
						"offset": 0,
						"slot": "2",
						"type": "t_address"
					}
				],
				"types": {
					"t_address": {
						"encoding": "inplace",
						"label": "address",
						"numberOfBytes": "20"
					},
					"t_array(t_address)dyn_storage": {
						"base": "t_address",
						"encoding": "dynamic_array",
						"label": "address[]",
						"numberOfBytes": "32"
					},
					"t_mapping(t_address,t_uint256)": {
						"encoding": "mapping",
						"key": "t_address",
						"label": "mapping(address => uint256)",
						"numberOfBytes": "32",
						"value": "t_uint256"
					},
					"t_uint256": {
						"encoding": "inplace",
						"label": "uint256",
						"numberOfBytes": "32"
					}
				}
			},
			"userdoc": {
				"kind": "user",
				"methods": {},
				"version": 1
			}
		}
	}
}