{
	"fund-me/FundMe.sol": {
		"FundMe": {
			"abi": [
				{
					"inputs": [],
					"stateMutability": "nonpayable",
					"type": "constructor"
				},
				{
					"inputs": [],
					"name": "MINIMUM_USD",
					"outputs": [
						{
							"internalType": "uint256",
							"name": "",
							"type": "uint256"
						}
					],
					"stateMutability": "view",
					"type": "function"
				},
				{
					"inputs": [
						{
							"internalType": "address",
							"name": "",
							"type": "address"
						}
					],
					"name": "addressToAmountFunded",
					"outputs": [
						{
							"internalType": "uint256",
							"name": "",
							"type": "uint256"
						}
					],
					"stateMutability": "view",
					"type": "function"
				},
				{
					"inputs": [],
					"name": "fund",
					"outputs": [],
					"stateMutability": "payable",
					"type": "function"
				},
				{
					"inputs": [
						{
							"internalType": "uint256",
							"name": "",
							"type": "uint256"
						}
					],
					"name": "funders",
					"outputs": [
						{
							"internalType": "address",
							"name": "",
							"type": "address"
						}
					],
					"stateMutability": "view",
					"type": "function"
				},
				{
					"inputs": [],
					"name": "getVersion",
					"outputs": [
						{
							"internalType": "uint256",
							"name": "",
							"type": "uint256"
						}
					],
					"stateMutability": "view",
					"type": "function"
				},
				{
					"inputs": [],
					"name": "i_owner",
					"outputs": [
						{
							"internalType": "address",
							"name": "",
							"type": "address"
						}
					],
					"stateMutability": "view",
					"type": "function"
				},
				{
					"inputs": [],
					"name": "widthdraw",
					"outputs": [],
					"stateMutability": "nonpayable",
					"type": "function"
				}
			],
			"devdoc": {
				"kind": "dev",
				"methods": {},
				"version": 1
			},
			"evm": {
				"assembly": "    /* \"fund-me/FundMe.sol\":166:1329  contract FundMe {... */\n  mstore(0x40, 0x80)\n    /* \"fund-me/FundMe.sol\":394:439  constructor() {... */\n  callvalue\n  dup1\n  iszero\n  tag_1\n  jumpi\n  0x00\n  dup1\n  revert\ntag_1:\n  pop\n    /* \"fund-me/FundMe.sol\":424:434  msg.sender */\n  caller\n    /* \"fund-me/FundMe.sol\":414:421  i_owner */\n  0x02\n  0x00\n    /* \"fund-me/FundMe.sol\":414:434  i_owner = msg.sender */\n  0x0100\n  exp\n  dup2\n  sload\n  dup2\n  0xffffffffffffffffffffffffffffffffffffffff\n  mul\n  not\n  and\n  swap1\n  dup4\n  0xffffffffffffffffffffffffffffffffffffffff\n  and\n  mul\n  or\n  swap1\n  sstore\n  pop\n    /* \"fund-me/FundMe.sol\":166:1329  contract FundMe {... */\n  dataSize(sub_0)\n  dup1\n  dataOffset(sub_0)\n  0x00\n  codecopy\n  0x00\n  return\nstop\n\nsub_0: assembly {\n        /* \"fund-me/FundMe.sol\":166:1329  contract FundMe {... */\n      mstore(0x40, 0x80)\n      jumpi(tag_1, lt(calldatasize, 0x04))\n      shr(0xe0, calldataload(0x00))\n      dup1\n      0x6b69a592\n      gt\n      tag_9\n      jumpi\n      dup1\n      0x6b69a592\n      eq\n      tag_5\n      jumpi\n      dup1\n      0xb60d4288\n      eq\n      tag_6\n      jumpi\n      dup1\n      0xdba6335f\n      eq\n      tag_7\n      jumpi\n      dup1\n      0xdc0d3dff\n      eq\n      tag_8\n      jumpi\n      jump(tag_1)\n    tag_9:\n      dup1\n      0x0d8e6e2c\n      eq\n      tag_2\n      jumpi\n      dup1\n      0x3e47d6f3\n      eq\n      tag_3\n      jumpi\n      dup1\n      0x52b50a2a\n      eq\n      tag_4\n      jumpi\n    tag_1:\n      0x00\n      dup1\n      revert\n        /* \"fund-me/FundMe.sol\":655:848  function getVersion() public view returns(uint256){ ... */\n    tag_2:\n      callvalue\n      dup1\n      iszero\n      tag_10\n      jumpi\n      0x00\n      dup1\n      revert\n    tag_10:\n      pop\n      tag_11\n      tag_12\n      jump\t// in\n    tag_11:\n      mload(0x40)\n      tag_13\n      swap2\n      swap1\n      tag_14\n      jump\t// in\n    tag_13:\n      mload(0x40)\n      dup1\n      swap2\n      sub\n      swap1\n      return\n        /* \"fund-me/FundMe.sol\":223:279  mapping(address => uint256) public addressToAmountFunded */\n    tag_3:\n      callvalue\n      dup1\n      iszero\n      tag_15\n      jumpi\n      0x00\n      dup1\n      revert\n    tag_15:\n      pop\n      tag_16\n      0x04\n      dup1\n      calldatasize\n      sub\n      dup2\n      add\n      swap1\n      tag_17\n      swap2\n      swap1\n      tag_18\n      jump\t// in\n    tag_17:\n      tag_19\n      jump\t// in\n    tag_16:\n      mload(0x40)\n      tag_20\n      swap2\n      swap1\n      tag_14\n      jump\t// in\n    tag_20:\n      mload(0x40)\n      dup1\n      swap2\n      sub\n      swap1\n      return\n        /* \"fund-me/FundMe.sol\":923:1327  function widthdraw() public onlyOwner {... */\n    tag_4:\n      callvalue\n      dup1\n      iszero\n      tag_21\n      jumpi\n      0x00\n      dup1\n      revert\n    tag_21:\n      pop\n      tag_22\n      tag_23\n      jump\t// in\n    tag_22:\n      stop\n        /* \"fund-me/FundMe.sol\":338:389  uint256 public constant MINIMUM_USD = 50 * 10 ** 18 */\n    tag_5:\n      callvalue\n      dup1\n      iszero\n      tag_24\n      jumpi\n      0x00\n      dup1\n      revert\n    tag_24:\n      pop\n      tag_25\n      tag_26\n      jump\t// in\n    tag_25:\n      mload(0x40)\n      tag_27\n      swap2\n      swap1\n      tag_14\n      jump\t// in\n    tag_27:\n      mload(0x40)\n      dup1\n      swap2\n      sub\n      swap1\n      return\n        /* \"fund-me/FundMe.sol\":443:651  function fund() public payable {... */\n    tag_6:\n      tag_28\n      tag_29\n      jump\t// in\n    tag_28:\n      stop\n        /* \"fund-me/FundMe.sol\":312:334  address public i_owner */\n    tag_7:\n      callvalue\n      dup1\n      iszero\n      tag_30\n      jumpi\n      0x00\n      dup1\n      revert\n    tag_30:\n      pop\n      tag_31\n      tag_32\n      jump\t// in\n    tag_31:\n      mload(0x40)\n      tag_33\n      swap2\n      swap1\n      tag_34\n      jump\t// in\n    tag_33:\n      mload(0x40)\n      dup1\n      swap2\n      sub\n      swap1\n      return\n        /* \"fund-me/FundMe.sol\":283:307  address[] public funders */\n    tag_8:\n      callvalue\n      dup1\n      iszero\n      tag_35\n      jumpi\n      0x00\n      dup1\n      revert\n    tag_35:\n      pop\n      tag_36\n      0x04\n      dup1\n      calldatasize\n      sub\n      dup2\n      add\n      swap1\n      tag_37\n      swap2\n      swap1\n      tag_38\n      jump\t// in\n    tag_37:\n      tag_39\n      jump\t// in\n    tag_36:\n      mload(0x40)\n      tag_40\n      swap2\n      swap1\n      tag_34\n      jump\t// in\n    tag_40:\n      mload(0x40)\n      dup1\n      swap2\n      sub\n      swap1\n      return\n        /* \"fund-me/FundMe.sol\":655:848  function getVersion() public view returns(uint256){ ... */\n    tag_12:\n        /* \"fund-me/FundMe.sol\":697:704  uint256 */\n      0x00\n        /* \"fund-me/FundMe.sol\":712:743  AggregatorV3Interface priceFeed */\n      dup1\n        /* \"fund-me/FundMe.sol\":768:810  0x8A753747A1Fa494EC906cE90E9f37563A8AF630e */\n      0x8a753747a1fa494ec906ce90e9f37563a8af630e\n        /* \"fund-me/FundMe.sol\":712:811  AggregatorV3Interface priceFeed = AggregatorV3Interface(0x8A753747A1Fa494EC906cE90E9f37563A8AF630e) */\n      swap1\n      pop\n        /* \"fund-me/FundMe.sol\":824:833  priceFeed */\n      dup1\n        /* \"fund-me/FundMe.sol\":824:841  priceFeed.version */\n      0xffffffffffffffffffffffffffffffffffffffff\n      and\n      0x54fd4d50\n        /* \"fund-me/FundMe.sol\":824:843  priceFeed.version() */\n      mload(0x40)\n      dup2\n      0xffffffff\n      and\n      0xe0\n      shl\n      dup2\n      mstore\n      0x04\n      add\n      0x20\n      mload(0x40)\n      dup1\n      dup4\n      sub\n      dup2\n      dup7\n      dup1\n      extcodesize\n      iszero\n      dup1\n      iszero\n      tag_42\n      jumpi\n      0x00\n      dup1\n      revert\n    tag_42:\n      pop\n      gas\n      staticcall\n      iszero\n      dup1\n      iszero\n      tag_44\n      jumpi\n      returndatasize\n      0x00\n      dup1\n      returndatacopy\n      revert(0x00, returndatasize)\n    tag_44:\n      pop\n      pop\n      pop\n      pop\n      mload(0x40)\n      returndatasize\n      not(0x1f)\n      0x1f\n      dup3\n      add\n      and\n      dup3\n      add\n      dup1\n      0x40\n      mstore\n      pop\n      dup2\n      add\n      swap1\n      tag_45\n      swap2\n      swap1\n      tag_46\n      jump\t// in\n    tag_45:\n        /* \"fund-me/FundMe.sol\":817:843  return priceFeed.version() */\n      swap2\n      pop\n      pop\n        /* \"fund-me/FundMe.sol\":655:848  function getVersion() public view returns(uint256){ ... */\n      swap1\n      jump\t// out\n        /* \"fund-me/FundMe.sol\":223:279  mapping(address => uint256) public addressToAmountFunded */\n    tag_19:\n      mstore(0x20, 0x00)\n      dup1\n      0x00\n      mstore\n      keccak256(0x00, 0x40)\n      0x00\n      swap2\n      pop\n      swap1\n      pop\n      sload\n      dup2\n      jump\t// out\n        /* \"fund-me/FundMe.sol\":923:1327  function widthdraw() public onlyOwner {... */\n    tag_23:\n        /* \"fund-me/FundMe.sol\":899:906  i_owner */\n      0x02\n      0x00\n      swap1\n      sload\n      swap1\n      0x0100\n      exp\n      swap1\n      div\n      0xffffffffffffffffffffffffffffffffffffffff\n      and\n        /* \"fund-me/FundMe.sol\":885:906  msg.sender == i_owner */\n      0xffffffffffffffffffffffffffffffffffffffff\n      and\n        /* \"fund-me/FundMe.sol\":885:895  msg.sender */\n      caller\n        /* \"fund-me/FundMe.sol\":885:906  msg.sender == i_owner */\n      0xffffffffffffffffffffffffffffffffffffffff\n      and\n      eq\n        /* \"fund-me/FundMe.sol\":877:907  require(msg.sender == i_owner) */\n      tag_48\n      jumpi\n      0x00\n      dup1\n      revert\n    tag_48:\n        /* \"fund-me/FundMe.sol\":972:991  uint256 funderIndex */\n      0x00\n        /* \"fund-me/FundMe.sol\":967:1135  for (uint256 funderIndex = 0; funderIndex < funders.length; funderIndex++) {... */\n    tag_50:\n        /* \"fund-me/FundMe.sol\":1011:1018  funders */\n      0x01\n        /* \"fund-me/FundMe.sol\":1011:1025  funders.length */\n      dup1\n      sload\n      swap1\n      pop\n        /* \"fund-me/FundMe.sol\":997:1008  funderIndex */\n      dup2\n        /* \"fund-me/FundMe.sol\":997:1025  funderIndex < funders.length */\n      lt\n        /* \"fund-me/FundMe.sol\":967:1135  for (uint256 funderIndex = 0; funderIndex < funders.length; funderIndex++) {... */\n      iszero\n      tag_51\n      jumpi\n        /* \"fund-me/FundMe.sol\":1050:1064  address funder */\n      0x00\n        /* \"fund-me/FundMe.sol\":1067:1074  funders */\n      0x01\n        /* \"fund-me/FundMe.sol\":1075:1086  funderIndex */\n      dup3\n        /* \"fund-me/FundMe.sol\":1067:1087  funders[funderIndex] */\n      dup2\n      sload\n      dup2\n      lt\n      tag_53\n      jumpi\n      tag_54\n      tag_55\n      jump\t// in\n    tag_54:\n    tag_53:\n      swap1\n      0x00\n      mstore\n      keccak256(0x00, 0x20)\n      add\n      0x00\n      swap1\n      sload\n      swap1\n      0x0100\n      exp\n      swap1\n      div\n      0xffffffffffffffffffffffffffffffffffffffff\n      and\n        /* \"fund-me/FundMe.sol\":1050:1087  address funder = funders[funderIndex] */\n      swap1\n      pop\n        /* \"fund-me/FundMe.sol\":1127:1128  0 */\n      0x00\n        /* \"fund-me/FundMe.sol\":1095:1116  addressToAmountFunded */\n      dup1\n        /* \"fund-me/FundMe.sol\":1095:1124  addressToAmountFunded[funder] */\n      0x00\n        /* \"fund-me/FundMe.sol\":1117:1123  funder */\n      dup4\n        /* \"fund-me/FundMe.sol\":1095:1124  addressToAmountFunded[funder] */\n      0xffffffffffffffffffffffffffffffffffffffff\n      and\n      0xffffffffffffffffffffffffffffffffffffffff\n      and\n      dup2\n      mstore\n      0x20\n      add\n      swap1\n      dup2\n      mstore\n      0x20\n      add\n      0x00\n      keccak256\n        /* \"fund-me/FundMe.sol\":1095:1128  addressToAmountFunded[funder] = 0 */\n      dup2\n      swap1\n      sstore\n      pop\n        /* \"fund-me/FundMe.sol\":1042:1135  {... */\n      pop\n        /* \"fund-me/FundMe.sol\":1027:1040  funderIndex++ */\n      dup1\n      dup1\n      tag_57\n      swap1\n      tag_58\n      jump\t// in\n    tag_57:\n      swap2\n      pop\n      pop\n        /* \"fund-me/FundMe.sol\":967:1135  for (uint256 funderIndex = 0; funderIndex < funders.length; funderIndex++) {... */\n      jump(tag_50)\n    tag_51:\n      pop\n        /* \"fund-me/FundMe.sol\":1164:1165  0 */\n      0x00\n        /* \"fund-me/FundMe.sol\":1150:1166  new address[](0) */\n      0xffffffffffffffff\n      dup2\n      gt\n      iszero\n      tag_59\n      jumpi\n      tag_60\n      tag_61\n      jump\t// in\n    tag_60:\n    tag_59:\n      mload(0x40)\n      swap1\n      dup1\n      dup3\n      mstore\n      dup1\n      0x20\n      mul\n      0x20\n      add\n      dup3\n      add\n      0x40\n      mstore\n      dup1\n      iszero\n      tag_62\n      jumpi\n      dup2\n      0x20\n      add\n      0x20\n      dup3\n      mul\n      dup1\n      calldatasize\n      dup4\n      calldatacopy\n      dup1\n      dup3\n      add\n      swap2\n      pop\n      pop\n      swap1\n      pop\n    tag_62:\n      pop\n        /* \"fund-me/FundMe.sol\":1140:1147  funders */\n      0x01\n        /* \"fund-me/FundMe.sol\":1140:1166  funders = new address[](0) */\n      swap1\n      dup1\n      mload\n      swap1\n      0x20\n      add\n      swap1\n      tag_63\n      swap3\n      swap2\n      swap1\n      tag_64\n      jump\t// in\n    tag_63:\n      pop\n        /* \"fund-me/FundMe.sol\":1173:1189  bool callSuccess */\n      0x00\n        /* \"fund-me/FundMe.sol\":1203:1213  msg.sender */\n      caller\n        /* \"fund-me/FundMe.sol\":1195:1219  payable(msg.sender).call */\n      0xffffffffffffffffffffffffffffffffffffffff\n      and\n        /* \"fund-me/FundMe.sol\":1227:1248  address(this).balance */\n      selfbalance\n        /* \"fund-me/FundMe.sol\":1195:1253  payable(msg.sender).call{value: address(this).balance}(\"\") */\n      mload(0x40)\n      tag_65\n      swap1\n      tag_66\n      jump\t// in\n    tag_65:\n      0x00\n      mload(0x40)\n      dup1\n      dup4\n      sub\n      dup2\n      dup6\n      dup8\n      gas\n      call\n      swap3\n      pop\n      pop\n      pop\n      returndatasize\n      dup1\n      0x00\n      dup2\n      eq\n      tag_69\n      jumpi\n      mload(0x40)\n      swap2\n      pop\n      and(add(returndatasize, 0x3f), not(0x1f))\n      dup3\n      add\n      0x40\n      mstore\n      returndatasize\n      dup3\n      mstore\n      returndatasize\n      0x00\n      0x20\n      dup5\n      add\n      returndatacopy\n      jump(tag_68)\n    tag_69:\n      0x60\n      swap2\n      pop\n    tag_68:\n      pop\n        /* \"fund-me/FundMe.sol\":1172:1253  (bool callSuccess, ) = payable(msg.sender).call{value: address(this).balance}(\"\") */\n      pop\n      swap1\n      pop\n        /* \"fund-me/FundMe.sol\":1267:1278  callSuccess */\n      dup1\n        /* \"fund-me/FundMe.sol\":1259:1321  require(callSuccess, \"You don't have enough ETH to withdraw!\") */\n      tag_70\n      jumpi\n      mload(0x40)\n      0x08c379a000000000000000000000000000000000000000000000000000000000\n      dup2\n      mstore\n      0x04\n      add\n      tag_71\n      swap1\n      tag_72\n      jump\t// in\n    tag_71:\n      mload(0x40)\n      dup1\n      swap2\n      sub\n      swap1\n      revert\n    tag_70:\n        /* \"fund-me/FundMe.sol\":961:1327  {... */\n      pop\n        /* \"fund-me/FundMe.sol\":923:1327  function widthdraw() public onlyOwner {... */\n      jump\t// out\n        /* \"fund-me/FundMe.sol\":338:389  uint256 public constant MINIMUM_USD = 50 * 10 ** 18 */\n    tag_26:\n        /* \"fund-me/FundMe.sol\":376:389  50 * 10 ** 18 */\n      0x02b5e3af16b1880000\n        /* \"fund-me/FundMe.sol\":338:389  uint256 public constant MINIMUM_USD = 50 * 10 ** 18 */\n      dup2\n      jump\t// out\n        /* \"fund-me/FundMe.sol\":443:651  function fund() public payable {... */\n    tag_29:\n        /* \"fund-me/FundMe.sol\":376:389  50 * 10 ** 18 */\n      0x02b5e3af16b1880000\n        /* \"fund-me/FundMe.sol\":488:497  msg.value */\n      callvalue\n        /* \"fund-me/FundMe.sol\":488:515  msg.value.getConversionRate */\n      linkerSymbol(\"a373779b3d3f473685bf3bd21cb23b514e8a3a1bb1c80058e13fb47b7c39e12d\")\n      0x6e5b6b28\n      swap1\n      swap2\n        /* \"fund-me/FundMe.sol\":488:517  msg.value.getConversionRate() */\n      mload(0x40)\n      dup3\n      0xffffffff\n      and\n      0xe0\n      shl\n      dup2\n      mstore\n      0x04\n      add\n      tag_74\n      swap2\n      swap1\n      tag_75\n      jump\t// in\n    tag_74:\n      0x20\n      mload(0x40)\n      dup1\n      dup4\n      sub\n      dup2\n      dup7\n      dup1\n      extcodesize\n      iszero\n      dup1\n      iszero\n      tag_76\n      jumpi\n      0x00\n      dup1\n      revert\n    tag_76:\n      pop\n      gas\n      delegatecall\n      iszero\n      dup1\n      iszero\n      tag_78\n      jumpi\n      returndatasize\n      0x00\n      dup1\n      returndatacopy\n      revert(0x00, returndatasize)\n    tag_78:\n      pop\n      pop\n      pop\n      pop\n      mload(0x40)\n      returndatasize\n      not(0x1f)\n      0x1f\n      dup3\n      add\n      and\n      dup3\n      add\n      dup1\n      0x40\n      mstore\n      pop\n      dup2\n      add\n      swap1\n      tag_79\n      swap2\n      swap1\n      tag_46\n      jump\t// in\n    tag_79:\n        /* \"fund-me/FundMe.sol\":488:532  msg.value.getConversionRate() >= MINIMUM_USD */\n      lt\n      iszero\n        /* \"fund-me/FundMe.sol\":480:564  require(msg.value.getConversionRate() >= MINIMUM_USD, \"You need to spend more ETH!\") */\n      tag_80\n      jumpi\n      mload(0x40)\n      0x08c379a000000000000000000000000000000000000000000000000000000000\n      dup2\n      mstore\n      0x04\n      add\n      tag_81\n      swap1\n      tag_82\n      jump\t// in\n    tag_81:\n      mload(0x40)\n      dup1\n      swap2\n      sub\n      swap1\n      revert\n    tag_80:\n        /* \"fund-me/FundMe.sol\":607:616  msg.value */\n      callvalue\n        /* \"fund-me/FundMe.sol\":570:591  addressToAmountFunded */\n      0x00\n        /* \"fund-me/FundMe.sol\":570:603  addressToAmountFunded[msg.sender] */\n      dup1\n        /* \"fund-me/FundMe.sol\":592:602  msg.sender */\n      caller\n        /* \"fund-me/FundMe.sol\":570:603  addressToAmountFunded[msg.sender] */\n      0xffffffffffffffffffffffffffffffffffffffff\n      and\n      0xffffffffffffffffffffffffffffffffffffffff\n      and\n      dup2\n      mstore\n      0x20\n      add\n      swap1\n      dup2\n      mstore\n      0x20\n      add\n      0x00\n      keccak256\n      0x00\n        /* \"fund-me/FundMe.sol\":570:616  addressToAmountFunded[msg.sender] += msg.value */\n      dup3\n      dup3\n      sload\n      tag_83\n      swap2\n      swap1\n      tag_84\n      jump\t// in\n    tag_83:\n      swap3\n      pop\n      pop\n      dup2\n      swap1\n      sstore\n      pop\n        /* \"fund-me/FundMe.sol\":622:629  funders */\n      0x01\n        /* \"fund-me/FundMe.sol\":635:645  msg.sender */\n      caller\n        /* \"fund-me/FundMe.sol\":622:646  funders.push(msg.sender) */\n      swap1\n      dup1\n      0x01\n      dup2\n      sload\n      add\n      dup1\n      dup3\n      sstore\n      dup1\n      swap2\n      pop\n      pop\n      0x01\n      swap1\n      sub\n      swap1\n      0x00\n      mstore\n      keccak256(0x00, 0x20)\n      add\n      0x00\n      swap1\n      swap2\n      swap1\n      swap2\n      swap1\n      swap2\n      0x0100\n      exp\n      dup2\n      sload\n      dup2\n      0xffffffffffffffffffffffffffffffffffffffff\n      mul\n      not\n      and\n      swap1\n      dup4\n      0xffffffffffffffffffffffffffffffffffffffff\n      and\n      mul\n      or\n      swap1\n      sstore\n      pop\n        /* \"fund-me/FundMe.sol\":443:651  function fund() public payable {... */\n      jump\t// out\n        /* \"fund-me/FundMe.sol\":312:334  address public i_owner */\n    tag_32:\n      0x02\n      0x00\n      swap1\n      sload\n      swap1\n      0x0100\n      exp\n      swap1\n      div\n      0xffffffffffffffffffffffffffffffffffffffff\n      and\n      dup2\n      jump\t// out\n        /* \"fund-me/FundMe.sol\":283:307  address[] public funders */\n    tag_39:\n      0x01\n      dup2\n      dup2\n      sload\n      dup2\n      lt\n      tag_86\n      jumpi\n      0x00\n      dup1\n      revert\n    tag_86:\n      swap1\n      0x00\n      mstore\n      keccak256(0x00, 0x20)\n      add\n      0x00\n      swap2\n      pop\n      sload\n      swap1\n      0x0100\n      exp\n      swap1\n      div\n      0xffffffffffffffffffffffffffffffffffffffff\n      and\n      dup2\n      jump\t// out\n    tag_64:\n      dup3\n      dup1\n      sload\n      dup3\n      dup3\n      sstore\n      swap1\n      0x00\n      mstore\n      keccak256(0x00, 0x20)\n      swap1\n      dup2\n      add\n      swap3\n      dup3\n      iszero\n      tag_88\n      jumpi\n      swap2\n      0x20\n      mul\n      dup3\n      add\n    tag_89:\n      dup3\n      dup2\n      gt\n      iszero\n      tag_90\n      jumpi\n      dup3\n      mload\n      dup3\n      exp(0x0100, 0x00)\n      dup2\n      sload\n      dup2\n      0xffffffffffffffffffffffffffffffffffffffff\n      mul\n      not\n      and\n      swap1\n      dup4\n      0xffffffffffffffffffffffffffffffffffffffff\n      and\n      mul\n      or\n      swap1\n      sstore\n      pop\n      swap2\n      0x20\n      add\n      swap2\n      swap1\n      0x01\n      add\n      swap1\n      jump(tag_89)\n    tag_90:\n    tag_88:\n      pop\n      swap1\n      pop\n      tag_91\n      swap2\n      swap1\n      tag_92\n      jump\t// in\n    tag_91:\n      pop\n      swap1\n      jump\t// out\n    tag_92:\n    tag_93:\n      dup1\n      dup3\n      gt\n      iszero\n      tag_94\n      jumpi\n      0x00\n      dup2\n      0x00\n      swap1\n      sstore\n      pop\n      0x01\n      add\n      jump(tag_93)\n    tag_94:\n      pop\n      swap1\n      jump\t// out\n        /* \"#utility.yul\":7:146   */\n    tag_96:\n        /* \"#utility.yul\":53:58   */\n      0x00\n        /* \"#utility.yul\":91:97   */\n      dup2\n        /* \"#utility.yul\":78:98   */\n      calldataload\n        /* \"#utility.yul\":69:98   */\n      swap1\n      pop\n        /* \"#utility.yul\":107:140   */\n      tag_98\n        /* \"#utility.yul\":134:139   */\n      dup2\n        /* \"#utility.yul\":107:140   */\n      tag_99\n      jump\t// in\n    tag_98:\n        /* \"#utility.yul\":7:146   */\n      swap3\n      swap2\n      pop\n      pop\n      jump\t// out\n        /* \"#utility.yul\":152:291   */\n    tag_100:\n        /* \"#utility.yul\":198:203   */\n      0x00\n        /* \"#utility.yul\":236:242   */\n      dup2\n        /* \"#utility.yul\":223:243   */\n      calldataload\n        /* \"#utility.yul\":214:243   */\n      swap1\n      pop\n        /* \"#utility.yul\":252:285   */\n      tag_102\n        /* \"#utility.yul\":279:284   */\n      dup2\n        /* \"#utility.yul\":252:285   */\n      tag_103\n      jump\t// in\n    tag_102:\n        /* \"#utility.yul\":152:291   */\n      swap3\n      swap2\n      pop\n      pop\n      jump\t// out\n        /* \"#utility.yul\":297:440   */\n    tag_104:\n        /* \"#utility.yul\":354:359   */\n      0x00\n        /* \"#utility.yul\":385:391   */\n      dup2\n        /* \"#utility.yul\":379:392   */\n      mload\n        /* \"#utility.yul\":370:392   */\n      swap1\n      pop\n        /* \"#utility.yul\":401:434   */\n      tag_106\n        /* \"#utility.yul\":428:433   */\n      dup2\n        /* \"#utility.yul\":401:434   */\n      tag_103\n      jump\t// in\n    tag_106:\n        /* \"#utility.yul\":297:440   */\n      swap3\n      swap2\n      pop\n      pop\n      jump\t// out\n        /* \"#utility.yul\":446:775   */\n    tag_18:\n        /* \"#utility.yul\":505:511   */\n      0x00\n        /* \"#utility.yul\":554:556   */\n      0x20\n        /* \"#utility.yul\":542:551   */\n      dup3\n        /* \"#utility.yul\":533:540   */\n      dup5\n        /* \"#utility.yul\":529:552   */\n      sub\n        /* \"#utility.yul\":525:557   */\n      slt\n        /* \"#utility.yul\":522:641   */\n      iszero\n      tag_108\n      jumpi\n        /* \"#utility.yul\":560:639   */\n      tag_109\n      tag_110\n      jump\t// in\n    tag_109:\n        /* \"#utility.yul\":522:641   */\n    tag_108:\n        /* \"#utility.yul\":680:681   */\n      0x00\n        /* \"#utility.yul\":705:758   */\n      tag_111\n        /* \"#utility.yul\":750:757   */\n      dup5\n        /* \"#utility.yul\":741:747   */\n      dup3\n        /* \"#utility.yul\":730:739   */\n      dup6\n        /* \"#utility.yul\":726:748   */\n      add\n        /* \"#utility.yul\":705:758   */\n      tag_96\n      jump\t// in\n    tag_111:\n        /* \"#utility.yul\":695:758   */\n      swap2\n      pop\n        /* \"#utility.yul\":651:768   */\n      pop\n        /* \"#utility.yul\":446:775   */\n      swap3\n      swap2\n      pop\n      pop\n      jump\t// out\n        /* \"#utility.yul\":781:1110   */\n    tag_38:\n        /* \"#utility.yul\":840:846   */\n      0x00\n        /* \"#utility.yul\":889:891   */\n      0x20\n        /* \"#utility.yul\":877:886   */\n      dup3\n        /* \"#utility.yul\":868:875   */\n      dup5\n        /* \"#utility.yul\":864:887   */\n      sub\n        /* \"#utility.yul\":860:892   */\n      slt\n        /* \"#utility.yul\":857:976   */\n      iszero\n      tag_113\n      jumpi\n        /* \"#utility.yul\":895:974   */\n      tag_114\n      tag_110\n      jump\t// in\n    tag_114:\n        /* \"#utility.yul\":857:976   */\n    tag_113:\n        /* \"#utility.yul\":1015:1016   */\n      0x00\n        /* \"#utility.yul\":1040:1093   */\n      tag_115\n        /* \"#utility.yul\":1085:1092   */\n      dup5\n        /* \"#utility.yul\":1076:1082   */\n      dup3\n        /* \"#utility.yul\":1065:1074   */\n      dup6\n        /* \"#utility.yul\":1061:1083   */\n      add\n        /* \"#utility.yul\":1040:1093   */\n      tag_100\n      jump\t// in\n    tag_115:\n        /* \"#utility.yul\":1030:1093   */\n      swap2\n      pop\n        /* \"#utility.yul\":986:1103   */\n      pop\n        /* \"#utility.yul\":781:1110   */\n      swap3\n      swap2\n      pop\n      pop\n      jump\t// out\n        /* \"#utility.yul\":1116:1467   */\n    tag_46:\n        /* \"#utility.yul\":1186:1192   */\n      0x00\n        /* \"#utility.yul\":1235:1237   */\n      0x20\n        /* \"#utility.yul\":1223:1232   */\n      dup3\n        /* \"#utility.yul\":1214:1221   */\n      dup5\n        /* \"#utility.yul\":1210:1233   */\n      sub\n        /* \"#utility.yul\":1206:1238   */\n      slt\n        /* \"#utility.yul\":1203:1322   */\n      iszero\n      tag_117\n      jumpi\n        /* \"#utility.yul\":1241:1320   */\n      tag_118\n      tag_110\n      jump\t// in\n    tag_118:\n        /* \"#utility.yul\":1203:1322   */\n    tag_117:\n        /* \"#utility.yul\":1361:1362   */\n      0x00\n        /* \"#utility.yul\":1386:1450   */\n      tag_119\n        /* \"#utility.yul\":1442:1449   */\n      dup5\n        /* \"#utility.yul\":1433:1439   */\n      dup3\n        /* \"#utility.yul\":1422:1431   */\n      dup6\n        /* \"#utility.yul\":1418:1440   */\n      add\n        /* \"#utility.yul\":1386:1450   */\n      tag_104\n      jump\t// in\n    tag_119:\n        /* \"#utility.yul\":1376:1450   */\n      swap2\n      pop\n        /* \"#utility.yul\":1332:1460   */\n      pop\n        /* \"#utility.yul\":1116:1467   */\n      swap3\n      swap2\n      pop\n      pop\n      jump\t// out\n        /* \"#utility.yul\":1473:1591   */\n    tag_120:\n        /* \"#utility.yul\":1560:1584   */\n      tag_122\n        /* \"#utility.yul\":1578:1583   */\n      dup2\n        /* \"#utility.yul\":1560:1584   */\n      tag_123\n      jump\t// in\n    tag_122:\n        /* \"#utility.yul\":1555:1558   */\n      dup3\n        /* \"#utility.yul\":1548:1585   */\n      mstore\n        /* \"#utility.yul\":1473:1591   */\n      pop\n      pop\n      jump\t// out\n        /* \"#utility.yul\":1597:1963   */\n    tag_124:\n        /* \"#utility.yul\":1739:1742   */\n      0x00\n        /* \"#utility.yul\":1760:1827   */\n      tag_126\n        /* \"#utility.yul\":1824:1826   */\n      0x1b\n        /* \"#utility.yul\":1819:1822   */\n      dup4\n        /* \"#utility.yul\":1760:1827   */\n      tag_127\n      jump\t// in\n    tag_126:\n        /* \"#utility.yul\":1753:1827   */\n      swap2\n      pop\n        /* \"#utility.yul\":1836:1929   */\n      tag_128\n        /* \"#utility.yul\":1925:1928   */\n      dup3\n        /* \"#utility.yul\":1836:1929   */\n      tag_129\n      jump\t// in\n    tag_128:\n        /* \"#utility.yul\":1954:1956   */\n      0x20\n        /* \"#utility.yul\":1949:1952   */\n      dup3\n        /* \"#utility.yul\":1945:1957   */\n      add\n        /* \"#utility.yul\":1938:1957   */\n      swap1\n      pop\n        /* \"#utility.yul\":1597:1963   */\n      swap2\n      swap1\n      pop\n      jump\t// out\n        /* \"#utility.yul\":1969:2335   */\n    tag_130:\n        /* \"#utility.yul\":2111:2114   */\n      0x00\n        /* \"#utility.yul\":2132:2199   */\n      tag_132\n        /* \"#utility.yul\":2196:2198   */\n      0x26\n        /* \"#utility.yul\":2191:2194   */\n      dup4\n        /* \"#utility.yul\":2132:2199   */\n      tag_127\n      jump\t// in\n    tag_132:\n        /* \"#utility.yul\":2125:2199   */\n      swap2\n      pop\n        /* \"#utility.yul\":2208:2301   */\n      tag_133\n        /* \"#utility.yul\":2297:2300   */\n      dup3\n        /* \"#utility.yul\":2208:2301   */\n      tag_134\n      jump\t// in\n    tag_133:\n        /* \"#utility.yul\":2326:2328   */\n      0x40\n        /* \"#utility.yul\":2321:2324   */\n      dup3\n        /* \"#utility.yul\":2317:2329   */\n      add\n        /* \"#utility.yul\":2310:2329   */\n      swap1\n      pop\n        /* \"#utility.yul\":1969:2335   */\n      swap2\n      swap1\n      pop\n      jump\t// out\n        /* \"#utility.yul\":2341:2739   */\n    tag_135:\n        /* \"#utility.yul\":2500:2503   */\n      0x00\n        /* \"#utility.yul\":2521:2604   */\n      tag_137\n        /* \"#utility.yul\":2602:2603   */\n      0x00\n        /* \"#utility.yul\":2597:2600   */\n      dup4\n        /* \"#utility.yul\":2521:2604   */\n      tag_138\n      jump\t// in\n    tag_137:\n        /* \"#utility.yul\":2514:2604   */\n      swap2\n      pop\n        /* \"#utility.yul\":2613:2706   */\n      tag_139\n        /* \"#utility.yul\":2702:2705   */\n      dup3\n        /* \"#utility.yul\":2613:2706   */\n      tag_140\n      jump\t// in\n    tag_139:\n        /* \"#utility.yul\":2731:2732   */\n      0x00\n        /* \"#utility.yul\":2726:2729   */\n      dup3\n        /* \"#utility.yul\":2722:2733   */\n      add\n        /* \"#utility.yul\":2715:2733   */\n      swap1\n      pop\n        /* \"#utility.yul\":2341:2739   */\n      swap2\n      swap1\n      pop\n      jump\t// out\n        /* \"#utility.yul\":2745:2863   */\n    tag_141:\n        /* \"#utility.yul\":2832:2856   */\n      tag_143\n        /* \"#utility.yul\":2850:2855   */\n      dup2\n        /* \"#utility.yul\":2832:2856   */\n      tag_144\n      jump\t// in\n    tag_143:\n        /* \"#utility.yul\":2827:2830   */\n      dup3\n        /* \"#utility.yul\":2820:2857   */\n      mstore\n        /* \"#utility.yul\":2745:2863   */\n      pop\n      pop\n      jump\t// out\n        /* \"#utility.yul\":2869:2995   */\n    tag_145:\n        /* \"#utility.yul\":2964:2988   */\n      tag_147\n        /* \"#utility.yul\":2982:2987   */\n      dup2\n        /* \"#utility.yul\":2964:2988   */\n      tag_144\n      jump\t// in\n    tag_147:\n        /* \"#utility.yul\":2959:2962   */\n      dup3\n        /* \"#utility.yul\":2952:2989   */\n      mstore\n        /* \"#utility.yul\":2869:2995   */\n      pop\n      pop\n      jump\t// out\n        /* \"#utility.yul\":3001:3380   */\n    tag_66:\n        /* \"#utility.yul\":3185:3188   */\n      0x00\n        /* \"#utility.yul\":3207:3354   */\n      tag_149\n        /* \"#utility.yul\":3350:3353   */\n      dup3\n        /* \"#utility.yul\":3207:3354   */\n      tag_135\n      jump\t// in\n    tag_149:\n        /* \"#utility.yul\":3200:3354   */\n      swap2\n      pop\n        /* \"#utility.yul\":3371:3374   */\n      dup2\n        /* \"#utility.yul\":3364:3374   */\n      swap1\n      pop\n        /* \"#utility.yul\":3001:3380   */\n      swap2\n      swap1\n      pop\n      jump\t// out\n        /* \"#utility.yul\":3386:3608   */\n    tag_34:\n        /* \"#utility.yul\":3479:3483   */\n      0x00\n        /* \"#utility.yul\":3517:3519   */\n      0x20\n        /* \"#utility.yul\":3506:3515   */\n      dup3\n        /* \"#utility.yul\":3502:3520   */\n      add\n        /* \"#utility.yul\":3494:3520   */\n      swap1\n      pop\n        /* \"#utility.yul\":3530:3601   */\n      tag_151\n        /* \"#utility.yul\":3598:3599   */\n      0x00\n        /* \"#utility.yul\":3587:3596   */\n      dup4\n        /* \"#utility.yul\":3583:3600   */\n      add\n        /* \"#utility.yul\":3574:3580   */\n      dup5\n        /* \"#utility.yul\":3530:3601   */\n      tag_120\n      jump\t// in\n    tag_151:\n        /* \"#utility.yul\":3386:3608   */\n      swap3\n      swap2\n      pop\n      pop\n      jump\t// out\n        /* \"#utility.yul\":3614:4033   */\n    tag_82:\n        /* \"#utility.yul\":3780:3784   */\n      0x00\n        /* \"#utility.yul\":3818:3820   */\n      0x20\n        /* \"#utility.yul\":3807:3816   */\n      dup3\n        /* \"#utility.yul\":3803:3821   */\n      add\n        /* \"#utility.yul\":3795:3821   */\n      swap1\n      pop\n        /* \"#utility.yul\":3867:3876   */\n      dup2\n        /* \"#utility.yul\":3861:3865   */\n      dup2\n        /* \"#utility.yul\":3857:3877   */\n      sub\n        /* \"#utility.yul\":3853:3854   */\n      0x00\n        /* \"#utility.yul\":3842:3851   */\n      dup4\n        /* \"#utility.yul\":3838:3855   */\n      add\n        /* \"#utility.yul\":3831:3878   */\n      mstore\n        /* \"#utility.yul\":3895:4026   */\n      tag_153\n        /* \"#utility.yul\":4021:4025   */\n      dup2\n        /* \"#utility.yul\":3895:4026   */\n      tag_124\n      jump\t// in\n    tag_153:\n        /* \"#utility.yul\":3887:4026   */\n      swap1\n      pop\n        /* \"#utility.yul\":3614:4033   */\n      swap2\n      swap1\n      pop\n      jump\t// out\n        /* \"#utility.yul\":4039:4458   */\n    tag_72:\n        /* \"#utility.yul\":4205:4209   */\n      0x00\n        /* \"#utility.yul\":4243:4245   */\n      0x20\n        /* \"#utility.yul\":4232:4241   */\n      dup3\n        /* \"#utility.yul\":4228:4246   */\n      add\n        /* \"#utility.yul\":4220:4246   */\n      swap1\n      pop\n        /* \"#utility.yul\":4292:4301   */\n      dup2\n        /* \"#utility.yul\":4286:4290   */\n      dup2\n        /* \"#utility.yul\":4282:4302   */\n      sub\n        /* \"#utility.yul\":4278:4279   */\n      0x00\n        /* \"#utility.yul\":4267:4276   */\n      dup4\n        /* \"#utility.yul\":4263:4280   */\n      add\n        /* \"#utility.yul\":4256:4303   */\n      mstore\n        /* \"#utility.yul\":4320:4451   */\n      tag_155\n        /* \"#utility.yul\":4446:4450   */\n      dup2\n        /* \"#utility.yul\":4320:4451   */\n      tag_130\n      jump\t// in\n    tag_155:\n        /* \"#utility.yul\":4312:4451   */\n      swap1\n      pop\n        /* \"#utility.yul\":4039:4458   */\n      swap2\n      swap1\n      pop\n      jump\t// out\n        /* \"#utility.yul\":4464:4702   */\n    tag_75:\n        /* \"#utility.yul\":4565:4569   */\n      0x00\n        /* \"#utility.yul\":4603:4605   */\n      0x20\n        /* \"#utility.yul\":4592:4601   */\n      dup3\n        /* \"#utility.yul\":4588:4606   */\n      add\n        /* \"#utility.yul\":4580:4606   */\n      swap1\n      pop\n        /* \"#utility.yul\":4616:4695   */\n      tag_157\n        /* \"#utility.yul\":4692:4693   */\n      0x00\n        /* \"#utility.yul\":4681:4690   */\n      dup4\n        /* \"#utility.yul\":4677:4694   */\n      add\n        /* \"#utility.yul\":4668:4674   */\n      dup5\n        /* \"#utility.yul\":4616:4695   */\n      tag_145\n      jump\t// in\n    tag_157:\n        /* \"#utility.yul\":4464:4702   */\n      swap3\n      swap2\n      pop\n      pop\n      jump\t// out\n        /* \"#utility.yul\":4708:4930   */\n    tag_14:\n        /* \"#utility.yul\":4801:4805   */\n      0x00\n        /* \"#utility.yul\":4839:4841   */\n      0x20\n        /* \"#utility.yul\":4828:4837   */\n      dup3\n        /* \"#utility.yul\":4824:4842   */\n      add\n        /* \"#utility.yul\":4816:4842   */\n      swap1\n      pop\n        /* \"#utility.yul\":4852:4923   */\n      tag_159\n        /* \"#utility.yul\":4920:4921   */\n      0x00\n        /* \"#utility.yul\":4909:4918   */\n      dup4\n        /* \"#utility.yul\":4905:4922   */\n      add\n        /* \"#utility.yul\":4896:4902   */\n      dup5\n        /* \"#utility.yul\":4852:4923   */\n      tag_141\n      jump\t// in\n    tag_159:\n        /* \"#utility.yul\":4708:4930   */\n      swap3\n      swap2\n      pop\n      pop\n      jump\t// out\n        /* \"#utility.yul\":5017:5164   */\n    tag_138:\n        /* \"#utility.yul\":5118:5129   */\n      0x00\n        /* \"#utility.yul\":5155:5158   */\n      dup2\n        /* \"#utility.yul\":5140:5158   */\n      swap1\n      pop\n        /* \"#utility.yul\":5017:5164   */\n      swap3\n      swap2\n      pop\n      pop\n      jump\t// out\n        /* \"#utility.yul\":5170:5339   */\n    tag_127:\n        /* \"#utility.yul\":5254:5265   */\n      0x00\n        /* \"#utility.yul\":5288:5294   */\n      dup3\n        /* \"#utility.yul\":5283:5286   */\n      dup3\n        /* \"#utility.yul\":5276:5295   */\n      mstore\n        /* \"#utility.yul\":5328:5332   */\n      0x20\n        /* \"#utility.yul\":5323:5326   */\n      dup3\n        /* \"#utility.yul\":5319:5333   */\n      add\n        /* \"#utility.yul\":5304:5333   */\n      swap1\n      pop\n        /* \"#utility.yul\":5170:5339   */\n      swap3\n      swap2\n      pop\n      pop\n      jump\t// out\n        /* \"#utility.yul\":5345:5650   */\n    tag_84:\n        /* \"#utility.yul\":5385:5388   */\n      0x00\n        /* \"#utility.yul\":5404:5424   */\n      tag_165\n        /* \"#utility.yul\":5422:5423   */\n      dup3\n        /* \"#utility.yul\":5404:5424   */\n      tag_144\n      jump\t// in\n    tag_165:\n        /* \"#utility.yul\":5399:5424   */\n      swap2\n      pop\n        /* \"#utility.yul\":5438:5458   */\n      tag_166\n        /* \"#utility.yul\":5456:5457   */\n      dup4\n        /* \"#utility.yul\":5438:5458   */\n      tag_144\n      jump\t// in\n    tag_166:\n        /* \"#utility.yul\":5433:5458   */\n      swap3\n      pop\n        /* \"#utility.yul\":5592:5593   */\n      dup3\n        /* \"#utility.yul\":5524:5590   */\n      0xffffffffffffffffffffffffffffffffffffffffffffffffffffffffffffffff\n        /* \"#utility.yul\":5520:5594   */\n      sub\n        /* \"#utility.yul\":5517:5518   */\n      dup3\n        /* \"#utility.yul\":5514:5595   */\n      gt\n        /* \"#utility.yul\":5511:5618   */\n      iszero\n      tag_167\n      jumpi\n        /* \"#utility.yul\":5598:5616   */\n      tag_168\n      tag_169\n      jump\t// in\n    tag_168:\n        /* \"#utility.yul\":5511:5618   */\n    tag_167:\n        /* \"#utility.yul\":5642:5643   */\n      dup3\n        /* \"#utility.yul\":5639:5640   */\n      dup3\n        /* \"#utility.yul\":5635:5644   */\n      add\n        /* \"#utility.yul\":5628:5644   */\n      swap1\n      pop\n        /* \"#utility.yul\":5345:5650   */\n      swap3\n      swap2\n      pop\n      pop\n      jump\t// out\n        /* \"#utility.yul\":5656:5752   */\n    tag_123:\n        /* \"#utility.yul\":5693:5700   */\n      0x00\n        /* \"#utility.yul\":5722:5746   */\n      tag_171\n        /* \"#utility.yul\":5740:5745   */\n      dup3\n        /* \"#utility.yul\":5722:5746   */\n      tag_172\n      jump\t// in\n    tag_171:\n        /* \"#utility.yul\":5711:5746   */\n      swap1\n      pop\n        /* \"#utility.yul\":5656:5752   */\n      swap2\n      swap1\n      pop\n      jump\t// out\n        /* \"#utility.yul\":5758:5884   */\n    tag_172:\n        /* \"#utility.yul\":5795:5802   */\n      0x00\n        /* \"#utility.yul\":5835:5877   */\n      0xffffffffffffffffffffffffffffffffffffffff\n        /* \"#utility.yul\":5828:5833   */\n      dup3\n        /* \"#utility.yul\":5824:5878   */\n      and\n        /* \"#utility.yul\":5813:5878   */\n      swap1\n      pop\n        /* \"#utility.yul\":5758:5884   */\n      swap2\n      swap1\n      pop\n      jump\t// out\n        /* \"#utility.yul\":5890:5967   */\n    tag_144:\n        /* \"#utility.yul\":5927:5934   */\n      0x00\n        /* \"#utility.yul\":5956:5961   */\n      dup2\n        /* \"#utility.yul\":5945:5961   */\n      swap1\n      pop\n        /* \"#utility.yul\":5890:5967   */\n      swap2\n      swap1\n      pop\n      jump\t// out\n        /* \"#utility.yul\":5973:6206   */\n    tag_58:\n        /* \"#utility.yul\":6012:6015   */\n      0x00\n        /* \"#utility.yul\":6035:6059   */\n      tag_176\n        /* \"#utility.yul\":6053:6058   */\n      dup3\n        /* \"#utility.yul\":6035:6059   */\n      tag_144\n      jump\t// in\n    tag_176:\n        /* \"#utility.yul\":6026:6059   */\n      swap2\n      pop\n        /* \"#utility.yul\":6081:6147   */\n      0xffffffffffffffffffffffffffffffffffffffffffffffffffffffffffffffff\n        /* \"#utility.yul\":6074:6079   */\n      dup3\n        /* \"#utility.yul\":6071:6148   */\n      eq\n        /* \"#utility.yul\":6068:6171   */\n      iszero\n      tag_177\n      jumpi\n        /* \"#utility.yul\":6151:6169   */\n      tag_178\n      tag_169\n      jump\t// in\n    tag_178:\n        /* \"#utility.yul\":6068:6171   */\n    tag_177:\n        /* \"#utility.yul\":6198:6199   */\n      0x01\n        /* \"#utility.yul\":6191:6196   */\n      dup3\n        /* \"#utility.yul\":6187:6200   */\n      add\n        /* \"#utility.yul\":6180:6200   */\n      swap1\n      pop\n        /* \"#utility.yul\":5973:6206   */\n      swap2\n      swap1\n      pop\n      jump\t// out\n        /* \"#utility.yul\":6212:6392   */\n    tag_169:\n        /* \"#utility.yul\":6260:6337   */\n      0x4e487b7100000000000000000000000000000000000000000000000000000000\n        /* \"#utility.yul\":6257:6258   */\n      0x00\n        /* \"#utility.yul\":6250:6338   */\n      mstore\n        /* \"#utility.yul\":6357:6361   */\n      0x11\n        /* \"#utility.yul\":6354:6355   */\n      0x04\n        /* \"#utility.yul\":6347:6362   */\n      mstore\n        /* \"#utility.yul\":6381:6385   */\n      0x24\n        /* \"#utility.yul\":6378:6379   */\n      0x00\n        /* \"#utility.yul\":6371:6386   */\n      revert\n        /* \"#utility.yul\":6398:6578   */\n    tag_55:\n        /* \"#utility.yul\":6446:6523   */\n      0x4e487b7100000000000000000000000000000000000000000000000000000000\n        /* \"#utility.yul\":6443:6444   */\n      0x00\n        /* \"#utility.yul\":6436:6524   */\n      mstore\n        /* \"#utility.yul\":6543:6547   */\n      0x32\n        /* \"#utility.yul\":6540:6541   */\n      0x04\n        /* \"#utility.yul\":6533:6548   */\n      mstore\n        /* \"#utility.yul\":6567:6571   */\n      0x24\n        /* \"#utility.yul\":6564:6565   */\n      0x00\n        /* \"#utility.yul\":6557:6572   */\n      revert\n        /* \"#utility.yul\":6584:6764   */\n    tag_61:\n        /* \"#utility.yul\":6632:6709   */\n      0x4e487b7100000000000000000000000000000000000000000000000000000000\n        /* \"#utility.yul\":6629:6630   */\n      0x00\n        /* \"#utility.yul\":6622:6710   */\n      mstore\n        /* \"#utility.yul\":6729:6733   */\n      0x41\n        /* \"#utility.yul\":6726:6727   */\n      0x04\n        /* \"#utility.yul\":6719:6734   */\n      mstore\n        /* \"#utility.yul\":6753:6757   */\n      0x24\n        /* \"#utility.yul\":6750:6751   */\n      0x00\n        /* \"#utility.yul\":6743:6758   */\n      revert\n        /* \"#utility.yul\":6893:7010   */\n    tag_110:\n        /* \"#utility.yul\":7002:7003   */\n      0x00\n        /* \"#utility.yul\":6999:7000   */\n      dup1\n        /* \"#utility.yul\":6992:7004   */\n      revert\n        /* \"#utility.yul\":7016:7193   */\n    tag_129:\n        /* \"#utility.yul\":7156:7185   */\n      0x596f75206e65656420746f207370656e64206d6f726520455448210000000000\n        /* \"#utility.yul\":7152:7153   */\n      0x00\n        /* \"#utility.yul\":7144:7150   */\n      dup3\n        /* \"#utility.yul\":7140:7154   */\n      add\n        /* \"#utility.yul\":7133:7186   */\n      mstore\n        /* \"#utility.yul\":7016:7193   */\n      pop\n      jump\t// out\n        /* \"#utility.yul\":7199:7424   */\n    tag_134:\n        /* \"#utility.yul\":7339:7373   */\n      0x596f7520646f6e2774206861766520656e6f7567682045544820746f20776974\n        /* \"#utility.yul\":7335:7336   */\n      0x00\n        /* \"#utility.yul\":7327:7333   */\n      dup3\n        /* \"#utility.yul\":7323:7337   */\n      add\n        /* \"#utility.yul\":7316:7374   */\n      mstore\n        /* \"#utility.yul\":7408:7416   */\n      0x6864726177210000000000000000000000000000000000000000000000000000\n        /* \"#utility.yul\":7403:7405   */\n      0x20\n        /* \"#utility.yul\":7395:7401   */\n      dup3\n        /* \"#utility.yul\":7391:7406   */\n      add\n        /* \"#utility.yul\":7384:7417   */\n      mstore\n        /* \"#utility.yul\":7199:7424   */\n      pop\n      jump\t// out\n        /* \"#utility.yul\":7430:7544   */\n    tag_140:\n      pop\n      jump\t// out\n        /* \"#utility.yul\":7550:7672   */\n    tag_99:\n        /* \"#utility.yul\":7623:7647   */\n      tag_189\n        /* \"#utility.yul\":7641:7646   */\n      dup2\n        /* \"#utility.yul\":7623:7647   */\n      tag_123\n      jump\t// in\n    tag_189:\n        /* \"#utility.yul\":7616:7621   */\n      dup2\n        /* \"#utility.yul\":7613:7648   */\n      eq\n        /* \"#utility.yul\":7603:7666   */\n      tag_190\n      jumpi\n        /* \"#utility.yul\":7662:7663   */\n      0x00\n        /* \"#utility.yul\":7659:7660   */\n      dup1\n        /* \"#utility.yul\":7652:7664   */\n      revert\n        /* \"#utility.yul\":7603:7666   */\n    tag_190:\n        /* \"#utility.yul\":7550:7672   */\n      pop\n      jump\t// out\n        /* \"#utility.yul\":7678:7800   */\n    tag_103:\n        /* \"#utility.yul\":7751:7775   */\n      tag_192\n        /* \"#utility.yul\":7769:7774   */\n      dup2\n        /* \"#utility.yul\":7751:7775   */\n      tag_144\n      jump\t// in\n    tag_192:\n        /* \"#utility.yul\":7744:7749   */\n      dup2\n        /* \"#utility.yul\":7741:7776   */\n      eq\n        /* \"#utility.yul\":7731:7794   */\n      tag_193\n      jumpi\n        /* \"#utility.yul\":7790:7791   */\n      0x00\n        /* \"#utility.yul\":7787:7788   */\n      dup1\n        /* \"#utility.yul\":7780:7792   */\n      revert\n        /* \"#utility.yul\":7731:7794   */\n    tag_193:\n        /* \"#utility.yul\":7678:7800   */\n      pop\n      jump\t// out\n\n    auxdata: 0xa2646970667358221220efd647f0979c030ead324df9b41808129471d6a543df73f43dfff76292fee1d864736f6c63430008070033\n}\n",
				"bytecode": {
					"linkReferences": {
						"fund-me/PriceConverter.sol": {
							"PriceConverter": [
								{
									"length": 20,
									"start": 1239
								}
							]
						}
					},
					"object": "608060405234801561001057600080fd5b5033600260006101000a81548173ffffffffffffffffffffffffffffffffffffffff021916908373ffffffffffffffffffffffffffffffffffffffff160217905550610b6d806100616000396000f3fe6080604052600436106100705760003560e01c80636b69a5921161004e5780636b69a592146100f4578063b60d42881461011f578063dba6335f14610129578063dc0d3dff1461015457610070565b80630d8e6e2c146100755780633e47d6f3146100a057806352b50a2a146100dd575b600080fd5b34801561008157600080fd5b5061008a610191565b60405161009791906108ea565b60405180910390f35b3480156100ac57600080fd5b506100c760048036038101906100c29190610742565b61022f565b6040516100d491906108ea565b60405180910390f35b3480156100e957600080fd5b506100f2610247565b005b34801561010057600080fd5b5061010961045c565b60405161011691906108ea565b60405180910390f35b610127610469565b005b34801561013557600080fd5b5061013e6105f7565b60405161014b9190610874565b60405180910390f35b34801561016057600080fd5b5061017b6004803603810190610176919061076f565b61061d565b6040516101889190610874565b60405180910390f35b600080738a753747a1fa494ec906ce90e9f37563a8af630e90508073ffffffffffffffffffffffffffffffffffffffff166354fd4d506040518163ffffffff1660e01b815260040160206040518083038186803b1580156101f157600080fd5b505afa158015610205573d6000803e3d6000fd5b505050506040513d601f19601f82011682018060405250810190610229919061079c565b91505090565b60006020528060005260406000206000915090505481565b600260009054906101000a900473ffffffffffffffffffffffffffffffffffffffff1673ffffffffffffffffffffffffffffffffffffffff163373ffffffffffffffffffffffffffffffffffffffff16146102a157600080fd5b60005b60018054905081101561034c576000600182815481106102c7576102c6610a2b565b5b9060005260206000200160009054906101000a900473ffffffffffffffffffffffffffffffffffffffff16905060008060008373ffffffffffffffffffffffffffffffffffffffff1673ffffffffffffffffffffffffffffffffffffffff16815260200190815260200160002081905550508080610344906109b3565b9150506102a4565b50600067ffffffffffffffff81111561036857610367610a5a565b5b6040519080825280602002602001820160405280156103965781602001602082028036833780820191505090505b50600190805190602001906103ac92919061065c565b5060003373ffffffffffffffffffffffffffffffffffffffff16476040516103d39061085f565b60006040518083038185875af1925050503d8060008114610410576040519150601f19603f3d011682016040523d82523d6000602084013e610415565b606091505b5050905080610459576040517f08c379a0000000000000000000000000000000000000000000000000000000008152600401610450906108af565b60405180910390fd5b50565b6802b5e3af16b188000081565b6802b5e3af16b18800003473__$a373779b3d3f473685bf3bd21cb23b514e$__636e5b6b2890916040518263ffffffff1660e01b81526004016104ac91906108cf565b60206040518083038186803b1580156104c457600080fd5b505af41580156104d8573d6000803e3d6000fd5b505050506040513d601f19601f820116820180604052508101906104fc919061079c565b101561053d576040517f08c379a00000000000000000000000000000000000000000000000000000000081526004016105349061088f565b60405180910390fd5b346000803373ffffffffffffffffffffffffffffffffffffffff1673ffffffffffffffffffffffffffffffffffffffff168152602001908152602001600020600082825461058b9190610921565b925050819055506001339080600181540180825580915050600190039060005260206000200160009091909190916101000a81548173ffffffffffffffffffffffffffffffffffffffff021916908373ffffffffffffffffffffffffffffffffffffffff160217905550565b600260009054906101000a900473ffffffffffffffffffffffffffffffffffffffff1681565b6001818154811061062d57600080fd5b906000526020600020016000915054906101000a900473ffffffffffffffffffffffffffffffffffffffff1681565b8280548282559060005260206000209081019282156106d5579160200282015b828111156106d45782518260006101000a81548173ffffffffffffffffffffffffffffffffffffffff021916908373ffffffffffffffffffffffffffffffffffffffff1602179055509160200191906001019061067c565b5b5090506106e291906106e6565b5090565b5b808211156106ff5760008160009055506001016106e7565b5090565b60008135905061071281610b09565b92915050565b60008135905061072781610b20565b92915050565b60008151905061073c81610b20565b92915050565b60006020828403121561075857610757610a89565b5b600061076684828501610703565b91505092915050565b60006020828403121561078557610784610a89565b5b600061079384828501610718565b91505092915050565b6000602082840312156107b2576107b1610a89565b5b60006107c08482850161072d565b91505092915050565b6107d281610977565b82525050565b60006107e5601b83610910565b91506107f082610a8e565b602082019050919050565b6000610808602683610910565b915061081382610ab7565b604082019050919050565b600061082b600083610905565b915061083682610b06565b600082019050919050565b61084a816109a9565b82525050565b610859816109a9565b82525050565b600061086a8261081e565b9150819050919050565b600060208201905061088960008301846107c9565b92915050565b600060208201905081810360008301526108a8816107d8565b9050919050565b600060208201905081810360008301526108c8816107fb565b9050919050565b60006020820190506108e46000830184610850565b92915050565b60006020820190506108ff6000830184610841565b92915050565b600081905092915050565b600082825260208201905092915050565b600061092c826109a9565b9150610937836109a9565b9250827fffffffffffffffffffffffffffffffffffffffffffffffffffffffffffffffff0382111561096c5761096b6109fc565b5b828201905092915050565b600061098282610989565b9050919050565b600073ffffffffffffffffffffffffffffffffffffffff82169050919050565b6000819050919050565b60006109be826109a9565b91507fffffffffffffffffffffffffffffffffffffffffffffffffffffffffffffffff8214156109f1576109f06109fc565b5b600182019050919050565b7f4e487b7100000000000000000000000000000000000000000000000000000000600052601160045260246000fd5b7f4e487b7100000000000000000000000000000000000000000000000000000000600052603260045260246000fd5b7f4e487b7100000000000000000000000000000000000000000000000000000000600052604160045260246000fd5b600080fd5b7f596f75206e65656420746f207370656e64206d6f726520455448210000000000600082015250565b7f596f7520646f6e2774206861766520656e6f7567682045544820746f2077697460008201527f6864726177210000000000000000000000000000000000000000000000000000602082015250565b50565b610b1281610977565b8114610b1d57600080fd5b50565b610b29816109a9565b8114610b3457600080fd5b5056fea2646970667358221220efd647f0979c030ead324df9b41808129471d6a543df73f43dfff76292fee1d864736f6c63430008070033",
					"opcodes": "PUSH1 0x80 PUSH1 0x40 MSTORE CALLVALUE DUP1 ISZERO PUSH2 0x10 JUMPI PUSH1 0x0 DUP1 REVERT JUMPDEST POP CALLER PUSH1 0x2 PUSH1 0x0 PUSH2 0x100 EXP DUP2 SLOAD DUP2 PUSH20 0xFFFFFFFFFFFFFFFFFFFFFFFFFFFFFFFFFFFFFFFF MUL NOT AND SWAP1 DUP4 PUSH20 0xFFFFFFFFFFFFFFFFFFFFFFFFFFFFFFFFFFFFFFFF AND MUL OR SWAP1 SSTORE POP PUSH2 0xB6D DUP1 PUSH2 0x61 PUSH1 0x0 CODECOPY PUSH1 0x0 RETURN INVALID PUSH1 0x80 PUSH1 0x40 MSTORE PUSH1 0x4 CALLDATASIZE LT PUSH2 0x70 JUMPI PUSH1 0x0 CALLDATALOAD PUSH1 0xE0 SHR DUP1 PUSH4 0x6B69A592 GT PUSH2 0x4E JUMPI DUP1 PUSH4 0x6B69A592 EQ PUSH2 0xF4 JUMPI DUP1 PUSH4 0xB60D4288 EQ PUSH2 0x11F JUMPI DUP1 PUSH4 0xDBA6335F EQ PUSH2 0x129 JUMPI DUP1 PUSH4 0xDC0D3DFF EQ PUSH2 0x154 JUMPI PUSH2 0x70 JUMP JUMPDEST DUP1 PUSH4 0xD8E6E2C EQ PUSH2 0x75 JUMPI DUP1 PUSH4 0x3E47D6F3 EQ PUSH2 0xA0 JUMPI DUP1 PUSH4 0x52B50A2A EQ PUSH2 0xDD JUMPI JUMPDEST PUSH1 0x0 DUP1 REVERT JUMPDEST CALLVALUE DUP1 ISZERO PUSH2 0x81 JUMPI PUSH1 0x0 DUP1 REVERT JUMPDEST POP PUSH2 0x8A PUSH2 0x191 JUMP JUMPDEST PUSH1 0x40 MLOAD PUSH2 0x97 SWAP2 SWAP1 PUSH2 0x8EA JUMP JUMPDEST PUSH1 0x40 MLOAD DUP1 SWAP2 SUB SWAP1 RETURN JUMPDEST CALLVALUE DUP1 ISZERO PUSH2 0xAC JUMPI PUSH1 0x0 DUP1 REVERT JUMPDEST POP PUSH2 0xC7 PUSH1 0x4 DUP1 CALLDATASIZE SUB DUP2 ADD SWAP1 PUSH2 0xC2 SWAP2 SWAP1 PUSH2 0x742 JUMP JUMPDEST PUSH2 0x22F JUMP JUMPDEST PUSH1 0x40 MLOAD PUSH2 0xD4 SWAP2 SWAP1 PUSH2 0x8EA JUMP JUMPDEST PUSH1 0x40 MLOAD DUP1 SWAP2 SUB SWAP1 RETURN JUMPDEST CALLVALUE DUP1 ISZERO PUSH2 0xE9 JUMPI PUSH1 0x0 DUP1 REVERT JUMPDEST POP PUSH2 0xF2 PUSH2 0x247 JUMP JUMPDEST STOP JUMPDEST CALLVALUE DUP1 ISZERO PUSH2 0x100 JUMPI PUSH1 0x0 DUP1 REVERT JUMPDEST POP PUSH2 0x109 PUSH2 0x45C JUMP JUMPDEST PUSH1 0x40 MLOAD PUSH2 0x116 SWAP2 SWAP1 PUSH2 0x8EA JUMP JUMPDEST PUSH1 0x40 MLOAD DUP1 SWAP2 SUB SWAP1 RETURN JUMPDEST PUSH2 0x127 PUSH2 0x469 JUMP JUMPDEST STOP JUMPDEST CALLVALUE DUP1 ISZERO PUSH2 0x135 JUMPI PUSH1 0x0 DUP1 REVERT JUMPDEST POP PUSH2 0x13E PUSH2 0x5F7 JUMP JUMPDEST PUSH1 0x40 MLOAD PUSH2 0x14B SWAP2 SWAP1 PUSH2 0x874 JUMP JUMPDEST PUSH1 0x40 MLOAD DUP1 SWAP2 SUB SWAP1 RETURN JUMPDEST CALLVALUE DUP1 ISZERO PUSH2 0x160 JUMPI PUSH1 0x0 DUP1 REVERT JUMPDEST POP PUSH2 0x17B PUSH1 0x4 DUP1 CALLDATASIZE SUB DUP2 ADD SWAP1 PUSH2 0x176 SWAP2 SWAP1 PUSH2 0x76F JUMP JUMPDEST PUSH2 0x61D JUMP JUMPDEST PUSH1 0x40 MLOAD PUSH2 0x188 SWAP2 SWAP1 PUSH2 0x874 JUMP JUMPDEST PUSH1 0x40 MLOAD DUP1 SWAP2 SUB SWAP1 RETURN JUMPDEST PUSH1 0x0 DUP1 PUSH20 0x8A753747A1FA494EC906CE90E9F37563A8AF630E SWAP1 POP DUP1 PUSH20 0xFFFFFFFFFFFFFFFFFFFFFFFFFFFFFFFFFFFFFFFF AND PUSH4 0x54FD4D50 PUSH1 0x40 MLOAD DUP2 PUSH4 0xFFFFFFFF AND PUSH1 0xE0 SHL DUP2 MSTORE PUSH1 0x4 ADD PUSH1 0x20 PUSH1 0x40 MLOAD DUP1 DUP4 SUB DUP2 DUP7 DUP1 EXTCODESIZE ISZERO DUP1 ISZERO PUSH2 0x1F1 JUMPI PUSH1 0x0 DUP1 REVERT JUMPDEST POP GAS STATICCALL ISZERO DUP1 ISZERO PUSH2 0x205 JUMPI RETURNDATASIZE PUSH1 0x0 DUP1 RETURNDATACOPY RETURNDATASIZE PUSH1 0x0 REVERT JUMPDEST POP POP POP POP PUSH1 0x40 MLOAD RETURNDATASIZE PUSH1 0x1F NOT PUSH1 0x1F DUP3 ADD AND DUP3 ADD DUP1 PUSH1 0x40 MSTORE POP DUP2 ADD SWAP1 PUSH2 0x229 SWAP2 SWAP1 PUSH2 0x79C JUMP JUMPDEST SWAP2 POP POP SWAP1 JUMP JUMPDEST PUSH1 0x0 PUSH1 0x20 MSTORE DUP1 PUSH1 0x0 MSTORE PUSH1 0x40 PUSH1 0x0 KECCAK256 PUSH1 0x0 SWAP2 POP SWAP1 POP SLOAD DUP2 JUMP JUMPDEST PUSH1 0x2 PUSH1 0x0 SWAP1 SLOAD SWAP1 PUSH2 0x100 EXP SWAP1 DIV PUSH20 0xFFFFFFFFFFFFFFFFFFFFFFFFFFFFFFFFFFFFFFFF AND PUSH20 0xFFFFFFFFFFFFFFFFFFFFFFFFFFFFFFFFFFFFFFFF AND CALLER PUSH20 0xFFFFFFFFFFFFFFFFFFFFFFFFFFFFFFFFFFFFFFFF AND EQ PUSH2 0x2A1 JUMPI PUSH1 0x0 DUP1 REVERT JUMPDEST PUSH1 0x0 JUMPDEST PUSH1 0x1 DUP1 SLOAD SWAP1 POP DUP2 LT ISZERO PUSH2 0x34C JUMPI PUSH1 0x0 PUSH1 0x1 DUP3 DUP2 SLOAD DUP2 LT PUSH2 0x2C7 JUMPI PUSH2 0x2C6 PUSH2 0xA2B JUMP JUMPDEST JUMPDEST SWAP1 PUSH1 0x0 MSTORE PUSH1 0x20 PUSH1 0x0 KECCAK256 ADD PUSH1 0x0 SWAP1 SLOAD SWAP1 PUSH2 0x100 EXP SWAP1 DIV PUSH20 0xFFFFFFFFFFFFFFFFFFFFFFFFFFFFFFFFFFFFFFFF AND SWAP1 POP PUSH1 0x0 DUP1 PUSH1 0x0 DUP4 PUSH20 0xFFFFFFFFFFFFFFFFFFFFFFFFFFFFFFFFFFFFFFFF AND PUSH20 0xFFFFFFFFFFFFFFFFFFFFFFFFFFFFFFFFFFFFFFFF AND DUP2 MSTORE PUSH1 0x20 ADD SWAP1 DUP2 MSTORE PUSH1 0x20 ADD PUSH1 0x0 KECCAK256 DUP2 SWAP1 SSTORE POP POP DUP1 DUP1 PUSH2 0x344 SWAP1 PUSH2 0x9B3 JUMP JUMPDEST SWAP2 POP POP PUSH2 0x2A4 JUMP JUMPDEST POP PUSH1 0x0 PUSH8 0xFFFFFFFFFFFFFFFF DUP2 GT ISZERO PUSH2 0x368 JUMPI PUSH2 0x367 PUSH2 0xA5A JUMP JUMPDEST JUMPDEST PUSH1 0x40 MLOAD SWAP1 DUP1 DUP3 MSTORE DUP1 PUSH1 0x20 MUL PUSH1 0x20 ADD DUP3 ADD PUSH1 0x40 MSTORE DUP1 ISZERO PUSH2 0x396 JUMPI DUP2 PUSH1 0x20 ADD PUSH1 0x20 DUP3 MUL DUP1 CALLDATASIZE DUP4 CALLDATACOPY DUP1 DUP3 ADD SWAP2 POP POP SWAP1 POP JUMPDEST POP PUSH1 0x1 SWAP1 DUP1 MLOAD SWAP1 PUSH1 0x20 ADD SWAP1 PUSH2 0x3AC SWAP3 SWAP2 SWAP1 PUSH2 0x65C JUMP JUMPDEST POP PUSH1 0x0 CALLER PUSH20 0xFFFFFFFFFFFFFFFFFFFFFFFFFFFFFFFFFFFFFFFF AND SELFBALANCE PUSH1 0x40 MLOAD PUSH2 0x3D3 SWAP1 PUSH2 0x85F JUMP JUMPDEST PUSH1 0x0 PUSH1 0x40 MLOAD DUP1 DUP4 SUB DUP2 DUP6 DUP8 GAS CALL SWAP3 POP POP POP RETURNDATASIZE DUP1 PUSH1 0x0 DUP2 EQ PUSH2 0x410 JUMPI PUSH1 0x40 MLOAD SWAP2 POP PUSH1 0x1F NOT PUSH1 0x3F RETURNDATASIZE ADD AND DUP3 ADD PUSH1 0x40 MSTORE RETURNDATASIZE DUP3 MSTORE RETURNDATASIZE PUSH1 0x0 PUSH1 0x20 DUP5 ADD RETURNDATACOPY PUSH2 0x415 JUMP JUMPDEST PUSH1 0x60 SWAP2 POP JUMPDEST POP POP SWAP1 POP DUP1 PUSH2 0x459 JUMPI PUSH1 0x40 MLOAD PUSH32 0x8C379A000000000000000000000000000000000000000000000000000000000 DUP2 MSTORE PUSH1 0x4 ADD PUSH2 0x450 SWAP1 PUSH2 0x8AF JUMP JUMPDEST PUSH1 0x40 MLOAD DUP1 SWAP2 SUB SWAP1 REVERT JUMPDEST POP JUMP JUMPDEST PUSH9 0x2B5E3AF16B1880000 DUP2 JUMP JUMPDEST PUSH9 0x2B5E3AF16B1880000 CALLVALUE PUSH20 0x0 PUSH4 0x6E5B6B28 SWAP1 SWAP2 PUSH1 0x40 MLOAD DUP3 PUSH4 0xFFFFFFFF AND PUSH1 0xE0 SHL DUP2 MSTORE PUSH1 0x4 ADD PUSH2 0x4AC SWAP2 SWAP1 PUSH2 0x8CF JUMP JUMPDEST PUSH1 0x20 PUSH1 0x40 MLOAD DUP1 DUP4 SUB DUP2 DUP7 DUP1 EXTCODESIZE ISZERO DUP1 ISZERO PUSH2 0x4C4 JUMPI PUSH1 0x0 DUP1 REVERT JUMPDEST POP GAS DELEGATECALL ISZERO DUP1 ISZERO PUSH2 0x4D8 JUMPI RETURNDATASIZE PUSH1 0x0 DUP1 RETURNDATACOPY RETURNDATASIZE PUSH1 0x0 REVERT JUMPDEST POP POP POP POP PUSH1 0x40 MLOAD RETURNDATASIZE PUSH1 0x1F NOT PUSH1 0x1F DUP3 ADD AND DUP3 ADD DUP1 PUSH1 0x40 MSTORE POP DUP2 ADD SWAP1 PUSH2 0x4FC SWAP2 SWAP1 PUSH2 0x79C JUMP JUMPDEST LT ISZERO PUSH2 0x53D JUMPI PUSH1 0x40 MLOAD PUSH32 0x8C379A000000000000000000000000000000000000000000000000000000000 DUP2 MSTORE PUSH1 0x4 ADD PUSH2 0x534 SWAP1 PUSH2 0x88F JUMP JUMPDEST PUSH1 0x40 MLOAD DUP1 SWAP2 SUB SWAP1 REVERT JUMPDEST CALLVALUE PUSH1 0x0 DUP1 CALLER PUSH20 0xFFFFFFFFFFFFFFFFFFFFFFFFFFFFFFFFFFFFFFFF AND PUSH20 0xFFFFFFFFFFFFFFFFFFFFFFFFFFFFFFFFFFFFFFFF AND DUP2 MSTORE PUSH1 0x20 ADD SWAP1 DUP2 MSTORE PUSH1 0x20 ADD PUSH1 0x0 KECCAK256 PUSH1 0x0 DUP3 DUP3 SLOAD PUSH2 0x58B SWAP2 SWAP1 PUSH2 0x921 JUMP JUMPDEST SWAP3 POP POP DUP2 SWAP1 SSTORE POP PUSH1 0x1 CALLER SWAP1 DUP1 PUSH1 0x1 DUP2 SLOAD ADD DUP1 DUP3 SSTORE DUP1 SWAP2 POP POP PUSH1 0x1 SWAP1 SUB SWAP1 PUSH1 0x0 MSTORE PUSH1 0x20 PUSH1 0x0 KECCAK256 ADD PUSH1 0x0 SWAP1 SWAP2 SWAP1 SWAP2 SWAP1 SWAP2 PUSH2 0x100 EXP DUP2 SLOAD DUP2 PUSH20 0xFFFFFFFFFFFFFFFFFFFFFFFFFFFFFFFFFFFFFFFF MUL NOT AND SWAP1 DUP4 PUSH20 0xFFFFFFFFFFFFFFFFFFFFFFFFFFFFFFFFFFFFFFFF AND MUL OR SWAP1 SSTORE POP JUMP JUMPDEST PUSH1 0x2 PUSH1 0x0 SWAP1 SLOAD SWAP1 PUSH2 0x100 EXP SWAP1 DIV PUSH20 0xFFFFFFFFFFFFFFFFFFFFFFFFFFFFFFFFFFFFFFFF AND DUP2 JUMP JUMPDEST PUSH1 0x1 DUP2 DUP2 SLOAD DUP2 LT PUSH2 0x62D JUMPI PUSH1 0x0 DUP1 REVERT JUMPDEST SWAP1 PUSH1 0x0 MSTORE PUSH1 0x20 PUSH1 0x0 KECCAK256 ADD PUSH1 0x0 SWAP2 POP SLOAD SWAP1 PUSH2 0x100 EXP SWAP1 DIV PUSH20 0xFFFFFFFFFFFFFFFFFFFFFFFFFFFFFFFFFFFFFFFF AND DUP2 JUMP JUMPDEST DUP3 DUP1 SLOAD DUP3 DUP3 SSTORE SWAP1 PUSH1 0x0 MSTORE PUSH1 0x20 PUSH1 0x0 KECCAK256 SWAP1 DUP2 ADD SWAP3 DUP3 ISZERO PUSH2 0x6D5 JUMPI SWAP2 PUSH1 0x20 MUL DUP3 ADD JUMPDEST DUP3 DUP2 GT ISZERO PUSH2 0x6D4 JUMPI DUP3 MLOAD DUP3 PUSH1 0x0 PUSH2 0x100 EXP DUP2 SLOAD DUP2 PUSH20 0xFFFFFFFFFFFFFFFFFFFFFFFFFFFFFFFFFFFFFFFF MUL NOT AND SWAP1 DUP4 PUSH20 0xFFFFFFFFFFFFFFFFFFFFFFFFFFFFFFFFFFFFFFFF AND MUL OR SWAP1 SSTORE POP SWAP2 PUSH1 0x20 ADD SWAP2 SWAP1 PUSH1 0x1 ADD SWAP1 PUSH2 0x67C JUMP JUMPDEST JUMPDEST POP SWAP1 POP PUSH2 0x6E2 SWAP2 SWAP1 PUSH2 0x6E6 JUMP JUMPDEST POP SWAP1 JUMP JUMPDEST JUMPDEST DUP1 DUP3 GT ISZERO PUSH2 0x6FF JUMPI PUSH1 0x0 DUP2 PUSH1 0x0 SWAP1 SSTORE POP PUSH1 0x1 ADD PUSH2 0x6E7 JUMP JUMPDEST POP SWAP1 JUMP JUMPDEST PUSH1 0x0 DUP2 CALLDATALOAD SWAP1 POP PUSH2 0x712 DUP2 PUSH2 0xB09 JUMP JUMPDEST SWAP3 SWAP2 POP POP JUMP JUMPDEST PUSH1 0x0 DUP2 CALLDATALOAD SWAP1 POP PUSH2 0x727 DUP2 PUSH2 0xB20 JUMP JUMPDEST SWAP3 SWAP2 POP POP JUMP JUMPDEST PUSH1 0x0 DUP2 MLOAD SWAP1 POP PUSH2 0x73C DUP2 PUSH2 0xB20 JUMP JUMPDEST SWAP3 SWAP2 POP POP JUMP JUMPDEST PUSH1 0x0 PUSH1 0x20 DUP3 DUP5 SUB SLT ISZERO PUSH2 0x758 JUMPI PUSH2 0x757 PUSH2 0xA89 JUMP JUMPDEST JUMPDEST PUSH1 0x0 PUSH2 0x766 DUP5 DUP3 DUP6 ADD PUSH2 0x703 JUMP JUMPDEST SWAP2 POP POP SWAP3 SWAP2 POP POP JUMP JUMPDEST PUSH1 0x0 PUSH1 0x20 DUP3 DUP5 SUB SLT ISZERO PUSH2 0x785 JUMPI PUSH2 0x784 PUSH2 0xA89 JUMP JUMPDEST JUMPDEST PUSH1 0x0 PUSH2 0x793 DUP5 DUP3 DUP6 ADD PUSH2 0x718 JUMP JUMPDEST SWAP2 POP POP SWAP3 SWAP2 POP POP JUMP JUMPDEST PUSH1 0x0 PUSH1 0x20 DUP3 DUP5 SUB SLT ISZERO PUSH2 0x7B2 JUMPI PUSH2 0x7B1 PUSH2 0xA89 JUMP JUMPDEST JUMPDEST PUSH1 0x0 PUSH2 0x7C0 DUP5 DUP3 DUP6 ADD PUSH2 0x72D JUMP JUMPDEST SWAP2 POP POP SWAP3 SWAP2 POP POP JUMP JUMPDEST PUSH2 0x7D2 DUP2 PUSH2 0x977 JUMP JUMPDEST DUP3 MSTORE POP POP JUMP JUMPDEST PUSH1 0x0 PUSH2 0x7E5 PUSH1 0x1B DUP4 PUSH2 0x910 JUMP JUMPDEST SWAP2 POP PUSH2 0x7F0 DUP3 PUSH2 0xA8E JUMP JUMPDEST PUSH1 0x20 DUP3 ADD SWAP1 POP SWAP2 SWAP1 POP JUMP JUMPDEST PUSH1 0x0 PUSH2 0x808 PUSH1 0x26 DUP4 PUSH2 0x910 JUMP JUMPDEST SWAP2 POP PUSH2 0x813 DUP3 PUSH2 0xAB7 JUMP JUMPDEST PUSH1 0x40 DUP3 ADD SWAP1 POP SWAP2 SWAP1 POP JUMP JUMPDEST PUSH1 0x0 PUSH2 0x82B PUSH1 0x0 DUP4 PUSH2 0x905 JUMP JUMPDEST SWAP2 POP PUSH2 0x836 DUP3 PUSH2 0xB06 JUMP JUMPDEST PUSH1 0x0 DUP3 ADD SWAP1 POP SWAP2 SWAP1 POP JUMP JUMPDEST PUSH2 0x84A DUP2 PUSH2 0x9A9 JUMP JUMPDEST DUP3 MSTORE POP POP JUMP JUMPDEST PUSH2 0x859 DUP2 PUSH2 0x9A9 JUMP JUMPDEST DUP3 MSTORE POP POP JUMP JUMPDEST PUSH1 0x0 PUSH2 0x86A DUP3 PUSH2 0x81E JUMP JUMPDEST SWAP2 POP DUP2 SWAP1 POP SWAP2 SWAP1 POP JUMP JUMPDEST PUSH1 0x0 PUSH1 0x20 DUP3 ADD SWAP1 POP PUSH2 0x889 PUSH1 0x0 DUP4 ADD DUP5 PUSH2 0x7C9 JUMP JUMPDEST SWAP3 SWAP2 POP POP JUMP JUMPDEST PUSH1 0x0 PUSH1 0x20 DUP3 ADD SWAP1 POP DUP2 DUP2 SUB PUSH1 0x0 DUP4 ADD MSTORE PUSH2 0x8A8 DUP2 PUSH2 0x7D8 JUMP JUMPDEST SWAP1 POP SWAP2 SWAP1 POP JUMP JUMPDEST PUSH1 0x0 PUSH1 0x20 DUP3 ADD SWAP1 POP DUP2 DUP2 SUB PUSH1 0x0 DUP4 ADD MSTORE PUSH2 0x8C8 DUP2 PUSH2 0x7FB JUMP JUMPDEST SWAP1 POP SWAP2 SWAP1 POP JUMP JUMPDEST PUSH1 0x0 PUSH1 0x20 DUP3 ADD SWAP1 POP PUSH2 0x8E4 PUSH1 0x0 DUP4 ADD DUP5 PUSH2 0x850 JUMP JUMPDEST SWAP3 SWAP2 POP POP JUMP JUMPDEST PUSH1 0x0 PUSH1 0x20 DUP3 ADD SWAP1 POP PUSH2 0x8FF PUSH1 0x0 DUP4 ADD DUP5 PUSH2 0x841 JUMP JUMPDEST SWAP3 SWAP2 POP POP JUMP JUMPDEST PUSH1 0x0 DUP2 SWAP1 POP SWAP3 SWAP2 POP POP JUMP JUMPDEST PUSH1 0x0 DUP3 DUP3 MSTORE PUSH1 0x20 DUP3 ADD SWAP1 POP SWAP3 SWAP2 POP POP JUMP JUMPDEST PUSH1 0x0 PUSH2 0x92C DUP3 PUSH2 0x9A9 JUMP JUMPDEST SWAP2 POP PUSH2 0x937 DUP4 PUSH2 0x9A9 JUMP JUMPDEST SWAP3 POP DUP3 PUSH32 0xFFFFFFFFFFFFFFFFFFFFFFFFFFFFFFFFFFFFFFFFFFFFFFFFFFFFFFFFFFFFFFFF SUB DUP3 GT ISZERO PUSH2 0x96C JUMPI PUSH2 0x96B PUSH2 0x9FC JUMP JUMPDEST JUMPDEST DUP3 DUP3 ADD SWAP1 POP SWAP3 SWAP2 POP POP JUMP JUMPDEST PUSH1 0x0 PUSH2 0x982 DUP3 PUSH2 0x989 JUMP JUMPDEST SWAP1 POP SWAP2 SWAP1 POP JUMP JUMPDEST PUSH1 0x0 PUSH20 0xFFFFFFFFFFFFFFFFFFFFFFFFFFFFFFFFFFFFFFFF DUP3 AND SWAP1 POP SWAP2 SWAP1 POP JUMP JUMPDEST PUSH1 0x0 DUP2 SWAP1 POP SWAP2 SWAP1 POP JUMP JUMPDEST PUSH1 0x0 PUSH2 0x9BE DUP3 PUSH2 0x9A9 JUMP JUMPDEST SWAP2 POP PUSH32 0xFFFFFFFFFFFFFFFFFFFFFFFFFFFFFFFFFFFFFFFFFFFFFFFFFFFFFFFFFFFFFFFF DUP3 EQ ISZERO PUSH2 0x9F1 JUMPI PUSH2 0x9F0 PUSH2 0x9FC JUMP JUMPDEST JUMPDEST PUSH1 0x1 DUP3 ADD SWAP1 POP SWAP2 SWAP1 POP JUMP JUMPDEST PUSH32 0x4E487B7100000000000000000000000000000000000000000000000000000000 PUSH1 0x0 MSTORE PUSH1 0x11 PUSH1 0x4 MSTORE PUSH1 0x24 PUSH1 0x0 REVERT JUMPDEST PUSH32 0x4E487B7100000000000000000000000000000000000000000000000000000000 PUSH1 0x0 MSTORE PUSH1 0x32 PUSH1 0x4 MSTORE PUSH1 0x24 PUSH1 0x0 REVERT JUMPDEST PUSH32 0x4E487B7100000000000000000000000000000000000000000000000000000000 PUSH1 0x0 MSTORE PUSH1 0x41 PUSH1 0x4 MSTORE PUSH1 0x24 PUSH1 0x0 REVERT JUMPDEST PUSH1 0x0 DUP1 REVERT JUMPDEST PUSH32 0x596F75206E65656420746F207370656E64206D6F726520455448210000000000 PUSH1 0x0 DUP3 ADD MSTORE POP JUMP JUMPDEST PUSH32 0x596F7520646F6E2774206861766520656E6F7567682045544820746F20776974 PUSH1 0x0 DUP3 ADD MSTORE PUSH32 0x6864726177210000000000000000000000000000000000000000000000000000 PUSH1 0x20 DUP3 ADD MSTORE POP JUMP JUMPDEST POP JUMP JUMPDEST PUSH2 0xB12 DUP2 PUSH2 0x977 JUMP JUMPDEST DUP2 EQ PUSH2 0xB1D JUMPI PUSH1 0x0 DUP1 REVERT JUMPDEST POP JUMP JUMPDEST PUSH2 0xB29 DUP2 PUSH2 0x9A9 JUMP JUMPDEST DUP2 EQ PUSH2 0xB34 JUMPI PUSH1 0x0 DUP1 REVERT JUMPDEST POP JUMP INVALID LOG2 PUSH5 0x6970667358 0x22 SLT KECCAK256 0xEF 0xD6 SELFBALANCE CREATE SWAP8 SWAP13 SUB 0xE 0xAD ORIGIN 0x4D 0xF9 0xB4 XOR ADDMOD SLT SWAP5 PUSH18 0xD6A543DF73F43DFFF76292FEE1D864736F6C PUSH4 0x43000807 STOP CALLER "
				},
				"gasEstimates": {
					"creation": {
						"codeDepositCost": "585000",
						"executionCost": "24885",
						"totalCost": "609885"
					},
					"external": {
						"MINIMUM_USD()": "329",
						"addressToAmountFunded(address)": "2837",
						"fund()": "infinite",
						"funders(uint256)": "5022",
						"getVersion()": "infinite",
						"i_owner()": "2558",
						"widthdraw()": "infinite"
					}
				},
				"methodIdentifiers": {
					"MINIMUM_USD()": "6b69a592",
					"addressToAmountFunded(address)": "3e47d6f3",
					"fund()": "b60d4288",
					"funders(uint256)": "dc0d3dff",
					"getVersion()": "0d8e6e2c",
					"i_owner()": "dba6335f",
					"widthdraw()": "52b50a2a"
				}
			},
			"storageLayout": {
				"storage": [
					{
						"astId": 56,
						"contract": "fund-me/FundMe.sol:FundMe",
						"label": "addressToAmountFunded",
						"offset": 0,
						"slot": "0",
						"type": "t_mapping(t_address,t_uint256)"
					},
					{
						"astId": 59,
						"contract": "fund-me/FundMe.sol:FundMe",
						"label": "funders",
						"offset": 0,
						"slot": "1",
						"type": "t_array(t_address)dyn_storage"
					},
					{
						"astId": 61,
						"contract": "fund-me/FundMe.sol:FundMe",
						"label": "i_owner",
						"offset": 0,
						"slot": "2",
						"type": "t_address"
					}
				],
				"types": {
					"t_address": {
						"encoding": "inplace",
						"label": "address",
						"numberOfBytes": "20"
					},
					"t_array(t_address)dyn_storage": {
						"base": "t_address",
						"encoding": "dynamic_array",
						"label": "address[]",
						"numberOfBytes": "32"
					},
					"t_mapping(t_address,t_uint256)": {
						"encoding": "mapping",
						"key": "t_address",
						"label": "mapping(address => uint256)",
						"numberOfBytes": "32",
						"value": "t_uint256"
					},
					"t_uint256": {
						"encoding": "inplace",
						"label": "uint256",
						"numberOfBytes": "32"
					}
				}
			},
			"userdoc": {
				"kind": "user",
				"methods": {},
				"version": 1
			}
		}
	}
}